:020000040000FA
:1000000080311328080001347E1480318B1D0928AB
:100010000A2811280B1C0D280E2811288931AF2120
:1000200080317E1009008031152880310320803115
:10003000FC00B830840088308500403086000130F4
:10004000870007308731FA278031A03084000030E4
:10005000850034308831A420803120308400013084
:10006000850020308831A42080317E10200082312C
:10007000B72A2000BD003008C4003108C50032088E
:10008000C6003308C7003408C8003508C900360860
:10009000CA003708CB004430860000308700473F55
:1000A000B800B81B542856280130572800302000CB
:1000B000B900BA013908C2003A08C3004208430433
:1000C0000319632864288228C409C509C609C70919
:1000D000C809C909CA09CB09C40A031D8228C50A6F
:1000E000031D8228C60A031D8228C70A031D822811
:1000F000C80A031D8228C90A031D8228CA0A031DD3
:100100008228CB0A2100A81B862887288B28FD304F
:10011000A905FF30AA052808803A2000B8008030E1
:100120003802031D96280130210027020318992860
:100130009A28A02801302000BE000030BF00A82867
:10014000210028082000BF00210027082000BE0051
:10015000210026082000C100210025082000C00041
:1001600042084304031DB528B628BB282100291DD9
:10017000BA28BB28C028FF302000C007FF30C13D8F
:100180001F302000CC000030CD002200BF013129FB
:10019000FF302000CC07FF30CD3D0A30A000A10188
:1001A000A201A301A401A501A601A7014408A8007A
:1001B0004508A9004608AA004708AB004808AC005B
:1001C0004908AD004A08AE004B08AF008431C12495
:1001D000803120002108F5002008F4008A31132224
:1001E00080317408303E2000B8004C08203E860064
:1001F0000130870038088100FF30BE07FF30BF3D67
:10020000FF30C007FF30C13D0A30A000A101A201AC
:10021000A301A401A501A601A7014408A80045085F
:10022000A9004608AA004708AB004808AC004908E6
:10023000AD004A08AE004B08AF008331C0238031C7
:1002400020002008C4002108C5002208C600230899
:10025000C7002408C8002508C9002608CA002708C6
:10026000CB0020004D08803AB80080303802031DD2
:100270003B2901304C02031C3E293F296C292000F8
:100280004408450446044704480449044A044B040E
:10029000031D4B294C29C8283F08803AB8008030FC
:1002A0003802031D552901303E02031858295929E7
:1002B000C82820004108803AB80080303802031D69
:1002C000632901304002031C662967296C2921003B
:1002D000A9186B296C29C828200042084304031D73
:1002E0007229732978292100291D772978299529D0
:1002F000FF302000CC07FF30CD3D42084304031DF2
:100300008229832988292B30BB000030BC008C292E
:100310002D30BB000030BC003B08B8004C08203E2C
:100320008600013087003808810020004C08203EFC
:10033000B8003808A7004108A9004008A8003D08F7
:100340008D314225803120002808B1002708B000F7
:1003500008002000DF004E0886008701403FD000E3
:10036000413FD10050088400510885001200253A11
:10037000031DBB29BC29932A4E0886008701013042
:10038000810741310318810A2100A501A601A901B5
:10039000AA01FF30A700FF30A80020004E08860009
:1003A0008701403FD000413FD100500884005108F0
:1003B00085001200643A0319DE29DF29F0294E086E
:1003C00086008701403FD000413FD10050088400A3
:1003D000510885001200693A031DEF29F0292B2AE4
:1003E0004E08860087010130810741310318810AD8
:1003F0004F088600870101088400850102308107CB
:10040000003FD000013FD1005008D5005108D60070
:10041000890D893B8909D700D800D900DA00DB00B3
:10042000DC005508B0005608B1005708B200580863
:10043000B3005908B4005A08B5005B08B6005C0860
:10044000B7005F0880313920813120003108CF00AA
:100450003008CE00B62A4E0886008701403FD00003
:10046000413FD10050088400510885001200733AC2
:10047000031D3B2A3C2A5E2A4E0886008701013074
:10048000810741310318810A4F088600870101085E
:100490008400850102308107003FDD00013FDE005E
:1004A0005E08A1005D08A0005F088531AB258131A1
:1004B00020002108CF002008CE00B62A4E08860072
:1004C0008701403FD000413FD100500884005108CF
:1004D00085001200253A031D6E2A6F2A882A4E08CD
:1004E000860087010130810741310318810A2530D8
:1004F000F3000030F4005F08D0005008F5008C31A4
:100500002624813101302000CE000030CF00B62AF1
:100510004E08860087010130810741310318810AA6
:10052000CE01CF01B62A4E0886008701403FD00099
:10053000413FD10050088400510885000008D200D6
:10054000D3015208F3005308F4005F08D4005408A4
:10055000F5008C312624813120004E088600870169
:100560000130810741310318810A822A080089314C
:100570006B2182318A31DB228231D5308600003016
:10058000870006302100D40000301E00D40BC52A9D
:10059000D530D4005408E100E201E301CA308931CA
:1005A000C8218231C4308931E1218231D030893192
:1005B00034218231B4308C31652482310230C43E22
:1005C00086008701413F8A00403F0A008231003A9D
:1005D0000319EB2AEC2A002B00302000E8009030B1
:1005E000E9008931452182312100610886008701B7
:1005F0004408C03F4508C13F0130E2070030E33DF9
:100600000230CA3E86008701413F8A00403F0A000F
:100610008331003A03190D2B0E2B252B223020009D
:10062000E8009030E90089314521823121006235AE
:100630006107D4005408860087014A08C03F4B0870
:10064000C13F0130E2070030E33D2100DF01E0015E
:10065000422BDC302000E8009130E90021005F35BA
:100660006107D400540886008701403F2000EA005B
:10067000413FEB0089314521823101302100DF0704
:100680000030E03D6008803AD4006308803A5402AC
:10069000031D4C2B62085F02031C4F2B502B292B90
:1006A0008B170B1721003508F2003408F100883150
:1006B0008020823121003708F2003608F1008831AD
:1006C0008620823121003908F2003808F100883193
:1006D0008C208231CA30F8009130F9008B314623EA
:1006E000823141302100D400EE30890B752BD40BC0
:1006F000752B00000430CA3E86008701413F8A0006
:10070000403F0A00833176082100DC007508DB00D9
:100710000430C43E86008701413F8A00403F0A0002
:10072000833176082100DE007508DD005C082000BA
:10073000D50021005B082000D400210051088A0068
:1007400050080A00833121005E082000D5002100F6
:100750005D082000D4000230D03E86008701413F72
:100760008A00403F0A0083310830B43E860087018A
:10077000413F8A00403F0A0083317A2B80311328A1
:10078000F3012030860000308700473FF100F11F61
:10079000CA2BCB2BEC2B2000A009A109A209A3098D
:1007A000A409A509A609A709A00A031DEA2BA10A05
:1007B000031DEA2BA20A031DEA2BA30A031DEA2B41
:1007C000A40A031DEA2BA50A031DEA2BA60A031D92
:1007D000EA2BA70AF301F30A2830860000308700CD
:1007E000473FF100F11FF52BF62B192C2000A8092B
:1007F000A909AA09AB09AC09AD09AE09AF09A80A54
:10080000031D152CA90A031D152CAA0A031D152C5E
:10081000AB0A031D152CAC0A031D152CAD0A031DD4
:10082000152CAE0A031D152CAF0A0130F10071081A
:10083000F30674308600003087000830F100003085
:100840001E00F10B202C2000200821042204230488
:10085000240425042604270403192F2C302C8C2C67
:10086000F201F20A3F2CA035A10DA20DA30DA40D9B
:10087000A50DA60DA70D0130F1007108F207A71F05
:10088000422C432C332CF435F50DF60DF70DF80DF5
:10089000F90DFA0DFB0D27082F02031D692C260800
:1008A0002E02031D692C25082D02031D692C240826
:1008B0002C02031D692C23082B02031D692C22081E
:1008C0002A02031D692C21082902031D692C200816
:1008D0002802031C6C2C6D2C7E2C2008A8022108F9
:1008E000A93B2208AA3B2308AB3B2408AC3B2508C4
:1008F000AD3B2608AE3B2708AF3B7414A736A60CC9
:10090000A50CA40CA30CA20CA10CA00C0130F202AB
:10091000031D8B2C8C2C432C73080319902C912CC9
:10092000AF2CF409F509F609F709F809F909FA09EC
:10093000FB09F40A031DAF2CF50A031DAF2CF60AC0
:10094000031DAF2CF70A031DAF2CF80A031DAF2CB3
:10095000F90A031DAF2CFA0A031DAF2CFB0A740819
:100960002000A0007508A1007608A2007708A30067
:100970007808A4007908A5007A08A6007B08A700DB
:100980000800F3012830860000308700473FF1005F
:10099000F11FCB2CCC2CED2C2000A809A909AA0909
:1009A000AB09AC09AD09AE09AF09A80A031DEB2CD0
:1009B000A90A031DEB2CAA0A031DEB2CAB0A031D8D
:1009C000EB2CAC0A031DEB2CAD0A031DEB2CAE0A7D
:1009D000031DEB2CAF0AF301F30A20308600003030
:1009E0008700473FF100F11FF62CF72C162D200051
:1009F000A009A109A209A309A409A509A609A70993
:100A0000A00A031D162DA10A031D162DA20A031DFF
:100A1000162DA30A031D162DA40A031D162DA50AC3
:100A2000031D162DA60A031D162DA70A2000200857
:100A30002104220423042404250426042704031982
:100A4000222D232D762DF201F20A322DA035A10D93
:100A5000A20DA30DA40DA50DA60DA70D0130F1004B
:100A60007108F207A71F352D362D262D27082F02D6
:100A7000031D542D26082E02031D542D25082D027A
:100A8000031D542D24082C02031D542D23082B0272
:100A9000031D542D22082A02031D542D210829026A
:100AA000031D542D20082802031C572D582D682D96
:100AB0002008A8022108A93B2208AA3B2308AB3B37
:100AC0002408AC3B2508AD3B2608AE3B2708AF3BCE
:100AD000A736A60CA50CA40CA30CA20CA10CA00C70
:100AE0000130F202031D752D762D362D7308031982
:100AF0007A2D7B2D992DA809A909AA09AB09AC0962
:100B0000AD09AE09AF09A80A031D992DA90A031D55
:100B1000992DAA0A031D992DAB0A031D992DAC0A24
:100B2000031D992DAD0A031D992DAE0A031D992DA4
:100B3000AF0A20002808A0002908A1002A08A20066
:100B40002B08A3002C08A4002D08A5002E08A60041
:100B50002F08A70008002000B000403086000130B8
:100B6000870025308400003085000730A200160081
:100B70001A00A20BB72D2108B2002008B1003108DD
:100B80003204031DC42DC52DC92D2530B100003000
:100B9000B2003208F2003108F1008931FA218531C2
:100BA00072082000B6007108B50021002808200056
:100BB000B400210027082000B300B41BE02DE12D74
:100BC000F52D3408803AA2003608803A2202031D2F
:100BD000EB2D35083302031CEE2DEF2DF02DF52DF6
:100BE00020003408B6003308B50020003608B400F1
:100BF0003508B300210026082000AF002100250899
:100C00002000AE0021002918062E072E282E192EAE
:100C10002030F3000030F40020003008A200220849
:100C2000F5008C312624853101302000B5070030D5
:100C3000B63D20003608803AA2002F08803A2202F2
:100C4000031D242E2E083502031C272E282E082EC5
:100C50002000AC01AD01482E20003108840032088C
:100C600085000008A200A3012208F3002308F40075
:100C70003008A4002408F5008C3126248531013089
:100C80002000B1070030B23D0130AC070030AD3D6F
:100C90002D08803AA2003408803A2202031D522E09
:100CA00033082C02031C552E562E2C2E2100291CF5
:100CB0005A2E5B2E7C2E6D2E2030F3000030F40077
:100CC00020003008A2002208F5008C31262485314E
:100CD00001302000B5070030B63D20003608803ACC
:100CE000A2002F08803A2202031D782E2E0835021A
:100CF000031C7B2E7C2E5C2E20003608A1003508BC
:100D0000A00008000C2F8A312D228631F801003016
:100D10008B311F2386313230F8009130F9008B314E
:100D200046238631F801F80A00308B311F238631C3
:100D30007430F8009130F9008B3146238631232F2F
:100D40008A312D228631F80100308B311F23863104
:100D5000FF30F8009030F9008B3146238631F801DE
:100D6000F80A00308B311F2386318430F80091302F
:100D7000F9008B3146238631232F8A312D2286318B
:100D8000F80100308B311F238631FF30F80090309E
:100D9000F9008B3146238631F801F80A00308B3197
:100DA0001F2386315430F8009130F9008B314623EF
:100DB0008631232F8A312D228631F80100308B3184
:100DC0001F238631FF30F8009030F9008B31462325
:100DD0008631F801F80A00308B311F2386319330B9
:100DE000F8009130F9008B3146238631232F8A3168
:100DF0002D228631F80100308B311F23863164307B
:100E0000F8009130F9008B3146238631232F0130D1
:100E1000AD000030AE00232F21002E08003A031948
:100E2000122F072F2D08003A0319832E013A0319B8
:100E3000A02E033A0319BD2E013A0319DA2E073A00
:100E40000319F72E072F0800A12F8A312D22873191
:100E5000F80100308B311F2387311030F8009130BA
:100E6000F9008B3146238731B82F8A312D22873103
:100E7000F80100308B311F238731EE30F8009030BD
:100E8000F9008B3146238731B82F8A312D228731E3
:100E9000F80100308B311F2387312130F800913069
:100EA000F9008B3146238731F801F80A00308B3185
:100EB0001F2387319930F8009030F9008B31462399
:100EC0008731B82F8A312D228731F80100308B31DC
:100ED0001F238731BB30F8009030F9008B31462357
:100EE0008731F801F80A00308B311F238731AA308F
:100EF000F8009030F9008B3146238731B82F8A31C2
:100F00002D228731F80100308B311F238731B1301A
:100F1000F8009130F9008B3146238731F801F80A47
:100F200000308B311F238731A230F8009130F90057
:100F30008B3146238731B82F0130AD000030AE0031
:100F4000B82F21002E08003A0319A72F9C2F2D0837
:100F5000003A0319252F013A0319352F033A0319D3
:100F6000452F013A0319622F073A03197F2F9C2F4F
:100F7000080020005508B3005408B2000030B70044
:100F80000030B6000030B5000A30B4000030BB00BD
:100F90000030BA000330B900E830B8000030BF00BC
:100FA0000030BE000030BD000030BC000030C30087
:100FB0000030C2000030C1006430C0008E31052610
:100FC000873120003308D7003208D6006430FA0099
:100FD00056087A022100AB00200057090318890A3D
:100FE0002100AC002C08F2002B08F100893181218E
:100FF00087310800FE0012001E00FE0BFB2F00349C
:1010D000080008001630210097000800720821005F
:1010E000E5007108E400080072082100E9007108B9
:1010F000E800080072082100E7007108E600080017
:1011000072082100EF007108EE000800720821004B
:10111000ED007108EC00080072082100EB00710876
:10112000EA000800F20072088831E42088310800E3
:10113000F10101308931572188310800F101003077
:101140008931572188310800640080010131890B01
:10115000A5280034583021009900980122009601FA
:101160000800F101F10A0030893157218831080067
:1011700028346E3475346C346C3429340034863041
:1011800021009E009F019B019C0101309D000800F1
:1011900000308931972188317208F6007108F50016
:1011A000080001308931972188317208F6007108F2
:1011B000F5000800403028009600950120009210AC
:1011C0000730280097000800F1002000111EE928D0
:1011D000EA28E528710823009A00080080302C00D6
:1011E00099009801970125001E08CF3910389E00FC
:1011F0000800FF302100AD07FF30AE3DAE1F0129D2
:1012000002290429AD01AE01FC01FC0A08002100FD
:101210006E086F0403190D290E2913296F088A001F
:101220006E080A00893127009312080021006C081B
:101230006D0403191C291D2922296D088A006C08D8
:101240000A00893127001313080021006A086B0483
:1012500003192B292C2931296B088A006A080A00F6
:101260008931270093130800F10071088600870177
:10127000B930C03F0730C13F7108023E8600870188
:101280006C30C03F0E30C13F08006A302000EC00D7
:101290006C08EF006908E1006808E0006F30EC00BE
:1012A0006C08E20000308B31BF2389310800F20066
:1012B000720803195C295D29602922008D146229B6
:1012C00022008D10710803196629672969290D15F7
:1012D0006A290D1108008D319E2589318831AA2097
:1012E000893188316A2089318831BF20893188313C
:1012F000DA2089318831EE2089318A31FD22893125
:1013000008007208F4007108F300F436F30CF436A8
:10131000F30C73082C00980071080339F3000530B2
:10132000F335FF3E031D9029733597000800F40044
:101330007408F300F30DF30D21001D0873068339C3
:1013400073069D001D14000021009D149D18A929FD
:10135000AA29A6291C08F2001B08F1000800270092
:10136000931EB329B429B729893107218931270070
:10137000131FBB29BC29BF298931162189312700B8
:10138000931FC329C429C729893125218931080020
:10139000F100710886008701D630C03F9130C13F0F
:1013A0007108023E860087016330C03F0A30C13FAA
:1013B0007108043E86008701D130C03F0830C13F2C
:1013C0000800F100710886008701BE30C03F9130EF
:1013D000C13F7108023E860087014730C03F0A3096
:1013E000C13F7108043E86008701C830C03F083005
:1013F000C13F08007208F5007108F400032A0130AB
:10140000F1070030F23D7108840072088500120077
:10141000031D0B2A0C2AFF2974087102F1007508BC
:10142000723BF20008007508803AF60080307602C0
:10143000031D1C2A0130740203181F2A202A2C2A9B
:101440007409F6007509F700F60A0319F70A760819
:10145000F4007708F5002C2A0800F80100308B31E1
:101460001F238A314330F8009130F9008B31462335
:101470008A31F801F80A00308B311F238A3143305A
:10148000F8009130F9008B3146238A310800003092
:10149000893197218A317208F8007108F7007808BD
:1014A000803AF50080307502031D582A013077021A
:1014B00003185B2A5D2A01305E2A0030F6007608A8
:1014C000F900790808000130893197218A317208C2
:1014D000F8007108F7007808803AF500803075024E
:1014E000031D742A013077020318772A792A013004
:1014F0007A2A0030F6007608F90079080800F7002B
:10150000FA300032890B812AF101F10A77088A3119
:10151000BB228A317708F5000330F535FF3E031D05
:101520008D2A7535F6007608F700F101F10A770883
:101530008A31BB228A310800F700FA300032890B69
:101540009E2AF10177088A31BB228A317708F5009B
:101550000330F535FF3E031DA92A7535F6007608E0
:10156000F7005330890BB22A0000F10177088A3165
:10157000BB228A310800F4007408F2000430F2360D
:10158000890BBF2A7208F3007308F40074080F393E
:10159000F2007208F40020000F08F0398F000F08E5
:1015A00074048F00710C031C8F1203188F160F1315
:1015B0000F160F12080020008F0121008F0120005C
:1015C0008F170530F800DE30890BE42AF80BE42A87
:1015D00032308A319C228A3128308A319C228A31E9
:1015E0000C308A319C228A3101308A319C228A3126
:1015F00006308A319C228A310800083023009F007F
:1016000090309D0024309E0019309B009C010030DA
:10161000F1000030F200883174208A310030F1008E
:101620000030F20088317A208A310030F100003039
:10163000F20088316E208A312100B3010800FB00DE
:10164000023078020318252B262B452B10307B0205
:10165000031C2B2B2C2B2D2B452B78030319312B03
:10166000322B382B80307B04F9000030FA003D2B00
:10167000C0307B04F9000030FA0079088A319C22DE
:101680008B31FA300032890B422B0800FA015C2BB7
:101690007908A1007808A0007A08200784002108B2
:1016A0000318210A850000088A317F228B3101301E
:1016B0002000A0002008FA0779082000A10078087F
:1016C000A0007A082007840021080318210A850059
:1016D0001200031D6C2B6D2B482B08007C08031D8A
:1016E000722B732B832B952B873124278B31942BD3
:1016F000863182268B31942B8E31EE268B31942BC2
:10170000AF01B001942B21003008003A0319892B56
:10171000802B2F08003A0319742B013A0319782BF8
:10172000033A03197C2B802BFC0108002000A60043
:10173000A401A501AE2B2308A000A1012008F300FD
:101740002108F4007B08A2002208F5008C31262431
:101750008B3101302000A4070030A53D2408260766
:10176000A00020088600013087000108A1002108A0
:10177000A3002308031DBD2BBE2B9B2B08002000BC
:10178000E5006108E7006008E6002100A301A4016C
:10179000DD2B6630E3006308CE006208E4006408D5
:1017A000CF0065088131A9218B3120004E0821002E
:1017B000A30720004F082100A43D200066088400F4
:1017C000670885001200031DE62BE72BC92B2100BB
:1017D00024082000E100210023082000E000080088
:1017E00000302000A3000030A2000030A100003033
:1017F000A000711CFC2BFD2B062C75082000A007F7
:101800007608A13D7708A23D7808A33D0130F53563
:10181000F60DF70DF80D890B072C0130F436F30C9B
:10182000F20CF10C890B0E2C740873047204710411
:10183000031D1B2C1C2CF92B20002308F40022086C
:10184000F3002108F2002008F100080075080319D0
:101850002A2C2B2C302C7508031D2F2C302C352CCA
:101860007308883192208C31642C7508033E860001
:1018700087011600010403193E2C3F2C5C2C7508CF
:10188000033E86008701403FF600413FF700750A9E
:1018900086008701403FF800413FF9007908803A0F
:1018A000FA007708803A7A02031D582C76087802ED
:1018B00003185B2C5C2C642C750A860087010130B0
:1018C000810741310318810A0800F1007108860080
:1018D0008701EF30C03F0C30C13F7108023E8600E7
:1018E0008701F930C03F0830C13F7108043E8600CF
:1018F0008701A630C03F0C30C13F7108063E86000C
:1019000087010030C03F0030C13F7108083E8600AB
:1019100087016E30C03F0B30C13F71080A3E860020
:1019200087012430C03F0730C13F71080C3E86005C
:1019300087018230C03F0630C13F71080E3E8600ED
:101940008701EE30C03F0E30C13F080021002F0359
:101950003004031DAC2CAD2CBB2C04302D062E0402
:10196000031DB32CB42CBB2CAF01B001AD01AE01F3
:10197000FC01FC0AEE2C02302F063004031DC12CA2
:10198000C22CCA2C03302D062E04031DC82CC92CD2
:10199000CA2CB42C2F083004031DCF2CD02CEE2CD5
:1019A0002F083004031DD52CD62CE42C2E08803AA9
:1019B000F00080307002031DDF2C02302D02031C6A
:1019C000E22CE32CE42CEE2C21002D08013EAF008C
:1019D00000302E3DB000AD01AE01B82C0800013042
:1019E0002100AD070030AE3D2F083004031DF92C57
:1019F000FA2C0C2D2E08803AF00080307002031D66
:101A0000032D05302D02031C062D072D0C2D04304F
:101A10002100AD000030AE0021002F033004031D73
:101A2000122D132D252D2E08803AF00080307002E3
:101A3000031D1C2D05302D02031C1F2D202D252DCF
:101A400004302100AD000030AE00023021002F062E
:101A50003004031D2C2D2D2D3F2D2E08803AF00033
:101A600080307002031D362D04302D02031C392DE9
:101A70003A2D3F2D03302100AD000030AE00FC01B7
:101A8000FC0A08002000AF002100291C482D492D28
:101A9000522D20002F08AA002A08FB0027088B31AE
:101AA00096238D312000A91B562D572D5C2D29081A
:101AB000AE002808AD005E2DAD01AE01AB01AC015A
:101AC000722D2030F3000030F40020002F08AA000F
:101AD0002A08F5008C3126248D3101302000AB0717
:101AE0000030AC3D2C08803AAA002E08803A2A0229
:101AF000031D7C2D2D082B02031C7F2D802D612DB5
:101B000021002918842D852D8E2D20002F08AA0054
:101B10002A08FB0027088B3196238D3120002708E7
:101B2000F1000130F2008931FA218D3120002D08B9
:101B30007107A7002E08723DA8000800220090013E
:101B40008F018C018D018E010F3021009000FF303C
:101B50008C00F8308D00BF308E008F0123008F0184
:101B60003C308E0020308D00073090001F308C00FC
:101B700024008F0190018D01E0308C008E01210046
:101B80009513250090018C018D018E018F01FF308E
:101B900026008C00FF308D00FF308E00FF308F005C
:101BA00007309000FF3027008C00FF308D00FF30A1
:101BB0008E00FF308F000F30900093121313931399
:101BC0009216121792179112111391136830F100A7
:101BD0000830F200883180208D316930F100083002
:101BE000F200883186208D310230F1000030F200A1
:101BF00088318C208D318B1517303C00A4000E30BD
:101C00003D0098001430A600080020003408380277
:101C1000C4003508393BC50036083A3BC6003708D2
:101C20003B3BC7004708A7004608A6004508A5009B
:101C30004408A4003208C8003308C9000030C91B9A
:101C4000FF30CA00CB003408C8023508C93B36084B
:101C5000CA3B3708CB3B4B08F4004A08F30049085D
:101C6000F2004808F1003C084002CC003D08413B2E
:101C7000CD003E08423BCE003F08433BCF004F081B
:101C8000F8004E08F7004D08F6004C08F5008B31BF
:101C9000F0238E3174082000AB007308AA0072088C
:101CA000A9007108A8008F3170278E312000240808
:101CB0003C07D00025083D3DD10026083E3DD2001E
:101CC00027083F3DD3005308B5005208B40051081F
:101CD000B3005008B200080020005508B3005408B3
:101CE000B2000030B7000030B6000030B50013304D
:101CF000B4000030BB000030BA000130B9006630DB
:101D0000B8000030BF000030BE000030BD00003021
:101D1000BC000030C3000030C2000030C1003C30C5
:101D2000C0008E3105268E3120003308D7003208DE
:101D3000D600D71B9C2E9D2EAE2E5708803AFA0057
:101D400080307A02031DA62E143056020318A92EE5
:101D5000AA2EAE2E883198208E31ED2E2000570805
:101D6000803AFA0080307A02031DB82E14305602F1
:101D7000031CBB2EBC2ECE2E20005708803AFA0042
:101D800080307A02031DC62E283056020318C92E51
:101D9000CA2ECE2E8831B1208E31ED2E200057086C
:101DA000803AFA0080307A02031DD82E283056027D
:101DB000031CDB2EDC2EED2E20005708803AFA00A3
:101DC00080307A02031DE62E3D3056020318E92EBC
:101DD000EA2EED2E88319E208E3108005B2F8A314D
:101DE0002D228E31F80100308B311F238E31CC3003
:101DF000F8009030F9008B3146238E31F801F80A53
:101E000000308B311F238E316430F8009030F900A0
:101E10008B3146238E316F2F8A312D228E31F8017E
:101E200000308B311F238E31DD30F8009030F90007
:101E30008B3146238E31F801F80A00308B311F2395
:101E40008E317630F8009030F9008B3146238E3198
:101E50006F2F8A312D228E31F80100308B311F23F4
:101E60008E31DD30F8009030F9008B3146238E3111
:101E7000F801F80A00308B311F238E318830F800CA
:101E80009030F9008B3146238E316F2F8A312D220D
:101E90008E31F80100308B311F238E316430F80011
:101EA0009130F9008B3146238E316F2F0130AD0018
:101EB0000030AE006F2F21002E08003A0319612F69
:101EC000562F2D08003A0319EF2E013A03190C2F53
:101ED000033A0319292F013A0319462F562F0800F8
:101EE0002000AD01A71F752F762F832FA409A50908
:101EF000A609A709A40A0319A50A0319A60A031922
:101F0000A70AAD01AD0AAB1F862F872F962FA80910
:101F1000A909AA09AB09A80A0319A90A0319AA0A57
:101F20000319AB0A0130F9007908AD060030B100A1
:101F30000030B0000030AF000030AE0027082604AB
:101F4000250424040319A52FA62FE72FAC01AC0A02
:101F5000B42F0130A435A50DA60DA70D890BAA2F0E
:101F60000130F9007908AC07A71FB72FB82FA92FA8
:101F70000130AE35AF0DB00DB10D890BB92F27086B
:101F80002B02031DCD2F26082A02031DCD2F250865
:101F90002902031DCD2F24082802031CD02FD12F86
:101FA000DA2F2408A8022508A93B2608AA3B2708FF
:101FB000AB3B2E140130A736A60CA50CA40C890B44
:101FC000DB2F0130AC02031DE62FE72FB82F2D08C1
:101FD0000319EB2FEC2FF72FAE09AF09B009B109A8
:101FE000AE0A0319AF0A0319B00A0319B10A31087E
:101FF000A7003008A6002F08A5002E08A40008009E
:10200000543465346D3470346534723461347434EE
:102010007534723465342034733465346E347334FB
:102020006F3472342034693473342034613476343C
:10203000613469346C34613462346C3465340D3429
:102040000A3400344C3469346734683474342034CE
:10205000733465346E3473346F34723420346934BD
:102060007334203461347634613469346C346134CF
:1020700062346C3465340D340A3400346D346534A4
:102080006E3475345F34633475347234723465344D
:102090006E3474343A3420342534643420340A34B1
:1020A0000D3400346D3465346E3475345F34693406
:1020B0006E346434653478343A34203425346434EE
:1020C00020340A340D340034203420345434653440
:1020D0006D347034653472346134743475347234F0
:1020E000613420342034203420340034203420342F
:1020F000203420344C3475346D3469346E346F348C
:1021000063346934643461346434203420340034FA
:102110002034203420342034203453346F346E344F
:10212000693464346F342034203420342034203433
:1021300000342034203420342034203441347034AE
:1021400061346734613464346F3420342034203493
:1021500020340034203420342034203445346E348C
:10216000633465346E346434693464346F342034D9
:102170002034203400343C3420342034203448349B
:102180006F34723461342034643465342034203444
:10219000203420343E340034203420345334653429
:1021A0006E3473346F3472342034643465342034C4
:1021B0002034203420343E3400343C342034203465
:1021C000533465346E3473346F3472342034643471
:1021D00065342034203420343E3400343C34203400
:1021E00020342034533465346E3473346F34723495
:1021F000653473342034203420343E3400343C348D
:102200002034203449346E34743465346E3473347D
:102210006934643461346434203420343E3400340E
:10222000203420344D346F3464346F3420346434BB
:1022300065342034753473346F34203420343E34A4
:1022400000343C342034543465346D3470346F348D
:10225000723469347A34613464346F3472342034C3
:102260003E3400344134753474346F346D34613429
:102270007434693463346F34203470346F3472349E
:1022800020343E34003420342034203420342034B0
:10229000203420342034203420342034203420349E
:1022A00020342034203400342034203420342034AE
:1022B00020344D346534643469346134203420343E
:1022C00020342034203400343C3420342034203472
:1022D0005234653467347234653473346134723423
:1022E000203420342034003420342034203420346E
:1022F000533465346E3473346F34723465347334EC
:10230000203420342034003420342034203420344D
:102310002034423461346A3461342034203420342F
:10232000203420340034203420342034203420342D
:1023300041346C34743461342034203420342034FB
:10234000203400342034203420342034413470349C
:1023500061346734613464346F3420342034203481
:1023600000343C3420342034203448346F34723408
:10237000613420346434653420340034543465349A
:102380006D3470346534723461347434753472343D
:10239000653400344234693465346E3476346534DF
:1023A0006E34693464346F34213400344C3469340D
:1023B00067346834743400342534733420340D3475
:0423C0000A340034A7
:020000040001F9
:04000E00E43FFF3E8E
:00000001FF
