:020000040000FA
:1000000080312628013008007E1480318B1D09289C
:100010000A2812280B1C0D280E2812289D315A255B
:10002000803124280B1F1528162824282100911C14
:100030001A281B2824282000911C1F282028242847
:100040009A31EB22803124287E1009008031282843
:1000500022009A3189228031DB009A318A22803154
:10006000DC009A318B228031DD009A318C22803184
:10007000DE002100EA01EB01203084000130850020
:1000800027309B310F238031A03084000130850060
:100090003C309B310F2380312030840002308500BA
:1000A00020309B310F2380317E1020008031582872
:1000B0009D31F725803190311720803100302400A8
:1000C000C2000030C3000030C40041309E314C26D5
:1000D00080313B309E316926803102303B3E8600C4
:1000E00001308700413F8A00403F0A0080312200F2
:1000F000DA005A082400D0000230413E8600013068
:100100008700413F8A00403F0A0080312200DA0028
:100110005A082400D100D201D30150082200DA008D
:100120005A082400D20051082200DA005A0824009C
:10013000D300D6309E312F26803152302200DA0093
:100140005A082100A400C4309631A32680318B17B1
:100150000B17230047082100A500230046082100B3
:10016000A4009B317E238031230049082100A50093
:10017000230048082100A4009B31872380312300FD
:100180004B082100A50023004A082100A4009B3150
:1001900090238031B4302100A4001230A5009B319F
:1001A0009923803104302100AB009A30AC009031AB
:1001B000AD20803141302200DA00EE30890BDE289C
:1001C000DA0BDE2800005D302200DA005A08210038
:1001D000B2005E309431A824803100302200D30078
:1001E0009830D4009D31142580312400D401D501EC
:1001F00004303B3E860001308700413F8A00403F8B
:100200000A008131210029082400C70021002808A4
:100210002400C6000430413E860001308700413F83
:100220008A00403F0A008131210029082400C900CA
:10023000210028082400C80047082100C00024002D
:1002400046082100BF000030C4000030C300003069
:10025000C2001330C1000030C8000030C7000130B8
:10026000C6006630C500FF30CC00FF30CB00FF3049
:10027000CA00D830C9000030D0000030CF000030B4
:10028000CE007D30CD0088316920803121004008CA
:100290002400CB0021003F082400CA009730220030
:1002A000D3009830D40024004B082200D60024004C
:1002B0004A082200D5009D31142580316530220086
:1002C000D3009830D400240049082200D60024002E
:1002D00048082200D5009D311425803101302400CA
:1002E000D4070030D53D5508803A2200DA0080302E
:1002F0005A02031D7E29053024005402031C812963
:100300008229F82822005B08031987298829D62921
:1003100004303B3E860001308700413F8A00403F69
:100320000A008131210029082400CD00210028087D
:100330002400CC000430413E860001308700413F5C
:100340008A00403F0A008131210029082400CF00A3
:10035000210028082400CE004D082100E2002400DE
:100360004C082100E1000230D63E860001308700B3
:10037000413F8A00403F0A00813124004F0821009C
:10038000E20024004E082100E100230057088A0003
:1003900056080A0081310830C43E860001308700CB
:1003A000413F8A00403F0A00813182297D30D300DD
:1003B0009930D4009D31142580310430D63E86001A
:1003C00001308700413F8A00403F0A0081311030F0
:1003D000C43E860001308700413F8A00403F0A004A
:1003E00081318229803126282100CC003F08D300AA
:1003F0004008D4004108D5004208D6004308D70081
:100400004408D8004508D9004608DA00D3308600F1
:1004100000308700473FC700C71B0F2A112A013051
:10042000122A00302100C800C9014808D10049083B
:10043000D2005108520403191E2A1F2A3D2AD3094B
:10044000D409D509D609D709D809D909DA09D30AAF
:10045000031D3D2AD40A031D3D2AD50A031D3D2A4A
:10046000D60A031D3D2AD70A031D3D2AD80A031DBB
:100470003D2AD90A031D3D2ADA0A2200A51B412A7A
:10048000422A462AFD30A605FF30A7052508803AF6
:100490002100C70080304702031D512A013022008D
:1004A00024020318542A552A5B2A01302100CD006A
:1004B0000030CE00632A220025082100CE00220051
:1004C00024082100CD00220023082100D0002200B2
:1004D00022082100CF0051085204031D702A712AFE
:1004E000762A2200261D752A762A7B2AFF302100D3
:1004F000CF07FF30D03D1F302100DB000030DC0093
:100500002400BF01EC2AFF302100DB07FF30DC3D77
:100510000A30A400A501A601A701A801A901AA010A
:10052000AB015308AC005408AD005508AE005608A6
:10053000AF005708B0005808B1005908B2005A0877
:10054000B3008D312B25813121002508B800240806
:10055000B7009E311326813121003708303EC70095
:100560005B08203E86000230870047088100FF308C
:10057000CD07FF30CE3DFF30CF07FF30D03D0A30F2
:10058000A400A501A601A701A801A901AA01AB0128
:100590005308AC005408AD005508AE005608AF0033
:1005A0005708B0005808B1005908B2005A08B30003
:1005B0008431D424813121002408D3002508D400BB
:1005C0002608D5002708D6002808D7002908D80013
:1005D0002A08D9002B08DA0021005C08803AC700FD
:1005E00080304702031DF62A01305B02031CF92A02
:1005F000FA2A272B210053085404550456045704A3
:10060000580459045A04031D062B072B832A4E084D
:10061000803AC70080304702031D102B01304D0285
:100620000318132B142B832A21005008803AC7008B
:1006300080304702031D1E2B01304F02031C212B6B
:10064000222B272B2200A618262B272B832A2100BA
:1006500051085204031D2D2B2E2B332B2200261D57
:10066000322B332B502BFF302100DB07FF30DC3DDA
:1006700051085204031D3D2B3E2B432B2B30CA0047
:100680000030CB00472B2D30CA000030CB004A0889
:10069000C7005B08203E86000230870047088100C3
:1006A00021005B08203EC7004708B6005008B8008C
:1006B0004F08B7004C089731A72781312100370830
:1006C000C0003608BF0008002000BB003008C4008E
:1006D0003108C5003208C6003308C7003408C80016
:1006E0003508C9003608CA003708CB0044308600F8
:1006F00000308700473FB800B81B7F2B812B0130AB
:10070000822B00302000B900BA013908C2003A0833
:10071000C3004208430403198E2B8F2BAD2BC40951
:10072000C509C609C709C809C909CA09CB09C40A44
:10073000031DAD2BC50A031DAD2BC60A031DAD2B32
:10074000C70A031DAD2BC80A031DAD2BC90A031D23
:10075000AD2BCA0A031DAD2BCB0A2200A51BB12B62
:10076000B22BB62BFD30A605FF30A7052508803A31
:100770002000B80080303802031DC12B0130220058
:1007800024020318C42BC52BCB2B01302000BE0044
:100790000030BF00D32B220025082000BF0022001C
:1007A00024082000BE00220023082000C1002200EF
:1007B00022082000C00042084304031DE02BE12B67
:1007C000E62B2200261DE52BE62BEB2BFF3020002D
:1007D000C007FF30C13D1F302000CC000030CD00ED
:1007E0002400BF015C2CFF302000CC07FF30CD3D42
:1007F0000A30A000A101A201A301A401A501A60144
:10080000A7014408A8004508A9004608AA0047080F
:10081000AB004808AC004908AD004A08AE004B08E0
:10082000AF008C314124833120002108F4002008DE
:10083000F3009D318C2583317308303E2000B800D1
:100840004C08203E86000230870038088100FF30C7
:10085000BE07FF30BF3DFF30C007FF30C13D0A304B
:10086000A000A101A201A301A401A501A601A70165
:100870004408A8004508A9004608AA004708AB009C
:100880004808AC004908AD004A08AE004B08AF006C
:100890008531D925833120002008C4002108C500F6
:1008A0002208C6002308C7002408C8002508C9007C
:1008B0002608CA002708CB0020004D08803AB8005F
:1008C00080303802031D662C01304C02031C692C59
:1008D0006A2C972C20004408450446044704480429
:1008E00049044A044B04031D762C772CF32B3F0854
:1008F000803AB80080303802031D802C01303E025F
:100900000318832C842CF32B20004108803AB80074
:1009100080303802031D8E2C01304002031C912CC4
:10092000922C972C2200A618962C972CF32B2000A3
:1009300042084304031D9D2C9E2CA32C2200261D3F
:10094000A22CA32CC02CFF302000CC07FF30CD3DC3
:1009500042084304031DAD2CAE2CB32C2B30BC003D
:100960000030BD00B72C2D30BC000030BD003C086D
:10097000B8004C08203E860002308700380881000D
:1009800020004C08203EB8003808A4004108A6000A
:100990004008A5003B0897314E27833120002508E9
:1009A000B1002408B00008002100B601A430860080
:1009B00000308700473FB400B41FDF2CE02C022D2D
:1009C0002100A409A509A609A709A809A909AA0936
:1009D000AB09A40A031DFF2CA50A031DFF2CA60AC0
:1009E000031DFF2CA70A031DFF2CA80A031DFF2CC3
:1009F000A90A031DFF2CAA0A031DFF2CAB0A210024
:100A0000B601B60AAC30860000308700473F2100AF
:100A1000B400B41F0C2D0D2D312D2100AC09AD09F2
:100A2000AE09AF09B009B109B209B309AC0A031D97
:100A30002C2DAD0A031D2C2DAE0A031D2C2DAF0A43
:100A4000031D2C2DB00A031D2C2DB10A031D2C2DC6
:100A5000B20A031D2C2DB30A01302100B400340862
:100A6000B606B73086000030870008302100B40099
:100A700000301E00B40B392D240825042604270459
:100A8000280429042A042B040319472D482DA42DDA
:100A9000B501B50A572DA435A50DA60DA70DA80DB6
:100AA000A90DAA0DAB0D0130B4003408B507AB1F7A
:100AB0005A2D5B2D4B2DB735B80DB90DBA0DBB0DA9
:100AC000BC0DBD0DBE0D2B083302031D812D2A0860
:100AD0003202031D812D29083102031D812D2808B2
:100AE0003002031D812D27082F02031D812D2608AA
:100AF0002E02031D812D25082D02031D812D2408A2
:100B00002C02031C842D852D962D2408AC0225086B
:100B1000AD3B2608AE3B2708AF3B2808B03B290871
:100B2000B13B2A08B23B2B08B33B3714AB36AA0CB7
:100B3000A90CA80CA70CA60CA50CA40C0130B5029E
:100B4000031DA32DA42D5B2D36080319A82DA92D57
:100B5000C72DB709B809B909BA09BB09BC09BD094C
:100B6000BE09B70A031DC72DB80A031DC72DB90A50
:100B7000031DC72DBA0A031DC72DBB0A031DC72DB0
:100B8000BC0A031DC72DBD0A031DC72DBE0A2100C7
:100B90003708A4003808A5003908A6003A08A700BD
:100BA0003B08A8003C08A9003D08AA003E08AB008D
:100BB0000800F2012030860000308700473FF00037
:100BC000F01FE32DE42D052E2000A009A109A209A4
:100BD000A309A409A509A609A709A00A031D032EB4
:100BE000A10A031D032EA20A031D032EA30A031D3F
:100BF000032EA40A031D032EA50A031D032EA60A15
:100C0000031D032EA70AF201F20A283086000030E5
:100C10008700473FF000F01F0E2E0F2E322E2000CF
:100C2000A809A909AA09AB09AC09AD09AE09AF0920
:100C3000A80A031D2E2EA90A031D2E2EAA0A031D83
:100C40002E2EAB0A031D2E2EAC0A031D2E2EAD0A2E
:100C5000031D2E2EAE0A031D2E2EAF0A0130F0000A
:100C60007008F20673308600003087000830F0000C
:100C700000301E00F00B392E200020082104220431
:100C8000230424042504260427040319482E492E8E
:100C9000A52EF101F10A582EA035A10DA20DA30D2C
:100CA000A40DA50DA60DA70D0130F0007008F107E9
:100CB000A71F5B2E5C2E4C2EF335F40DF50DF60DB3
:100CC000F70DF80DF90DFA0D27082F02031D822EDE
:100CD00026082E02031D822E25082D02031D822EBA
:100CE00024082C02031D822E23082B02031D822EB2
:100CF00022082A02031D822E21082902031D822EAA
:100D000020082802031C852E862E972E2008A80274
:100D10002108A93B2208AA3B2308AB3B2408AC3B93
:100D20002508AD3B2608AE3B2708AF3B7314A7361A
:100D3000A60CA50CA40CA30CA20CA10CA00C0130B9
:100D4000F102031DA42EA52E5C2E72080319A92EF4
:100D5000AA2EC82EF309F409F509F609F709F809CE
:100D6000F909FA09F30A031DC82EF40A031DC82E57
:100D7000F50A031DC82EF60A031DC82EF70A031D27
:100D8000C82EF80A031DC82EF90A031DC82EFA0A38
:100D900073082000A0007408A1007508A20076085E
:100DA000A3007708A4007808A5007908A6007A08AF
:100DB000A70008002200CF0021005D088600013056
:100DC0008700403FDF00413FE0005F08840060088B
:100DD00085001200253A031DEE2EEF2EB12F5D087F
:100DE0008600013087000130810741310318810AF4
:100DF0002200A201A301A601A701FF30A400FF3039
:100E0000A50021005D08860001308700403FDF001B
:100E1000413FE0005F088400600885001200643AEA
:100E20000319132F142F262F5D0886000130870029
:100E3000403FDF00413FE0005F088400600885001C
:100E40001200693A031D252F262F772F5D08860093
:100E5000013087000130810741310318810A5E08A3
:100E600086000130870001088400013085000230CF
:100E70008107003FDF00013FE0005F082200C7005C
:100E8000210060082200C800890D893B8909C9003A
:100E9000CA00CB00CC00CD00CE0047082100BF0027
:100EA000220048082100C000220049082100C1009A
:100EB00022004A082100C20022004B082100C30082
:100EC00022004C082100C40022004D082100C5006A
:100ED00022004E082100C60022004F088131F42173
:100EE000863121004008DE003F08DD00D82F5D0874
:100EF000860001308700403FDF00413FE0005F088F
:100F00008400600885001200253A031D882F892F70
:100F1000A52F5D088600013087000130810741312F
:100F20000318810A2530A6000030A70022004F08D0
:100F30002100DF005F08A8009431E92486310130E8
:100F40002100DD000030DE00D82F5D088600013072
:100F500087000130810741310318810ADD01DE017C
:100F6000D82F5D08860001308700403FDF00413FF9
:100F7000E0005F088400600885000008E100E201ED
:100F80006108A6006208A70022004F082100E300C4
:100F90006308A8009431E924863121005D088600A9
:100FA000013087000130810741310318810A9F2FEA
:100FB0000800083023009F0090309D0024309E00E0
:100FC00019309B009C0100302100A4000030A500D6
:100FD0009B316323873100302100A4000030A5003D
:100FE0009B316C23873100302100A4000030A50024
:100FF0009B315A2387312200BA01080005300800CE
:101000002100A4002000111E062807280228210024
:10101000240823009A0008007E1C10289631F72E21
:101020009B3103238831003A0319172818284B28CD
:1010300025289B31AB23883168289B31B423883124
:1010400068289B31C6238831682823002F08210097
:10105000A5002508A4000630A03E860001308700C8
:10106000413F8A00403F0A0088312100A600A701C5
:101070002708003A03193D2821282608013A0319B8
:101080002128033A03191928013A03191D28073AA0
:1010900003192128212823003C101730A03E860088
:1010A00001308700403F84008501810A00089A31A1
:1010B000FD22883101302300B8020030B93B3808E6
:1010C0003904031D64286528672806306828033022
:1010D0000800210041084502D1004208463BD200E9
:1010E0004308473BD3004408483BD4005408B300AE
:1010F0005308B2005208B1005108B0003F08D500B3
:101100004008D6000030D61BFF30D700D800410879
:10111000D5024208D63B4308D73B4408D83B580881
:10112000A7005708A6005608A5005508A4004908BE
:101130004D02D9004A084E3BDA004B084F3BDB001A
:101140004C08503BDC005C08AB005B08AA005A0866
:10115000A9005908A80093311A23883121002708D3
:10116000B7002608B6002508B5002408B400893168
:10117000CD218831210030084907DD0031084A3D82
:10118000DE0032084B3DDF0033084C3DE0006008D4
:10119000C2005F08C1005E08C0005D08BF00080013
:1011A000220090018F018C018D018E010F302100F2
:1011B0009000FF308C00F8308D00BF308E008F0122
:1011C00023008F0124308E0020308D0007309000E6
:1011D0001F308C0024008F0190018D01E0308C00C5
:1011E0008E0121009513250090018C018D018E0147
:1011F0008F01FF3026008C00FF308D00FF308E0005
:10120000FF308F0007309000FF3027008C00FF3048
:101210008D00FF308E00FF308F000F309000931252
:10122000131393139216121792179112111391130D
:1012300037302100A4001A30A5009B317E2388316D
:1012400038302100A4001A30A5009B318723883153
:1012500039302100A4001A30A5009B319023883139
:101260008B1517303C00A4001430A10010303D0055
:10127000A3000E3098001130A4001430A6001330E3
:101280003C00A0000800210061086204031D4929F8
:101290004A294E299B3131238931CC296208C0006B
:1012A0006108BF000030C4000030C3000030C2003D
:1012B0001330C1000030C8000030C7000130C60044
:1012C0006630C5000030CC000030CB000030CA00D2
:1012D0000030C9000030D0000030CF000030CE0018
:1012E0003C30CD0088316920893121004008E5007B
:1012F0003F08E400E51B7D297E298F296508803A97
:10130000E30080306302031D872914306402031850
:101310008A298B298F299B312A238931CC292100C5
:101320006508803AE30080306302031D9929143078
:101330006402031C9C299D29AF2921006508803A7D
:10134000E30080306302031DA729283064020318DC
:10135000AA29AB29AF299B3140238931CC2921000F
:101360006508803AE30080306302031DB929283004
:101370006402031CBC29BD29CC2921006508803AE0
:10138000E30080306302031DC7293D306402031867
:10139000CA29CB29CC294A2908002100BA01B31F48
:1013A000D229D329E029B009B109B209B309B00A99
:1013B0000319B10A0319B20A0319B30ABA01BA0A26
:1013C000B71FE329E429F329B409B509B609B70918
:1013D000B40A0319B50A0319B60A0319B70A01308A
:1013E000B8003808BA060030BE000030BD0000303A
:1013F000BC000030BB003308320431043004031950
:10140000022A032A442AB901B90A112A0130B03547
:10141000B10DB20DB30D890B072A0130B8003808A1
:10142000B907B31F142A152A062A0130BB35BC0D93
:10143000BD0DBE0D890B162A33083702031D2A2A5B
:1014400032083602031D2A2A31083502031D2A2AD2
:1014500030083402031C2D2A2E2A372A3008B40201
:101460003108B53B3208B63B3308B73B3B1401307B
:10147000B336B20CB10CB00C890B382A0130B9026A
:10148000031D432A442A152A3A080319482A492ADF
:10149000542ABB09BC09BD09BE09BB0A0319BC0A11
:1014A0000319BD0A0319BE0A3E08B3003D08B20085
:1014B0003C08B1003B08B0000800D82A9E31FC2649
:1014C0008A312100AB010030903185208A312830EB
:1014D0002100AB009930AC009031AD208A31EC2A6C
:1014E0009E31FC268A312100AB01003090318520ED
:1014F0008A315B302100AB009930AC009031AD20D7
:101500008A312100AB01AB0A0030903185208A314D
:10151000C2302100AB009830AC009031AD208A3150
:10152000EC2A9E31FC268A312100AB01003090313B
:1015300085208A3117302100AB009930AC00903102
:10154000AD208A312100AB01AB0A003090318520FB
:101550008A31E4302100AB009830AC009031AD20EE
:101560008A31EC2A9E31FC268A312100AB01003001
:10157000903185208A31EB302100AB009930AC00EE
:101580009031AD208A312100AB01AB0A003090319F
:1015900085208A31CD302100AB009930AC009031EC
:1015A000AD208A31EC2A0130EA000030EB00EC2A51
:1015B00021006B08003A0319DE2AD32A6A08003A90
:1015C00003195E2A013A0319702A033A0319912A72
:1015D000013A0319B22AD32A08007B2B22003708CC
:1015E0000319F32AF42A242B9E31FC268A31210088
:1015F000AB010030903185208A3139302100AB00B9
:101600009930AC009031AD208A312100AB01AB0A9A
:101610000030903185208A3122005E080319112B99
:10162000122B1B2BD3302100AB009830AC00903133
:10163000AD208A318C2BAE302100AB009830AC004D
:101640009031AD208A318C2B01302100EA07003027
:10165000EB3D2200360803192E2B2F2B5F2B9E31DA
:10166000FC268A312100AB010030903185208A317F
:101670004A302100AB009930AC009031AD208A3166
:101680002100AB01AB0A0030903185208A31220065
:101690005D0803194C2B4D2B562BD3302100AB008A
:1016A0009830AC009031AD208A318C2BAE302100C7
:1016B000AB009830AC009031AD208A318C2B0130DA
:1016C0002100EA070030EB3D9E31FC268A312100E3
:1016D000AB010030903185208A319E302100AB0073
:1016E0009930AC009031AD208A318C2B0130EA006A
:1016F0000030EB008C2B21006B08003A0319812B82
:10170000762B6A08003A0319EE2A013A0319292BAD
:10171000033A0319642B762B0800292C9E31FC26F2
:101720008B312100AB010030903185208B31DC30D2
:101730002100AB009930AC009031AD208B312100FD
:10174000AB01AB0A0030903185208B31AE302100E7
:10175000AB009930AC009031AD208B31402C9E31E4
:10176000FC268B312100AB010030903185208B317C
:10177000F5302100AB009830AC009031AD208B31BA
:101780002100AB01AB0A0030903185208B31AE30A7
:101790002100AB009930AC009031AD208B31402C52
:1017A0009E31FC268B312100AB0100309031852029
:1017B0008B3106302100AB009930AC009031AD2068
:1017C0008B312100AB01AB0A0030903185208B3189
:1017D000AE302100AB009930AC009031AD208B31A0
:1017E000402C9E31FC268B312100AB010030903122
:1017F00085208B318E302100AB009930AC009031C8
:10180000AD208B312100AB01AB0A00309031852037
:101810008B31AE302100AB009930AC009031AD205F
:101820008B31402C9E31FC268B312100AB010030E6
:10183000903185208B319E302100AB009930AC0077
:101840009031AD208B31402C0130EA000030EB00AC
:10185000402C21006B08003A03192F2C242C6A0815
:10186000003A03198E2B013A0319AF2B033A0319DF
:10187000D02B013A0319F12B073A0319122C242C0F
:101880000800F2012830860000308700473FF00052
:10189000F01F4B2C4C2C6D2C2000A809A909AA097B
:1018A000AB09AC09AD09AE09AF09A80A031D6B2C41
:1018B000A90A031D6B2CAA0A031D6B2CAB0A031D7E
:1018C0006B2CAC0A031D6B2CAD0A031D6B2CAE0AEE
:1018D000031D6B2CAF0AF201F20A203086000030A3
:1018E0008700473FF000F01F762C772C962C2000C5
:1018F000A009A109A209A309A409A509A609A70984
:10190000A00A031D962CA10A031D962CA20A031DF2
:10191000962CA30A031D962CA40A031D962CA50A37
:10192000031D962CA60A031D962CA70A200020084A
:101930002104220423042404250426042704031973
:10194000A22CA32CF62CF101F10AB22CA035A10D8A
:10195000A20DA30DA40DA50DA60DA70D0130F0003D
:101960007008F107A71FB52CB62CA62C27082F024C
:10197000031DD42C26082E02031DD42C25082D026D
:10198000031DD42C24082C02031DD42C23082B0265
:10199000031DD42C22082A02031DD42C210829025D
:1019A000031DD42C20082802031CD72CD82CE82C8B
:1019B0002008A8022108A93B2208AA3B2308AB3B28
:1019C0002408AC3B2508AD3B2608AE3B2708AF3BBF
:1019D000A736A60CA50CA40CA30CA20CA10CA00C61
:1019E0000130F102031DF52CF62CB62C72080319F8
:1019F000FA2CFB2C192DA809A909AA09AB09AC09D5
:101A0000AD09AE09AF09A80A031D192DA90A031DC6
:101A1000192DAA0A031D192DAB0A031D192DAC0A95
:101A2000031D192DAD0A031D192DAE0A031D192D15
:101A3000AF0A20002808A0002908A1002A08A20057
:101A40002B08A3002C08A4002D08A5002E08A60032
:101A50002F08A70008002100B601AC308600003036
:101A60008700473FB400B41F362D372D592D210074
:101A7000AC09AD09AE09AF09B009B109B209B309A2
:101A8000AC0A031D562DAD0A031D562DAE0A031DCB
:101A9000562DAF0A031D562DB00A031D562DB10A4F
:101AA000031D562DB20A031D562DB30A2100B6019F
:101AB000B60AA430860000308700473F2100B400FA
:101AC000B41F632D642D832D2100A409A509A60947
:101AD000A709A809A909AA09AB09A40A031D832D0E
:101AE000A50A031D832DA60A031D832DA70A031D26
:101AF000832DA80A031D832DA90A031D832DAA0A7D
:101B0000031D832DAB0A2100240825042604270485
:101B1000280429042A042B0403198F2D902DE32D6A
:101B2000B501B50A9F2DA435A50DA60DA70DA80DCD
:101B3000A90DAA0DAB0D0130B4003408B507AB1FD9
:101B4000A22DA32D932D2B083302031DC12D2A088E
:101B50003202031DC12D29083102031DC12D2808A1
:101B60003002031DC12D27082F02031DC12D260899
:101B70002E02031DC12D25082D02031DC12D240891
:101B80002C02031CC42DC52DD52D2408AC0225081C
:101B9000AD3B2608AE3B2708AF3B2808B03B2908E1
:101BA000B13B2A08B23B2B08B33BAB36AA0CA90CBD
:101BB000A80CA70CA60CA50CA40C0130B502031DA3
:101BC000E22DE32DA32D36080319E72DE82D062E6F
:101BD000AC09AD09AE09AF09B009B109B209B30941
:101BE000AC0A031D062EAD0A031D062EAE0A031D08
:101BF000062EAF0A031D062EB00A031D062EB10ADB
:101C0000031D062EB20A031D062EB30A21002C085E
:101C1000A4002D08A5002E08A6002F08A700300854
:101C2000A8003108A9003208AA003308AB00080058
:101C30002000DF004E0886004F088700403FD2009A
:101C4000413FD30052088400530885001200253A12
:101C5000031D2B2E2C2EE22E4E0886004F088700E7
:101C60000130810741310318810A2200A201A3013A
:101C7000A601A701FF30A400FF30A50020004E08F8
:101C800086004F088700403FD200413FD3005208F2
:101C90008400530885001200643A0319502E512E17
:101CA000632E4E0886004F088700403FD200413F18
:101CB000D30052088400530885001200693A031DBE
:101CC000622E632EAA2E4E0886004F088700013030
:101CD000810741310318810A5008860051088700A6
:101CE0000108D2000230810741310108D3000030E1
:101CF0000318810A81075208860053088700403F75
:101D0000D400413FD5005408D7005508D800890DAC
:101D1000893B8909D900DA00DB00DC00DD00DE0048
:101D20005708B0005808B1005908B2005A08B3006B
:101D30005B08B4005C08B5005D08B6005E08B7003B
:101D40005F08833164238E3120003108CF003008D2
:101D5000CE00072F4E0886004F088700403FD20074
:101D6000413FD30052088400530885001200253AF1
:101D7000031DBB2EBC2ED62E4E0886004F088700B2
:101D80000130810741310318810A2530F20000300B
:101D9000F3005F08D2005208F400943128248E31F9
:101DA00001302000CE000030CF00072F4E08860003
:101DB0004F0887000130810741310318810ACE01A5
:101DC000CF01072F4E0886004F088700403FD20002
:101DD000413FD30052088400530885000008D40016
:101DE000D5015408F2005508F3005F08D6005608E4
:101DF000F400943128248E3120004E0886004F08CC
:101E000087000130810741310318810AD02E080074
:101E10002200350803190D2F0E2F0F2FFF2F05302D
:101E20009A318D228F319730F0001C30F1009A31B9
:101E3000D3228F3122005B08031D1F2F202F262F56
:101E4000DB01DB0A9B31FC238F31FF2F2A032B049C
:101E5000031D2B2F2C2F352F023021006A066B0417
:101E6000031D332F342F352F222F023022002A0654
:101E70002B04031D3C2F3D2F462F043021006A0602
:101E80006B04031D442F452F462F222F02302200C2
:101E90002A062B04031D4D2F4E2F832F04302100C3
:101EA0006A066B040319552F562F832F702F0530A8
:101EB0009E31DE268F31222F0A309E31DE268F3171
:101EC000222F0F309E31DE268F31222F14309E318B
:101ED000DE268F31222F05309E31DE268F31222FD4
:101EE0006B08003A0319752F6B2F6A08003A031923
:101EF000572F013A03195C2F033A0319612F013A56
:101F00000319662F6B2F22002A032B04031D892F30
:101F10008A2FAB2F21006A086B04031D902F912F8D
:101F2000AB2F22005E080319962F982F0130992FAE
:101F300000302100A30023082200DE00DC01DC0ABF
:101F40005D082100A3002308FD0022005E089331F4
:101F50004E238F31FF2F22002A032B04031DB12FA4
:101F6000B22FD32F21006A036B04031DB82FB92FA2
:101F7000D32F22005D080319BE2FC02F0130C12FBF
:101F800000302100A30023082200DD00DC01DC0A70
:101F90005D082100A3002308FD0022005E089331A4
:101FA0004E238F31FF2F22002A082B04031DD92F27
:101FB000DA2FFF2F2A082B04031DDF2FE02FEF2F2E
:101FC00021006B08803AA30080302302031DEA2F12
:101FD00003306A02031CED2FEE2FEF2FFF2F21009D
:101FE0006A08013E2200AA00003021006B3D220059
:101FF000AB002100EA01EB012200DC01DC0A080051
:102000002100A7002300BC1D062807281628210050
:102010002708A60026082300B70021002508230072
:10202000B900210024082300B800BC1108002000DA
:102030008F0121008F0120008F1705302100AB0098
:10204000DD30890B2128AB0B2128003232309F3143
:10205000BA27903128309F31BA2790310C309F3108
:10206000BA27903101309F31BA27903106309F3125
:10207000BA2790310800FC007C089331EE239031A0
:10208000003A0319442845283C287B08F1007A08C7
:10209000F00079089C31E02490310030F500F60022
:1020A000F7019C31562490319A31C42290319D31F0
:1020B000DB259031013A03195E285F285728080074
:1020C0002100A7002708A5000430A536890B652844
:1020D0002508A6002608A70027080F39A50025080F
:1020E000A70020000F08F0398F000F0821002704F7
:1020F00020008F002100240C2000031C8F120318E5
:102100008F160F130F160F1208002100AE000230B9
:102110002B0203188C288D28AC2810302E02031CAB
:10212000922893289428AC282B03031998289928DF
:102130009F2880302E04AC000030AD00A428C030B1
:102140002E04AC000030AD002C089F31BA2790312E
:10215000FA300032890BA92808002100B001C428F8
:102160002C08AE002B08AD0030082D0784002E0887
:1021700003182E0A850000089F315827903101303E
:102180002100AD002D08B0072C08AE002B08AD00D3
:1021900030082D0784002E0803182E0A850012002F
:1021A000031DD328D428B02808002000A000A201D5
:1021B000A301ED282108FB00FC017B08F2007C084C
:1021C000F3007A08FD007D08F40094312824903152
:1021D00001302000A2070030A33D22082007FB00A9
:1021E0007B088600023087000108FC007C08A10003
:1021F0002108031DFC28FD28DA2808002100B10071
:1022000021003108943167249031003A03190929DB
:102210000A29002921003008A5002F08A4002E0853
:1022200090310020903100302100A900AA00AB01BC
:102230009C31A52490319A31CE2290319F3178275C
:102240009031013A0319252926291E290800210069
:10225000B500B301B4013F293208AF00B0012F0827
:10226000A6003008A7002E08B1003108A80094315C
:10227000E924913101302100B3070030B43D330827
:102280003507AF002F088600023087000108B00034
:102290003008B2003208031D4E294F292C290800AE
:1022A00022005C08031D55295629662978298A31A0
:1022B0005D22913176298A31ED22913176298B3157
:1022C0008D2391317629AA01AB0176292B08003A9A
:1022D00003196B2963292A08003A03195729013A7F
:1022E00003195B29033A03195F2963292200DC01E2
:1022F0000800F4007008710403197F2980299329CC
:102300007435A03E8600013087007008C03F710818
:10231000C13F7208F3007408AC3E860001308700AC
:1023200073088100A2297435A03E86000130870021
:10233000F130C03F1A30C13F7408AC3E8600013016
:102340008700810108009A313B22913123003C1C17
:10235000AA29AB29B8299A31D9229131003A031917
:10236000B229B329B8290F30F30073082300BA004B
:1023700023003A08F300F401F335F40D2730730716
:1023800084009830743D8500013F8A00003F0A00B8
:102390009131F50075082300BA0008002100A8005B
:1023A000240825040319D529D629E9292835A03E72
:1023B0008600013087002408C03F2508C13F260859
:1023C000A7002808AC3E860001308700270881005E
:1023D000F8292835A03E860001308700F130C03F43
:1023E0001A30C13F2808AC3E8600013087008101C9
:1023F000080023003C100230F0007008BB00082ADF
:102400009A31A6229131252A9A31AB229131252A7F
:102410002E08F0007008F0000430A03E8600013065
:102420008700413F8A00403F0A009231F100F201EB
:102430007208003A03191D2A042A7108023A031986
:10244000002A013A0319002A042A08009A31562268
:10245000923123003C1C2D2A2E2A3C2A9B31032337
:102460009231003A0319352A362A3C2A0F302100CE
:10247000A80028082300BA0023003A082100A80079
:10248000A901A835A90D2730280784009830293DD7
:102490008500013F8A00003F0A0092312100AA0016
:1024A0002A082300BA0008002300BC15642A9A31C8
:1024B000A6229231822A9A31532292310330822A03
:1024C0009A31AB229231822A2C08F0007008F00079
:1024D00021088A0020080A009231F100F2017208F6
:1024E000003A0319742A602A7108013A0319602A14
:1024F000033A0319572A013A0319572A073A0319CD
:102500005B2A602A08002000E5006108E7006008F7
:10251000E6002200A001A101A12A6630CE00003011
:10252000CF006308D1006208D00065088E311826FC
:10253000923120004E082200A00720004F08220000
:10254000A13D200066088400670885001200031D75
:10255000AA2AAB2A8D2A220021082000E1002200AD
:1025600020082000E000080022003208031DB92ADC
:10257000BA2ABB2AE52A01302100A0002008220047
:10258000B40747302000E8009830E9002200340802
:1025900033022000EA00EB01031CEB039C31F02422
:1025A0009231220033083402031CD72AD82AE52AA4
:1025B000BE302000E8009930E9009C31F0249231CF
:1025C0002200B401B301B201DB0108002200D000F7
:1025D000210065082200D200210064082200D100F9
:1025E000A001A101092B51302100E7006708DD009F
:1025F0006608E8006808DE00220050088631DA2606
:10260000923121005D082200A00721005E0822000F
:10261000A13D51088400520885001200031D112BB2
:10262000122BF32A21082100E500220020082100B6
:10263000E400080000302100AF000030AE000030A0
:10264000AD000030AC00241C262B272B2F2B280894
:10265000AC072908AD3D2A08AE3D2B08AF3D01303F
:10266000A835A90DAA0DAB0D890B302B0130A7366B
:10267000A60CA50CA40C890B372B270826042504CF
:102680002404031D442B452B232B2F08A7002E08C1
:10269000A6002D08A5002C08A40008002000A10019
:1026A000230040082000A50023003F082000A400CC
:1026B00023003E082000A30023003D082000A200C4
:1026C00021080319642B652B672BA401A40A7D083C
:1026D00003196B2B6C2B6E2BA501A50A2230A000D1
:1026E0002008F9000430FA000030FB00503090312F
:1026F0003B20933107302000A0007D30890B7E2BDA
:10270000A00B7E2B08007E1C872B9131F92923001A
:102710003C1002302100A40024082300BB00982BA9
:102720009B31BD239331B72B9B31C6239331B72BFC
:102730002E082100A4002408A4000430A03E860036
:1027400001308700413F8A00403F0A009331210059
:10275000A500A6012608003A0319AF2B942B2508E3
:10276000023A0319902B013A0319902B942B08007D
:102770007E1CBC2B9231542A2300BC15CC2B9B31E0
:10278000BD239331ED2B9A316E2293310330ED2B23
:102790009B31C6239331ED2B2C082100A400240883
:1027A000A400230021088A0020080A009331210098
:1027B000A500A6012608003A0319DF2BC82B25081F
:1027C000013A0319C82B033A0319BF2B013A031925
:1027D000BF2B073A0319C32BC82B0800F100F201E5
:1027E000F20A23003C19F52BF62B262C7108F00079
:1027F0007008B600BC103C153C100E30F00070089C
:10280000BA00F430B4000130B500BC15F130A000BE
:102810001A30A100AC01F130A2001A30A300AD01C2
:10282000F130A4001A30A500AE01F130A6001A3034
:10283000A700AF01F730A8001A30A900B0019A3103
:102840003B2293319C3149249331F20172080800F4
:10285000740803192C2C2D2C322C7408031D312CD8
:10286000322C372C72089A31E5229431662C740888
:10287000033E86008701160001040319402C412CF9
:102880005E2C7408033E86008701403FF500413FFF
:10289000F600740A86008701403FF700413FF800C8
:1028A0007808803AF9007608803A7902031D5A2C9C
:1028B0007508770203185D2C5E2C662C740A86005E
:1028C00087010130810741310318810A0800210086
:1028D000A500A601A60A23003C196F2C702CA52C7C
:1028E00021002508A40024082300B600BC103C15D4
:1028F0003C100E302100A40024082300BA00F4305C
:10290000B4000130B500BC15F130A0001A30A100B0
:10291000AC01F130A2001A30A300AD01F130A400E7
:102920001A30A500AE01F130A6001A30A700AF01A1
:10293000F730A8001A30A900B0019A31562294311C
:102940009C318A2494312100A60121002608080028
:102950002100B800B401B501B430B3003308AE00B3
:102960000230AF000030B00050309031FE20943182
:10297000B6302100B3003308AE000230AF000030A3
:10298000B00050309F319927943121003608031D43
:10299000CA2CCB2CD12C380886000130870081014D
:1029A000D72C38088600013087008101810A37085A
:1029B000031DDB2CDC2CE22C320886000130870062
:1029C0008101E82C32088600013087008101810AEC
:1029D0000800210028080319EE2CEF2CF42C2808FD
:1029E000031DF32CF42CF92C26089B31232394315E
:1029F000292D2808033E86008701160001040319CB
:102A0000022D032D202D2808033E86008701403F1C
:102A1000A900413FAA00280A86008701403FAB0079
:102A2000413FAC002C08803AAD002A08803A2D02C4
:102A3000031D1C2D29082B0203181F2D202D292DC5
:102A40002100280A860087010130810741310318DF
:102A5000810A08002200350803192F2D302D312D51
:102A60006C2D05309A318D2295319730F0001C3055
:102A7000F1009A31D322953122002A032B04031D41
:102A8000422D432D512D023021006A066B04031D97
:102A90004A2D4B2D512D220036080319502D512D52
:102AA000572DFF302100EA07FF30EB3D622D37083C
:102AB00003195B2D5C2D622DFE302100EA07FF30EB
:102AC000EB3D622D2100EB1F662D672D692DEA017C
:102AD000EB012200DC01DC0A08009A31502295311A
:102AE000F00023003708860087017008810001305C
:102AF000F0007008B7070130B8020030B93B380861
:102B000039040319842D852D8A2D9A31752295312A
:102B10000530B22DBC15942D9A31BA229531B22DC3
:102B20009A31B5229531B22D2C08F0007008F000D2
:102B300021088A0020080A009531F100F20172088C
:102B4000003A0319A42D902D7108013A0319902D14
:102B5000033A03198C2D013A03198C2D073A0319F6
:102B6000902D902D0800220035080319B82DB92D9D
:102B7000BA2D012E05309A318D2295319730F00013
:102B80001C30F1009A31D322953101302100EA073F
:102B90000030EB3D22002A082B04031DD02DD12D3F
:102BA000E42D21006B08803AF20080307202031D90
:102BB000DB2D05306A02031CDE2DDF2DE42D0430F1
:102BC0002100EA000030EB0022002A032B04031D41
:102BD000EA2DEB2DFE2D21006B08803AF2008030AB
:102BE0007202031DF52D03306A02031CF82DF92D26
:102BF000FE2D02302100EA000030EB002200DC0153
:102C0000DC0A08007E1C062E95316D2D9A316B2250
:102C100096312100A4002300370886008701210097
:102C2000240881000130A40024082300B7070130E4
:102C3000B8020030B93B380839040319202E212E80
:102C4000262E9A31812296310530512EBC15302E18
:102C50009B31E1239631512E9B31D8239631512E51
:102C60002C082100A4002408A400230021088A00C5
:102C700020080A0096312100A500A6012608003A86
:102C80000319432E2C2E2508013A03192C2E033A42
:102C90000319282E013A0319282E073A03192C2E5E
:102CA0002C2E0800210061086204031D582E592EA5
:102CB000602E0030A400A5009D3173259631A22E10
:102CC0006208C0006108BF000030C4000030C300CB
:102CD0000030C2000A30C1000030C8000030C70018
:102CE0000330C600E830C5000030CC000030CB0017
:102CF0000030CA000030C9000030D0000030CF00E2
:102D00000030CE00FF30CD0088316920963121009F
:102D10004008E5003F08E400FF30E3006408630278
:102D20002200AC00210065090318890A2200AD00C9
:102D30002D082100A50022002C082100A4009D31AF
:102D40007325963108002100A6002608023E860061
:102D500001308700B330C03F1530C13F2608043E24
:102D60008600013087002A30C03F1530C13F260859
:102D7000063E8600013087000830C03F0F30C13F5B
:102D80002608083E8600013087005030C03F1130D1
:102D9000C13F26080A3E8600013087005D30C03FF3
:102DA0000A30C13F26080E3E860001308700ED3014
:102DB000C03F0A30C13F2608103E86000130870020
:102DC0008530C03F1A30C13F24088600023087009A
:102DD0000108A50025082200B7002100240886006C
:102DE000023087000230413F2200B60008009A31CD
:102DF000D9229631003A0319FE2EFF2E302F0C2FC8
:102E00009A319C2296314D2F9A31A12296314D2F25
:102E10009A31AB2296314D2F23002F08F000700815
:102E2000F0000630A03E860001308700413F8A0056
:102E3000403F0A009731F100F2017208003A03198D
:102E4000222F082F7108013A0319082F033A03199A
:102E5000002F013A0319042F073A0319082F082FEE
:102E600023003C101730A03E860001308700403F11
:102E700084008501810A00089A319222963101303E
:102E80002300B8020030B93B38083904031D492F2C
:102E90004A2F4C2F06304D2F033008002000AC0085
:102EA0002200261C542F552F5E2F20002C08A7002F
:102EB0002708FA0024089031D52097312000A61B5E
:102EC000622F632F682F2608AB002508AA006A2FFF
:102ED000AA01AB01A801A9017E2F2030F200003029
:102EE000F30020002C08A7002708F40094312824C0
:102EF000973101302000A8070030A93D2908803A09
:102F0000A7002B08803A2702031D882F2A082802D1
:102F1000031C8B2F8C2F6D2F22002618902F912FA2
:102F20009A2F20002C08A7002708FA0024089031C7
:102F3000D5209731200024089D31A6259731200007
:102F40002A087007A4002B08713DA5000800210085
:102F5000BE002200261CAD2FAE2FB72F21003E0849
:102F6000B9003908AE003608913127219731210088
:102F7000B81BBB2FBC2FC12F3808BD003708BC00C1
:102F8000C32FBC01BD01BA01BB01D72F20302100E6
:102F9000A6000030A7003E08B9003908A800943107
:102FA000E924973101302100BA070030BB3D3B08CE
:102FB000803AB9003D08803A3902031DE12F3C08F0
:102FC0003A02031CE42FE52FC62F22002618E92F12
:102FD000EA2FF32F21003E08B9003908AE00360869
:102FE000913127219731210036089D31C025973135
:102FF00021003C082407B6003D08253DB700080025
:1030000049346D347034723469346D3469346534E4
:103010006E3464346F342034733465346E347334F6
:103020006F347234653473342034703461347234E4
:1030300061342034633461346C3469346234723402
:10304000613472343A3420340D340A340034A234FA
:103050001B3470341C3430341C340C3408340234C7
:10306000163425341C34B8341334AB341B34B43424
:103070001B34BD341B34C6341B34CF341B34D8341A
:103080001B34E1341B34EA341B34833413344134AD
:1030900070346134673461346E3464346F34203496
:1030A00065346E342034253464342034733465340C
:1030B000673475346E3464346F3473342E342E3484
:1030C0002E3420340D340A340034533465346E34D5
:1030D00073346F34723420346434653420346C3487
:1030E00075347A34203463347234753464346F3414
:1030F0003A342034253464340D340A3400344134F5
:1031000070346134673461346E3464346F34203425
:1031100065346E342034253464342034733465349B
:10312000673475346E3464346F347334003453341C
:1031300065346E3473346F347234203464346534DF
:103140002034743465346D3470343A34203425348A
:103150006434203443340D340A34003420342034B1
:1031600044346534733468346134623469346C34A3
:1031700069347434613464346F342034203420343E
:103180002034003420342034203464346534203436
:103190004134703461346734613464346F342034C2
:1031A0002034203400342034203420344834613436
:1031B000623469346C3469347434613464346F3427
:1031C000203420342034003420342034203420347F
:1031D00045346E34633465346E3464346934643435
:1031E0006F3420342034203400343C3420342034F4
:1031F000203420342034203431343034203420340E
:1032000020342034203420343E3400343C34203404
:1032100020342034203420342034313435342034E8
:10322000203420342034203420343E3400343C34E4
:1032300020342034203448346F34723461342034E4
:103240006434653420342034203420343E34003457
:103250002034203420342034533465346E347334B5
:103260006F347234653473342034203420343E3467
:1032700000343C3420342034543465346D3470349C
:10328000653472346134743475347234613420348A
:103290003E3400343C34203420344C3475346D34A6
:1032A00069346E346F347334693464346134643433
:1032B00020343E3400343C342034543465346D348E
:1032C00070346F34723469347A34613464346F34F6
:1032D000723420343E3400342034203420342034FE
:1032E000203420342034203420342034203420343E
:1032F00020342034203420340034503449344334D2
:1033000020346134703461346734613464346F3430
:103310002E342E342E340D340A3400343C34203410
:1033200020342034203420342034323430342034DB
:103330002034203420342034203400343C342034F1
:103340002034203452346534673472346534733435
:10335000613472342034203420340034203420345A
:103360002034203420346D3469346E347534743430
:103370006F347334203420342034003441347034BA
:103380006134673461346E3464346F342E342E34D7
:103390002E3420340D340A340034203420342034C8
:1033A00020344134703461346734613464346F34B0
:1033B000203420342034003420342034203420348D
:1033C0002034203435342034203420342034203448
:1033D00020343E3400343C3420342034203448340B
:1033E0006F347234613420346434653420340034F2
:1033F000543465346D3470346534723461347434EB
:1034000075347234653400344234693465346E3452
:10341000763465346E34693464346F342134003466
:0C3420004C346934673468347434003470
:10346E000800080008000800200091110800240040
:10347E00951208002100911108002400161408006E
:10348E002400961408002400161508002400961532
:10349E0008002400110808002000911508002000E3
:1034AE0091110800240095120800210091110800C6
:1034BE002400161408002400961408002400161583
:1034CE0008002400961508002400110808002000AA
:1034DE009115080024009616161608002400961260
:1034EE0016160800163021009700080024009616C4
:1034FE001616080024009612161608009E31FC2699
:10350E009A3108000134013401340134F00070089E
:10351E0020009B000800F0007008240091000800B5
:10352E002300BC10BB010E3008009A3147229A319D
:10353E00013008009A3147229A31023008009A3140
:10354E0047229A31013008009A314A229A310030CE
:10355E0008009A3175229A31053008009A3171228D
:10356E009A310A3008009A3171229A3109300800D6
:10357E002300BC10BB010E30080000309E31C02667
:10358E009A31080001309F31DD279A310800003052
:10359E009F31DD279A31080071082300DD00700885
:1035AE00DC0008002400160E890C890C0139080075
:1035BE002000911DE32AE42ADF2A0800F100710899
:1035CE009C3106249A310800200091109C3163240E
:1035DE009A3108007E1CF52A80310228013008003D
:1035EE007E1CFB2A8731FE2F053008002100A40027
:1035FE0024082400910008002400160E890C890C62
:10360E00013908002000911D0D2B0E2B092B0800EF
:10361E00640080010131890B102B003423003C1013
:10362E009A314D229B310430080058302100990008
:10363E0098012200960108002100A5002508883176
:10364E0000209B3108002100A40101309D3142254C
:10365E009B3108002100A40100309D3142259B3191
:10366E00080023003C1436359A3192229B310330E8
:10367E0008002100A401A40A00309D3142259B318F
:10368E00080023003C140314360D9A3192229B310C
:10369E0005300800863021009E009F019B019C0191
:1036AE0001309D000800210025082300DF002100C5
:1036BE0024082300DE000800210025082300E30073
:1036CE00210024082300E200080021002508230021
:1036DE00E100210024082300E000080024009401EA
:1036EE00083095009601F9309200951208002100DD
:1036FE0025082300E900210024082300E800080023
:10370E00210025082300E700210024082300E600FD
:10371E000800210025082300E500210024082300CD
:10372E00E4000800210025082300DD002100240804
:10373E002300DC0008007E1CA62B9A31972A23005A
:10374E00BC10BB010E3008007E1CAF2B9A319C2A98
:10375E009A3162229B31013008007E1CB82B9A31BF
:10376E00A12A9A3162229B31023008007E1CC12BA5
:10377E009A31A62A9A3162229B31013008007E1CB2
:10378E00CA2B9A31AB2A9A3165229B310030080040
:10379E007E1CD32B9A31B02A9A3181229B3105306F
:1037AE0008007E1CDC2B9A31B52A9A317D229B3182
:1037BE000A3008007E1CE52B9A31BA2A9A317D22F6
:1037CE009B31093008007E1CEE2B9A31BF2A230054
:1037DE00BC10BB010E300800FF302100A4000030E9
:1037EE00A5009D3173259B3108002200AA01AB0173
:1037FE002100EA01EB012200DC01DC0A0800F000E6
:10380E002000111E0B2C0C2C072C700823009A0084
:10381E0008004030280096009501200092100730D5
:10382E0028009700080080302C009900980197011D
:10383E0025001E08CF3910389E0008007E1C292C4A
:10384E009B31152B23003C109A3168229C31043099
:10385E0008007E1C342C9B31382B23003C1436354B
:10386E009A31FD229C3103300800432C9A31DF221D
:10387E009C319131A3219C312300BC18472C482C3C
:10388E003D2C08002400951A4D2C4E2C552C9401DD
:10389E00083095009601F9309200951608007608CA
:1038AE00F1007508F0007708F8007808F200023091
:1038BE00913179219C31080023005C085D040319C5
:1038CE00692C6A2C6F2C5D088A005C080A009C31FA
:1038DE0008007E1C742C9B31482B23003C140314CF
:1038EE00360D9A31FD229C3105300800842C9B3117
:1038FE0009239C31923126229C312300BC18882C3E
:10390E00892C7E2C08002400951A8E2C8F2C962C38
:10391E009401083095009601F93092009516080032
:10392E00B430F0001230F1009A31D3229C31E730DE
:10393E009A318D229C312200B501080021002A08FF
:10394E00A5002908A4002B08AC002C08A600023004
:10395E009131CE219C3108002300680869040319B7
:10396E00B92CBA2CBF2C69088A0068080A009C3151
:10397E002700931208002300660867040319C82C59
:10398E00C92CCE2C67088A0066080A009C312700D5
:10399E00131308002300640865040319D72CD82CD0
:1039AE00DD2C65088A0064080A009C3127009313F9
:1039BE000800F3002300BC1DE52CE62CEF2C730849
:1039CE00F2007208B7007108B9007008B800BC1197
:1039DE0008006A302000EE000030EF006908E100B8
:1039EE006808E0006E30E2000030E30000309231F3
:1039FE0083229C310800F33020009B009A01911025
:103A0E00210091143A30A4001A30A5009B3199235D
:103A1E009D317F3020009C00080055302100E900C8
:103A2E0069082200D90054082100E500220053083D
:103A3E002100E4005930E9006908E60000309231B7
:103A4E00E6229D3108002100A7002708A600A60D3A
:103A5E00A60D1D082606833926069D001D1400009E
:103A6E0021009D149D183C2D3D2D392D1C08A500BF
:103A7E001B08A40008002100A50025080319482DE5
:103A8E00492D4C2D22008D144E2D22008D1021001B
:103A9E0024080319532D542D572D22000D15592D81
:103AAE0022000D1108002700931E5E2D5F2D622D42
:103ABE009C31B3249D312700131F662D672D6A2D6F
:103ACE009C31C2249D312700931F6E2D6F2D722DB8
:103ADE009C31D1249D31080021002508A70024081F
:103AEE00A600A736A60CA736A60C26082C00980012
:103AFE00210024080339A6000530A635FF3E031D1C
:103B0E00842D26352C00970008007408803AF500A5
:103B1E0080307502031D952D013073020318982D08
:103B2E00992DA52D7309F5007409F600F50A0319F0
:103B3E00F60A7508F3007608F400A52D0800F400C7
:103B4E007408F2007208F300B02D0130F200720812
:103B5E00F40774088600023087000108031DB82D93
:103B6E00B92DAC2D73087402F000F101F01BF103B6
:103B7E0008002100A8002808A6002608A700CB2DC3
:103B8E000130A6002608A807280886000230870004
:103B9E000108031DD32DD42DC72D27082802A400FC
:103BAE00A501A41BA5030800F101F10A2300BC180E
:103BBE00E12DE22DF52D3C11FF30F0007008B6001E
:103BCE009A313B229D319A3141229D319A313E22CA
:103BDE009D3123003B08F0007008F10071080800C9
:103BEE009B3175239D318831D0209D319B311C2313
:103BFE009D319A3179229D319B3151239D319C31DA
:103C0E0010249D319C311A249D319D3102259D3108
:103C1E008731D9279D31080021003808803AB90034
:103C2E0080303902031D1D2E013037020318202E5D
:103C3E00212E2E2E21003709B9003809BA00B90AF3
:103C4E000319BA0A3908B7003A08B8002E2E080030
:103C5E002100A40024088600013087005230C03FA6
:103C6E001630C13F2408023E8600013087004330E3
:103C7E00C03F0930C13F2408043E86000130870052
:103C8E00F330C03F1B30C13F08002100A4002408C0
:103C9E008600013087001030C03F9A30C13F2408A3
:103CAE00023E8600013087003930C03F1F30C13FD1
:103CBE002408043E860001308700A330C03F1E302A
:103CCE00C13F08002100A4002408860001308700AF
:103CDE00F830C03F9930C13F2408023E86000130C3
:103CEE0087001A30C03F1F30C13F2408043E8600B3
:103CFE00013087008630C03F1E30C13F08002200D1
:103D0E00380803198B2E8C2E9F2E5E080319902EC9
:103D1E00912E9F2E00309D312A259E31210025089F
:103D2E00AB002408AA002B08A9002A08A800A22E7E
:103D3E002100A801A9010800220039080319A82EA4
:103D4E00A92EBC2E5D080319AD2EAE2EBC2E013051
:103D5E009D312A259E3121002508AB002408AA009A
:103D6E002B08A9002A08A800BF2E2100A801A9012E
:103D7E000800F700F801F80A2300BC18C72EC82E59
:103D8E00DC2EBC14F80177080319CE2ECF2ED22EBE
:103D9E00BA01BA0AD62E0230F6007608BA009A3167
:103DAE0044229E319C313C249E317808080021002B
:103DBE00A2007F302000E8009830E90021002208A0
:103DCE00A000A10120082000EA0021002108200007
:103DDE00EB009C31F0249E3121002208A000200827
:103DEE002200B300B201B20A08002100AB0100307C
:103DFE00903185209E316C302100AB009930AC00A3
:103E0E009031AD209E312100AB01AB0A00309031D4
:103E1E0085209E316C302100AB009930AC00903182
:103E2E00AD209E31080000309D312A259F312100A2
:103E3E002508AB002408AA002B08803AA800803081
:103E4E002802031D2C2F01302A0203182F2F312F89
:103E5E000130322F00302100A90029082200B800BD
:103E6E003808080001309D312A259F312100250890
:103E7E00AB002408AA002B08803AA8008030280244
:103E8E00031D4B2F01302A0203184E2F502F0130E5
:103E9E00512F00302100A90029082200B90039084D
:103EAE0008002100AA00FA300032890B5B2F210096
:103EBE00A401A40A2A08903160209F3121002A080B
:103ECE00A8000330A835FF3E031D692F2835A90031
:103EDE002908AA00A401A40A2A08903160209F3163
:103EEE0008002100A501A50A2300BC187F2F802FF2
:103EFE00962F3C11FF302100A40024082300B600A9
:103F0E009A3156229F319A315C229F319A31592231
:103F1E009F3123003B082100A4002408A5002100A6
:103F2E00250808002100B1002100310894316724D2
:103F3E009F31003A0319A42FA52F9B2F2100300883
:103F4E00A5002F08A4002E08903100209F319A3131
:103F5E00C9229F319F3178279F31013A0319B82F1B
:103F6E00B92FB12F08002100AA00FA300032890BB8
:103F7E00BD2F2100A4012A08903160209F3121001D
:103F8E002A08A8000330A835FF3E031DCA2F283586
:103F9E00A9002908AA005330890BD32F0000210055
:103FAE00A4012A08903160209F3108002100AC0046
:103FBE00AD01AD0A2300BC18E52FE62FFD2FBC1472
:103FCE002100AD012C080319ED2FEE2FF22F230047
:103FDE00BA01BA0AF72F0230AB002B082300BA0041
:103FEE009A315F229F319C317D249F3121002D0813
:023FFE000800B9
:020000040001F9
:04000E00E43FFF3E8E
:00000001FF
