:020000040000FA
:10000000803102288731F52FF000700886008701C3
:10001000EE30C03F0030C13F7008023E86008701CD
:10002000BF30C03F0230C13F08007408803AF5007D
:1000300080307502031D1E28013073020318212829
:1000400022282E287309F5007409F600F50A031911
:10005000F60A7508F3007608F4002E280800F4016B
:10006000F501701C3428352839287208F407730804
:10007000F53D0130F235F30D890B3A280130F136A8
:10008000F00C890B3F2870087104031D482849288B
:1000900031287508F1007408F000080008302300CA
:1000A0009F0090309D0024309E0019309B009C01E1
:1000B0000030F0000030F1008E31E4268031003055
:1000C000F0000030F1008E31EA2680310030F0007F
:1000D0000030F1008E31DE2680312100AA010800B7
:1000E000200026082802F6002708293BF7002608EA
:1000F0002402F0002708253BF1002A082C02F20018
:100100002B082D3BF30080312F2080317108F9003E
:100110007008F80082315F22803120002A087607BB
:10012000A4002B08773DA50008002000A300A10132
:10013000A201AD282008FB00FC017B08F2007C082E
:10014000F3007A08FD007D08F40081312B21803115
:1001500001302000A1070030A23D21082307FB0049
:100160007B08860087010108FC007C08A0002008AD
:10017000031DBB28BC289A2808002000E3005F0864
:10018000E5005E08E4002100A001A101DB28643045
:10019000E1006108CE006008E2006208CF00630859
:1001A0008331C123803120004E082100A0072000A8
:1001B0004F082100A13D20006408840065088500E7
:1001C0001200031DE428E528C7282100210820008B
:1001D000DF00210020082000DE00080020006F085A
:1001E000A5006E08A4000030A600A7006430A80097
:1001F0000030A9000030AA00AB006430AC00003031
:10020000AD0080317020803164302100CB002000AF
:10021000240821004B02A800200025090318890AA0
:100220002100A900AE302000E6009030E700210058
:1002300029082000E900210028082000E8008F316B
:100240004D27803121002908F1002808F0008F3166
:10025000862780310800740803192F293029352991
:100260007408031D342935293A2972088E31F02685
:10027000813169297408033E860087011600010454
:1002800003194329442961297408033E8600870124
:10029000403FF500413FF600740A86008701403F69
:1002A000F700413FF8007808803AF9007608803A74
:1002B0007902031D5D2975087702031860296129F9
:1002C0006929740A860087010130810741310318CA
:1002D000810A0800220090018F018C018D018E019E
:1002E0000F3021009000FF308C00F8308D00BF30BF
:1002F0008E00FF308F00FF3023008F003C308E00D7
:1003000020308D00073090003F308C0024008F019A
:1003100090018D018C018E0121009517250090011F
:100320008C018D018E018F01FF3026008C00FF3083
:100330008D00FF308E00FF308F0007309000FF30BF
:1003400027008C00FF308D00FF308E00FF308F00C3
:100350000F30900017303C00A4000E303D00980094
:100360001430A6000800F601F31FB729B829BF29E9
:10037000F209F309F20A0319F30AF601F60AF11F6A
:10038000C229C329C829F009F109F00A0319F10AA1
:10039000700871040319CD29CE29F729F501F50A52
:1003A000DA290130F035F10D890BD2290130F40042
:1003B0007408F507F11FDD29DE29D12971087302C0
:1003C000031DE42970087202031CE729E829EC29BF
:1003D0007008F2027108F33B0130F136F00C890B22
:1003E000ED290130F502031DF629F729DE297608EB
:1003F0000319FB29FC29012AF209F309F20A03195E
:10040000F30A7308F1007208F00008002000AC0045
:100410002100261C0C2A0D2A162A20002C08A700D1
:100420002708FA0024088031952082312000A61B7D
:100430001A2A1B2A202A2608AB002508AA00222AED
:10044000AA01AB01A801A901362A2030F200003030
:10045000F30020002C08A7002708F40081312B218D
:10046000823101302000A8070030A93D2908803AD8
:10047000A7002B08803A2702031D402A2A082802D9
:10048000031C432A442A252A21002618482A492ADF
:10049000522A20002C08A7002708FA0024088031DF
:1004A00095208231200024088F31E72782312000F7
:1004B0002A087007A4002B08713DA5000800200041
:1004C000A101F71F642A652A6C2AF609F709F60AC2
:1004D0000319F70AA101A10AF91F6F2A702A792AC4
:1004E000F809F909F80A0319F90A0130FA007A083B
:1004F000A106A201A301760877040319802A812AA4
:10050000B02AA001A00A8D2A0130F635F70D890B1B
:10051000852A0130FA007A08A007F71F902A912A4D
:10052000842A0130A235A30D890B922A770879021B
:10053000031D9C2A76087802031C9F2AA02AA52A5C
:100540007608F8027708F93B22140130F736F60CEA
:10055000890BA62A0130A002031DAF2AB02A912AD6
:1005600021080319B42AB52ABA2AA209A309A20AA2
:100570000319A30A2308F7002208F6000800200048
:100580006F08A5006E08A4000030A600A700643024
:10059000A8000030A9000030AA00AB003C30AC003D
:1005A0000030AD008031702082312000250821000C
:1005B000CD00200024082100CC00CD1BE02AE12A38
:1005C000F22A4D08803ACB0080304B02031DEA2A04
:1005D00014304C020318ED2AEE2AF22A8F3122271A
:1005E0008231312B21004D08803ACB0080304B0204
:1005F000031DFC2A14304C02031CFF2A002B122B73
:1006000021004D08803ACB0080304B02031D0A2B9D
:1006100028304C0203180D2B0E2B122B8F313E2746
:100620008231312B21004D08803ACB0080304B02C3
:10063000031D1C2B28304C02031C1F2B202B312B9D
:1006400021004D08803ACB0080304B02031D2A2B3D
:100650003D304C0203182D2B2E2B312B8F313027A0
:10066000823108008F315F278331CE308F31B5273B
:100670008331D4308F31CE278331DA308F319C27CC
:100680008331E430803104208331F8302000E600EB
:100690009030E7008F314D2783312100E001E101E7
:1006A000E201E30159302000E6009030E70021002C
:1006B00061082000E900210060082000E8008F3177
:1006C0004D27833100302000E6009030E700210004
:1006D00063082000E900210062082000E8008F3153
:1006E0004D278331210061082000EF0021006008C0
:1006F0002000EE00210065088A0064080A008331AA
:10070000210063082000EF00210062082000EE00B5
:100710000230E43E86008701413F8A00403F0A00E4
:1007200083316530F0000030F10021006008013EA7
:10073000F2000030613DF3008131B3218331710853
:100740002100E1007008E0006530F0000030F100A9
:100750006208013EF2000030633DF3008131B321B5
:10076000833171082100E3007008E200F8302000B6
:10077000E6009030E7008F314D278331522B8031D6
:1007800002282000DD004E0886008701403FD0008F
:10079000413FD10050088400510885001200253ADD
:1007A000031DD32BD42B782C4E08860087010130F3
:1007B000810741310318810A2100A201A301A6018A
:1007C000A701FF30A400FF30A50020004E088600DE
:1007D0008701403FD000413FD100500884005108BC
:1007E00085001200643A0319F62BF72B082C4E08EB
:1007F00086008701403FD000413FD100500884006F
:10080000510885001200693A031D072C082C432C5F
:100810004E08860087010130810741310318810AA3
:100820004F08860087010108840085010230810796
:10083000003FD000013FD1005008D5005108D6003C
:10084000890D893B8909D700D800D900DA00DB007F
:10085000DC005508B0005608B1005708B20058082F
:10086000B3005908B4005A08B5005B08B6005C082C
:10087000B7005D0886318726833120003108CF001C
:100880003008CE009B2C4E0886008701403FD000E8
:10089000413FD10050088400510885001200253ADC
:1008A000031D532C542C6D2C4E08860087010130FB
:1008B000810741310318810A2530F2000030F3002E
:1008C0005D08D0005008F40081312B2183310130C4
:1008D0002000CE000030CF009B2C4E088600870100
:1008E0000130810741310318810ACE01CF019B2CD1
:1008F0004E0886008701403FD000413FD10050089C
:100900008400510885000008D200D3015208F2008B
:100910005308F3005D08D4005408F40081312B2102
:10092000833120004E088600870101308107413164
:100930000318810A672C0800F20128308600003075
:100940008700473FF000F01FA62CA72CC82C2000E2
:10095000A809A909AA09AB09AC09AD09AE09AF09F3
:10096000A80A031DC62CA90A031DC62CAA0A031D2A
:10097000C62CAB0A031DC62CAC0A031DC62CAD0A3F
:10098000031DC62CAE0A031DC62CAF0AF201F20AE3
:100990002030860000308700473FF000F01FD12C48
:1009A000D22CF12C2000A009A109A209A309A409B5
:1009B000A509A609A709A00A031DF12CA10A031D78
:1009C000F12CA20A031DF12CA30A031DF12CA40A89
:1009D000031DF12CA50A031DF12CA60A031DF12C01
:1009E000A70A20002008210422042304240425044B
:1009F000260427040319FD2CFE2C512DF101F10AC8
:100A00000D2DA035A10DA20DA30DA40DA50DA60DB4
:100A1000A70D0130F0007008F107A71F102D112D50
:100A2000012D27082F02031D2F2D26082E02031D3E
:100A30002F2D25082D02031D2F2D24082C02031D08
:100A40002F2D23082B02031D2F2D22082A02031D00
:100A50002F2D21082902031D2F2D20082802031CF9
:100A6000322D332D432D2008A8022108A93B22084E
:100A7000AA3B2308AB3B2408AC3B2508AD3B26082A
:100A8000AE3B2708AF3BA736A60CA50CA40CA30CC5
:100A9000A20CA10CA00C0130F102031D502D512D10
:100AA000112D72080319552D562D742DA809A90969
:100AB000AA09AB09AC09AD09AE09AF09A80A031D23
:100AC000742DA90A031D742DAA0A031D742DAB0AE7
:100AD000031D742DAC0A031D742DAD0A031D742D66
:100AE000AE0A031D742DAF0A20002808A0002908B3
:100AF000A1002A08A2002B08A3002C08A4002D089E
:100B0000A5002E08A6002F08A7000800F20120303B
:100B1000860000308700473FF000F01F902D912D98
:100B2000B22D2000A009A109A209A309A409A509C1
:100B3000A609A709A00A031DB02DA10A031DB02D07
:100B4000A20A031DB02DA30A031DB02DA40A031D84
:100B5000B02DA50A031DB02DA60A031DB02DA70AAE
:100B6000F201F20A2830860000308700473FF0008B
:100B7000F01FBB2DBC2DDF2D2000A809A909AA0953
:100B8000AB09AC09AD09AE09AF09A80A031DDB2DFD
:100B9000A90A031DDB2DAA0A031DDB2DAB0A031DC9
:100BA000DB2DAC0A031DDB2DAD0A031DDB2DAE0AC8
:100BB000031DDB2DAF0A0130F0007008F206733020
:100BC0008600003087000830F00000301E00F00B77
:100BD000E62D2000200821042204230424042504F7
:100BE000260427040319F52DF62D522EF101F10AE2
:100BF000052EA035A10DA20DA30DA40DA50DA60DCA
:100C0000A70D0130F0007008F107A71F082E092E6C
:100C1000F92DF335F40DF50DF60DF70DF80DF90D71
:100C2000FA0D27082F02031D2F2E26082E02031D62
:100C30002F2E25082D02031D2F2E24082C02031D04
:100C40002F2E23082B02031D2F2E22082A02031DFC
:100C50002F2E21082902031D2F2E20082802031CF5
:100C6000322E332E442E2008A8022108A93B220848
:100C7000AA3B2308AB3B2408AC3B2508AD3B260828
:100C8000AE3B2708AF3B7314A736A60CA50CA40CEB
:100C9000A30CA20CA10CA00C0130F102031D512EDB
:100CA000522E092E72080319562E572E752EF3094F
:100CB000F409F509F609F709F809F909FA09F30A37
:100CC000031D752EF40A031D752EF50A031D752EDE
:100CD000F60A031D752EF70A031D752EF80A031D6B
:100CE000752EF90A031D752EFA0A73082000A0005C
:100CF0007408A1007508A2007608A3007708A40074
:100D00007808A5007908A6007A08A7000800200046
:100D1000BF003008C4003108C5003208C6003308DF
:100D2000C7003408C8003508C9003608CA003708AB
:100D3000CB004430860000308700473FB800B81B26
:100D4000A22EA42E0130A52E00302000B900BA0139
:100D50003908C2003A08C300420843040319B12EFF
:100D6000B22ED02EC409C509C609C709C809C909C8
:100D7000CA09CB09C40A031DD02EC50A031DD02EF3
:100D8000C60A031DD02EC70A031DD02EC80A031D94
:100D9000D02EC90A031DD02ECA0A031DD02ECB0A9D
:100DA0002100A51BD42ED52ED92EFD30A605FF304F
:100DB000A7052508803A2000B80080303802031DBE
:100DC000E42E0130210024020318E72EE82EEE2E37
:100DD00001302000BD000030BE00F62E21002508A5
:100DE0002000BE00210024082000BD0021002308AF
:100DF0002000C100210022082000C0004208430456
:100E0000031D032F042F092F2100261D082F092F52
:100E10000E2FFF302000C007FF30C13D1F302000E3
:100E2000CC000030CD002100CA017E2FFF30200011
:100E3000CC07FF30CD3D0A30A000A101A201A301E3
:100E4000A401A501A601A7014408A8004508A9001E
:100E50004608AA004708AB004808AC004908AD00A6
:100E60004A08AE004B08AF0084319C248631200034
:100E70002108F4002008F300803115208631730822
:100E8000303E2000B8004C08AB3E86008701380891
:100E90008100FF30BD07FF30BE3DFF30C007FF308F
:100EA000C13D0A30A000A101A201A301A401A50136
:100EB000A601A7014408A8004508A9004608AA0001
:100EC0004708AB004808AC004908AD004A08AE002E
:100ED0004B08AF0085318625863120002008C400EC
:100EE0002108C5002208C6002308C7002408C8003E
:100EF0002508C9002608CA002708CB0020004D0895
:100F0000803AB80080303802031D882F01304C022F
:100F1000031C8B2F8C2FB92F200044084504460456
:100F20004704480449044A044B04031D982F992F91
:100F3000162F3E08803AB80080303802031DA22FD9
:100F400001303D020318A52FA62F162F20004108BF
:100F5000803AB80080303802031DB02F01304002C3
:100F6000031CB32FB42FB92F2100A618B82FB92F07
:100F7000162F200042084304031DBF2FC02FC52F8A
:100F80002100261DC42FC52FE12FFF302000CC07E4
:100F9000FF30CD3D42084304031DCF2FD02FD52F66
:100FA0002B30BB000030BC00D92F2D30BB000030EF
:100FB000BC003B08B8004C08AB3E860087013808EF
:100FC000810020004C08AB3EB8003808A40041085E
:100FD000A6004008A5003F08823106228631200085
:100FE0002508B1002408B0000800A03084000030BB
:100FF00085002B308E31F626873120008331322B4D
:10100000543465346D3470342034733465346E3444
:1010100073346F34723420346F34703465346E340A
:1010200069346E34673420346634613469346C3426
:0A1030006534643421340A340034BE
:101DB400163021009700080071082100E90070081E
:101DC400E800080071082100ED007008EC0008002C
:101DD40071082100EB007008EA000800F1007108A6
:101DE4008F310D278E310800640080010131890B89
:101DF400F72E0034583021009900980122009601F2
:101E04000800403028009600950120009210073009
:101E1400280097000800F0002000111E122F132F35
:101E24000E2F700823009A00080080302C009900BF
:101E34009801970125001E08CF3910389E0008002C
:101E4400D2302000E6009030E7008F314D278F31EB
:101E5400F00101308F3172278F310800E230200009
:101E6400E6009030E7008F314D278F31F0010030CC
:101E74008F3172278F310800C1302000E600903086
:101E8400E7008F314D278F31F001F00A00308F3198
:101E940072278F31080068302000EA006A08ED00DC
:101EA4006708DF006608DE006D30EA006A08E000BB
:101EB40000308031BD208F31080081316A218F319B
:101EC4008E31FC268F318E31DA268F318F31032704
:101ED4008F318F3117278F3180314E208F31080099
:101EE400F10071080319772F782F7B2F22008D14AE
:101EF4007D2F22008D1070080319812F822F842FCB
:101F04000D15852F0D1108007108F3007008F200FB
:101F1400F336F20CF336F20C72082C0098007008B9
:101F24000339F2000530F235FF3E031D952F72355B
:101F340097000800F0007008860087010030C03F59
:101F44000030C13F7008023E860087010030C03F68
:101F54000030C13F7008043E860087010030C03F56
:101F64000030C13F0800F00070088600870100308F
:101F7400C03F0030C13F7008023E86008701003038
:101F8400C03F0030C13F7008043E86008701003026
:101F9400C03F0030C13F0800F00070088600870190
:101FA4000030C03F0030C13F7008023E8600870108
:101FB4000030C03F0030C13F7008043E86008701F6
:101FC4000030C03F0030C13F0800F4007408F20044
:101FD4007208F300F12F0130F2007208F40774085C
:101FE400860087010108031DF82FF92FED2F7308D0
:101FF4007402F000F101F01BF1030800543465345D
:102004006D347034653472346134743475347234BC
:1020140065342034763461346C34753465343A3440
:102024002034253464340A3400344C34693467343D
:10203400683474342034733465346E3473346F34D8
:10204400723420346F34703465346E3465346434DF
:1020540021340A3400344C346934673468347434B9
:102064002034733465346E3473346F3472342034F2
:1020740063346C346F3473346534643421340A3417
:102084000034523465346134643469346E346734F2
:1020940020346C34693467346834743420347334D1
:1020A40065346E3473346F3472340A340034423419
:1020B400723469346734683474346E346534733418
:1020C40073342034763461346C34753465343A3482
:1020D4002034253464340A340034543465346D3483
:1020E40070342034733465346E3473346F34723422
:1020F40020346F34703465346E3465346434213480
:102104000A340034543465346D34703420347334F8
:1021140065346E3473346F347234203463346C3405
:102124006F3473346534643421340A3400345234E3
:1021340065346134643469346E34673420347434FF
:1021440065346D3470342034733465346E347334D0
:102154006F3472340A34003444347534743479344A
:1021640020346334793463346C3465342034693412
:1021740073343A342034253464340A340034433418
:102184006F346C346F3472342034693473342034D3
:1021940067347234653465346E3421340A3400345F
:1021A40043346F346C346F34723420346934733490
:1021B400203462346C347534653421340A34003488
:1021C40043346F346C346F34723420346934733470
:1021D400203472346534643421340A340034443491
:1021E40065346D346F342034313421340A3400348E
:1021F400443465346D346F342034323421340A3439
:102204000034443465346D346F3420343334213431
:042214000A34003454
:020000040001F9
:04000E00E43FFF3E8E
:00000001FF
