:020000040000FA
:1000000080312628053008007E1480318B1D092898
:100010000A2812280B1C0D280E2812289D31E425D1
:10002000803124280B1F1528162824282100911C14
:100030001A281B2824282000911C1F282028242847
:100040009B316A23803124287E10090080312828C2
:1000500022009B3109238031E4009B310A23803147
:10006000E5009B310B238031E6009B310C2380316E
:10007000E7002100E801E901EA01203084000130B5
:10008000850020309B318E238031A03084000130E8
:1000900085004B309B318E2380312030840002302C
:1000A000850020309B318E2380317E1020008331EB
:1000B000392B2100CD004008D4004108D50042086A
:1000C000D6004308D7004408D8004508D9004608A0
:1000D000DA004708DB00D430860000308700473F55
:1000E000C800C81B7428762801307728003021000A
:1000F000C900CA014908D2004A08D3005208530473
:10010000031983288428A228D409D509D609D70938
:10011000D809D909DA09DB09D40A031DA228D50AAE
:10012000031DA228D60A031DA228D70A031DA22850
:10013000D80A031DA228D90A031DA228DA0A031D22
:10014000A228DB0A2200A51BA628A728AB28FD3081
:10015000A605FF30A7052508803A2100C800803099
:100160004802031DB6280130220024020318B928D2
:10017000BA28C02801302100CE000030CF00C828A6
:10018000220025082100CF00220024082100CE00F3
:10019000220023082100D100220022082100D000E3
:1001A00052085304031DD528D628DB282200261D1B
:1001B000DA28DB28E028FF302100D007FF30D13DCE
:1001C0001F302100DC000030DD002400BF01512978
:1001D000FF302100DC07FF30DD3D0A30A500A6011D
:1001E000A701A801A901AA01AB01AC015408AD0007
:1001F0005508AE005608AF005708B0005808B100C7
:100200005908B2005A08B3005B08B4008E312326A7
:10021000803121002608B9002508B8009E31B92692
:10022000803121003808303EC8005C08203E86003E
:100230000230870048088100FF30CE07FF30CF3DF5
:10024000FF30D007FF30D13D0A30A500A601A7013D
:10025000A801A901AA01AB01AC015408AD005508E1
:10026000AE005608AF005708B0005808B100590852
:10027000B2005A08B3005B08B400843142248031D4
:1002800021002508D4002608D5002708D600280814
:10029000D7002908D8002A08D9002B08DA002C0832
:1002A000DB0021005D08803AC80080304802031D51
:1002B0005B2901305C02031C5E295F298C29210027
:1002C0005408550456045704580459045A045B044E
:1002D000031D6B296C29E8284F08803AC80080303C
:1002E0004802031D752901304E0203187829792927
:1002F000E82821005108803AC80080304802031DD8
:10030000832901305002031C862987298C29220069
:10031000A6188B298C29E828210052085304031DB4
:100320009229932998292200261D97299829B529D1
:10033000FF302100DC07FF30DD3D52085304031D70
:10034000A229A329A8292B30CB000030CC00AC294E
:100350002D30CB000030CC004B08C8005C08203E9C
:100360008600023087004808810021005C08203E9A
:10037000C8004808B7005108B9005008B8004D0837
:100380009731A727803121003808C1003708C00005
:1003900008002000BB003008C4003108C500320846
:1003A000C6003308C7003408C8003508C90036083D
:1003B000CA003708CB004430860000308700473F32
:1003C000B800B81BE429E6290130E72900302000F5
:1003D000B900BA013908C2003A08C3004208430410
:1003E0000319F329F429122AC409C509C609C70942
:1003F000C809C909CA09CB09C40A031D122AC50ABA
:10040000031D122AC60A031D122AC70A031D122A37
:10041000C80A031D122AC90A031D122ACA0A031D8B
:10042000122ACB0A2200A51B162A172A1B2AFD30E6
:10043000A605FF30A7052508803A2000B8008030C7
:100440003802031D262A0130220024020318292A1B
:100450002A2A302A01302000BE000030BF00382A8E
:10046000220025082000BF00220024082000BE0032
:10047000220023082000C100220022082000C00022
:1004800042084304031D452A462A4B2A2200261D02
:100490004A2A4B2A502AFF302000C007FF30C13DB6
:1004A0001F302000CC000030CD002400BF01C12A45
:1004B000FF302000CC07FF30CD3D0A30A000A10165
:1004C000A201A301A401A501A601A7014408A80057
:1004D0004508A9004608AA004708AB004808AC0038
:1004E0004908AD004A08AE004B08AF008C314E24DD
:1004F000813120002108F4002008F3009E311626E7
:1005000081317308303E2000B8004C08203E860040
:100510000230870038088100FF30BE07FF30BF3D42
:10052000FF30C007FF30C13D0A30A000A101A20189
:10053000A301A401A501A601A7014408A80045083C
:10054000A9004608AA004708AB004808AC004908C3
:10055000AD004A08AE004B08AF0085314725813118
:1005600020002008C4002108C5002208C600230876
:10057000C7002408C8002508C9002608CA002708A3
:10058000CB0020004D08803AB80080303802031DAF
:10059000CB2A01304C02031CCE2ACF2AFC2A200091
:1005A0004408450446044704480449044A044B04EB
:1005B000031DDB2ADC2A582A3F08803AB800803025
:1005C0003802031DE52A01303E020318E82AE92A11
:1005D000582A20004108803AB80080303802031DB4
:1005E000F32A01304002031CF62AF72AFC2A2200D3
:1005F000A618FB2AFC2A582A200042084304031D9F
:10060000022B032B082B2200261D072B082B252B42
:10061000FF302000CC07FF30CD3D42084304031DCE
:10062000122B132B182B2B30BC000030BD001C2BC1
:100630002D30BC000030BD003C08B8004C08203E06
:100640008600023087003808810020004C08203ED8
:10065000B8003808A4004108A6004008A5003B08DF
:1006600097314E27813120002508B1002408B000C1
:1006700008009E319D2683319031702083310030F7
:100680002400C2000030C3000030C400E5309E31B9
:10069000F2268331DF309F310F2783310230DF3E76
:1006A000860001308700413F8A00403F0A008331C5
:1006B0002200DD005D082400CA000230E53E86000D
:1006C00001308700413F8A00403F0A008331220009
:1006D000DD005D082400CB00CC01CD014A082200DA
:1006E000DD005D082400CC004B082200DD005D0821
:1006F0002400CD003A309E31D52683314C30220083
:10070000DD005D082100A500C5309631A1268331AA
:100710008B170B17230048082100A6002300470869
:100720002100A5009B31F523833123004A082100D5
:10073000A600230049082100A5009B31FE23833138
:1007400023004C082100A60023004B082100A5002F
:100750009C310724833108302100A5001030A60009
:100760009C31102483319B314E238331DA302100B8
:10077000AC009930AD0091315221833141302200DB
:10078000DD00EE30890BC22BDD0BC22B0000663082
:100790002200DD005D082100B40067309531872517
:1007A0008331220064080319D62BD72B242C043064
:1007B000DF3E860001308700413F8A00403F0A004B
:1007C000833121002A082400C700210029082400C1
:1007D000C6000430E53E860001308700413F8A00B4
:1007E000403F0A00833121002A082400C90021006B
:1007F00029082400C80047082200D7002400460822
:100800002200D60002303A3E860001308700413F88
:100810008A00403F0A008431240049082200D700A2
:10082000240048082200D6003B088A003A080A0043
:1008300084310830C53E860001308700413F8A0080
:10084000403F0A008431D12B3830CF009930D0009E
:100850009D318825833104303A3E8600013087007F
:10086000413F8A00403F0A0084311030C53E860077
:1008700001308700413F8A00403F0A008431D12B7C
:10088000803126282100B701A5308600003087007E
:10089000473FB500B51F4D2C4E2C702C2100A509EB
:1008A000A609A709A809A909AA09AB09AC09A50ABB
:1008B000031D6D2CA60A031D6D2CA70A031D6D2CAC
:1008C000A80A031D6D2CA90A031D6D2CAA0A031D7D
:1008D0006D2CAB0A031D6D2CAC0A2100B701B70AC1
:1008E000AD30860000308700473F2100B500B51FBE
:1008F0007A2C7B2C9F2C2100AD09AE09AF09B009E1
:10090000B109B209B309B409AD0A031D9A2CAE0AA4
:10091000031D9A2CAF0A031D9A2CB00A031D9A2CB2
:10092000B10A031D9A2CB20A031D9A2CB30A031DA7
:100930009A2CB40A01302100B5003508B706B8304A
:1009400086000030870008302100B50000301E000E
:10095000B50BA72C250826042704280429042A04FB
:100960002B042C040319B52CB62C122DB601B60A93
:10097000C52CA535A60DA70DA80DA90DAA0DAB0D6B
:10098000AC0D0130B5003508B607AC1FC82CC92C1A
:10099000B92CB835B90DBA0DBB0DBC0DBD0DBE0DD2
:1009A000BF0D2C083402031DEF2C2B083302031D4E
:1009B000EF2C2A083202031DEF2C29083102031DF7
:1009C000EF2C28083002031DEF2C27082F02031DEF
:1009D000EF2C26082E02031DEF2C25082D02031CE8
:1009E000F22CF32C042D2508AD022608AE3B270877
:1009F000AF3B2808B03B2908B13B2A08B23B2B0883
:100A0000B33B2C08B43B3814AC36AB0CAA0CA90C85
:100A1000A80CA70CA60CA50C0130B602031D112DC5
:100A2000122DC92C37080319162D172D352DB8098D
:100A3000B909BA09BB09BC09BD09BE09BF09B80A91
:100A4000031D352DB90A031D352DBA0A031D352D99
:100A5000BB0A031D352DBC0A031D352DBD0A031D20
:100A6000352DBE0A031D352DBF0A21003808A5000B
:100A70003908A6003A08A7003B08A8003C08A900CE
:100A80003D08AA003E08AB003F08AC000800F20198
:100A90002030860000308700473FF000F01F512DC6
:100AA000522D732D2000A009A109A209A309A409B0
:100AB000A509A609A709A00A031D712DA10A031DF6
:100AC000712DA20A031D712DA30A031D712DA40A05
:100AD000031D712DA50A031D712DA60A031D712D7D
:100AE000A70AF201F20A2830860000308700473F4B
:100AF000F000F01F7C2D7D2DA02D2000A809A90954
:100B0000AA09AB09AC09AD09AE09AF09A80A031DD2
:100B10009C2DA90A031D9C2DAA0A031D9C2DAB0A1E
:100B2000031D9C2DAC0A031D9C2DAD0A031D9C2D9D
:100B3000AE0A031D9C2DAF0A0130F0007008F206CA
:100B400073308600003087000830F00000301E004F
:100B5000F00BA72D200020082104220423042404E4
:100B60002504260427040319B62DB72D132EF101F1
:100B7000F10AC62DA035A10DA20DA30DA40DA50D42
:100B8000A60DA70D0130F0007008F107A71FC92DB1
:100B9000CA2DBA2DF335F40DF50DF60DF70DF80D40
:100BA000F90DFA0D27082F02031DF02D26082E023D
:100BB000031DF02D25082D02031DF02D24082C0205
:100BC000031DF02D23082B02031DF02D22082A02FD
:100BD000031DF02D21082902031DF02D20082802F5
:100BE000031CF32DF42D052E2008A8022108A93B93
:100BF0002208AA3B2308AB3B2408AC3B2508AD3BAD
:100C00002608AE3B2708AF3B7314A736A60CA50CED
:100C1000A40CA30CA20CA10CA00C0130F102031D2A
:100C2000122E132ECA2D72080319172E182E362EC7
:100C3000F309F409F509F609F709F809F909FA09B8
:100C4000F30A031D362EF40A031D362EF50A031D82
:100C5000362EF60A031D362EF70A031D362EF80A25
:100C6000031D362EF90A031D362EFA0A73082000DA
:100C7000A0007408A1007508A2007608A3007708F8
:100C8000A4007808A5007908A6007A08A700080043
:100C90002200C80021005E08860001308700403F26
:100CA000E000413FE1006008840061088500120017
:100CB000253A031D5C2E5D2E1F2F5E088600013035
:100CC00087000130810741310318810A2200A20107
:100CD000A301A601A701FF30A400FF30A500210059
:100CE0005E08860001308700403FE000413FE100A0
:100CF00060088400610885001200643A0319812E9F
:100D0000822E942E5E08860001308700403FE0006E
:100D1000413FE10060088400610885001200693AE3
:100D2000031D932E942EE52E5E0886000130870069
:100D30000130810741310318810A5F0886000130C4
:100D40008700010884000130850002308107003FE0
:100D5000E000013FE10060082200C00021006108BE
:100D60002200C100890D893B8909C200C300C4006B
:100D7000C500C600C70040082100C000220041088D
:100D80002100C100220042082100C20022004308C5
:100D90002100C300220044082100C40022004508AD
:100DA0002100C500220046082100C6002200470895
:100DB0002100C700220048088031592086312100D7
:100DC0004108DF004008DE00462F5E088600013043
:100DD0008700403FE000413FE10060088400610877
:100DE00085001200253A031DF62EF72E132F5E08FC
:100DF0008600013087000130810741310318810AE4
:100E00002530A7000030A800220048082100E0009B
:100E10006008A9009531C825863101302100DE0027
:100E20000030DF00462F5E08860001308700013069
:100E3000810741310318810ADE01DF01462F5E0878
:100E4000860001308700403FE000413FE10060083C
:100E50008400610885000008E200E3016208A70041
:100E60006308A800220048082100E4006408A900E3
:100E70009531C825863121005E0886000130870043
:100E80000130810741310318810A0D2F0800E32F3B
:100E90009F31672787312100AC01003091312A2131
:100EA0008731A6302100AC009930AD00913152213C
:100EB00087312100AC01AC0A003091312A21873101
:100EC00069302100AC009930AD0091315221873159
:100ED000FA2F9F31672787312100AC010030913113
:100EE0002A218731B0302100AC009830AD0091311B
:100EF000522187312100AC01AC0A003091312A2106
:100F0000873169302100AC009930AD009131522118
:100F10008731FA2F9F31672787312100AC010030DC
:100F200091312A218731C1302100AC009830AD00C9
:100F30009131522187312100AC01AC0A003091314E
:100F40002A21873169302100AC009930AD00913100
:100F500052218731FA2F9F31672787312100AC0159
:100F6000003091312A21873149302100AC0099307D
:100F7000AD009131522187312100AC01AC0A003023
:100F800091312A21873169302100AC009930AD00C0
:100F9000913152218731FA2F9F3167278731210004
:100FA000AC01003091312A21873159302100AC0049
:100FB0009930AD00913152218731FA2F0130E8008C
:100FC0000030E900FA2F21006908003A0319E92FDF
:100FD000DE2F6808003A0319482F013A0319692FD8
:100FE000033A03198A2F013A0319AB2F073A031961
:100FF000CC2FDE2F0800003090314D2087310800C3
:101000002100A601A60A2300BD18072808281E28CB
:101010003D11FF302100A50025082300B6009A31BC
:10102000D62288319A31DC2288319A31D92288310E
:1010300023003C082100A5002508A6002100260861
:101040000800220056085704031D272828283028A6
:1010500000302100A500A6009D31FD2588318128A2
:101060002030CF009830D0005708D2005608D10069
:101070009D3188258831220057082100C1002200B7
:1010800056082100C0000030C5000030C400003008
:10109000C3000A30C2000030C9000030C80003306D
:1010A000C700E830C6000030CD000030CC00003072
:1010B000CB000030CA000030D1000030D00000303A
:1010C000CF00FF30CE008831E62088312100410872
:1010D0002200DA00210040082200D900FF30D800A9
:1010E00059085802AE005A090318890AAF002F08A0
:1010F0002100A60022002E082100A5009D31FD251B
:10110000883108007E1C86289631F52E9B3182237B
:101110008831003A03198D288E28C1289B289C31DC
:1011200022248831E5289C312B248831E5289C3104
:101130003D248831E52823002F082100A600260839
:10114000A5000630A03E860001308700413F8A009E
:10115000403F0A0088312100A700A8012808003A72
:101160000319B32897282708013A03199728033A47
:1011700003198F28013A03199328073A031997286E
:10118000972823003D1038082100A70023003708C6
:101190002100A6002300B70A0319B80A2100260877
:1011A00086002708870001089B317C2388310130A5
:1011B0002300B9020030BA3B39083A04031DE12884
:1011C000E228E4280630E528033008002100420820
:1011D0004602D2004308473BD3004408483BD400B2
:1011E0004508493BD5005508B4005408B3005308DE
:1011F000B2005208B1004008D6004108D7000030C4
:10120000D71BFF30D800D9004208D6024308D73B8D
:101210004408D83B4508D93B5908A8005808A700FE
:101220005708A6005608A5004A084E02DA004B08E7
:101230004F3BDB004C08503BDC004D08513BDD00D0
:101240005D08AC005C08AB005B08AA005A08A90066
:101250009331BC23883121002808B8002708B70043
:101260002608B6002508B5008931C0218831210043
:1012700031084A07DE0032084B3DDF0033084C3DA1
:10128000E00034084D3DE1006108C3006008C20081
:101290005F08C1005E08C0000800220090018F01B5
:1012A0008C018D018E010F3021009000FF308C00E9
:1012B000F8308D00BF308E008F0123008F01243065
:1012C0008E0020308D00073090001F308C002400ED
:1012D0008F0190018D01E0308C008E01210095136B
:1012E000250090018C018D018E018F01FF302600B9
:1012F0008C00FF308D00FF308E00FF308F000730F4
:101300009000FF3027008C00FF308D00FF308E00F2
:10131000FF308F000F309000931213139313921627
:1013200012179217911211139113B5302100A500D5
:101330001A30A6009B31F5238931B6302100A50073
:101340001A30A6009B31FE238931B7302100A50059
:101350001A30A6009C31072489318B1517303C00C8
:10136000A4001430A10010303D00A3000E309800FE
:101370001130A4001430A60013303C00A000080077
:101380002100BB01B41FC529C629D329B109B2095F
:10139000B309B409B10A0319B20A0319B30A03194C
:1013A000B40ABB01BB0AB81FD629D729E629B5095B
:1013B000B609B709B809B50A0319B60A0319B70A75
:1013C0000319B80A0130B9003908BB060030BF0064
:1013D0000030BE000030BD000030BC0034083304D3
:1013E000320431040319F529F629372ABA01BA0A59
:1013F000042A0130B135B20DB30DB40D890BFA29B1
:101400000130B9003908BA07B41F072A082AF92998
:101410000130BC35BD0DBE0DBF0D890B092A340846
:101420003802031D1D2A33083702031D1D2A320806
:101430003602031D1D2A31083502031C202A212AE9
:101440002A2A3108B5023208B63B3308B73B3408C4
:10145000B83B3C140130B436B30CB20CB10C890B60
:101460002B2A0130BA02031D362A372A082A3B08E4
:1014700003193B2A3C2A472ABC09BD09BE09BF09FA
:10148000BC0A0319BD0A0319BE0A0319BF0A3F08A3
:10149000B4003E08B3003D08B2003C08B1000800AB
:1014A000CB2A9F3167278A312100AC01003091316E
:1014B0002A218A31E3302100AC009830AD0091310F
:1014C00052218A31DF2A9F3167278A312100AC01FE
:1014D000003091312A218A3116302100AC00993038
:1014E000AD00913152218A312100AC01AC0A0030AB
:1014F00091312A218A317D302100AC009830AD0035
:10150000913152218A31DF2A9F3167278A312100A8
:10151000AC01003091312A218A31D2302100AC0057
:101520009830AD00913152218A312100AC01AC0AD2
:10153000003091312A218A319F302100AC0098304F
:10154000AD00913152218A31DF2A9F3167278A31DC
:101550002100AC01003091312A218A31B5302100BF
:10156000AC009930AD00913152218A312100AC019B
:10157000AC0A003091312A218A3197302100AC0029
:101580009930AD00913152218A31DF2A0130E800D3
:101590000030E900DF2A21006908003A0319D12A46
:1015A000C62A6808003A0319512A013A0319632A26
:1015B000033A0319842A013A0319A52AC62A080006
:1015C0006E2B220037080319E62AE72A172B9F31D2
:1015D00067278A312100AC01003091312A218A31FC
:1015E000F4302100AC009830AD00913152218A31A5
:1015F0002100AC01AC0A003091312A218A3122004D
:1016000067080319042B052B0E2B8E302100AC002C
:101610009830AD00913152218A317F2B6930210001
:10162000AC009830AD00913152218A317F2B0130CE
:101630002100E8070030E93D220036080319212B7C
:10164000222B522B9F3167278A312100AC010030B9
:1016500091312A218A3105302100AC009930AD004A
:10166000913152218A312100AC01AC0A0030913114
:101670002A218A312200660803193F2B402B492B6F
:101680008E302100AC009830AD00913152218A316A
:101690007F2B69302100AC009830AD009131522190
:1016A0008A317F2B01302100E8070030E93D9F316E
:1016B00067278A312100AC01003091312A218A311B
:1016C00059302100AC009930AD00913152218A315E
:1016D0007F2B0130E8000030E9007F2B21006908F2
:1016E000003A0319742B692B6808003A0319E12AA0
:1016F000013A03191C2B033A0319572B692B0800D5
:10170000220056085704031D862B872B8B2B9B31F9
:10171000B0238B314D2C57082100C1002200560800
:101720002100C0000030C5000030C4000030C300FC
:101730001330C2000030C9000030C8000130C700BB
:101740006630C600FF30CD00FF30CC00FF30CB004C
:10175000D830CA000030D1000030D0000030CF00B7
:101760007D30CE008831E6208B31210041082200F7
:10177000DA00210040082200D9005230CF00983012
:10178000D0005A08D2005908D1009D3188258B31EC
:10179000220057082100C100220056082100C00085
:1017A0000030C5000030C4000030C3001330C20058
:1017B0000030C9000030C8000130C7006630C600E4
:1017C0000030CD000030CC000030CB000030CA002B
:1017D0000030D1000030D0000030CF003C30CE00CF
:1017E0008831E6208B31210041082200DC002100F5
:1017F00040082200DB00DC1BFE2BFF2B102C5C08BA
:10180000803AD80080305802031D082C14305B0247
:1018100003180B2C0C2C102C9B31A9238B314D2C35
:1018200022005C08803AD80080305802031D1A2C30
:1018300014305B02031C1D2C1E2C302C22005C0873
:10184000803AD80080305802031D282C28305B02D3
:1018500003182B2C2C2C302C903100208B314D2C4C
:1018600022005C08803AD80080305802031D3A2CD0
:1018700028305B02031C3D2C3E2C4D2C22005C08C2
:10188000803AD80080305802031D482C3D305B025E
:1018900003184B2C4C2C4D2C872B0800F2012830C0
:1018A000860000308700473FF000F01F582C592C6D
:1018B0007A2C2000A809A909AA09AB09AC09AD092D
:1018C000AE09AF09A80A031D782CA90A031D782CBC
:1018D000AA0A031D782CAB0A031D782CAC0A031D41
:1018E000782CAD0A031D782CAE0A031D782CAF0AA4
:1018F000F201F20A2030860000308700473FF000F6
:10190000F01F832C842CA32C2000A009A109A2097C
:10191000A309A409A509A609A709A00A031DA32CC8
:10192000A10A031DA32CA20A031DA32CA30A031DB5
:10193000A32CA40A031DA32CA50A031DA32CA60AED
:10194000031DA32CA70A200020082104220423043D
:1019500024042504260427040319AF2CB02C032DDE
:10196000F101F10ABF2CA035A10DA20DA30DA40D0C
:10197000A50DA60DA70D0130F0007008F107A71FF7
:10198000C22CC32CB32C27082F02031DE12C2608E0
:101990002E02031DE12C25082D02031DE12C240835
:1019A0002C02031DE12C23082B02031DE12C22082D
:1019B0002A02031DE12C21082902031DE12C200825
:1019C0002802031CE42CE52CF52C2008A802210891
:1019D000A93B2208AA3B2308AB3B2408AC3B2508C3
:1019E000AD3B2608AE3B2708AF3BA736A60CA50C9F
:1019F000A40CA30CA20CA10CA00C0130F102031D3D
:101A0000022D032DC32C72080319072D082D262D36
:101A1000A809A909AA09AB09AC09AD09AE09AF0922
:101A2000A80A031D262DA90A031D262DAA0A031D97
:101A3000262DAB0A031D262DAC0A031D262DAD0A4B
:101A4000031D262DAE0A031D262DAF0A20002808EF
:101A5000A0002908A1002A08A2002B08A3002C0836
:101A6000A4002D08A5002E08A6002F08A700080036
:101A700022006408031D3D2D3E2D442DE401E40A9F
:101A80009C3173248D31222E2C032D04031D492DEE
:101A90004A2D532D0230210068066904031D512D83
:101AA000522D532D402D023022002C062D04031DF3
:101AB0005A2D5B2D642D0430210068066904031D36
:101AC000622D632D642D402D023022002C062D0442
:101AD000031D6B2D6C2DA42D0430210068066904B4
:101AE0000319732D742DA42D892D0530A30000300A
:101AF000A4009C2D0A30A3000030A4009C2D0F30C0
:101B0000A3000030A4009C2D1430A3000030A400DA
:101B10009C2D6908003A03198E2D752D6808003A2E
:101B20000319752D013A03197A2D033A03197F2DF4
:101B3000013A0319842D752D2408A1002308A00063
:101B40009E3181268D31402D22002C032D04031D52
:101B5000AA2DAB2DCD2D210068086904031DB12DE0
:101B6000B22DCD2D220067080319B72DB92D0130F4
:101B7000BA2D00302100A20022082200E700E50172
:101B8000E50A66082100A20022082000A000220029
:101B900067089331F0238D31222E22002C032D046F
:101BA000031DD32DD42DF62D210068036904031DD8
:101BB000DA2DDB2DF62D220066080319E02DE22D2B
:101BC0000130E32D00302100A20022082200E600AF
:101BD000E501E50A66082100A20022082000A00015
:101BE000220067089331F0238D31222E22002C0829
:101BF0002D04031DFC2DFD2D222E2C082D04031D6C
:101C0000022E032E122E21006908803AA200803095
:101C10002202031D0D2E03306802031C102E112E0C
:101C2000122E222E21006808013E2200AC00003056
:101C30002100693D2200AD002100E801E9012200F8
:101C4000E501E50A08002100B701AD30860000304B
:101C50008700473FB500B51F2E2E2F2E512E210095
:101C6000AD09AE09AF09B009B109B209B309B409A8
:101C7000AD0A031D4E2EAE0A031D4E2EAF0A031DE4
:101C80004E2EB00A031D4E2EB10A031D4E2EB20A6F
:101C9000031D4E2EB30A031D4E2EB40A2100B701B8
:101CA000B70AA530860000308700473F2100B50005
:101CB000B51F5B2E5C2E7B2E2100A509A609A70966
:101CC000A809A909AA09AB09AC09A50A031D7B2E1D
:101CD000A60A031D7B2EA70A031D7B2EA80A031D3F
:101CE0007B2EA90A031D7B2EAA0A031D7B2EAB0A9D
:101CF000031D7B2EAC0A2100250826042704280496
:101D000029042A042B042C040319872E882EDB2E89
:101D1000B601B60A972EA535A60DA70DA80DA90DDB
:101D2000AA0DAB0DAC0D0130B5003508B607AC1FE0
:101D30009A2E9B2E8B2E2C083402031DB92E2B08B5
:101D40003302031DB92E2A083202031DB92E2908B9
:101D50003102031DB92E28083002031DB92E2708B1
:101D60002F02031DB92E26082E02031DB92E2508A9
:101D70002D02031CBC2EBD2ECD2E2508AD0226083B
:101D8000AE3B2708AF3B2808B03B2908B13B2A08E7
:101D9000B23B2B08B33B2C08B43BAC36AB0CAA0CC3
:101DA000A90CA80CA70CA60CA50C0130B602031DAB
:101DB000DA2EDB2E9B2E37080319DF2EE02EFE2EA7
:101DC000AD09AE09AF09B009B109B209B309B40947
:101DD000AD0A031DFE2EAE0A031DFE2EAF0A031D23
:101DE000FE2EB00A031DFE2EB10A031DFE2EB20AFE
:101DF000031DFE2EB30A031DFE2EB40A21002D087A
:101E0000A5002E08A6002F08A7003008A80031085A
:101E1000A9003208AA003308AB003408AC0008005F
:101E20002000DF004E0886004F088700403FD200A8
:101E3000413FD30052088400530885001200253A20
:101E4000031D232F242FDA2F4E0886004F0887000A
:101E50000130810741310318810A2200A201A30148
:101E6000A601A701FF30A400FF30A50020004E0806
:101E700086004F088700403FD200413FD300520800
:101E80008400530885001200643A0319482F492F33
:101E90005B2F4E0886004F088700403FD200413F2D
:101EA000D30052088400530885001200693A031DCC
:101EB0005A2F5B2FA22F4E0886004F088700013053
:101EC000810741310318810A5008860051088700B4
:101ED0000108D2000230810741310108D3000030EF
:101EE0000318810A81075208860053088700403F83
:101EF000D400413FD5005408D7005508D800890DBB
:101F0000893B8909D900DA00DB00DC00DD00DE0056
:101F10005708B0005808B1005908B2005A08B30079
:101F20005B08B4005C08B5005D08B6005E08B70049
:101F30005F088131C9218F3120003108CF0030087E
:101F4000CE00FF2F4E0886004F088700403FD2008A
:101F5000413FD30052088400530885001200253AFF
:101F6000031DB32FB42FCE2F4E0886004F088700D5
:101F70000130810741310318810A2530F200003019
:101F8000F3005F08D2005208F400953107258F3125
:101F900001302000CE000030CF00FF2F4E08860019
:101FA0004F0887000130810741310318810ACE01B3
:101FB000CF01FF2F4E0886004F088700403FD20018
:101FC000413FD30052088400530885000008D40024
:101FD000D5015408F2005508F3005F08D6005608F2
:101FE000F400953107258F3120004E0886004F08F8
:101FF00087000130810741310318810AC82F08008A
:102000002100A501A50A00309D31CC2590310800A2
:1020100001302100A00020082200B5072908803ADD
:10202000803C031D152828083502031C1828192890
:10203000292879302000E8009930E9009D31642595
:1020400090319B31492390312200B501A801A901AB
:10205000E40108002100AB00FA300032890B2D2882
:102060002100A5012B089031B820903121002B08C8
:10207000A9000330A935FF3E031D3A282935AA00DF
:102080002A08AB005330890B432800002100A5012A
:102090002B089031B820903108002100AD00AE012E
:1020A000AE0A2300BD18552856286D28BD142100FE
:1020B000AE012D0803195D285E2862282300BB01AC
:1020C000BB0A67280230AC002C082300BB009A3101
:1020D000DF2290319D310025903121002E0808002B
:1020E00020008F0121008F0120008F170530210073
:1020F000AC00DD30890B7A28AC0B7A280032323004
:1021000090312A209031283090312A2090310C30A3
:1021100090312A209031013090312A2090310630C0
:1021200090312A20903108002100B30021003308AB
:10213000953146259031003A03199F28A02896280A
:1021400021003008A6002F08A5003208A800310899
:10215000A7009D319D2590319B31532390318831CB
:1021600000209031013A0319B628B728AF2808009B
:102170002100A8002808A6000430A636890BBD2837
:102180002608A7002708A80028080F39A600260857
:10219000A80020000F08F0398F000F082100280444
:1021A00020008F002100250C2000031C8F12031833
:1021B0008F160F130F160F120800083023009F0010
:1021C00090309D0024309E0019309B009C0100300F
:1021D0002100A5000030A6009B31DA2390310030A9
:1021E0002100A5000030A6009B31E3239031003090
:1021F0002100A5000030A6009B31D12390312200A0
:10220000B9010800FD007D08943190249131003A15
:1022100003190B290C2903297A08F1007908F00029
:102220007C08F3007B08F2009D3146259131003097
:10223000F500F600F7019C31D92491319B313F2301
:1022400091319E3165269131013A031928292929B6
:10225000212908002100AF0002302C020318312987
:102260003229512910302F02031C372938293929E6
:1022700051292C0303193D293E29442980302F047C
:10228000AD000030AE004929C0302F04AD00003051
:10229000AE002D0890312A209131FA300032890B9E
:1022A0004E2908002100B10169292D08AF002C0832
:1022B000AE0031082E0784002F0803182F0A85006E
:1022C00000089F31E027913101302100AE002E0837
:1022D000B1072D08AF002C08AE0031082E0784008E
:1022E0002F0803182F0A85001200031D7829792969
:1022F000552908002000A000A201A301922921086D
:10230000FB00FC017B08F2007C08F3007A08FD006A
:102310007D08F40095310725913101302000A20796
:102320000030A33D22082007FB007B088600023016
:1023300087000108FC007C08A1002108031DA129D9
:10234000A2297F2908002100B600B401B501BB29EC
:102350003308B000B1013008A7003108A8002F08E9
:10236000B2003208A9009531C82591310130210011
:10237000B4070030B53D34083607B0003008860099
:10238000023087000108B1003108B3003308031D93
:10239000CA29CB29A829080022006508031DD129D4
:1023A000D229E229F4298A3150229131F2298A3145
:1023B000E0229131F229873147279131F229AC018E
:1023C000AD01F2292D08003A0319E729DF292C086D
:1023D000003A0319D329013A0319D729033A0319FB
:1023E000DB29DF292200E5010800F40070087104F0
:1023F0000319FB29FC290F2A7435A03E8600013001
:1024000087007008C03F7108C13F7208F30074086C
:10241000AC3E860001308700730881001E2A7435A7
:10242000A03E8600013087007030C03F1B30C13FA6
:102430007408AC3E860001308700810108009A31A3
:10244000BB22923123003D1C262A272A342A9B31A5
:1024500058239231003A03192E2A2F2A342A0F309A
:10246000F30073082300BB0023003B08F300F401D2
:10247000F335F40D0030730784009830743D850007
:10248000013F8A00003F0A009231F50075082300E1
:10249000BB0008002100A900250826040319512AC1
:1024A000522A652A2935A03E86000130870025087A
:1024B000C03F2608C13F2708A8002908AC3E860077
:1024C0000130870028088100742A2935A03E860043
:1024D000013087007030C03F1B30C13F2908AC3E3F
:1024E000860001308700810108002100B30021002F
:1024F0003308953146259231003A0319802A812A02
:10250000772A21003008A6002F08A5003208A8006D
:102510003108A7009D319D25923100302100AA008D
:10252000AB00AC019D311A2592318731FB279231E6
:10253000883100209231013A03199F2AA02A982A53
:10254000080023003D100230F0007008BC00B02AE3
:102550009B3121239231CD2A9B3126239231CD2AE2
:102560002E08F0007008F0000430A03E8600013014
:102570008700413F8A00403F0A009231F100F2019A
:102580007208003A0319C52AAC2A7108023A0319E5
:10259000A82A013A0319A82AAC2A08009A31D6229F
:1025A000923123003D1CD52AD62AE42A9B3182236E
:1025B0009231003A0319DD2ADE2AE42A0F30210085
:1025C000A90029082300BB0023003B082100A90023
:1025D000AA01A935AA0D00302907840098302A3DA8
:1025E0008500013F8A00003F0A0092312100AB00C4
:1025F0002B082300BB0008002300BD150C2B9B31CA
:10260000212392312A2B9A31D322923103302A2B63
:102610009B31262392312A2B2C08F0007008F00001
:1026200021088A0020080A009331F100F2017208A3
:10263000003A03191C2B082B7108013A0319082BC7
:10264000033A0319FF2A013A0319FF2A073A03192B
:10265000032B082B08002200CC004A08CE004908B2
:10266000CD00A001A1014C2B4D302100E5006508F3
:10267000DE0022004B082100E6006608DF00220091
:102680004C0886314826933121005E082200A007BD
:1026900021005F082200A13D4D0884004E088500FE
:1026A0001200031D542B552B342B2108CA0020087F
:1026B000C900080022002C032D04031D602B612B90
:1026C0006F2B0230210068066904031D682B692BFB
:1026D0006F2B2200360803196E2B6F2B752BFF30E2
:1026E0002100E807FF30E93D802B37080319792BDB
:1026F0007A2B802BFE302100E807FF30E93D802B4C
:102700002100E91F842B852B872BE801E90122009A
:10271000E501E50A08002000E5006108E70060081F
:10272000E6002200A001A101A92B6630CE000030F6
:10273000CF006308D1006208D00065088F311027F0
:10274000933120004E082200A00720004F082200ED
:10275000A13D200066088400670885001200031D63
:10276000B22BB32B952B220021082000E100220080
:1027700020082000E000080000302100B0000030F8
:10278000AF000030AE000030AD00251CC82BC92BB7
:10279000D12B2908AD072A08AE3D2B08AF3D2C08E8
:1027A000B03D0130A935AA0DAB0DAC0D890BD22B74
:1027B0000130A836A70CA60CA50C890BD92B28082C
:1027C000270426042504031DE62BE72BC52B300820
:1027D000A8002F08A7002E08A6002D08A5000800B5
:1027E0002000A200230041082000A600230040088A
:1027F0002000A50023003F082000A40023003E087D
:102800002000A30022080319062C072C092CA5017F
:10281000A50A200803190D2C0E2C102CA601A60ABF
:102820002330F9000030FA000430FB000030FC00D7
:10283000503091310221933107302000A1007D30CA
:10284000890B202CA10B202C08007E1C292C9231F6
:10285000A12A23003D1002302100A50025082300F5
:10286000BC003A2C9C3134249431592C9C313D24A9
:102870009431592C2E082100A5002508A50004300C
:10288000A03E860001308700413F8A00403F0A0099
:1028900094312100A600A7012708003A0319512C02
:1028A000362C2608023A0319322C013A0319322C2D
:1028B000362C08007E1C5E2C9231FC2A2300BD15AC
:1028C0006E2C9C31342494318F2C9A31EE22943129
:1028D00003308F2C9C313D2494318F2C2C08210007
:1028E000A5002508A500230021088A0020080A0069
:1028F00094312100A600A7012708003A0319812C72
:102900006A2C2608013A03196A2C033A0319612C30
:10291000013A0319612C073A0319652C6A2C080047
:10292000F100F201F20A23003D19972C982CC82CD3
:102930007108F0007008B600BD103D153D100E3056
:10294000F0007008BB00F430B4000130B500BD15D4
:102950007030A0001B30A100AC017030A2001B3011
:10296000A300AD017030A4001B30A500AE01703093
:10297000A6001B30A700AF017630A8001B30A900CD
:10298000B0019A31BB2294319C31CC249431F201B4
:102990007208080001302100E8070030E93D2200FC
:1029A0002C082D04031DD52CD62CE92C21006908F8
:1029B000803AF00080307002031DE02C0530680280
:1029C000031CE32CE42CE92C04302100E800003047
:1029D000E90022002C032D04031DEF2CF02C032D05
:1029E00021006908803AF00080307002031DFA2C43
:1029F00003306802031CFD2CFE2C032D0230210045
:102A0000E8000030E9002200E501E50A080074084A
:102A100003190B2D0C2D112D7408031D102D112DD4
:102A2000162D72089B3164239531452D7408033EA1
:102A3000860087011600010403191F2D202D3D2D4E
:102A40007408033E86008701403FF500413FF600D1
:102A5000740A86008701403FF700413FF80078087C
:102A6000803AF9007608803A7902031D392D7508FD
:102A7000770203183C2D3D2D452D740A86008701F1
:102A80000130810741310318810A08002100A600A6
:102A9000A701A70A23003D194E2D4F2D842D21009B
:102AA0002608A50025082300B600BD103D153D10E1
:102AB0000E302100A50025082300BB00F430B4002F
:102AC0000130B500BD157030A0001B30A100AC0175
:102AD0007030A2001B30A300AD017030A4001B3089
:102AE000A500AE017030A6001B30A700AF01763004
:102AF000A8001B30A900B0019A31D62295319D3132
:102B00000D2595312100A70121002708080021008B
:102B1000B900B501B601B530AF000030B0000230E9
:102B2000B1000030B2005030923175229531B7308B
:102B30002100AF000030B0000230B1000030B20020
:102B4000503090319420953121003708031DA92D74
:102B5000AA2DB02D39088600013087008101B62DDD
:102B600039088600013087008101810A3808031D79
:102B7000BA2DBB2DC12D340886000130870081019C
:102B8000C72D34088600013087008101810A0800C2
:102B9000210029080319CD2DCE2DD32D2908031D81
:102BA000D22DD32DD82D27089B31A2239531082E65
:102BB0002908033E86008701160001040319E12D50
:102BC000E22DFF2D2908033E86008701403FAA0021
:102BD000413FAB00290A86008701403FAC00413FDE
:102BE000AD002D08803AAE002B08803A2E02031D5E
:102BF000FB2D2A082C020318FE2DFF2D082E210084
:102C0000290A860087010130810741310318810AB2
:102C100008009A31D0229631F00023003708860050
:102C200038088700700881000130B7070030B83DD0
:102C30000130B9020030BA3B39083A040319212E99
:102C4000222E272E9A31F522963105304F2EBD15B2
:102C5000312E9B31352396314F2E9B3130239631C7
:102C60004F2E2C08F0007008F00021088A00200880
:102C70000A009631F100F2017208003A0319412E60
:102C80002D2E7108013A03192D2E033A0319292E0E
:102C9000013A0319292E073A03192D2E2D2E08006B
:102CA0007E1C542E9631092E9A31EB22963121004A
:102CB000A500230037088600380887002100250872
:102CC000810001302300B7070030B83D0130B90260
:102CD0000030BA3B39083A0403196F2E702E752E56
:102CE0009B31012396310530A02EBD157F2E9C31DE
:102CF00058249631A02E9C314F249631A02E2C08BA
:102D00002100A5002508A500230021088A0020082D
:102D10000A0096312100A600A7012708003A0319EE
:102D2000922E7B2E2608013A03197B2E033A0319B3
:102D3000772E013A0319772E073A03197B2E7B2E43
:102D400008002100A7002708023E86000130870006
:102D5000CA30C03F1430C13F2708043E860001300E
:102D600087005A30C03F1330C13F2708063E860017
:102D7000013087003830C03F0D30C13F2708083E82
:102D8000860001308700CC30C03F1130C13F27089A
:102D90000A3E8600013087005030C03F0A30C13FF4
:102DA00027080E3E860001308700E030C03F0A3021
:102DB000C13F2708103E8600013087000530C03F24
:102DC0001B30C13F25088600023087000108A6009D
:102DD00026082200B700210025088600023087005F
:102DE0000230413F2200B60008009B315823963143
:102DF000003A0319FC2EFD2E2E2F0A2F9B3117238C
:102E000096314D2F9B311C2396314D2F9B3126231C
:102E100096314D2F23002F08F0007008F000063087
:102E2000A03E860001308700413F8A00403F0A00F3
:102E30009731F100F2017208003A0319202F062F92
:102E40007108013A0319062F033A0319FE2E013ABD
:102E50000319022F073A0319062F062F23003D10EE
:102E60003808F1003708F000B70A0319B80A7008EB
:102E700086007108870001089B310D2396310130CF
:102E80002300B9020030BA3B39083A04031D492F28
:102E90004A2F4C2F06304D2F033008002000AC0085
:102EA0002200261C542F552F5E2F20002C08A7002F
:102EB0002708FA00240891317A2197312000A61BB7
:102EC000622F632F682F2608AB002508AA006A2FFF
:102ED000AA01AB01A801A9017E2F2030F200003029
:102EE000F30020002C08A7002708F40095310725DF
:102EF000973101302000A8070030A93D2908803A09
:102F0000A7002B08803A2702031D882F2A082802D1
:102F1000031C8B2F8C2F6D2F22002618902F912FA2
:102F20009A2F20002C08A7002708FA0024089131C6
:102F30007A219731200024089E31302697312000D5
:102F40002A087007A4002B08713DA5000800210085
:102F5000BF002200261CAD2FAE2FB72F21003F0847
:102F6000BA003A08AF0037089131A3219731210008
:102F7000B91BBB2FBC2FC12F3908BE003808BD00BC
:102F8000C32FBD01BE01BB01BC01D72F20302100E2
:102F9000A7000030A8003F08BA003A08A900953100
:102FA000C825973101302100BB070030BC3D3C08EB
:102FB000803ABA003E08803A3A02031DE12F3D08EC
:102FC0003B02031CE42FE52FC62F22002618E92F11
:102FD000EA2FF32F21003F08BA003A08AF00370864
:102FE0009131A3219731210037089E314A2697312C
:102FF00021003D082507B7003E08263DB80008001F
:1030000019341C34F3341C34A7341C34823408348F
:10301000503416349C341C345A34143422341C3446
:103020002B341C3434341C343D341C3446341C34AE
:103030004F341C3458341C3461341C34253414345B
:10304000533465346E3473346F34723420346434E2
:10305000653420346C3475347A34203463347234FB
:10306000753464346F343A342034253464340D3488
:103070000A340034413470346134673461346E345E
:1030800064346F34203465346E3420342534643431
:10309000203473346534673475346E3464346F347B
:1030A00073340034533465346E3473346F34723493
:1030B0002034643465342034743465346D347034B1
:1030C0003A34203425346434203443340D340A3403
:1030D000003420342034443465347334683461342B
:1030E000623469346C3469347434613464346F34F8
:1030F0002034203420342034003420342034203450
:10310000643465342034413470346134673461345C
:1031100064346F342034203420340034203420349C
:10312000203448346134623469346C346934743422
:10313000613464346F34203420342034003420343B
:1031400020342034203445346E34633465346E3496
:103150006434693464346F342034203420340034CF
:103160003C34203420342034203420342034313492
:1031700030342034203420342034203420343E3481
:1031800000343C34203420342034203420342034A3
:103190003134353420342034203420342034203469
:1031A0003E3400343C3420342034203448346F34EE
:1031B0007234613420346434653420342034203453
:1031C00020343E340034203420342034203453342E
:1031D00065346E3473346F34723465347334203430
:1031E000203420343E3400343C34203420345434F1
:1031F00065346D34703465347234613474347534CC
:103200007234613420343E3400343C342034203471
:103210004C3475346D3469346E346F3473346934BE
:1032200064346134643420343E3400343C3420341B
:10323000543465346D3470346F34723469347A3494
:10324000613464346F34723420343E3400342034BA
:1032500020342034203420342034203420342034CE
:1032600020342034203420342034203420340034DE
:103270005034493443342034613470346134673419
:10328000613464346F342E342E342E340D340A34C9
:1032900000343C3420342034203420342034203492
:1032A000323430342034203420342034203420345C
:1032B00000343C34203420342034523465346734B4
:1032C00072346534733461347234203420342034E1
:1032D0000034203420342034203420346D346934D8
:1032E0006E34753474346F347334203420342034A5
:1032F0000034413470346134673461346E34643482
:103300006F342E342E342E3420340D340A340034ED
:1033100044346534733470346534723474346134D5
:103320006E3464346F342E342E342E340034203412
:1033300020342034203441347034613467346134B3
:1033400064346F342034203420340034203420346A
:1033500020342034203420343534203420342034B8
:103360002034203420343E3400343C3420342034A3
:10337000203448346F34723461342034643465341A
:1033800020340034413470346134673461346E3435
:1033900064346F342E342E342E3400345434653477
:1033A0006D3470346534723461347434753472340D
:1033B000653400344234693465346E3476346534AF
:1033C0006E34693464346F34213400344C346934DD
:0833D0006734683474340034E2
:10356A000800080008000800013008002000911136
:10357A000800240095120800210091110800240077
:10358A0016140800240096140800240016150800D2
:10359A00240096150800240011080800200091153F
:1035AA00080020009111080024009512080021004B
:1035BA00911108002400161408002400961408002B
:1035CA002400161508002400961508002400110886
:1035DA000800200091150800240096161616080007
:1035EA0024009612161608001630210097000800CB
:1035FA0024009616161608002400961216160800BD
:10360A009F3167279B3108000134013401340134AA
:10361A00F00070082400910008002300BD10BC01CE
:10362A000E3008009A31C7229B31013008009A31C6
:10363A00C7229B31023008009A31C7229B310130E0
:10364A0008009A31CA229B31003008009A31F522CB
:10365A009B31053008009A31F1229B310A3008006B
:10366A009A31F1229B31093008002300BD10BC01B8
:10367A000E30080000309F3149279B310800200096
:10368A00911021009114080020009110210091103E
:10369A00080020009110210091100800013090319B
:1036AA004D209B3108002400160E890C890C013923
:1036BA0008002000911D622B632B5E2B0800F1008D
:1036CA0071089C317D249B310800200091109C31A7
:1036DA00E6249B3108007E1C742B9A31B92A0130EA
:1036EA0008007E1C7A2B8031022805300800210050
:1036FA00A50025082400910008002400160E890C54
:10370A00890C013908002000911D8C2B8D2B882BE8
:10371A000800640080010131890B8F2B00342300DB
:10372A003D109A31CD229B310430080058302100D7
:10373A00990098012200960108002100A600260897
:10374A009C31B3249B3108002100A50101309D3131
:10375A00CC259B3108002100A50100309D31CC25E4
:10376A009B31080023003D1436359B310D239B31D4
:10377A000330080023003D140314360D9B310D233A
:10378A009B3105300800863021009E009F019B0175
:10379A009C0101309D000800210026082400CF006A
:1037AA00210025082400CE00080021002608230055
:1037BA00EE00210025082300ED000800210026085C
:1037CA002400D100210025082400D000080024008C
:1037DA009401083095009601F9309200951208007C
:1037EA00210026082200E300210025082200E20029
:1037FA000800210026082200E100210025082200F5
:10380A00E0000800210026082200DF002100250828
:10381A002200DE000800210026082300EC00210017
:10382A0025082300EB0008007E1C1D2C9B31122B5F
:10383A002300BD10BC010E3008007E1C262C9B31D3
:10384A00172B9A31E2229C31013008007E1C2F2C62
:10385A009B311C2B9A31E2229C31023008007E1CDB
:10386A00382C9B31212B9A31E2229C3101300800FD
:10387A007E1C412C9B31262B9A31E5229C3100304B
:10388A0008007E1C4A2C9B312B2B9B3101239C3137
:10389A00053008007E1C532C9B31302B9A31FD22B7
:1038AA009C310A3008007E1C5C2C9B31352B9A31E6
:1038BA00FD229C31093008007E1C652C9B313A2B75
:1038CA002300BD10BC010E300800FF302100A50006
:1038DA000030A6009D31FD259C3108002200AC0174
:1038EA00AD012100E801E9012200E501E50A08002D
:1038FA00F0002000111E822C832C7E2C70082300DD
:10390A009A00080040302800960095012000921085
:10391A00073028009700080080302C009900980191
:10392A00970125001E08CF3910389E0008007E1C1A
:10393A00A02C9B31942B23003D109A31E8229C3114
:10394A00043008007E1CAB2C9B31B72B23003D149E
:10395A0036359B317C239C31033008002100A500B9
:10396A002000111EB92CBA2CB52C210025082300E1
:10397A009A000800C62C9B315E239C3192311F228B
:10398A009C312300BD18CA2CCB2CC02C0800240063
:10399A00951AD02CD12CD82C940108309500960178
:1039AA00F9309200951608007608F1007508F000C3
:1039BA007708F8007808F20002309131F5219C313D
:1039CA00080023006B086C040319EC2CED2CF22C74
:1039DA006C088A006B080A009C3108007E1CF72CD0
:1039EA009B31BF2B23003D140314360D9B317C23DE
:1039FA009C3105300800072D9B3188239D31923177
:103A0A00CE229D312300BD180B2D0C2D012D08004F
:103A1A002400951A112D122D192D940108309500A4
:103A2A009601F93092009516080021002B08A6008D
:103A3A002A08A5002C08AD002D08A70002309231F3
:103A4A004A229D31080022006208630403192E2DC0
:103A5A002F2D342D63088A0062080A009D31270041
:103A6A009312080022006008610403193D2D3E2DBF
:103A7A00432D61088A0060080A009D31270013134C
:103A8A0008002300BD1D4A2D4B2D542D7108B80086
:103A9A007008B7007308BA007208B900BD110800AF
:103AAA0022005E085F0403195B2D5C2D612D5F08FF
:103ABA008A005E080A009D312700931308006A30C5
:103ACA002000EE000030EF006908E1006808E0001D
:103ADA006E30E2000030E300003093318B239D31D9
:103AEA000800F33020009B009A01911021009114E4
:103AFA00B830A5001A30A6009C3110249D317F30C1
:103B0A0020009C00080051302100E70067082200CD
:103B1A00D5005008CA004F08C90055302100E700F7
:103B2A0067082200CB00003093312B239D31080017
:103B3A002300BD1DA12DA22DB32D2100260823008F
:103B4A00B800210025082300B70021002808230017
:103B5A00BA00210027082300B900BD11080021007E
:103B6A00A8002808A700A70DA70D1D082706833956
:103B7A0027069D001D14000021009D149D18C62DC6
:103B8A00C72DC32D1C08A6001B08A500080021008C
:103B9A00A60026080319D22DD32DD62D22008D1466
:103BAA00D82D22008D10210025080319DD2DDE2DC8
:103BBA00E12D22000D15E32D22000D11080027002A
:103BCA00931EE82DE92DEC2D9D3128259D312700E6
:103BDA00131FF02DF12DF42D9D3137259D3127002E
:103BEA00931FF82DF92DFC2D9D3155259D31080087
:103BFA0021002608A8002508A700A836A70CA83681
:103C0A00A70C27082C009800210025080339A700D3
:103C1A000530A735FF3E031D0E2E27352C009700D1
:103C2A0008007408803AF50080307502031D1F2EC3
:103C3A00013073020318222E232E2F2E7309F5004A
:103C4A007409F600F50A0319F60A7508F3007608EE
:103C5A00F4002F2E0800F4007408F2007208F30032
:103C6A003A2E0130F2007208F40774088600023016
:103C7A0087000108031D422E432E362E7308740254
:103C8A00F000F101F01BF10308002100A900290846
:103C9A00A7002708A800552E0130A7002708A90762
:103CAA0029088600023087000108031D5D2E5E2E5A
:103CBA00512E28082902A500A601A51BA603080063
:103CCA00F101F10A2300BD186B2E6C2E7F2E3D11D7
:103CDA00FF30F0007008B6009A31BB229E319A314B
:103CEA00C1229E319A31BE229E3123003C08F00047
:103CFA007008F10071080800210021082200A900BB
:103D0A00210020082200A8009B3144239E313A302A
:103D1A002000E8009830E900220029082000EB0082
:103D2A00220028082000EA009D3164259E310800FF
:103D3A009B31EC239E3189314D219E319B319B234E
:103D4A009E319A31F9229E319B31C8239E319C3192
:103D5A0087249E319C3191249E319D3176259E3156
:103D6A009031DD209E31080021003908803ABA00DE
:103D7A0080303A02031DC32E013038020318C62EC2
:103D8A00C72ED42E21003809BA003909BB00BA0A55
:103D9A000319BB0A3A08B8003B08B900D42E080038
:103DAA002100A50025088600013087002130C03F88
:103DBA000830C13F2508023E860001308700803066
:103DCA00C03F0B30C13F2508043E86000130870002
:103DDA006A30C03F1C30C13F08002100A5002508F9
:103DEA00860001308700E630C03F9930C13F250880
:103DFA00023E8600013087008530C03F1F30C13F38
:103E0A002508043E860001308700A330C03F1F30DA
:103E1A00C13F08002100A50025088600013087005F
:103E2A00CE30C03F9930C13F2508023E860001309E
:103E3A008700C130C03F1F30C13F2508043E8600BD
:103E4A00013087002C30C03F1F30C13F08002200DC
:103E5A0038080319312F322F452F67080319362FD7
:103E6A00372F452F00309D31B4259F312100260878
:103E7A00AC002508AB002C08AA002B08A900482F83
:103E8A002100A901AA010800F700F801F80A230095
:103E9A00BD18502F512F652FBD14F801770803194B
:103EAA00572F582F5B2FBB01BB0A5F2F0230F6003A
:103EBA007608BB009A31C4229F319C31BF249F31BE
:103ECA00780808002100AC01003091312A219F3185
:103EDA0027302100AC009930AD00913152219F3139
:103EEA002100AC01AC0A003091312A219F312730E0
:103EFA002100AC009930AD00913152219F31080068
:103F0A0001309D31B4259F3121002608AC002508D7
:103F1A00AB002C08803AA90080302902031D972F94
:103F2A0001302B0203189A2F9C2F01309D2F00304D
:103F3A002100AA002A08EA006A08080021006A0883
:103F4A000319A82FA92FBD2F220066080319AE2F27
:103F5A00AF2FBD2F01309D31B4259F312100260896
:103F6A00AC002508AB002C08AA002B08A900C02F1A
:103F7A002100A901AA01080000309D31B4259F3112
:103F8A0021002608AC002508AB002C08803AA900BD
:103F9A0080302902031DD32F01302B020318D62F9C
:103FAA00D82F0130D92F00302100AA002A08220078
:103FBA00B800380808002100AB00FA300032890B3B
:103FCA00E32F2100A501A50A2B089031B8209F31C3
:103FDA0021002B08A9000330A935FF3E031DF12F4C
:103FEA002935AA002A08AB00A501A50A2B08903199
:063FFA00B8209F31080011
:020000040001F9
:04000E00E43FFF3E8E
:00000001FF
