:020000040000FA
:1000000080311328013401347E1480318B1D09287E
:100010000A2811280B1C0D280E2811288B311023BB
:1000200080317E1009008031152880310320803115
:10003000FC00803102208031EF0021008931F12164
:100040008031E400A0308400003085002A308A31FD
:100050002C228031203084000130850032308A31FA
:100060002C2280317E10200084316C2C2000BD00B9
:100070003008C4003108C5003208C6003308C70084
:100080003408C8003508C9003608CA003708CB0054
:100090004430860000308700473FB800B81B512825
:1000A00053280130542800302000B900BA01390823
:1000B000C2003A08C30042084304031960286128BB
:1000C0007F28C409C509C609C709C809C909CA09D9
:1000D000CB09C40A031D7F28C50A031D7F28C60A51
:1000E000031D7F28C70A031D7F28C80A031D7F2818
:1000F000C90A031D7F28CA0A031D7F28CB0A2100D5
:10010000A81B832884288828FD30A905FF30AA056C
:100110002808803A2000B80080303802031D932858
:100120000130210027020318962897289D280130C6
:100130002000BE000030BF00A528210028082000B4
:10014000BF00210027082000BE0021002608200053
:10015000C100210025082000C00042084304031DFF
:10016000B228B328B8282100291DB728B828BD28EF
:10017000FF302000C007FF30C13D1F302000CC0001
:100180000030CD002200BF012E29FF302000CC0717
:10019000FF30CD3D0A30A000A101A201A301A401BE
:1001A000A501A601A7014408A8004508A900460822
:1001B000AA004708AB004808AC004908AD004A084F
:1001C000AE004B08AF008231A72280312000210809
:1001D000F5002008F4008B31752380317408303E1F
:1001E0002000B8004C08203E860001308700380807
:1001F0008100FF30BE07FF30BF3DFF30C007FF303A
:10020000C13D0A30A000A101A201A301A401A501E2
:10021000A601A7014408A8004508A9004608AA00AD
:100220004708AB004808AC004908AD004A08AE00DA
:100230004B08AF008131A621803120002008C40086
:100240002108C5002208C6002308C7002408C800EA
:100250002508C9002608CA002708CB0020004D0841
:10026000803AB80080303802031D382901304C0232
:10027000031C3B293C296929200044084504460405
:100280004704480449044A044B04031D48294929EA
:10029000C5283F08803AB80080303802031D522933
:1002A00001303E02031855295629C528200041086F
:1002B000803AB80080303802031D602901304002C6
:1002C000031C6329642969292100A918682969295F
:1002D000C528200042084304031D6F297029752991
:1002E0002100291D742975299229FF302000CC078F
:1002F000FF30CD3D42084304031D7F298029852915
:100300002B30BB000030BC0089292D30BB000030F1
:10031000BC003B08B8004C08203E86000130870036
:100320003808810020004C08203EB8003808A7009B
:100330004108A9004008A8003D088E31D926803127
:1003400020002808B1002708B0000800F301203081
:10035000860000308700473FF100F11FB029B12926
:10036000D2292000A009A109A209A309A409A5096D
:10037000A609A709A00A031DD029A10A031DD02997
:10038000A20A031DD029A30A031DD029A40A031D14
:10039000D029A50A031DD029A60A031DD029A70A22
:1003A000F301F30A2830860000308700473FF10050
:1003B000F11FDB29DC29FF292000A809A909AA09C6
:1003C000AB09AC09AD09AE09AF09A80A031DFB29A9
:1003D000A90A031DFB29AA0A031DFB29AB0A031D59
:1003E000FB29AC0A031DFB29AD0A031DFB29AE0A3C
:1003F000031DFB29AF0A0130F1007108F3067430C8
:100400008600003087000830F10000301E00F10B3C
:10041000062A2000200821042204230424042504A1
:10042000260427040319152A162A722AF201F20A51
:10043000252AA035A10DA20DA30DA40DA50DA60D75
:10044000A70D0130F1007108F207A71F282A292AF9
:10045000192AF435F50DF60DF70DF80DF90DFA0D15
:10046000FB0D27082F02031D4F2A26082E02031D0D
:100470004F2A25082D02031D4F2A24082C02031D94
:100480004F2A23082B02031D4F2A22082A02031D8C
:100490004F2A21082902031D4F2A20082802031C85
:1004A000522A532A642A2008A8022108A93B2208BC
:1004B000AA3B2308AB3B2408AC3B2508AD3B2608F0
:1004C000AE3B2708AF3B7414A736A60CA50CA40CB2
:1004D000A30CA20CA10CA00C0130F202031D712A86
:1004E000722A292A73080319762A772A952AF40989
:1004F000F509F609F709F809F909FA09FB09F40AF7
:10050000031D952AF50A031D952AF60A031D952A4F
:10051000F70A031D952AF80A031D952AF90A031DF7
:10052000952AFA0A031D952AFB0A74082000A000E8
:100530007508A1007608A2007708A3007808A40037
:100540007908A5007A08A6007B08A7000800F30137
:100550002830860000308700473FF100F11FB12AA4
:10056000B22AD32A2000A809A909AA09AB09AC0913
:10057000AD09AE09AF09A80A031DD12AA90A031DB6
:10058000D12AAA0A031DD12AAB0A031DD12AAC0A1B
:10059000031DD12AAD0A031DD12AAE0A031DD12A9B
:1005A000AF0AF301F30A2030860000308700473F8E
:1005B000F100F11FDC2ADD2AFC2A2000A009A10994
:1005C000A209A309A409A509A609A709A00A031D50
:1005D000FC2AA10A031DFC2AA20A031DFC2AA30A65
:1005E000031DFC2AA40A031DFC2AA50A031DFC2ADC
:1005F000A60A031DFC2AA70A2000200821042204C1
:10060000230424042504260427040319082B092B9A
:100610005C2BF201F20A182BA035A10DA20DA30D3F
:10062000A40DA50DA60DA70D0130F1007108F2076C
:10063000A71F1B2B1C2B0C2B27082F02031D3A2B4B
:1006400026082E02031D3A2B25082D02031D3A2BE6
:1006500024082C02031D3A2B23082B02031D3A2BDE
:1006600022082A02031D3A2B21082902031D3A2BD6
:1006700020082802031C3D2B3E2B4E2B2008A802ED
:100680002108A93B2208AA3B2308AB3B2408AC3B2A
:100690002508AD3B2608AE3B2708AF3BA736A60C86
:1006A000A50CA40CA30CA20CA10CA00C0130F2020E
:1006B000031D5B2B5C2B1C2B73080319602B612B18
:1006C0007F2BA809A909AA09AB09AC09AD09AE0994
:1006D000AF09A80A031D7F2BA90A031D7F2BAA0AB5
:1006E000031D7F2BAB0A031D7F2BAC0A031D7F2B41
:1006F000AD0A031D7F2BAE0A031D7F2BAF0A20001E
:100700002808A0002908A1002A08A2002B08A3009D
:100710002C08A4002D08A5002E08A6002F08A7006D
:1007200008002000DD004E0886008701403FD00011
:10073000413FD10050088400510885001200253A3D
:10074000031DA32BA42B482C4E08860087010130E3
:10075000810741310318810A2100A501A601A901E1
:10076000AA01FF30A700FF30A80020004E08860035
:100770008701403FD000413FD1005008840051081C
:1007800085001200643A0319C62BC72BD82B4E08DC
:1007900086008701403FD000413FD10050088400CF
:1007A000510885001200693A031DD72BD82B132C52
:1007B0004E08860087010130810741310318810A04
:1007C0004F088600870101088400850102308107F7
:1007D000003FD000013FD1005008D5005108D6009D
:1007E000890D893B8909D700D800D900DA00DB00E0
:1007F000DC005508B0005608B1005708B200580890
:10080000B3005908B4005A08B5005B08B6005C088C
:10081000B7005D0880313620833120003108CF00D9
:100820003008CE006B2C4E0886008701403FD00078
:10083000413FD10050088400510885001200253A3C
:10084000031D232C242C3D2C4E08860087010130EB
:10085000810741310318810A2530F3000030F4008C
:100860005D08D0005008F5008D31FE258331013040
:100870002000CE000030CF006B2C4E088600870190
:100880000130810741310318810ACE01CF016B2C61
:100890004E0886008701403FD000413FD1005008FC
:1008A0008400510885000008D200D3015208F300EB
:1008B0005308F4005D08D4005408F5008D31FE257E
:1008C000833120004E0886008701013081074131C5
:1008D0000318810A372C08008A31CC2284318C31EC
:1008E0007624843100302100CC000030CD0000306F
:1008F000CE00C0308B3129238431BA308B31422372
:1009000084310230BA3E86008701413F8A00403F71
:100910000A0084312000EE006E082100D40002306D
:10092000C03E86008701413F8A00403F0A00843173
:100930002000EE006E082100D500D601D701540832
:100940002000EE006E082100D60055082000EE00C1
:100950006E082100D700C6308A3195228431D63006
:100960002000EE006E08F10040308E313D268431CB
:100970008B170B1722004308F2004208F1008A315E
:100980000822843122004508F2004408F1008A312F
:100990000E22843122004708F2004608F1008A3115
:1009A000142284310B30F8009130F9008C31E124AD
:1009B000843141302000EE00EE30890BDD2CEE0B4F
:1009C000DD2C00000430BA3E86008701413F8A00DA
:1009D000403F0A00843176082100D1007508D0001C
:1009E0000430C03E86008701413F8A00403F0A0034
:1009F000843176082100D3007508D2005108200008
:100A0000D500210050082000D4000230C63E8600E8
:100A10008701413F8A00403F0A0085312100530889
:100A20002000D500210052082000D40021004708F2
:100A30008A0046080A0085310A30403E86000130AF
:100A40008700413F8A00403F0A008531E22C803117
:100A5000132828302000E6009030E70021002C0801
:100A60002000E90021002B082000E8008A31A6229E
:100A7000853100302000E6009030E70021002E088C
:100A80002000E90021002D082000E8008A31A6227C
:100A90008531C62D360803194E2D4F2D792D8B31FA
:100AA0005B238531F80100308C31BA2485318F30D9
:100AB000F8009030F9008C31E1248531F801F80A12
:100AC00000308C31BA2485317C080319682D692DDA
:100AD000712D4B30F8009030F9008C31E1248531D4
:100AE000D72D1430F8009030F9008C31E124853195
:100AF000D72D0130AB070030AC3D35080319812DEF
:100B0000822DAD2D8B315B238531F80100308C3186
:100B1000BA248531A030F8009030F9008C31E124FE
:100B20008531F801F80A00308C31BA248531200073
:100B30006F0803199C2D9D2DA52D4B30F80090308A
:100B4000F9008C31E1248531D72D1430F800903034
:100B5000F9008C31E1248531D72D0130AB0700300D
:100B6000AC3D8B315B238531F80100308C31BA24E8
:100B70008531D330F8009030F9008C31E124853193
:100B8000D72D0130AB000030AC00D72D21002C0850
:100B9000003A0319CC2DC12D2B08003A03194A2D18
:100BA000013A03197D2D033A0319B12DC12D080017
:100BB0002000AD01A71FDD2DDE2DEB2DA409A50919
:100BC000A609A709A40A0319A50A0319A60A031965
:100BD000A70AAD01AD0AAB1FEE2DEF2DFE2DA80922
:100BE000A909AA09AB09A80A0319A90A0319AA0A9B
:100BF0000319AB0A0130F9007908AD060030B100E5
:100C00000030B0000030AF000030AE0027082604EE
:100C10002504240403190D2E0E2E4F2EAC01AC0A10
:100C20001C2E0130A435A50DA60DA70D890B122E83
:100C30000130F9007908AC07A71F1F2E202E112EB6
:100C40000130AE35AF0DB00DB10D890B212E270847
:100C50002B02031D352E26082A02031D352E2508DA
:100C60002902031D352E24082802031C382E392E94
:100C7000422E2408A8022508A93B2608AA3B2708DB
:100C8000AB3B2E140130A736A60CA50CA40C890B87
:100C9000432E0130AC02031D4E2E4F2E202E2D0868
:100CA0000319532E542E5F2EAE09AF09B009B109B6
:100CB000AE0A0319AF0A0319B00A0319B10A3108C1
:100CC000A7003008A6002F08A5002E08A4000800E1
:100CD000200054085504031D6E2E6F2E732E8A318A
:100CE00020228631F12E5508B3005408B20000309E
:100CF000B7000030B6000030B5001330B40000304B
:100D0000BB000030BA000130B9006630B8000030D6
:100D1000BF000030BE000030BD000030BC0000301D
:100D2000C3000030C2000030C1003C30C0008F3131
:100D30009927863120003308D7003208D600D71B08
:100D4000A22EA32EB42E5708803AFA0080307A02E1
:100D5000031DAC2E143056020318AF2EB02EB42E45
:100D60008A311A228631F12E20005708803AFA0083
:100D700080307A02031DBE2E14305602031CC12E91
:100D8000C22ED42E20005708803AFA0080307A0212
:100D9000031DCC2E283056020318CF2ED02ED42E71
:100DA0008A3139228631F12E20005708803AFA0024
:100DB00080307A02031DDE2E28305602031CE12EFD
:100DC000E22EF12E20005708803AFA0080307A0295
:100DD000031DEC2E3D3056020318EF2EF02EF12E9F
:100DE0006F2E08005F2F8B315B238631F8010030B6
:100DF0008C31BA2486317E30F8009030F9008C3185
:100E0000E1248631732F8B315B238631F80100306A
:100E10008C31BA248631B130F8009030F9008C3131
:100E2000E1248631F801F80A00308C31BA24863189
:100E30003A30F8009030F9008C31E1248631732F7C
:100E40008B315B238631F80100308C31BA24863136
:100E50006D30F8009030F9008C31E1248631F801D2
:100E6000F80A00308C31BA2486315C30F8009030BA
:100E7000F9008C31E1248631732F8B315B2386316D
:100E8000F80100308C31BA248631F230F80090300D
:100E9000F9008C31E1248631F801F80A00308C31F8
:100EA000BA248631E330F8009030F9008C31E12427
:100EB0008631732F0130AB000030AC00732F21005E
:100EC0002C08003A0319652F5A2F2B08003A0319F2
:100ED000F32E013A0319032F033A0319202F013A85
:100EE00003193D2F5A2F080021002D032E04031D46
:100EF0007A2F7B2F8A2F02302B062C04031D812F83
:100F0000822F8A2FAD01AE01AB01AC012100E401BB
:100F1000E40ADD2F2D032E04031D8F2F902FA12F08
:100F20002B082C04031D952F962FA12F7C08031945
:100F30009A2F9C2F01309D2F0030F0007008FC008C
:100F4000862F2D032E04031DA62FA72FB92F2B03A9
:100F50002C04031DAC2FAD2FB92F20006F080319EF
:100F6000B22FB42F0130B52F0030F0007008EF0021
:100F7000862F2D082E04031DBE2FBF2FDD2F2D0819
:100F80002E04031DC42FC52FD32F2C08803AF00048
:100F900080307002031DCE2F02302B02031CD12F94
:100FA000D22FD32FDD2F21002B08013EAD000030C2
:100FB0002C3DAE00AB01AC01862F08002100640877
:100FC000031DE32FE42FF02FFF2F8631F226873108
:100FD000FD2F853129258731FD2FAD01AE01FD2F74
:100FE0002E08003A0319F52FED2F2D08003A0319AA
:100FF000E52F013A0319E92FED2F2100E401080044
:1013DC0008000800080001341630210097000800AE
:1013EC0072082100D9007108D80008007208210089
:1013FC00DD007108DC00080072082100DB007108B8
:10140C00DA00080072082100E3007108E20008000D
:10141C0072082100E1007108E00008007208210048
:10142C00DF007108DE000800F10101308A31B822BA
:10143C008A310800F10100308A31B8228A31080063
:10144C00F20072088A3153228A310800640080014C
:10145C000131890B2D2A0034583021009900980154
:10146C00220096010800F101F10A00308A31B822FD
:10147C008A310800863021009E009F019B019C014F
:10148C0001309D0008004030280096009501200096
:10149C0092100730280097000800F1002000111E60
:1014AC00582A592A542A710823009A0008008030BF
:1014BC002C0099009801970125001E08CF3910388F
:1014CC009E00080021006208630403196E2A6F2A2B
:1014DC00742A63088A0062080A008A312700931272
:1014EC00080021006008610403197D2A7E2A832AE2
:1014FC0061088A0060080A008A312700131308006B
:10150C0021005E085F0403198C2A8D2A922A5F0839
:10151C008A005E080A008A31270093130800F10044
:10152C007108860087018B30C03F0E30C13F7108B7
:10153C00023E860087016830C03F0630C13F08007C
:10154C0068302000EA006A08ED006708DF006608D2
:10155C00DE006D30EA006A08E00000308D315D2558
:10156C008A310800F20072080319BD2ABE2AC12A6A
:10157C0022008D14C32A22008D1071080319C72A6A
:10158C00C82ACA2A0D15CB2A0D1108008F31322713
:10159C008A318A3132228A318931F2218A318A3177
:1015AC0040228A318A3149228A318A315D228A313C
:1015BC008C3198248A3108007208F4007108F30009
:1015CC00F436F30CF436F30C73082C009800710805
:1015DC000339F3000530F335FF3E031DF12A733553
:1015EC0097000800F4007408F300F30DF30D2100CC
:1015FC001D087306833973069D001D14000021001D
:10160C009D149D180A2B0B2B072B1C08F2001B0892
:10161C00F10008002700931E142B152B182B8A3170
:10162C0068228B312700131F1C2B1D2B202B8A317A
:10163C0077228B312700931F242B252B282B8A31C3
:10164C0086228B310800F100710886008701173063
:10165C00C03F9130C13F7108023E86008701FD30CA
:10166C00C03F0B30C13F7108043E86008701C43077
:10167C00C03F0B30C13F0800F100710886008701A4
:10168C00FF30C03F9030C13F7108023E8600870199
:10169C00E030C03F0B30C13F7108043E860087012B
:1016AC00A930C03F0B30C13F0800F80100308C312D
:1016BC00BA248B31C230F8009030F9008C31E1241F
:1016CC008B31F801F80A00308C31BA248B31C230DE
:1016DC00F8009030F9008C31E1248B31080075084A
:1016EC00803AF60080307602031D7E2B01307402A6
:1016FC000318812B822B8E2B7409F6007509F700C9
:10170C00F60A0319F70A7608F4007708F5008E2B11
:10171C000800F5007508F3007308F400992B0130EC
:10172C00F3007308F507750886000130870001087F
:10173C00031DA12BA22B952B74087502F100F2014D
:10174C00F11BF2030800210037080319AE2BAF2B55
:10175C00C12B7C080319B32BB42BC12B00308A315D
:10176C00F8228B317208F8007108F7007808F6003F
:10177C007708F500C32BF501F601080021003808A5
:10178C000319C92BCA2BDD2B20006F080319CF2B93
:10179C00D02BDD2B01308A31F8228B317208F80006
:1017AC007108F7007808F6007708F500DF2BF501D3
:1017BC00F601080000308A31F8228B317208F800EB
:1017CC007108F7007808803AF50080307502031D27
:1017DC00F12B013077020318F42BF62B0130F72B89
:1017EC000030F60076082100B700370808000130F9
:1017FC008A31F8228B317208F8007108F7007808EA
:10180C00803AF50080307502031D0E2C01307702F2
:10181C000318112C132C0130142C0030F600760810
:10182C002100B80038080800F700FA300032890BA4
:10183C001C2CF101F10A77088C3156248C31770875
:10184C00F5000330F535FF3E031D282C7535F600E9
:10185C007608F700F101F10A77088C3156248C31A7
:10186C000800F700FA300032890B392CF1017708A7
:10187C008C3156248C317708F5000330F535FF3E5A
:10188C00031D442C7535F6007608F7005330890B90
:10189C004D2C0000F10177088C3156248C31080056
:1018AC00F4007408F2000430F236890B5A2C7208DA
:1018BC00F3007308F40074080F39F2007208F40096
:1018CC0020000F08F0398F000F0874048F00710C82
:1018DC00031C8F1203188F160F130F160F1208000C
:1018EC0020008F0121008F0120008F170530F80098
:1018FC00DE30890B7F2CF80B7F2C32308C31372467
:10190C008C3128308C3137248C310C308C3137248D
:10191C008C3101308C3137248C3106308C313724AA
:10192C008C310800083023009F0090309D0024303B
:10193C009E0019309B009C010030F1000030F20039
:10194C008931FC218C310030F1000030F2008A31F9
:10195C0002228C310030F1000030F2008931F62186
:10196C008C312100B9010800FB0002307802031809
:10197C00C02CC12CE02C10307B02031CC62CC72CB5
:10198C00C82CE02C78030319CC2CCD2CD32C803014
:10199C007B04F9000030FA00D82CC0307B04F9002D
:1019AC000030FA0079088C3137248C31FA3000324F
:1019BC00890BDD2C0800FA01F72C7908A1007808B6
:1019CC00A0007A082007840021080318210A85004A
:1019DC0000088C311A248C3101302000A000200822
:1019EC00FA0779082000A1007808A0007A082007DF
:1019FC00840021080318210A85001200031D072DFD
:101A0C00082DE32C08002000A600A401A501212D1F
:101A1C002308A000A1012008F3002108F4007B0892
:101A2C00A2002208F5008D31FE258D3101302000F9
:101A3C00A4070030A53D24082607A0002008860036
:101A4C00013087000108A1002108A3002308031D11
:101A5C00302D312D0E2D080021002D032E04031DD9
:101A6C00382D392D452D02302B062C04031D3F2D0E
:101A7C00402D452D35080319442D452D4A2DFF3099
:101A8C00AB07FF30AC3D542D360803194E2D4F2DAE
:101A9C00542DFE30AB07FF30AC3D542DAC1F572DF1
:101AAC00582D5A2DAB01AC01E401E40A08002000CA
:101ABC00E3005F08E5005E08E4002100A301A40137
:101ACC007B2D6430E1006108CE006008E200620802
:101ADC00CF006308833191238D3120004E08210003
:101AEC00A30720004F082100A43D200064088400B7
:101AFC00650885001200031D842D852D672D21009E
:101B0C0024082000DF00210023082000DE0008004C
:101B1C0000302000A3000030A2000030A1000030F3
:101B2C00A000711C9A2D9B2DA42D75082000A007D8
:101B3C007608A13D7708A23D7808A33D0130F53524
:101B4C00F60DF70DF80D890BA52D0130F436F30CBD
:101B5C00F20CF10C890BAC2D740873047204710433
:101B6C00031DB92DBA2D972D20002308F40022084F
:101B7C00F3002108F2002008F100080001302100D8
:101B8C00AB070030AC3D2D082E04031DCE2DCF2D00
:101B9C00E12D2C08803AF00080307002031DD82D06
:101BAC0005302B02031CDB2DDC2DE12D0430210034
:101BBC00AB000030AC0021002D032E04031DE72DDB
:101BCC00E82DFA2D2C08803AF00080307002031DAD
:101BDC00F12D03302B02031CF42DF52DFA2D0230C0
:101BEC002100AB000030AC002100E401E40A080045
:101BFC0075080319022E032E082E7508031D072ED7
:101C0C00082E0D2E73088A3126228D313C2E750834
:101C1C00033E86008701160001040319162E172EA9
:101C2C00342E7508033E86008701403FF600413F85
:101C3C00F700750A86008701403FF800413FF90024
:101C4C007908803AFA007708803A7A02031D302E20
:101C5C00760878020318332E342E3C2E750A860033
:101C6C0087010130810741310318810A0800F30014
:101C7C007308023E860001308700C430C03F0D302F
:101C8C00C13F7308043E8600013087003230C03FEC
:101C9C000D30C13F7308063E86000130870074305A
:101CAC00C03F0730C13F7308083E860001308700F3
:101CBC000030C03F0030C13F73080A3E860001303F
:101CCC008700DE30C03F0730C13F73080C3E8600F2
:101CDC0001308700F230C03F0630C13F7308103E20
:101CEC008600013087002930C03F0530C13F7108A4
:101CFC00860087010108F20072082100B600710805
:101D0C0086008701413FB5000800200054085504A7
:101D1C00031D912E922E992E0030F100F2008A3183
:101D2C00E2228E31D82E5508B3005408B200003090
:101D3C00B7000030B6000030B5000A30B4000030F7
:101D4C00BB000030BA000330B900E830B8000030F6
:101D5C00BF000030BE000030BD000030BC000030C1
:101D6C00C3000030C2000030C1006430C0008F31AD
:101D7C0099278E3120003308D7003208D600643002
:101D8C00FA0056087A022100AF0020005709031808
:101D9C00890A2100B0003008F2002F08F1008A31C6
:101DAC00E2228E3108002000AF002100291CDF2E1A
:101DBC00E02EE92E20002F08AA002A08FB00270895
:101DCC008D3109258E312000A91BED2EEE2EF32E20
:101DDC002908AE002808AD00F52EAD01AE01AB010F
:101DEC00AC01092F2030F3000030F40020002F0844
:101DFC00AA002A08F5008D31FE258E310130200015
:101E0C00AB070030AC3D2C08803AAA002E08803A73
:101E1C002A02031D132F2D082B02031C162F172F1C
:101E2C00F82E210029181B2F1C2F252F20002F08DE
:101E3C00AA002A08FB0027088D3109258E312000C5
:101E4C0027088B318F238E3120002D087107A700B6
:101E5C002E08723DA8000800220090018F018C0111
:101E6C008D018E010F3021009000FF308C00F83076
:101E7C008D00BF308E008F0123008F013C308E000F
:101E8C0020308D00073090001F308C0024008F0113
:101E9C0090018D01E0308C008E01210095132500FE
:101EAC0090018C018D018E018F01FF3026008C007A
:101EBC00FF308D00FF308E00FF308F000730900018
:101ECC00FF3027008C00FF308D00FF308E00FF307C
:101EDC008F000F3090009312131393139216121756
:101EEC009217911211139113EE30F1000930F20098
:101EFC008A3108228F31EF30F1000930F2008A313B
:101F0C000E228F31F030F1000930F2008A311422A8
:101F1C008F318B1517303C00A4000E303D0098001B
:101F2C001430A6000800200034083802C40035081C
:101F3C00393BC50036083A3BC60037083B3BC70067
:101F4C004708A7004608A6004508A5004408A400B9
:101F5C003208C8003308C9000030C91BFF30CA0062
:101F6C00CB003408C8023508C93B3608CA3B3708D1
:101F7C00CB3B4B08F4004A08F3004908F200480830
:101F8C00F1003C084002CC003D08413BCD003E082E
:101F9C00423BCE003F08433BCF004F08F8004E08B1
:101FAC00F7004D08F6004C08F5008D318E258F3169
:101FBC0074082000AB007308AA007208A90071080D
:101FCC00A8008531D8258F31200024083C07D0008B
:101FDC0025083D3DD10026083E3DD20027083F3D57
:101FEC00D3005308B5005208B4005108B300500890
:101FFC00B20008006D3465346E3475345F3463346C
:10200C0075347234723465346E3474343A3420342A
:10201C002534643420340A340D3400342034203414
:10202C0044346534733468346134623469346C34E8
:10203C0069347434613464346F3420342034203483
:10204C00203400346D3465346E3475345F34693447
:10205C006E346434653478343A3420342534643442
:10206C0020340A340D34003420342034203420340D
:10207C004134703461346734613464346F342034E7
:10208C0020342034203420340034203420342034C4
:10209C0048346134623469346C3469347434613476
:1020AC0064346F3420342034203400342034203411
:1020BC002034203445346E34633465346E346434E7
:1020CC00693464346F3420342034203400343C348C
:1020DC0020342034203448346F347234613420344A
:1020EC006434653420342034203420343E340034BD
:1020FC002034203420342034533465346E3473341B
:10210C006F347234653473342034203420343E34CC
:10211C0000343C3420342034543465346D34703401
:10212C0065347234613474347534723461342034EF
:10213C003E3400343C34203420344C3475346D340B
:10214C0069346E346F347334693464346134643498
:10215C0020343E3400343C342034543465346D34F3
:10216C0070346F34723469347A34613464346F345B
:10217C00723420343E340034203420342034203463
:10218C0020342034203420342034203420342034A3
:10219C00203420342034203400343C342034203497
:1021AC00203452346534673472346534733461349A
:1021BC007234203420342034003420342034203441
:1021CC0020344134703461346734613464346F3496
:1021DC0020342034203400343C3420342034203457
:1021EC0048346F34723461342034643465342034B0
:1021FC000034543465346D34703465347234613465
:10220C007434753472346534003442346934653452
:10221C006E34763465346E34693464346F342134FE
:0E222C0000344C346934673468347434003440
:020000040001F9
:04000E00E43FFF3E8E
:00000001FF
