:020000040000FA
:1000000080312628053008007E1480318B1D092898
:100010000A2812280B1C0D280E2812289D3177253E
:10002000803124280B1F1528162824282100911C14
:100030001A281B2824282000911C1F282028242847
:100040009A31E622803124287E1009008031282848
:1000500022009A3175228031E0009A317622803177
:10006000E1009A3177228031E2009A3178228031A2
:10007000E3002000EA01EB01EC01203084000130B4
:1000800085002B309B310A238031A0308400013061
:1000900085003F309B310A238031203084000230BC
:1000A000850020309B310A2380317E102000803172
:1000B00059289E311526803190311B208031003027
:1000C0002400C2000030C3000030C400D9309E318B
:1000D0006A268031D3309E31872680310230D33E6C
:1000E000860001308700413F8A00403F0A0080318E
:1000F0002200DF005F082400D0000230D93E8600D5
:1001000001308700413F8A00403F0A0080312200D1
:10011000DF005F082400D100D201D3015008220083
:10012000DF005F082400D20051082200DF005F08D2
:100130002400D300CD309E314D2680315230220034
:10014000DF005F082100A500BB309631A326803177
:100150008B170B1723003E082100A60023003D0843
:100160002100A5009B317923803123004008210024
:10017000A60023003F082100A5009B318223803187
:10018000230042082100A600230041082100A50009
:100190009B318B238031F9302100A5001D30A60052
:1001A0009B31942380319A31BF228031CE3021009F
:1001B000AC009930AD009031D62080314130220022
:1001C000DF00EE30890BE228DF0BE2280000003070
:1001D0002200D7009830D8008731E92780312400E9
:1001E000D401D5010430D33E860001308700413F61
:1001F0008A00403F0A00803121002A082400C700FD
:10020000210029082400C6000430D93E86000130B0
:100210008700413F8A00403F0A00813121002A08BF
:100220002400C900210029082400C8004708210033
:10023000C100240046082100C0000030C500003085
:10024000C4000030C3001330C2000030C9000030C9
:10025000C8000130C7006630C600FF30CD00FF3057
:10026000CC00FF30CB00D830CA000030D1000030C5
:10027000D0000030CF007D30CE008831602080314A
:10028000210041082400CB00210040082400CA00BE
:1002900061302200D7009830D80024004B0822009B
:1002A000DA0024004A082200D9008731E92780318A
:1002B00047302200D7009830D80024004908220097
:1002C000DA00240048082200D9008731E92780316C
:1002D00001302400D4070030D53D5508803A220073
:1002E000DF0080305F02031D7829053024005402AE
:1002F000031C7B297C29F22862302200DF005F0882
:100300002100B30063309431A224803122006008C0
:1003100003198B298C29DA290430D33E8600013059
:100320008700413F8A00403F0A00813121002A08AE
:100330002400CD00210029082400CC000430D93E3F
:10034000860001308700413F8A00403F0A0081312A
:1003500021002A082400CF00210029082400CE0013
:100360004D082100E30024004C082100E200023087
:10037000CD3E860001308700413F8A00403F0A00A1
:10038000813124004F082100E30024004E082100A1
:10039000E20023004E088A004D080A00813108302F
:1003A000BB3E860001308700413F8A00403F0A0083
:1003B000813186294730D7009930D8008731E92725
:1003C00080310430CD3E860001308700413F8A00F5
:1003D000403F0A0081311030BB3E8600013087006B
:1003E000413F8A00403F0A0081318629803126281A
:1003F0002100CB004008D4004108D5004208D600B7
:100400004308D7004408D8004508D9004608DA0058
:100410004708DB00D430860000308700473FC80023
:10042000C81B132A152A0130162A00302100C900E2
:10043000CA014908D2004A08D300520853040319DC
:10044000222A232A412AD409D509D609D709D8094D
:10045000D909DA09DB09D40A031D412AD50A031D8B
:10046000412AD60A031D412AD70A031D412AD80A68
:10047000031D412AD90A031D412ADA0A031D412A14
:10048000DB0A2200BE1B452A462A4A2AFD30BF0548
:10049000FF30C0053E08803A2100C8008030480285
:1004A000031D552A013022003D020318582A592AFB
:1004B0005F2A01302100CE000030CF00672A2200E1
:1004C0003E082100CF0022003D082100CE0023007D
:1004D00032082100D100230031082100D000520849
:1004E0005304031D742A752A7A2A22003F1D792A93
:1004F0007A2A7F2AFF302100D007FF30D13D1F30FC
:100500002100DC000030DD002400BF01F02AFF30B4
:100510002100DC07FF30DD3D0A30A500A601A70160
:10052000A801A901AA01AB01AC015408AD0055080E
:10053000AE005608AF005708B0005808B10059087F
:10054000B2005A08B3005B08B4008D312225813116
:1005500021002608B9002508B8009E3131268131D6
:1005600021003808303EC8005C08203E860002307A
:10057000870048088100FF30CE07FF30CF3DFF30B5
:10058000D007FF30D13D0A30A500A601A701A80180
:10059000A901AA01AB01AC015408AD005508AE0099
:1005A0005608AF005708B0005808B1005908B2000B
:1005B0005A08B3005B08B4008531E325813121007E
:1005C0002508D4002608D5002708D6002808D7001B
:1005D0002908D8002A08D9002B08DA002C08DB00EB
:1005E00021005D08803AC80080304802031DFA2AC5
:1005F00001305C02031CFD2AFE2A2B2B210054082B
:10060000550456045704580459045A045B04031D46
:100610000A2B0B2B872A4F08803AC80080304802EB
:10062000031D142B01304E020318172B182B872A99
:1006300021005108803AC80080304802031D222B57
:1006400001305002031C252B262B2B2B2200BF1818
:100650002A2B2B2B872A210052085304031D312BF0
:10066000322B372B22003F1D362B372B542BFF30DC
:100670002100DC07FF30DD3D52085304031D412BF0
:10068000422B472B2B30CC000030CD004B2B2D3094
:10069000CC000030CD004C08C8005C08203E86002D
:1006A000023087004808810021005C08203EC80015
:1006B0004808B7005108B9005008B8004B089731F6
:1006C000A727813121003808C1003708C000080081
:1006D0002000BB003008C4003108C5003208C60045
:1006E0003308C7003408C8003508C9003608CA00F6
:1006F0003708CB004430860000308700473FB80001
:10070000B81B832B852B0130862B00302000B900CD
:10071000BA013908C2003A08C30042084304031969
:10072000922B932BB12BC409C509C609C709C80967
:10073000C909CA09CB09C40A031DB12BC50A031D87
:10074000B12BC60A031DB12BC70A031DB12BC80A62
:10075000031DB12BC90A031DB12BCA0A031DB12BFE
:10076000CB0A2200BE1BB52BB62BBA2BFD30BF0522
:10077000FF30C0053E08803A2000B80080303802C3
:10078000031DC52B013022003D020318C82BC92BC5
:10079000CF2B01302000BE000030BF00D72B22003D
:1007A0003E082000BF0022003D082000BE002300BC
:1007B00032082000C100230031082000C000420898
:1007C0004304031DE42BE52BEA2B22003F1DE92BFC
:1007D000EA2BEF2BFF302000C007FF30C13D1F3058
:1007E0002000CC000030CD002400BF01602CFF3081
:1007F0002000CC07FF30CD3D0A30A000A101A201AE
:10080000A301A401A501A601A7014408A800450869
:10081000A9004608AA004708AB004808AC004908F0
:10082000AD004A08AE004B08AF008C31382483314C
:1008300020002108F4002008F3009D31A925833110
:100840007308303E2000B8004C08203E860002307D
:10085000870038088100FF30BE07FF30BF3DFF3002
:10086000C007FF30C13D0A30A000A101A201A301D1
:10087000A401A501A601A7014408A8004508A900F4
:100880004608AA004708AB004808AC004908AD007C
:100890004A08AE004B08AF008631E82683312000BD
:1008A0002008C4002108C5002208C6002308C7008C
:1008B0002408C8002508C9002608CA002708CB005C
:1008C00020004D08803AB80080303802031D6A2CA1
:1008D00001304C02031C6D2C6E2C9B2C2000440814
:1008E000450446044704480449044A044B04031DD4
:1008F0007A2C7B2CF72B3F08803AB80080303802E6
:10090000031D842C01303E020318872C882CF72B02
:1009100020004108803AB80080303802031D922C34
:1009200001304002031C952C962C9B2C2200BF18F2
:100930009A2C9B2CF72B200042084304031DA12C6A
:10094000A22CA72C22003F1DA62CA72CC42CFF30C4
:100950002000CC07FF30CD3D42084304031DB12CDD
:10096000B22CB72C2B30BC000030BD00BB2C2D307E
:10097000BC000030BD003C08B8004C08203E86009A
:10098000023087003808810020004C08203EB80063
:100990003808A4004108A6004008A5003B0897318C
:1009A0004E27833120002508B1002408B00008003C
:1009B00020006C080319DD2CDE2CDF2CE22D9A318F
:1009C0007922843105309A317E228431FA30F00068
:1009D0001C30F1009A31CE22843122006008031DC0
:1009E000F22CF32CF92CE001E00A9B31F72384313F
:1009F000E22D41034204031DFE2CFF2C082D023082
:100A000020006A066B04031D062D072D082DF52C0A
:100A10000230220041064204031D0F2D102D192D16
:100A2000043020006A066B04031D172D182D192DA4
:100A3000F52C0230220041064204031D202D212DF9
:100A4000662D043020006A066B040319282D292D19
:100A5000662D4A2D0530F0000030F1009C31E9246C
:100A600084315D2D0A30F0000030F1009C31E92422
:100A700084315D2D0F30F0000030F1009C31E9240D
:100A800084315D2D1430F0000030F1009C31E924F8
:100A900084315D2D6B08003A03194F2D2A2D6A0809
:100AA000003A03192A2D013A0319322D033A03198A
:100AB0003A2D013A0319422D2A2DA3302000A60019
:100AC0005530890B612DA60B612DF52C22004103B9
:100AD0004204031D6C2D6D2D8E2D20006A086B04C1
:100AE000031D732D742D8E2D220063080319792D9B
:100AF0007B2D01307C2D00302000A600260822002E
:100B0000E300E101E10A62082000A6002608FD00DA
:100B100022006308933111238431E22D2200410326
:100B20004204031D942D952DB62D20006A036B04FD
:100B3000031D9B2D9C2DB62D220062080319A12DAB
:100B4000A32D0130A42D00302000A600260822008D
:100B5000E200E101E10A62082000A6002608FD008B
:100B600022006308933111238431E22D22004108D1
:100B70004204031DBC2DBD2DE22D41084204031D7E
:100B8000C22DC32DD22D20006B08803AA6008030E4
:100B90002602031DCD2D03306A02031CD02DD12D5A
:100BA000D22DE22D20006A08013E2200C100003053
:100BB00020006B3D2200C2002000EA01EB01220070
:100BC000E101E10A08002100B701A53086000030EC
:100BD0008700473FB500B51FEE2DEF2D112E2100E8
:100BE000A509A609A709A809A909AA09AB09AC0979
:100BF000A50A031D0E2EA60A031D0E2EA70A031D0D
:100C00000E2EA80A031D0E2EA90A031D0E2EAA0AD7
:100C1000031D0E2EAB0A031D0E2EAC0A2100B701D8
:100C2000B70AAD30860000308700473F2100B5008D
:100C3000B51F1B2E1C2E402E2100AD09AE09AF0999
:100C4000B009B109B209B309B409AD0A031D3B2EBD
:100C5000AE0A031D3B2EAF0A031D3B2EB00A031D37
:100C60003B2EB10A031D3B2EB20A031D3B2EB30AD5
:100C7000031D3B2EB40A01302100B5003508B7062C
:100C8000B83086000030870008302100B500003001
:100C90001E00B50B482E2508260427042804290425
:100CA0002A042B042C040319562E572EB32EB601FA
:100CB000B60A662EA535A60DA70DA80DA90DAA0D7D
:100CC000AB0DAC0D0130B5003508B607AC1F692E71
:100CD0006A2E5A2EB835B90DBA0DBB0DBC0DBD0D1F
:100CE000BE0DBF0D2C083402031D902E2B083302BD
:100CF000031D902E2A083202031D902E290831026E
:100D0000031D902E28083002031D902E27082F0265
:100D1000031D902E26082E02031D902E25082D025D
:100D2000031C932E942EA52E2508AD022608AE3B5B
:100D30002708AF3B2808B03B2908B13B2A08B23B43
:100D40002B08B33B2C08B43B3814AC36AB0CAA0CC4
:100D5000A90CA80CA70CA60CA50C0130B602031D0B
:100D6000B22EB32E6A2E37080319B72EB82ED62E00
:100D7000B809B909BA09BB09BC09BD09BE09BF094F
:100D8000B80A031DD62EB90A031DD62EBA0A031DB2
:100D9000D62EBB0A031DD62EBC0A031DD62EBD0AB5
:100DA000031DD62EBE0A031DD62EBF0A2100380809
:100DB000A5003908A6003A08A7003B08A8003C088F
:100DC000A9003D08AA003E08AB003F08AC0008009F
:100DD000F2012030860000308700473FF000F01F0E
:100DE000F22EF32E142F2000A009A109A209A309B5
:100DF000A409A509A609A709A00A031D122FA10A83
:100E0000031D122FA20A031D122FA30A031D122F66
:100E1000A40A031D122FA50A031D122FA60A031DE3
:100E2000122FA70AF201F20A28308600003087004C
:100E3000473FF000F01F1D2F1E2F412F2000A80953
:100E4000A909AA09AB09AC09AD09AE09AF09A80AFD
:100E5000031D3D2FA90A031D3D2FAA0A031D3D2F87
:100E6000AB0A031D3D2FAC0A031D3D2FAD0A031D28
:100E70003D2FAE0A031D3D2FAF0A0130F000700870
:100E8000F20673308600003087000830F000003032
:100E90001E00F00B482F2000200821042204230408
:100EA00024042504260427040319572F582FB42F90
:100EB000F101F10A672FA035A10DA20DA30DA40D1C
:100EC000A50DA60DA70D0130F0007008F107A71FB2
:100ED0006A2F6B2F5B2FF335F40DF50DF60DF70D23
:100EE000F80DF90DFA0D27082F02031D912F260882
:100EF0002E02031D912F25082D02031D912F24087A
:100F00002C02031D912F23082B02031D912F220871
:100F10002A02031D912F21082902031D912F200869
:100F20002802031C942F952FA62F2008A802210821
:100F3000A93B2208AA3B2308AB3B2408AC3B25086D
:100F4000AD3B2608AE3B2708AF3B7314A736A60C73
:100F5000A50CA40CA30CA20CA10CA00C0130F10256
:100F6000031DB32FB42F6B2F72080319B82FB92F9D
:100F7000D72FF309F409F509F609F709F809F90972
:100F8000FA09F30A031DD72FF40A031DD72FF50A18
:100F9000031DD72FF60A031DD72FF70A031DD72FDE
:100FA000F80A031DD72FF90A031DD72FFA0A730871
:100FB0002000A0007408A1007508A2007608A30014
:100FC0007708A4007808A5007908A6007A08A70089
:100FD000080059302200DB005B08DE0058082100C1
:100FE000E600220057082100E5005E302200DB0009
:100FF0005B082100E70000309331B12387310800FE
:101000002000911508007E1C07289631F72E9A3192
:10101000FE228831003A03190E280F2842281C2886
:101020009B31A62388315F289B31AF2388315F280D
:101030009B31C12388315F2822002F082100A600A0
:101040002608A5000630203E860001308700413F7B
:101050008A00403F0A0088312100A700A801280823
:10106000003A0319342818282708013A03191828C8
:10107000033A03191028013A03191428073A0319EF
:101080001828182822003C101730203E8600013016
:101090008700403F84008501810A00089A31F822C8
:1010A000883101302200B8020030B93B38083904D9
:1010B000031D5B285C285E2806305F28033008008B
:1010C000210042084602D2004308473BD3004408AF
:1010D000483BD4004508493BD5005508B4005408A6
:1010E000B3005308B2005208B1004008D6004108CE
:1010F000D7000030D71BFF30D800D9004208D602F5
:101100004308D73B4408D83B4508D93B5908A800B9
:101110005808A7005708A6005608A5004A084E021E
:10112000DA004B084F3BDB004C08503BDC004D081D
:10113000513BDD005D08AC005C08AB005B08AA0019
:101140005A08A9009231DD22883121002808B80010
:101150002708B7002608B6002508B5008931C42144
:101160008831210031084A07DE0032084B3DDF009C
:1011700033084C3DE00034084D3DE1006108C300F8
:101180006008C2005F08C1005E08C00008002200BD
:1011900090018F018C018D018E010F302100900094
:1011A000FF308C00F8308D00BF308E008F0123009F
:1011B0008F0124308E0020308D00073090001F30CA
:1011C0008C0024008F0190018D01E0308C008E0195
:1011D00021009513250090018C018D018E018F0156
:1011E000FF3026008C00FF308D00FF308E00FF3076
:1011F0008F0007309000FF3027008C00FF308D00FB
:10120000FF308E00FF308F000F30900093121313C9
:1012100093139216121792179112111391132430EF
:101220002100A5001A30A6009B3179238831253092
:101230002100A5001A30A6009B3182238831263078
:101240002100A5001A30A6009B318B2388318B1515
:1012500017303C00A4001430A10010303D00A30062
:101260000E3098001130A4001430A60013303C005A
:10127000A0000800210062086304031D40294129E1
:1012800045299B312C238931C3296308C100620899
:10129000C0000030C5000030C4000030C30013306F
:1012A000C2000030C9000030C8000130C7006630FD
:1012B000C6000030CD000030CC000030CB00003044
:1012C000CA000030D1000030D0000030CF003C30E8
:1012D000CE0088316020893121004108E6004008B5
:1012E000E500E61B7429752986296608803AE40022
:1012F00080306402031D7E291430650203188129A1
:10130000822986299B3125238931C329210066083A
:10131000803AE40080306402031D90291430650295
:10132000031C93299429A62921006608803AE40029
:1013300080306402031D9E29283065020318A1290C
:10134000A229A6299B313B238931C32921006608A4
:10135000803AE40080306402031DB0292830650221
:10136000031CB329B429C32921006608803AE4008C
:1013700080306402031DBE293D3065020318C12977
:10138000C229C329412908002100BB01B41FC92972
:10139000CA29D729B109B209B309B409B10A031995
:1013A000B20A0319B30A0319B40ABB01BB0AB81F76
:1013B000DA29DB29EA29B509B609B709B809B50A56
:1013C0000319B60A0319B70A0319B80A0130B9009C
:1013D0003908BB060030BF000030BE000030BD0041
:1013E0000030BC0034083304320431040319F929F5
:1013F000FA293B2ABA01BA0A082A0130B135B20DDE
:10140000B30DB40D890BFE290130B9003908BA07B4
:10141000B41F0B2A0C2AFD290130BC35BD0DBE0DB1
:10142000BF0D890B0D2A34083802031D212A330809
:101430003702031D212A32083602031D212A3108F2
:101440003502031C242A252A2E2A3108B502320827
:10145000B63B3308B73B3408B83B3C140130B436D4
:10146000B30CB20CB10C890B2F2A0130BA02031D48
:101470003A2A3B2A0C2A3B0803193F2A402A4B2AC6
:10148000BC09BD09BE09BF09BC0A0319BD0A03197D
:10149000BE0A0319BF0A3F08B4003E08B3003D0866
:1014A000B2003C08B1000800CF2A9E31FC268A31E8
:1014B0002100AC0100309031AE208A31F2302100A1
:1014C000AC009830AD009031D6208A31E32A9E31AD
:1014D000FC268A312100AC0100309031AE208A31E7
:1014E00025302100AC009930AD009031D6208A31F2
:1014F0002100AC01AC0A00309031AE208A318C3032
:101500002100AC009830AD009031D6208A31E32A1A
:101510009E31FC268A312100AC0100309031AE2092
:101520008A31E1302100AC009830AD009031D620F6
:101530008A312100AC01AC0A00309031AE208A31F2
:10154000AE302100AC009830AD009031D6208A3109
:10155000E32A9E31FC268A312100AC010030903113
:10156000AE208A31B5302100AC009930AD00903109
:10157000D6208A312100AC01AC0A00309031AE2077
:101580008A3197302100AC009930AD009031D620DF
:101590008A31E32A0130EA000030EB00E32A200020
:1015A0006B08003A0319D52ACA2A6A08003A0319B7
:1015B000552A013A0319672A033A0319882A013A7E
:1015C0000319A92ACA2A0800722B22004708031906
:1015D000EA2AEB2A1B2B9E31FC268A312100AC0122
:1015E00000309031AE208A3103302100AC009930B8
:1015F000AD009031D6208A312100AC01AC0A003018
:101600009031AE208A31220063080319082B092B80
:10161000122B9D302100AC009830AD009031D620C7
:101620008A31832B78302100AC009830AD009031A6
:10163000D6208A31832B01302000EA070030EB3DB1
:10164000220046080319252B262B562B9E31FC26FB
:101650008A312100AC0100309031AE208A31143043
:101660002100AC009930AD009031D6208A312100A4
:10167000AC01AC0A00309031AE208A312200620801
:101680000319432B442B4D2B9D302100AC00983087
:10169000AD009031D6208A31832B78302100AC0008
:1016A0009830AD009031D6208A31832B0130200054
:1016B000EA070030EB3D9E31FC268A312100AC0167
:1016C00000309031AE208A3168302100AC00993072
:1016D000AD009031D6208A31832B0130EA000030F2
:1016E000EB00832B20006B08003A0319782B6D2B3D
:1016F0006A08003A0319E52A013A0319202B033A34
:1017000003195B2B6D2B0800202C9E31FC268B319E
:101710002100AC0100309031AE208B31A630210089
:10172000AC009930AD009031D6208B312100AC0156
:10173000AC0A00309031AE208B3178302100AC0003
:101740009930AD009031D6208B31372C9E31FC265C
:101750008B312100AC0100309031AE208B31BF3095
:101760002100AC009830AD009031D6208B312100A3
:10177000AC01AC0A00309031AE208B3178302100C2
:10178000AC009930AD009031D6208B31372C9E3192
:10179000FC268B312100AC0100309031AE208B3122
:1017A000D0302100AC009830AD009031D6208B3184
:1017B0002100AC01AC0A00309031AE208B31783082
:1017C0002100AC009930AD009031D6208B31372C00
:1017D0009E31FC268B312100AC0100309031AE20CF
:1017E0008B3158302100AC009930AD009031D620BB
:1017F0008B312100AC01AC0A00309031AE208B312E
:1018000078302100AC009930AD009031D6208B317A
:10181000372C9E31FC268B312100AC0100309031F9
:10182000AE208B3168302100AC009930AD00903192
:10183000D6208B31372C0130EA000030EB00372CFA
:1018400020006B08003A0319262C1B2C6A08003A6A
:101850000319852B013A0319A62B033A0319C72B49
:10186000013A0319E82B073A0319092C1B2C08002D
:10187000F2012830860000308700473FF000F01F5B
:10188000422C432C642C2000A809A909AA09AB0901
:10189000AC09AD09AE09AF09A80A031D622CA90A5B
:1018A000031D622CAA0A031D622CAB0A031D622CC5
:1018B000AC0A031D622CAD0A031D622CAE0A031D87
:1018C000622CAF0AF201F20A203086000030870055
:1018D000473FF000F01F6D2C6E2C8D2C2000A009CE
:1018E000A109A209A309A409A509A609A709A00A93
:1018F000031D8D2CA10A031D8D2CA20A031D8D2C06
:10190000A30A031D8D2CA40A031D8D2CA50A031DFB
:101910008D2CA60A031D8D2CA70A20002008210467
:101920002204230424042504260427040319992CE3
:101930009A2CED2CF101F10AA92CA035A10DA20DD4
:10194000A30DA40DA50DA60DA70D0130F000700884
:10195000F107A71FAC2CAD2C9D2C27082F02031DCF
:10196000CB2C26082E02031DCB2C25082D02031D8F
:10197000CB2C24082C02031DCB2C23082B02031D87
:10198000CB2C22082A02031DCB2C21082902031D7F
:10199000CB2C20082802031CCE2CCF2CDF2C2008B7
:1019A000A8022108A93B2208AA3B2308AB3B240834
:1019B000AC3B2508AD3B2608AE3B2708AF3BA7361E
:1019C000A60CA50CA40CA30CA20CA10CA00C01301D
:1019D000F102031DEC2CED2CAD2C72080319F12C37
:1019E000F22C102DA809A909AA09AB09AC09AD0967
:1019F000AE09AF09A80A031D102DA90A031D102D59
:101A0000AA0A031D102DAB0A031D102DAC0A031DDD
:101A1000102DAD0A031D102DAE0A031D102DAF0AA7
:101A200020002808A0002908A1002A08A2002B08ED
:101A3000A3002C08A4002D08A5002E08A6002F083E
:101A4000A70008002100B701AD30860000308700F4
:101A5000473FB500B51F2D2D2E2D502D2100AD096E
:101A6000AE09AF09B009B109B209B309B409AD0AA9
:101A7000031D4D2DAE0A031D4D2DAF0A031D4D2D27
:101A8000B00A031D4D2DB10A031D4D2DB20A031DD1
:101A90004D2DB30A031D4D2DB40A2100B701B70A1D
:101AA000A530860000308700473F2100B500B51FF4
:101AB0005A2D5B2D7A2D2100A509A609A709A80991
:101AC000A909AA09AB09AC09A50A031D7A2DA60A22
:101AD000031D7A2DA70A031D7A2DA80A031D7A2D4E
:101AE000A90A031D7A2DAA0A031D7A2DAB0A031D2C
:101AF0007A2DAC0A2100250826042704280429048D
:101B00002A042B042C040319862D872DDA2DB60107
:101B1000B60A962DA535A60DA70DA80DA90DAA0DDF
:101B2000AB0DAC0D0130B5003508B607AC1F992DD3
:101B30009A2D8A2D2C083402031DB82D2B08330250
:101B4000031DB82D2A083202031DB82D29083102C1
:101B5000031DB82D28083002031DB82D27082F02B9
:101B6000031DB82D26082E02031DB82D25082D02B1
:101B7000031CBB2DBC2DCC2D2508AD022608AE3B89
:101B80002708AF3B2808B03B2908B13B2A08B23BE5
:101B90002B08B33B2C08B43BAC36AB0CAA0CA90CFD
:101BA000A80CA70CA60CA50C0130B602031DD92D5C
:101BB000DA2D9A2D37080319DE2DDF2DFD2DAD0905
:101BC000AE09AF09B009B109B209B309B409AD0A48
:101BD000031DFD2DAE0A031DFD2DAF0A031DFD2DB6
:101BE000B00A031DFD2DB10A031DFD2DB20A031D10
:101BF000FD2DB30A031DFD2DB40A21002D08A500FB
:101C00002E08A6002F08A7003008A8003108A90058
:101C10003208AA003308AB003408AC0008002000EA
:101C2000DF004E0886004F088700403FD200413F4A
:101C3000D30052088400530885001200253A031D82
:101C4000222E232EDA2E4E0886004F088700013000
:101C5000810741310318810A2300B101B20122003A
:101C6000BF01C001FF30BD00FF30BE0020004E08A4
:101C700086004F088700403FD200413FD300520802
:101C80008400530885001200643A0319482E492E37
:101C90005B2E4E0886004F088700403FD200413F30
:101CA000D30052088400530885001200693A031DCE
:101CB0005A2E5B2EA22E4E0886004F088700013058
:101CC000810741310318810A5008860051088700B6
:101CD0000108D2000230810741310108D3000030F1
:101CE0000318810A81075208860053088700403F85
:101CF000D400413FD5005408D7005508D800890DBD
:101D0000893B8909D900DA00DB00DC00DD00DE0058
:101D10005708B0005808B1005908B2005A08B3007B
:101D20005B08B4005C08B5005D08B6005E08B7004B
:101D30005F08833168238E3120003108CF003008DE
:101D4000CE00FF2E4E0886004F088700403FD2008D
:101D5000413FD30052088400530885001200253A01
:101D6000031DB32EB42ECE2E4E0886004F088700DA
:101D70000130810741310318810A2530F20000301B
:101D8000F3005F08D2005208F400943122248E310F
:101D900001302000CE000030CF00FF2E4E0886001C
:101DA0004F0887000130810741310318810ACE01B5
:101DB000CF01FF2E4E0886004F088700403FD2001B
:101DC000413FD30052088400530885000008D40026
:101DD000D5015408F2005508F3005F08D6005608F4
:101DE000F400943122248E3120004E0886004F08E2
:101DF00087000130810741310318810AC82E08008D
:101E00002200D30021005E08860001308700403F99
:101E1000E000413FE1006008840061088500120095
:101E2000253A031D142F152FD82F5E088600013088
:101E300087000130810741310318810A2300B10175
:101E4000B2012200BF01C001FF30BD00FF30BE0063
:101E500021005E08860001308700403FE000413FDE
:101E6000E10060088400610885001200643A0319EB
:101E70003A2F3B2F4D2F5E08860001308700403FF0
:101E8000E000413FE1006008840061088500120025
:101E9000693A031D4C2F4D2F9E2F5E08860001309E
:101EA00087000130810741310318810A5F088600ED
:101EB000013087000108840001308500023081076D
:101EC000003FE000013FE10060082200CB0021005C
:101ED00061082200CC00890D893B8909CD00CE0024
:101EE000CF00D000D100D2004B082100C00022005A
:101EF0004C082100C10022004D082100C200220030
:101F00004E082100C30022004F082100C400220017
:101F100050082100C500220051082100C6002200FF
:101F200052082100C700220053088131F8218F3167
:101F300021004108DF004008DE00FF2F5E08860018
:101F400001308700403FE000413FE100600884002D
:101F5000610885001200253A031DAF2FB02FCC2F4A
:101F60005E08860001308700013081074131031887
:101F7000810A2530A7000030A80022005308210064
:101F8000E0006008A9009431E3248F310130210082
:101F9000DE000030DF00FF2F5E0886000130870082
:101FA0000130810741310318810ADE01DF01FF2F73
:101FB0005E08860001308700403FE000413FE100BD
:101FC00060088400610885000008E200E3016208FF
:101FD000A7006308A800220053082100E400640859
:101FE000A9009431E3248F3121005E08860001307E
:101FF00087000130810741310318810AC62F08008C
:102000002100A9002908A7002708A8000B280130F3
:10201000A7002708A90729088600023087000108C1
:10202000031D13281428072828082902A500A60143
:10203000A51BA603080020008F0121008F012000AE
:102040008F1705302100AC00DD30890B2528AC0B43
:102050002528003232309F31BA27903128309F3105
:10206000BA2790310C309F31BA27903101309F311F
:10207000BA27903106309F31BA2790310800FC0012
:102080007C089331E8239031003A03194828492805
:1020900040287B08F1007A08F00079089C31D924A7
:1020A00090310030F500F600F7019C315D2490314D
:1020B0009A31B52290319D31DD259031013A0319D5
:1020C000622863285B2808002100A8002808A600D1
:1020D0000430A636890B69282608A7002708A8001F
:1020E00028080F39A6002608A80020000F08F0399C
:1020F0008F000F082100280420008F002100250CEC
:102100002000031C8F1203188F160F130F160F12C7
:102110000800083023009F0090309D0024309E006E
:1021200019309B009C0100302100A5000030A60062
:102130009B315E23903100302100A5000030A600C5
:102140009B316723903100302100A5000030A600AC
:102150009B31552390312200CA0108002100AF00B5
:1021600002302C020318B528B628D52810302F02CB
:10217000031CBB28BC28BD28D5282C030319C12863
:10218000C228C82880302F04AD000030AE00CD2812
:10219000C0302F04AD000030AE002D089F31BA27AB
:1021A0009031FA300032890BD22808002100B101A9
:1021B000ED282D08AF002C08AE0031082E07840052
:1021C0002F0803182F0A850000089F3158279031E7
:1021D00001302100AE002E08B1072D08AF002C08F9
:1021E000AE0031082E0784002F0803182F0A85003F
:1021F0001200031DFC28FD28D92808002000A0009B
:10220000A201A30116292108FB00FC017B08F200B2
:102210007C08F3007A08FD007D08F4009431222444
:10222000903101302000A2070030A33D2208200792
:10223000FB007B088600023087000108FC007C0858
:10224000A1002108031D25292629032908002100B2
:10225000B20021003208943161249131003A03190F
:1022600032293329292921003108A6003008A50088
:102270002F089D313025913100302100AA00AB009C
:10228000AC019C319E2491319A31C92291319F3108
:1022900078279131013A03194E294F29472908001F
:1022A0002100B300B501B60168293408B000B101BE
:1022B0003008A7003108A8002F08B2003208A90092
:1022C0009431E324913101302100B5070030B63D4F
:1022D00035083307B0003008860002308700010857
:1022E000B1003108B4003408031D77297829552935
:1022F000080022006108031D7E297F298F29A1295A
:102300008A31542291319F298A31E42291319F29C7
:102310008B31842391319F29C101C2019F29420839
:10232000003A031994298C294108003A031980299D
:10233000013A03198429033A031988298C292200B8
:10234000E1010800F400700871040319A829A92903
:10235000BC297435203E8600013087007008C03FDC
:102360007108C13F7208F30074082C3E86000130EA
:10237000870073088100CB297435203E8600013028
:102380008700EC30C03F1A30C13F74082C3E8600F5
:1023900001308700810108009A312A229131220000
:1023A0003C1CD329D429E1299A31D4229131003A15
:1023B0000319DB29DC29E1290F30F300730822001F
:1023C000BA0022003A08F300F401F335F40D273087
:1023D000730784009830743D8500013F8A00003FF8
:1023E0000A009131F50075082200BA0008002100AA
:1023F000A900250826040319FE29FF29122A2935D8
:10240000203E8600013087002508C03F2608C13FD6
:102410002708A80029082C3E8600013087002808DC
:102420008100212A2935203E860001308700EC30CA
:10243000C03F1A30C13F29082C3E8600013087007A
:102440008101080022003C100230F0007008BB003F
:10245000312A9A31972292314E2A9A319C22923116
:102460004E2A2E08F0007008F0000430203E86004E
:1024700001308700413F8A00403F0A009231F1005D
:10248000F2017208003A0319462A2D2A7108023A0D
:102490000319292A013A0319292A2D2A08009A31F9
:1024A0004522923122003C1C562A572A652A9A312D
:1024B000FE229231003A03195E2A5F2A652A0F3004
:1024C0002100A90029082200BA0022003A082100B0
:1024D000A900AA01A935AA0D273029078400983040
:1024E0002A3D8500013F8A00003F0A009231210009
:1024F000AB002B082200BA0008002200BC158D2A70
:102500009A3197229231AB2A9A314222923103308A
:10251000AB2A9A319C229231AB2A2C08F000700829
:10252000F00021088A0020080A009231F100F2012F
:102530007208003A03199D2A892A7108013A031981
:10254000892A033A0319802A013A0319802A073A93
:102550000319842A892A08002000E5006108E700A1
:102560006008E6002300AF01B001CA2A6630CE0041
:102570000030CF006308D1006208D00065088E31BA
:102580000F26923120004E082300AF0720004F088D
:102590002300B03D20006608840067088500120013
:1025A000031DD32AD42AB62A230030082000E100D4
:1025B00023002F082000E000080000302100B000B8
:1025C0000030AF000030AE000030AD00251CE92A1D
:1025D000EA2AF22A2908AD072A08AE3D2B08AF3DAA
:1025E0002C08B03D0130A935AA0DAB0DAC0D890BFF
:1025F000F32A0130A836A70CA60CA50C890BFA2AE1
:102600002808270426042504031D072B082BE62A87
:102610003008A8002F08A7002E08A6002D08A50046
:1026200008002000A10023002B082000A5002300A3
:102630002A082000A400230029082000A30023006A
:1026400028082000A20021080319272B282B2A2B59
:10265000A401A40A7D0803192E2B2F2B312BA501D1
:10266000A50A2230A0002008F9000430FA0000304A
:10267000FB00503090313F20933107302000A00004
:102680007D30890B412BA00B412B08007E1C4A2B6F
:102690009231222A22003C1002302100A500250898
:1026A0002200BB005B2B9B31B82393317A2B9B31EB
:1026B000C12393317A2B2E082100A5002508A500FF
:1026C0000430203E860001308700413F8A00403FB1
:1026D0000A0093312100A600A7012708003A031938
:1026E000722B572B2608023A0319532B013A031970
:1026F000532B572B08007E1C7F2B92317D2A220002
:10270000BC158F2B9B31B8239331B02B883100201F
:1027100093310330B02B9B31C1239331B02B2C0864
:102720002100A5002508A500220021088A00200814
:102730000A0093312100A600A7012708003A0319D7
:10274000A22B8B2B2608013A03198B2B033A031972
:10275000822B013A0319822B073A0319862B8B2B04
:1027600008002200D400210066082200D6002100C3
:1027700065082200D5002300AF01B001D52B5530EC
:102780002100E8006808DE006708E9006908DF004A
:10279000220054088F310027933121005E08230066
:1027A000AF0721005F082300B03D220055088400D8
:1027B000560885001200031DDE2BDF2BBF2B2300E4
:1027C00030082100E60023002F082100E500080062
:1027D000F100F201F20A22003C19EF2BF02B202C21
:1027E0007108F0007008B600BC103C153C100E30AB
:1027F000F0007008BA00F430B4000130B500BC1528
:10280000EC30A0001A30A100AC01EC30A2001A306C
:10281000A300AD01EC30A4001A30A500AE01EC30ED
:10282000A6001A30A700AF01F230A8001A30A900A4
:10283000B0019A312A2293319C3150249331F20114
:102840007208080074080319262C272C2C2C7408F5
:10285000031D2B2C2C2C312C72089A31E022943140
:10286000602C7408033E86008701160001040319DA
:102870003A2C3B2C582C7408033E86008701403FBD
:10288000F500413FF600740A86008701403FF700DB
:10289000413FF8007808803AF9007608803A7902DA
:1028A000031D542C750877020318572C582C602CE4
:1028B000740A860087010130810741310318810ABB
:1028C00008002100A600A701A70A22003C19692CD4
:1028D0006A2C9F2C21002608A50025082200B6009E
:1028E000BC103C153C100E302100A500250822002C
:1028F000BA00F430B4000130B500BC15EC30A000D3
:102900001A30A100AC01EC30A2001A30A300AD01D6
:10291000EC30A4001A30A500AE01EC30A6001A304D
:10292000A700AF01F230A8001A30A900B0019A3117
:10293000452294319C31912494312100A70121003A
:10294000270808002100B900B501B601B530B40070
:102950003408AF000230B0000030B1005030913187
:1029600027219431B7302100B4003408AF00023081
:10297000B0000030B10050309F31992794312100D0
:102980003708031DC42CC52CCB2C39088600013018
:1029900087008101D12C3908860001308700810130
:1029A000810A3808031DD52CD62CDC2C3308860070
:1029B000013087008101E22C330886000130870056
:1029C0008101810A0800210029080319E82CE92C5B
:1029D000EE2C2908031DED2CEE2CF32C27089B313F
:1029E0001E239431232D2908033E860087011600FB
:1029F00001040319FC2CFD2C1A2D2908033E860026
:102A00008701403FAA00413FAB00290A86008701A9
:102A1000403FAC00413FAD002D08803AAE002B088E
:102A2000803A2E02031D162D2A082C020318192D98
:102A30001A2D232D2100290A8600870101308107E4
:102A400041310318810A080020006C080319292D60
:102A50002A2D2B2D692D9A317922953105309A3105
:102A60007E229531FA30F0001C30F1009A31CE22EE
:102A70009531220041034204031D3F2D402D4E2D70
:102A8000023020006A066B04031D472D482D4E2D91
:102A90002200460803194D2D4E2D542DFF302000E5
:102AA000EA07FF30EB3D5F2D47080319582D592DDC
:102AB0005F2DFE302000EA07FF30EB3D5F2D200048
:102AC000EB1F632D642D662DEA01EB012200E1016D
:102AD000E10A08009A313F229531F00022003708C0
:102AE00086008701700881000130F0007008B70788
:102AF0000130B8020030B93B380839040319812D80
:102B0000822D872D9A31612295310530AF2DBC156C
:102B1000912D9A31AB229531AF2D9A31A622953164
:102B2000AF2D2C08F0007008F00021088A00200862
:102B30000A009531F100F2017208003A0319A12D43
:102B40008D2D7108013A03198D2D033A0319892D32
:102B5000013A0319892D073A03198D2D8D2D08008F
:102B60007E1CB42D95316A2D9A315A22953121005F
:102B7000A500220037088600870121002508810072
:102B80000130A50025082200B7070130B802003047
:102B9000B93B380839040319CE2DCF2DD42D9A31E5
:102BA0006D2295310530FF2DBC15DE2D9B31DC23C8
:102BB0009531FF2D9B31D3239531FF2D2C0821001A
:102BC000A5002508A500220021088A0020080A0087
:102BD00095312100A600A7012708003A0319F12D1D
:102BE000DA2D2608013A0319DA2D033A0319D62DF6
:102BF000013A0319D62D073A0319DA2DDA2D080008
:102C0000210062086304031D062E072E0E2E0030DD
:102C1000A500A6009D3190259631502E6308C10075
:102C20006208C0000030C5000030C4000030C3009E
:102C30000A30C2000030C9000030C8000330C700AD
:102C4000E830C6000030CD000030CC000030CB00B2
:102C50000030CA000030D1000030D0000030CF007A
:102C6000FF30CE0088316020963121004108E60017
:102C70004008E500FF30E400650864022300B50069
:102C8000210066090318890A2300B60036082100CE
:102C9000A600230035082100A5009D31902596311E
:102CA000080020006C080319562E572E582EA22E0D
:102CB0009A317922963105309A317E229631FA3056
:102CC000F0001C30F1009A31CE2296310130200004
:102CD000EA070030EB3D220041084204031D712E3B
:102CE000722E852E20006B08803AF200803072022E
:102CF000031D7C2E05306A02031C7F2E802E852E3C
:102D000004302000EA000030EB00220041034204BE
:102D1000031D8B2E8C2E9F2E20006B08803AF20014
:102D200080307202031D962E03306A02031C992E16
:102D30009A2E9F2E02302000EA000030EB00220085
:102D4000E101E10A08002100A7002708023E8600F1
:102D5000013087005130C03F1630C13F2708043E84
:102D60008600013087002430C03F1530C13F27085E
:102D7000063E860001308700D830C03F0430C13F96
:102D80002708083E8600013087007930C03F1130A7
:102D9000C13F27080A3E8600013087005430C03FFB
:102DA0000A30C13F27080E3E860001308700E4301C
:102DB000C03F0A30C13F2708103E8600013087001F
:102DC0007130C03F1A30C13F2508860002308700AD
:102DD0000108A60026082200C70021002508860059
:102DE000023087000230413F2200C60008009A31BD
:102DF000D4229631003A0319FE2EFF2E302F0C2FCD
:102E00009A318D2296314D2F9A31922296314D2F43
:102E10009A319C2296314D2F22002F08F000700825
:102E2000F0000630203E860001308700413F8A00D6
:102E3000403F0A009731F100F2017208003A03198D
:102E4000222F082F7108013A0319082F033A03199A
:102E5000002F013A0319042F073A0319082F082FEE
:102E600022003C101730203E860001308700403F92
:102E700084008501810A00089A318322963101304D
:102E80002200B8020030B93B38083904031D492F2D
:102E90004A2F4C2F06304D2F033008002000AC0085
:102EA00022003F1C542F552F5E2F20002C08A70016
:102EB0002708FA0024089031FE2097312000A61B35
:102EC000622F632F682F2608AB002508AA006A2FFF
:102ED000AA01AB01A801A9017E2F2030F200003029
:102EE000F30020002C08A7002708F40094312224C6
:102EF000973101302000A8070030A93D2908803A09
:102F0000A7002B08803A2702031D882F2A082802D1
:102F1000031C8B2F8C2F6D2F22003F18902F912F89
:102F20009A2F20002C08A7002708FA0024089031C7
:102F3000FE209731200024089D31C32597312000C1
:102F40002A087007A4002B08713DA5000800210085
:102F5000BF0022003F1CAD2FAE2FB72F21003F082E
:102F6000BA003A08AF00370891315021973121005B
:102F7000B91BBB2FBC2FC12F3908BE003808BD00BC
:102F8000C32FBD01BE01BB01BC01D72F20302100E2
:102F9000A7000030A8003F08BA003A08A900943101
:102FA000E324973101302100BB070030BC3D3C08D1
:102FB000803ABA003E08803A3A02031DE12F3D08EC
:102FC0003B02031CE42FE52FC62F22003F18E92FF8
:102FD000EA2FF32F21003F08BA003A08AF00370864
:102FE00091315021973121003708903100209731DD
:102FF00021003D082507B7003E08263DB80008001F
:1030000049346D347034723469346D3469346534E4
:103010006E3464346F342034733465346E347334F6
:103020006F347234653473342034703461347234E4
:1030300061342034633461346C3469346234723402
:10304000613472343A3420340D340A3400349D34FF
:103050001B3477341C342B341C3403340834B03420
:10306000153420341C347B341334A6341B34AF3471
:103070001B34B8341B34C1341B34CA341B34D3342E
:103080001B34DC341B34E5341B34463413345334E2
:1030900065346E3473346F34723420346434653480
:1030A00020346C3475347A3420346334723475349B
:1030B00064346F343A342034253464340D340A34A3
:1030C0000034533465346E3473346F3472342034C6
:1030D000643465342034743465346D3470343A3477
:1030E000203425346434203443340D340A3400341D
:1030F00020342034443465347334683461346234A9
:1031000069346C3469347434613464346F34203419
:1031100020342034203400342034203420346434EB
:10312000653420344134703461346734613464343C
:103130006F342034203420340034203420342034C0
:1031400048346134623469346C34693474346134C1
:1031500064346F342034203420340034203420345C
:103160002034203445346E34633465346E34643432
:10317000693464346F3420342034203400343C34D7
:10318000203420342034203420342034313430347E
:103190002034203420342034203420343E34003491
:1031A0003C34203420342034203420342034313452
:1031B00035342034203420342034203420343E343C
:1031C00000343C3420342034203448346F3472349A
:1031D0006134203464346534203420342034203485
:1031E0003E340034203420342034203453346534C9
:1031F0006E3473346F347234653473342034203455
:1032000020343E3400343C3420342034543465348B
:103210006D3470346534723461347434753472349E
:10322000613420343E3400343C34203420344C3477
:1032300075346D3469346E346F3473346934643486
:103240006134643420343E3400343C34203454340B
:1032500065346D3470346F34723469347A34613467
:1032600064346F34723420343E34003420342034DB
:1032700020342034203420342034203420342034AE
:10328000203420342034203420342034003450348E
:1032900049344334203461347034613467346134E8
:1032A00064346F342E342E342E340D340A3400340A
:1032B0003C34203420342034203420342034323440
:1032C000303420342034203420342034203400346E
:1032D0003C34203420342034523465346734723422
:1032E0006534733461347234203420342034003433
:1032F000203420342034203420346D3469346E344A
:10330000753474346F3473342034203420340034F2
:10331000413470346134673461346E3464346F34F2
:103320002E342E342E3420340D340A34003420341C
:1033300020342034203441347034613467346134B3
:1033400064346F342034203420340034203420346A
:1033500020342034203420343534203420342034B8
:103360002034203420343E3400343C3420342034A3
:10337000203448346F34723461342034643465341A
:1033800020340034543465346D3470346534723410
:1033900061347434753472346534003442346934C1
:1033A00065346E34763465346E34693464346F3425
:1033B000213400344C346934673468347434003454
:103448000800080008000800013008002000911159
:10345800080024009512080021009111080024009A
:1034680016140800240096140800240016150800F5
:103478002400961508002400110808002000911562
:10348800080020009111080024009512080021006E
:10349800911108002400161408002400961408004E
:1034A80024001615080024009615080024001108A9
:1034B8000800240096161616080024009612161600
:1034C80008001630210097000800240096161616EA
:1034D800080024009612161608009E31FC269A3120
:1034E8000800013401340134013420009110210016
:1034F80091140800F000700820009B000800F000FC
:1035080070082400910008002200BC10BB010E3096
:1035180008009A3136229A31013008009A31362251
:103528009A31023008009A3136229A310130080067
:103538009A3139229A31003008009A3161229A3141
:10354800053008009A315D229A310A3008009A3114
:103558005D229A31093008002200BC10BB010E30F0
:10356800080000309E31DE269A31080020009110B4
:1035780021009110080020009110210091100800EE
:1035880001309F31DD279A31080000309F31DD2757
:103598009A31080071082300E0007008DF00080075
:1035A8002400160E890C890C013908002000911D91
:1035B800DE2ADF2ADA2A0800F10071089C3101248A
:1035C8009A310800200091109C316A249A31080031
:1035D8007E1CF02A9A31282A013008007E1CF62A1F
:1035E80080310228053008002100A50025082400A4
:1035F800910008002400160E890C890C0139080076
:103608002000911D082B092B042B08006400800161
:103618000131890B0B2B003422003C109A313C22DB
:103628009B3104300800583021009900980122008D
:10363800960108002100A60026089C3137249B31FA
:1036480008002100A50101309D315F259B3108004C
:103658002100A50100309D315F259B310800220023
:103668003C1436359A3183229B31033008002100FF
:10367800A501A50A00309D315F259B310800220075
:103688003C140314360D9A3183229B31053008000F
:10369800863021009E009F019B019C0101309D0006
:1036A8000800210026082300E20021002508230045
:1036B800E1000800210026082300E6002100250873
:1036C8002300E5000800210026082300E40021006B
:1036D80025082300E3000800240094010830950021
:1036E8009601F9309200951208002100260823005F
:1036F800EC00210025082300EB0008002100260823
:103708002300EA00210025082300E9000800210021
:1037180026082300E800210025082300E700080008
:10372800210026082300E000210025082300DF00EF
:1037380008007E1CA12B9A31882A2200BC10BB01EC
:103748000E3008007E1CAA2B9A318D2A9A315122FC
:103758009B31013008007E1CB32B9A31922A9A3192
:1037680051229B31023008007E1CBC2B9A31972ACB
:103778009A3151229B31013008007E1CC52B9A31A9
:103788009C2A9A3154229B31003008007E1CCE2B93
:103798009A31A12A9A316D229B31053008007E1C8E
:1037A800D72B9A31A62A9A3169229B310A30080010
:1037B8007E1CE02B9A31AB2A9A3169229B31093061
:1037C80008007E1CE92B9A31B02A2200BC10BB01EC
:1037D8000E300800FF302100A5000030A6009D3102
:1037E80090259B3108002200C101C2012000EA0196
:1037F800EB012200E101E10A0800F0002000111E9F
:10380800062C072C022C700823009A000800403070
:103818002800960095012000921007302800970094
:10382800080080302C0099009801970125001E0897
:10383800CF3910389E0008007E1C242C9B31102B99
:1038480022003C109A3157229C31043008007E1C1B
:103858002F2C9B31332B22003C1436359A31F82219
:103868009C31033008002100A5002000111E3D2CCA
:103878003E2C392C2100250823009A0008004A2CE8
:103888009A31DA229C319131CC219C312200BC182A
:103898004E2C4F2C442C08002400951A542C552CDF
:1038A8005C2C9401083095009601F9309200951629
:1038B80008007608F1007508F0007708F800780825
:1038C800F20002309131A2219C31080023005F08E8
:1038D80060040319702C712C762C60088A005F082C
:1038E8000A009C3108007E1C7B2C9B31432B220054
:1038F8003C140314360D9A31F8229C310530080027
:103908008B2C9B3104239C3192314F229C31220015
:10391800BC188F2C902C852C08002400951A952C07
:10392800962C9D2C9401083095009601F930920050
:103938009516080021002B08A6002A08A5002C08C7
:10394800AD002D08A70002309131F7219C31080005
:1039580023006B086C040319B22CB32CB82C6C0828
:103968008A006B080A009C31270093120800230084
:1039780069086A040319C12CC22CC72C6A088A007A
:1039880069080A009C312700131308002300670800
:1039980068040319D02CD12CD62C68088A00670833
:1039A8000A009C31270093130800F3002200BC1D75
:1039B800DE2CDF2CE82C7308F2007208B7007108BF
:1039C800B9007008B800BC1108007008F20072084D
:1039D8002200C300F430F2008030890BF12CF20B86
:1039E800F12C00329A3179229C310800F930F0002C
:1039F8001D30F1009A31CE229C31E7309A317E2277
:103A08009C319A31BA229C312000EC010800F33035
:103A180020009B009A019110210091142730A500E5
:103A28001A30A6009B3194239D317F3020009C00E2
:103A380008006A302100A2000030A30020006908B5
:103A4800E1006808E000A230E2000030E300003046
:103A58009231AC229D3108002100A8002200BC1D33
:103A6800362D372D462D21002808A70027082200CB
:103A7800B700210026082200B900210025082200ED
:103A8800B800BC1108002100A8002808A700A70D4D
:103A9800A70D1D082706833927069D001D14000061
:103AA80021009D149D18592D5A2D562D1C08A6002D
:103AB8001B08A50008002100A60026080319652D8B
:103AC800662D692D22008D146B2D22008D1021008A
:103AD80025080319702D712D742D22000D15762DD2
:103AE80022000D1108002700931E7B2D7C2D7F2DB1
:103AF8009C31AC249D312700131F832D842D872DE5
:103B08009C31BB249D312700931F8B2D8C2D8F2D2D
:103B18009C31CA249D31080021002608A8002508E8
:103B2800A700A836A70CA836A70C27082C009800D1
:103B3800210025080339A7000530A735FF3E031DDE
:103B4800A12D27352C00970008007408803AF5004D
:103B580080307502031DB22D013073020318B52D94
:103B6800B62DC22D7309F5007409F600F50A03197C
:103B7800F60A7508F3007608F400C22D0800F40070
:103B88007408F2007208F300CD2D0130F2007208BB
:103B9800F40774088600023087000108031DD52D3C
:103BA800D62DC92D73087402F000F101F01BF10342
:103BB8000800F101F10A2200BC18E32DE42DF72DCD
:103BC8003C11FF30F0007008B6009A312A229D316E
:103BD8009A3130229D319A312D229D3122003B08A5
:103BE800F0007008F1007108080001302100A400FD
:103BF80024082200C50743084502031C042E052E8D
:103C0800142E88302000E8009930E9009D311D25E8
:103C18009D319A31BA229D312200C501C301E001CC
:103C280008009B3170239E318831C7209E319B311B
:103C380017239E319A3165229E319B314C239E3148
:103C48009C310B249E319C3115249E319D310B25CE
:103C58009E31903189209E31080021003908803A30
:103C6800BA0080303A02031D3B2E01303802031897
:103C78003E2E3F2E4C2E21003809BA003909BB00D0
:103C8800BA0A0319BB0A3A08B8003B08B9004C2E17
:103C980008002100A50025088600013087000030B3
:103CA800C03F1630C13F2508023E8600013087001C
:103CB8003A30C03F0930C13F2508043E8600013034
:103CC8008700EE30C03F1B30C13F08002100A5002F
:103CD8002508860001308700DA30C03F9930C13F9F
:103CE8002508023E8600013087003930C03F1F306A
:103CF800C13F2508043E860001308700C130C03F1F
:103D08001E30C13F08002100A500250886000130AB
:103D18008700C230C03F9930C13F2508023E860067
:103D2800013087001A30C03F1F30C13F2508043ECC
:103D3800860001308700A430C03F1E30C13F080014
:103D4800220048080319A92EAA2EBD2E63080319BC
:103D5800AE2EAF2EBD2E00309D3147259E3121005D
:103D68002608AC002508AB002C08AA002B08A900DF
:103D7800C02E2100A901AA01080022004908031940
:103D8800C62EC72EDA2E62080319CB2ECC2EDA2EB9
:103D980001309D3147259E3121002608AC002508B9
:103DA800AB002C08AA002B08A900DD2E2100A901D0
:103DB800AA010800F700F801F80A2200BC18E52E4D
:103DC800E62EFA2EBC14F80177080319EC2EED2E16
:103DD800F02EBA01BA0AF42E0230F6007608BA00BC
:103DE8009A3133229E319C3143249E317808080051
:103DF8002100AC0100309031AE209E3136302100D8
:103E0800AC009930AD009031D6209E312100AC0134
:103E1800AC0A00309031AE209E3136302100AC0023
:103E28009930AD009031D6209E31080000309D3188
:103E380047259F3121002608AC002508AB002C0837
:103E4800803AA90080302902031D2C2F01302B0253
:103E580003182F2F312F0130322F00302100AA00F4
:103E68002A082200C8004808080001309D3147256B
:103E78009F3121002608AC002508AB002C08803AA9
:103E8800A90080302902031D4B2F01302B02031893
:103E98004E2F502F0130512F00302100AA002A0840
:103EA8002200C900490808002100AB00FA3000329E
:103EB800890B5B2F2100A501A50A2B0890316420EE
:103EC8009F3121002B08A9000330A935FF3E031DAF
:103ED800692F2935AA002A08AB00A501A50A2B08D5
:103EE800903164209F3108002100A601A60A220013
:103EF800BC187F2F802F962F3C11FF302100A50082
:103F080025082200B6009A3145229F319A314B226A
:103F18009F319A3148229F3122003B082100A50099
:103F28002508A6002100260808002100B20021006B
:103F38003208943161249F31003A0319A42FA52F28
:103F48009B2F21003108A6003008A5002F089D31BD
:103F580030259F319A31C4229F319F3178279F3174
:103F6800013A0319B82FB92FB12F08002100AB006F
:103F7800FA300032890BBD2F2100A5012B089031A2
:103F880064209F3121002B08A9000330A935FF3E8A
:103F9800031DCA2F2935AA002A08AB005330890B04
:103FA800D32F00002100A5012B08903164209F31F8
:103FB80008002100AD00AE01AE0A2200BC18E52FB2
:103FC800E62FFD2FBC142100AE012D080319ED2F9B
:103FD800EE2FF22F2200BA01BA0AF72F0230AC00F6
:103FE8002C082200BA009A314E229F319C31842439
:083FF8009F3121002E08080092
:020000040001F9
:04000E00E43FFF3E8E
:00000001FF
