:020000040000FA
:08000000803102288731F52F41
:10000A0094302000E6009030E7008F3134278031A9
:10001A00F001F00A00308F31462780310800740859
:10002A00803AF50080307502031D1D2801307302E5
:10003A000318202821282D287309F5007409F600D1
:10004A00F50A0319F60A7508F3007608F4002D2854
:10005A000800F401F501701C332834283828720886
:10006A00F4077308F53D0130F235F30D890B392891
:10007A000130F136F00C890B3E2870087104031D1B
:10008A004728482830287508F1007408F00008004D
:10009A00083023009F0090309D0024309E001930C4
:1000AA009B009C010030F0000030F1008E31A32645
:1000BA0080310030F0000030F1008E31A926803105
:1000CA000030F0000030F1008E319D268031210091
:1000DA00A8010800200026082802F6002708293B64
:1000EA00F70026082402F0002708253BF1002A0819
:1000FA002C02F2002B082D3BF30080312E20803198
:10010A007108F9007008F80082316E2280312000EF
:10011A002A087607A4002B08773DA50008002000CE
:10012A00A300A101A201AC282008FB00FC017B0866
:10013A00F2007C08F3007A08FD007D08F4008031A3
:10014A00ED20803101302000A1070030A23D2108B6
:10015A002307FB007B08860087010108FC007C0856
:10016A00A0002008031DBA28BB28992808002000EF
:10017A00E3005F08E5005E08E4002100A001A10198
:10018A00DA286430E1006108CE006008E200620803
:10019A00CF0063088331C123803120004E0821003B
:1001AA00A00720004F082100A13D20006408840018
:1001BA00650885001200031DE328E428C6282100EB
:1001CA0021082000DF00210020082000DE000800AE
:1001DA0074080319F128F228F7287408031DF62871
:1001EA00F728FC2872088E31AF2680312B29740833
:1001FA00033E860087011600010403190529062912
:10020A0023297408033E86008701403FF500413FD9
:10021A00F600740A86008701403FF700413FF80064
:10022A007808803AF9007608803A7902031D1F2976
:10023A00750877020318222923292B29740A8600B4
:10024A0087010130810741310318810A0800220021
:10025A0090018F018C018D018E010F3021009000D9
:10026A00FF308C00E0308D00BF308E00FF308F00F1
:10027A00FF3023008F007C308E0023308D00073042
:10028A0090003F308C0024008F0190018D018C0179
:10029A008E0121009517250090018C018D018E0198
:1002AA008F01FF3026008C00FF308D00FF308E005A
:1002BA00FF308F0007309000FF3027008C00FF309E
:1002CA008D00FF308E00FF308F000F309000173006
:1002DA003C00A4000F303D0099000E309800143005
:1002EA00A60008001D302000E6008830E7006F08ED
:1002FA00E9006E08E8008F313427813120006F0849
:10030A00A5006E08A4000030A600A7000A30A800C5
:10031A000030A9000030AA00AB006430AC00003005
:10032A00AD0080316F208131200025082100CA00EC
:10033A00200024082100C90081302000E600903006
:10034A00E70021004A082000E900210049082000AE
:10035A00E8008F313427813121004A08F100490829
:10036A00F0008F317027813121004A08F1004908D5
:10037A00F0008F31862781310800F601F31FC62964
:10038A00C729CE29F209F309F20A0319F30AF60179
:10039A00F60AF11FD129D229D729F009F109F00A61
:1003AA000319F10A700871040319DC29DD29062AE8
:1003BA00F501F50AE9290130F035F10D890BE1293A
:1003CA000130F4007408F507F11FEC29ED29E02942
:1003DA0071087302031DF32970087202031CF629BF
:1003EA00F729FB297008F2027108F33B0130F13654
:1003FA00F00C890BFC290130F502031D052A062A97
:10040A00ED29760803190A2A0B2A102AF209F30998
:10041A00F20A0319F30A7308F1007208F0000800DF
:10042A002000AC002100261C1B2A1C2A252A200099
:10043A002C08A7002708FA0024088031942082316A
:10044A002000A61B292A2A2A2F2A2608AB002508BB
:10045A00AA00312AAA01AB01A801A901452A203024
:10046A00F2000030F30020002C08A7002708F4004F
:10047A008031ED20823101302000A8070030A93DEB
:10048A002908803AA7002B08803A2702031D4F2A21
:10049A002A082802031C522A532A342A2100261821
:1004AA00572A582A612A20002C08A7002708FA0090
:1004BA002408803194208231200024088F319C271F
:1004CA00823120002A087007A4002B08713DA5007C
:1004DA0008002000A101F71F732A742A7B2AF60953
:1004EA00F709F60A0319F70AA101A10AF91F7E2AD8
:1004FA007F2A882AF809F909F80A0319F90A013042
:10050A00FA007A08A106A201A30176087704031962
:10051A008F2A902ABF2AA001A00A9C2A0130F63508
:10052A00F70D890B942A0130FA007A08A007F71F01
:10053A009F2AA02A932A0130A235A30D890BA12A4A
:10054A0077087902031DAB2A76087802031CAE2AC3
:10055A00AF2AB42A7608F8027708F93B2214013048
:10056A00F736F60C890BB52A0130A002031DBE2A04
:10057A00BF2AA02A21080319C32AC42AC92AA20900
:10058A00A309A20A0319A30A2308F7002208F600FE
:10059A00080020006F08A5006E08A4000030A6001D
:1005AA00A7000A30A8000030A9000030AA00AB005A
:1005BA003C30AC000030AD0080316F208231200029
:1005CA0025082100CB00200024082100CA00CB1BEB
:1005DA00EF2AF02A012B4B08803AC90080304902E1
:1005EA00031DF92A14304A020318FC2AFD2A012B9A
:1005FA008F3107278231402B21004B08803AC900EE
:10060A0080304902031D0B2B14304A02031C0E2BA7
:10061A000F2B212B21004B08803AC9008030490258
:10062A00031D192B28304A0203181C2B1D2B212BC2
:10063A00803105208231402B21004B08803AC900C5
:10064A0080304902031D2B2B28304A02031C2E2B13
:10065A002F2B402B21004B08803AC90080304902D9
:10066A00031D392B3D304A0203183C2B3D2B402BEE
:10067A008F311527823108008F315A278331CD30C7
:10068A008F31CE278331D3308F31E7278331E13061
:10069A008F31B5278331DD308F3123278331210014
:1006AA0062088A0061080A0083310230E13E86004E
:1006BA008701413F8A00403F0A0083310430E13E0E
:1006CA0086008701413F8A00403F0A0083312100AA
:1006DA00D901DA01DB01DC0121005A082000EF0010
:1006EA00210059082000EE0021005E088A005D08FA
:1006FA000A00833121005C082000EF0021005B081A
:10070A002000EE000230DD3E86008701413F8A006C
:10071A00403F0A0083310A30F0000030F100210026
:10072A005908013EF20000305A3DF3008131C221DE
:10073A00833171082100DA007008D9000A30F0000C
:10074A000030F1005B08013EF20000305C3DF3002E
:10075A008131C221833171082100DC007008DB007D
:10076A0021302100CC007630890BB92BCC0BB92B68
:10077A000000712B803102282000DD004E0886001F
:10078A008701403FD000413FD10050088400510802
:10079A0085001200253A031DD32BD42B782C4E0842
:1007AA00860087010130810741310318810A21003F
:1007BA00A201A301A601A701FF30A400FF30A500F2
:1007CA0020004E0886008701403FD000413FD100FB
:1007DA0050088400510885001200643A0319F62B68
:1007EA00F72B082C4E0886008701403FD000413F76
:1007FA00D10050088400510885001200693A031D8F
:10080A00072C082C432C4E088600870101308107EB
:10081A0041310318810A4F088600870101088400C4
:10082A00850102308107003FD000013FD100500806
:10083A00D5005108D600890D893B8909D700D8000F
:10084A00D900DA00DB00DC005508B0005608B10018
:10085A005708B2005808B3005908B4005A08B5003E
:10086A005B08B6005C08B7005D08863187268331CD
:10087A0020003108CF003008CE009B2C4E0886009D
:10088A008701403FD000413FD10050088400510801
:10089A0085001200253A031D532C542C6D2C4E084A
:1008AA00860087010130810741310318810A25300A
:1008BA00F2000030F3005D08D0005008F4008031E7
:1008CA00ED20833101302000CE000030CF009B2C78
:1008DA004E08860087010130810741310318810AD9
:1008EA00CE01CF019B2C4E0886008701403FD000E5
:1008FA00413FD10050088400510885000008D20009
:10090A00D3015208F2005308F3005D08D4005408DA
:10091A00F4008031ED20833120004E0886008701E3
:10092A000130810741310318810A672C0800F2015E
:10093A002830860000308700473FF000F01FA62CC1
:10094A00A72CC82C2000A809A909AA09AB09AC0937
:10095A00AD09AE09AF09A80A031DC62CA90A031DD1
:10096A00C62CAA0A031DC62CAB0A031DC62CAC0A48
:10097A00031DC62CAD0A031DC62CAE0A031DC62CC8
:10098A00AF0AF201F20A2030860000308700473FA2
:10099A00F000F01FD12CD22CF12C2000A009A109C3
:1009AA00A209A309A409A509A609A709A00A031D62
:1009BA00F12CA10A031DF12CA20A031DF12CA30A92
:1009CA00031DF12CA40A031DF12CA50A031DF12C09
:1009DA00A60A031DF12CA70A2000200821042204DC
:1009EA00230424042504260427040319FD2CFE2CC1
:1009FA00512DF101F10A0D2DA035A10DA20DA30D66
:100A0A00A40DA50DA60DA70D0130F0007008F10781
:100A1A00A71F102D112D012D27082F02031D2F2D81
:100A2A0026082E02031D2F2D25082D02031D2F2D0A
:100A3A0024082C02031D2F2D23082B02031D2F2D02
:100A4A0022082A02031D2F2D21082902031D2F2DFA
:100A5A0020082802031C322D332D432D2008A8021A
:100A6A002108A93B2208AA3B2308AB3B2408AC3B3C
:100A7A002508AD3B2608AE3B2708AF3BA736A60C98
:100A8A00A50CA40CA30CA20CA10CA00C0130F10221
:100A9A00031D502D512D112D72080319552D562D58
:100AAA00742DA809A909AA09AB09AC09AD09AE09AF
:100ABA00AF09A80A031D742DA90A031D742DAA0AD9
:100ACA00031D742DAB0A031D742DAC0A031D742D6E
:100ADA00AD0A031D742DAE0A031D742DAF0A200042
:100AEA002808A0002908A1002A08A2002B08A300B0
:100AFA002C08A4002D08A5002E08A6002F08A70080
:100B0A000800F2012030860000308700473FF000DD
:100B1A00F01F902D912DB22D2000A009A109A20944
:100B2A00A309A409A509A609A709A00A031DB02DAE
:100B3A00A10A031DB02DA20A031DB02DA30A031D8D
:100B4A00B02DA40A031DB02DA50A031DB02DA60AB7
:100B5A00031DB02DA70AF201F20A283086000030E0
:100B6A008700473FF000F01FBB2DBC2DDF2D200072
:100B7A00A809A909AA09AB09AC09AD09AE09AF09C7
:100B8A00A80A031DDB2DA90A031DDB2DAA0A031DD2
:100B9A00DB2DAB0A031DDB2DAC0A031DDB2DAD0AD1
:100BAA00031DDB2DAE0A031DDB2DAF0A0130F00059
:100BBA007008F20673308600003087000830F000B3
:100BCA0000301E00F00BE62D20002008210422042C
:100BDA00230424042504260427040319F52DF62DDD
:100BEA00522EF101F10A052EA035A10DA20DA30D79
:100BFA00A40DA50DA60DA70D0130F0007008F10790
:100C0A00A71F082E092EF92DF335F40DF50DF60D53
:100C1A00F70DF80DF90DFA0D27082F02031D2F2ED7
:100C2A0026082E02031D2F2E25082D02031D2F2E06
:100C3A0024082C02031D2F2E23082B02031D2F2EFE
:100C4A0022082A02031D2F2E21082902031D2F2EF6
:100C5A0020082802031C322E332E442E2008A80214
:100C6A002108A93B2208AA3B2308AB3B2408AC3B3A
:100C7A002508AD3B2608AE3B2708AF3B7314A736C1
:100C8A00A60CA50CA40CA30CA20CA10CA00C013060
:100C9A00F102031D512E522E092E72080319562EE7
:100CAA00572E752EF309F409F509F609F709F8091B
:100CBA00F909FA09F30A031D752EF40A031D752EA4
:100CCA00F50A031D752EF60A031D752EF70A031D74
:100CDA00752EF80A031D752EF90A031D752EFA0AD8
:100CEA0073082000A0007408A1007508A200760805
:100CFA00A3007708A4007808A5007908A6007A0856
:100D0A00A70008002000BF003008C4003108C50051
:100D1A003208C6003308C7003408C8003508C900BD
:100D2A003608CA003708CB004430860000308700F6
:100D3A00473FB800B81BA22EA42E0130A52E0030C2
:100D4A002000B900BA013908C2003A08C3004208B3
:100D5A0043040319B12EB22ED02EC409C509C609FF
:100D6A00C709C809C909CA09CB09C40A031DD02E73
:100D7A00C50A031DD02EC60A031DD02EC70A031D9D
:100D8A00D02EC80A031DD02EC90A031DD02ECA0AA6
:100D9A00031DD02ECB0A2100A51BD42ED52ED92E69
:100DAA00FD30A605FF30A7052508803A2000B800C7
:100DBA0080303802031DE42E01302100240203187A
:100DCA00E72EE82EEE2E01302000BD000030BE00D6
:100DDA00F62E210025082000BE002100240820004C
:100DEA00BD00210023082000C100210022082000A4
:100DFA00C00042084304031D032F042F092F2100BA
:100E0A00261D082F092F0E2FFF302000C007FF30A4
:100E1A00C13D1F302000CC000030CD002100C801A8
:100E2A007E2FFF302000CC07FF30CD3D0A30A000D6
:100E3A00A101A201A301A401A501A601A7014408D9
:100E4A00A8004508A9004608AA004708AB004808B8
:100E5A00AC004908AD004A08AE004B08AF00843127
:100E6A009C24863120002108F4002008F3008031F8
:100E7A00142086317308303E2000B8004C08A93E81
:100E8A008600870138088100FF30BD07FF30BE3D6C
:100E9A00FF30C007FF30C13D0A30A000A101A20106
:100EAA00A301A401A501A601A7014408A8004508B9
:100EBA00A9004608AA004708AB004808AC00490840
:100ECA00AD004A08AE004B08AF0085318625863151
:100EDA0020002008C4002108C5002208C6002308F3
:100EEA00C7002408C8002508C9002608CA00270820
:100EFA00CB0020004D08803AB80080303802031D2C
:100F0A00882F01304C02031C8B2F8C2FB92F200005
:100F1A004408450446044704480449044A044B0467
:100F2A00031D982F992F162F3E08803AB80080305B
:100F3A003802031DA22F01303D020318A52FA62F48
:100F4A00162F20004108803AB80080303802031D6D
:100F5A00B02F01304002031CB32FB42FB92F210048
:100F6A00A618B82FB92F162F200042084304031DD4
:100F7A00BF2FC02FC52F2100261DC42FC52FE12F3B
:100F8A00FF302000CC07FF30CD3D42084304031D4B
:100F9A00CF2FD02FD52F2B30BB000030BC00D92F3C
:100FAA002D30BB000030BC003B08B8004C08A93EFD
:100FBA00860087013808810020004C08A93EB80045
:100FCA003808A4004108A6004008A5003F0882315D
:100FDA001522863120002508B1002408B000080037
:100FEA00A03084000030850029308E31B526873143
:100FFA0020008331412B543465346D3470342034ED
:10100A00733465346E3473346F34723420346F340D
:10101A00703465346E3469346E346734203466341F
:10102A00613469346C346534643421340A340034EC
:10103A00533465347434743469346E346734203408
:10104A006234723469346734683474346E346534A3
:10105A007334733420346F34663420342534643462
:06106A0021340A340034B9
:101D3200163021009700080071082100E8007008A1
:101D4200E700080071082100EC007008EB000800B1
:101D520071082100EA007008E9000800F10071082A
:101D62008E31E7268E310800640080010131890B33
:101D7200B62E0034583021009900980122009601B5
:101D82000800C4302000E6009030E7008F3134278D
:101D92008E310800CD302000E6009030E7008F3110
:101DA20034278E310800D6302000E6009030E7005C
:101DB2008F3134278E310800F930280096009501C2
:101DC200200092100C30280097000800F00020003C
:101DD200111EEC2EED2EE82E700823009A0008004A
:101DE20080302C0099009801970125001E08CF39F8
:101DF20010389E00080080302C009C009B019A0144
:101E020025001E083F3940389E000800A5302000FA
:101E1200E6009030E7008F3134278F31F001013036
:101E22008F3146278F310800B5302000E600903010
:101E3200E7008F3134278F31F00100308F31462790
:101E42008F310800F0007008860087017730C03FAC
:101E52000130C13F7008023E86008701CE30C03F8C
:101E62000230C13F080068302000EA006A08ED0035
:101E72006708DF006608DE006D30EA006A08E000ED
:101E820000308031BC208F310800F1007108031945
:101E92004B2F4C2F4F2F22000D15512F22000D11C9
:101EA20070080319552F562F582F8D15592F8D1144
:101EB200080081312C218F318E31BB268F318E313A
:101EC20099268F318E31DD268F318E31FC268F316E
:101ED2008E31F1268F3180314D208F31080071080B
:101EE200F3007008F200F336F20CF336F20C7208CB
:101EF2002C00980070080339F2000530F235FF3EDD
:101F0200031D7F2F7235970008007108F3007008D7
:101F1200F200F336F20CF336F20C72082C009B003E
:101F220070080339F2000530F235FF3E031D952F8C
:101F320072359A000800F4007408F2007208F30087
:101F4200A62F0130F2007208F40774088600870198
:101F52000108031DAD2FAE2FA22F73087402F000EB
:101F6200F101F01BF1030800F00070088600870100
:101F7200C230C03F0E30C13F7008023E860087016A
:101F8200CB30C03F0E30C13F7008043E860087014F
:101F9200D430C03F0E30C13F0800F0007008860008
:101FA20087010030C03F0030C13F7008023E86000A
:101FB20087010030C03F0030C13F7008043E8600F8
:101FC20087010030C03F0030C13F0800F0007008B8
:101FD200860087010030C03F0030C13F7008023EDA
:101FE200860087010030C03F0030C13F7008043EC8
:101FF200860087010030C03F0030C13F08004C34EA
:1020020069346734683474342034733465346E341C
:1020120073346F34723420346F34703465346E34F8
:102022006534643421340A3400344C3469346734FE
:10203200683474342034733465346E3473346F34DA
:102042007234203463346C346F34733465346434E2
:1020520021340A34003452346534613464346934CE
:102062006E34673420346C346934673468347434C1
:102072002034733465346E3473346F3472340A34FA
:102082000034543465346D34703420347334653420
:102092006E3473346F34723420346F347034653478
:1020A2006E346534643421340A3400345434653473
:1020B2006D3470342034733465346E3473346F3459
:1020C2007234203463346C346F3473346534643462
:1020D20021340A340034523465346134643469344E
:1020E2006E3467342034743465346D347034203483
:1020F200733465346E3473346F3472340A3400349A
:102102004434753474347934203463347934633428
:102112006C3465342034693473343A3420342534D1
:1021220064340A34003443346F346C346F347234A0
:10213200203469347334203467347234653465343E
:102142006E3421340A34003443346F346C346F34C7
:102152007234203469347334203462346C3475340C
:10216200653421340A34003443346F346C346F34B0
:1021720072342034693473342034723465346434F4
:1021820021340A340034443465346D346F342034DD
:10219200313421340A340034443465346D346F34BC
:1021A2002034323421340A340034443465346D34FA
:0C21B2006F342034333421340A340034FC
:020000040001F9
:04000E00E43FFF3E8E
:00000001FF
