:020000040000FA
:08000000803102288731E12F55
:1000D800163021009700080071082100E30070081D
:1000E800E200080071082100E7007008E600080037
:1000F80071082100E5007008E4000800F1007108AB
:100108008031DA2080310800F0010130813112217C
:1001180080310800F001003081311221803108005F
:10012800640080010131890B95280034FE0012001B
:100138001E00FE0B9B2800345830210099009801BE
:10014800220096010800F001F00A003081311221E6
:100158008031080028346E3475346C346C3429349A
:100168000034863021009E009F019B019C010130D4
:100178009D00080000308131522180317108F5005E
:100188007008F40008000130813152218031710873
:10019800F5007008F4000800FF302800960095016B
:1001A800200092100630280097000800F000200078
:1001B800111EDF28E028DB28700823009A000800B9
:1001C80080302C0099009801970125001E08CF392E
:1001D80010389E000800F00070088600870114306F
:1001E800C03F0430C13F7008023E860087017E3060
:1001F800C03F0430C13F080047302000C90049080B
:10020800CC004608BE004508BD004C30C90049086E
:10021800BF0000308231CC2281310800F100710822
:100228000319172918291B2922008D141D292200BA
:100238008D10700803192129222924290D15252933
:100248000D1108008331662381318031A02081316E
:1002580080316C2081318031B52081318031D020CE
:1002680081318031E420813182318422813108005A
:100278007108F3007008F200F336F20CF336F20C52
:1002880072082C00980070080339F2000530F23526
:10029800FF3E031D4B29723597000800F3007308D1
:1002A800F200F20DF20D21001D0872068339720664
:1002B8009D001D14000021009D149D1864296529C6
:1002C80061291C08F1001B08F0000800F000700804
:1002D800860087010030C03F0030C13F7008023EF1
:1002E800860087010030C03F0030C13F7008043EDF
:1002F800860087010030C03F0030C13F0800F00091
:100308007008860087016530C03F8830C13F70089B
:10031800023E86008701EA30C03F0130C13F7008C5
:10032800043E86008701C730C03F0030C13F080047
:10033800F0007008860087013E30C03F8830C13F1A
:100348007008023E86008701CE30C03F0130C13FB1
:100358007008043E86008701BE30C03F0030C13FB0
:1003680008007108F4007008F300BE290130F00796
:100378000030F13D70088400710885001200031DEB
:10038800C629C729BA2973087002F0007408713B9E
:10039800F100080000308131522181317108F700E5
:1003A8007008F6007708803AF40080307402031D64
:1003B800DF29013076020318E229E4290130E52912
:1003C8000030F5007508F800780808000130813120
:1003D800522181317108F7007008F6007708803AD9
:1003E800F40080307402031DFB29013076020318E3
:1003F800FE29002A0130012A0030F5007508F800AE
:1004080078080800F600FA300032890B082AF00153
:10041800F00A76088231422282317608F4000330ED
:10042800F435FF3E031D142A7435F5007508F600EF
:10043800F001F00A76088231422282310800F60083
:10044800FA300032890B252AF001760882314222DF
:1004580082317608F4000330F435FF3E031D302A5C
:100468007435F5007508F6005330890B392A0000F9
:10047800F00176088231422282310800F3007308C5
:10048800F1000430F136890B462A7108F20072082F
:10049800F30073080F39F1007108F30020000F080A
:1004A800F0398F000F0873048F00700C031C8F1233
:1004B80003188F160F130F160F12080020008F0154
:1004C80021008F0120008F170530F700DE30890BDF
:1004D8006B2AF70B6B2A3230823123228231283083
:1004E8008231232282310C30823123228231013041
:1004F8008231232282310630823123228231080060
:10050800083023009F0090309D0024309E00193051
:100518009B009C010030F0000030F1008031762013
:1005280082310030F0000030F10080317C208231CF
:100538000030F0000030F10080317020823120005E
:10054800EE010800FC01BB2A7808FA007708F900D8
:100558007C08790784007A0803187A0A850000085D
:100568008231062282310130F9007908FC077808C7
:10057800FA007708F9007C08790784007A080318DC
:100588007A0A85001200031DCA2ACB2AA82A080065
:100598002000C2003E08C4003D08C300E401E50194
:1005A800E62A4330C0004008FC003F08C10041086B
:1005B800FD0042088531902582317C082000E4073F
:1005C8007D08E53D43088400440885001200031DAA
:1005D800EE2AEF2AD52A6508BE006408BD00080087
:1005E8000030FB000030FA000030F9000030F8005D
:1005F800701CFF2A002B082B7408F8077508F93DB2
:100608007608FA3D7708FB3D0130F435F50DF60D17
:10061800F70D890B092B0130F336F20CF10CF00CB5
:10062800890B102B7308720471047004031D1D2BB1
:100638001E2BFC2A7B08F3007A08F2007908F100E7
:100648007808F0000800740803192B2B2C2B312B89
:100658007408031D302B312B362B72088031822011
:100668008331652B7408033E860087011600010458
:1006780003193F2B402B5D2B7408033E860087012E
:10068800403FF500413FF600740A86008701403F6D
:10069800F700413FF8007808803AF9007608803A78
:1006A8007902031D592B7508770203185C2B5D2B03
:1006B800652B740A860087010130810741310318D0
:1006C800810A0800220090018F018C018D018E01A2
:1006D8000F3021009000FF308C00F8308D00BF30C3
:1006E8008E008F0123008F013C308E0020308D005A
:1006F800073090003F308C0024008F0190018D015D
:100708008C018E0121009517250090018C018D0127
:100718008E018F01FF3026008C00FF308D00FF30E6
:100728008E00FF308F0007309000FF3027008C00CC
:10073800FF308D00FF308E00FF308F000F309000AB
:1007480017303C00A4000E303D0098001430A6007D
:100758000800200030083402C0003108353BC100D1
:100768003208363BC2003308373BC3004308A300B6
:100778004208A2004108A1004008A0002E08C400B9
:100788002F08C5000030C51BFF30C600C700300861
:10079800C4023108C53B3208C63B3308C73B47088B
:1007A800F3004608F2004508F1004408F000380854
:1007B8003C02C80039083D3BC9003A083E3BCA0024
:1007C8003B083F3BCB004B08F7004A08F6004908B6
:1007D800F5004808F4008231F422833173082000C0
:1007E800A7007208A6007108A5007008A40085314A
:1007F80000258331200020083807CC002108393D26
:10080800CD0022083A3DCE0023083B3DCF004F08DB
:10081800B1004E08B0004D08AF004C08AE0008000B
:1008280020005108AF005008AE000030B30000307F
:10083800B2000030B1000A30B0000030B70000301C
:10084800B6000330B500E830B4000030BB0000301B
:10085800BA000130B9007430B8000030BF00003071
:10086800BE000330BD008530BC008331AD23843128
:1008780020002F08D1002E08D0005108AF005008E2
:10088800AE000030B3000030B2000130B100743067
:10089800B0000030B7000030B6000330B500853036
:1008A800B4000030BB000030BA000030B90000309E
:1008B800B8000030BF000030BE000030BD0064301A
:1008C800BC008331AD23843120002F08D3002E08CB
:1008D800D2006430FD0052087D02EC005309031871
:1008E800890AED006D08F1006C08F00081313C21A7
:1008F8008431080020005108AF005008AE000030D5
:10090800B3000030B2000030B1001330B000003046
:10091800B7000030B6000130B5006630B4000030D2
:10092800BB000030BA000030B9000030B800003019
:10093800BF000030BE000030BD003C30BC00833139
:10094800AD23843120002F08D3002E08D200D31BFA
:10095800AE2CAF2CC02C5308803AFD0080307D02AD
:10096800031DB82C143052020318BB2CBC2CC02C0D
:10097800803188208431FF2C20005308803AFD0004
:1009880080307D02031DCA2C14305202031CCD2C6A
:10099800CE2CE02C20005308803AFD0080307D02E8
:1009A800031DD82C283052020318DB2CDC2CE02C39
:1009B8008031A7208431FF2C20005308803AFD00A5
:1009C80080307D02031DEA2C28305202031CED2CD6
:1009D800EE2CFF2C20005308803AFD0080307D0269
:1009E800031DF82C3D3052020318FB2CFC2CFF2C65
:1009F80080318E20843108002000A901A31F052D15
:100A0800062D132DA009A109A209A309A00A0319FB
:100A1800A10A0319A20A0319A30AA901A90AA71F6F
:100A2800162D172D262DA409A509A609A709A40A7C
:100A38000319A50A0319A60A0319A70A0130FC001D
:100A48007C08A9060030AD000030AC000030AB00D7
:100A58000030AA0023082204210420040319352D9C
:100A6800362D772DA801A80A442D0130A035A10DF7
:100A7800A20DA30D890B3A2D0130FC007C08A807B4
:100A8800A31F472D482D392D0130AA35AB0DAC0DCC
:100A9800AD0D890B492D23082702031D5D2D220862
:100AA8002602031D5D2D21082502031D5D2D20084A
:100AB8002402031C602D612D6A2D2008A402210840
:100AC800A53B2208A63B2308A73B2A140130A336DE
:100AD800A20CA10CA00C890B6B2D0130A802031DE0
:100AE800762D772D482D290803197B2D7C2D872DF0
:100AF800AA09AB09AC09AD09AA0A0319AB0A03197B
:100B0800AC0A0319AD0A2D08A3002C08A2002B0873
:100B1800A1002A08A00008002000BC007C0886006C
:100B28008701403FB500413FB600350884003608CC
:100B380085001200253A031DA22DA32D192E7C082D
:100B4800860087010130810741310318810AE601D7
:100B5800E701EA01EB01FF30E800FF30E9007C081B
:100B680086008701403FB500413FB6003508840044
:100B7800360885001200733A031DC32DC42DE52DD8
:100B88007C08860087010130810741310318810AFA
:100B98007D088600870101088400850102308107ED
:100BA800003FBA00013FBB003B08FB003A08FA00CF
:100BB8003C0886313C2685317B08FD007A08FC001C
:100BC8003B2E7C0886008701403FB500413FB600B8
:100BD80035088400360885001200253A031DF52DD6
:100BE800F62D0E2E7C0886008701013081074131E1
:100BF8000318810A2530F2000030F3003C08B500E4
:100C08003508F4008331272385310130FC0000309A
:100C1800FD003B2E7C0886008701013081074131A9
:100C28000318810AFC01FD013B2E7C088600870120
:100C3800403FB500413FB6003508840036088500BE
:100C48000008B700B8013708F2003808F3003C087C
:100C5800B9003908F4008331272385317C088600E0
:100C680087010130810741310318810A092E0800E4
:100C78002000B000DB30860000308700233084007D
:100C8800003085000730A00016001A00A00B482E7F
:100C98007B08AF007A08AE002E082F04031D552EDE
:100CA800562E5A2E2330AE000030AF002F08F10028
:100CB8002E08F0008131B521863171082000B4007A
:100CC8007008B3006908B2006808B100B21B6D2E45
:100CD8006E2E822E3208803AA0003408803A200214
:100CE800031D782E33083102031C7B2E7C2E7D2EAB
:100CF800822E20003208B4003108B30020003408E6
:100D0800B2003308B1006708AD006608AC006A1885
:100D18008E2E8F2EAF2EA12E2030F2000030F30041
:100D280020003008A0002008F400833127238631F2
:100D380001302000B3070030B43D3408803AA000E9
:100D48002D08803A2002031DAB2E2C083302031C09
:100D5800AE2EAF2E902E2000AA01AB01CF2E200080
:100D68002E0884002F0885000008A000A101200893
:100D7800F2002108F3003008A2002208F4008331B1
:100D88002723863101302000AE070030AF3D013007
:100D9800AA070030AB3D2B08803AA0003208803A01
:100DA8002002031DD92E31082A02031CDC2EDD2E59
:100DB800B32E20006A1CE12EE22E022FF42E2030E2
:100DC800F2000030F30020003008A0002008F400F2
:100DD80083312723863101302000B3070030B43D2A
:100DE8003408803AA0002D08803A2002031DFE2E08
:100DF8002C083302031C012F022FE32E2000340895
:100E0800FB003308FA00080081312621873182313E
:100E18006222873155308600003087000630200076
:100E2800D40000301E00D40B162F5530D4005408BF
:100E3800E100E201E301D130813183218731CB30F8
:100E480081319C218731C53081316A218731D73082
:100E58008031EF2087310230CB3E86008701413F49
:100E68008A00403F0A008731003A03193C2F3D2F82
:100E7800532F00302000C5008830C6008131002182
:100E88008731200061088600870121004B08C03F98
:100E98004C08C13F01302000E2070030E33D02303A
:100EA800D13E86008701413F8A00403F0A008731D2
:100EB800003A0319602F612F7A2F22302000C500D5
:100EC8008830C600813100218731200062356107F2
:100ED800D40054088600870121005108C03F5208F9
:100EE800C13F01302000E2070030E33D2000DF0170
:100EF800E001952F6B302000C5008830C6005F35B3
:100F08006107D400540886008701403FC700413F6D
:100F1800C80081310021873101302000DF0700300F
:100F2800E03D6008803AD4006308803A5402031D0B
:100F38009F2F62085F02031CA22FA32F7E2F713000
:100F4800F7008830F8008231A62287310430D13E7C
:100F580086008701413F8A00403F0A0087317508B3
:100F68002000DC007408DB000430CB3E86008701DB
:100F7800413F8A00403F0A00873175082000DE00A3
:100F88007408DD005C08D1005B08D0002100580817
:100F98008A0057080A00873120005E08D1005D08E2
:100FA800D0000230D73E86008701413F8A00403F8B
:100FB8000A008731AA2F80310228AE3084008030A1
:100FC8008500DB30860000308700073080319A20AA
:100FD800873164308400003085000B3080319420E4
:100FE8008731A0308400003085003B308031942068
:100FF800873120008731082F543465346D347034BC
:101008006534723461347434753472346534203420
:10101800733465346E3473346F3472342034693405
:101028007334203461347634613469346C34613417
:1010380062346C3465340D340A3400344C34693409
:101048006734683474342034733465346E347334DC
:101058006F34723420346934733420346134763414
:10106800613469346C34613462346C3465340D3401
:101078000A340034543465346D3470346534723451
:1010880061347434753472346534003444346534EE
:101098006D346F342034313421340A34003444340C
:1010A80065346D346F342034323421340A340034DA
:1010B800443465346D346F342034333421340A3485
:1010C80000344C346934673468347434003425345B
:1010D800733420340D340A34003468346F346C347B
:0410E800613400343B
:020000040001F9
:04000E00E43FFF3E8E
:00000001FF
