:020000040000FA
:1000000080312628053008007E1480318B1D092898
:100010000A2812280B1C0D280E2812289D3177253E
:10002000803124280B1F1528162824282100911C14
:100030001A281B2824282000911C1F282028242847
:100040009A31E222803124287E100900803128284C
:1000500022009A3176228031DB009A31772280317A
:10006000DC009A3178228031DD009A3179228031AA
:10007000DE002100EA01EB01203084000130850020
:1000800027309B3106238031A03084000130850069
:1000900044309B31062380312030840002308500BB
:1000A00020309B31062380317E102000803158287B
:1000B0009E313026803190311E2080310030240066
:1000C000C2000030C3000030C40041309E3185269C
:1000D00080313B309E31A226803102303B3E86008B
:1000E00001308700413F8A00403F0A0080312200F2
:1000F000DA005A082400D0000230413E8600013068
:100100008700413F8A00403F0A0080312200DA0028
:100110005A082400D100D201D30150082200DA008D
:100120005A082400D20051082200DA005A0824009C
:10013000D300DE309E316826803152302200DA0052
:100140005A082100A400CC309631A32680318B17A9
:100150000B1723004F082100A50023004E082100A3
:10016000A4009B3175238031230051082100A50094
:10017000230050082100A4009B317E2380312300FE
:1001800053082100A500230052082100A4009B3140
:100190008723803114302100A4001E30A5009B313C
:1001A000902380319A31C0228031BF302100AB00D2
:1001B0009930AC009031D920803141302200DA00F2
:1001C000EE30890BE128DA0BE12800002400D4018D
:1001D000D50104303B3E860001308700413F8A0054
:1001E000403F0A008031210029082400C700210077
:1001F00028082400C6000430413E860001308700F4
:10020000413F8A00403F0A00813121002908240033
:10021000C900210028082400C80047082100C000A8
:10022000240046082100BF000030C4000030C30095
:100230000030C2001330C1000030C8000030C700D9
:100240000130C6006630C500FF30CC00FF30CB0067
:10025000FF30CA00D830C9000030D0000030CF00D5
:100260000030CE007D30CD00883162208031210009
:1002700040082400CB0021003F082400CA0052306F
:100280002200D3009830D40024004B082200D6006E
:1002900024004A082200D5009D311A2580312030E3
:1002A0002200D3009830D400240049082200D60050
:1002B000240048082200D5009D311A2580310130E4
:1002C0002400D4070030D53D5508803A2200DA00DA
:1002D00080305A02031D6F29053024005402031C8C
:1002E00072297329E9285D302200DA005A082100BA
:1002F000B2005E309431A224803122005B080319E1
:1003000082298329D12904303B3E860001308700B1
:10031000413F8A00403F0A00813121002908240022
:10032000CD00210028082400CC000430413E860086
:1003300001308700413F8A00403F0A00813121009F
:1003400029082400CF00210028082400CE004D08F1
:100350002100E20024004C082100E1000230DE3ED2
:10036000860001308700413F8A00403F0A0081310A
:1003700024004F082100E20024004E082100E10083
:1003800023005F088A005E080A0081310830CC3EF5
:10039000860001308700413F8A00403F0A008131DA
:1003A0007D293830D3009930D4009D311A25803111
:1003B0000430DE3E860001308700413F8A00403F26
:1003C0000A0081311030CC3E860001308700413F69
:1003D0008A00403F0A0081317D2980312628210092
:1003E000CC003F08D3004008D4004108D5004208A3
:1003F000D6004308D7004408D8004508D90046086D
:10040000DA00D330860000308700473FC700C71BA3
:100410000A2A0C2A01300D2A00302100C800C90127
:100420004808D1004908D200510852040319192A7A
:100430001A2A382AD309D409D509D609D709D809DF
:10044000D909DA09D30A031D382AD40A031D382A28
:10045000D50A031D382AD60A031D382AD70A031DD8
:10046000382AD80A031D382AD90A031D382ADA0A7D
:100470002200A51B3C2A3D2A412AFD30A605FF305B
:10048000A7052508803A2100C70080304702031DD8
:100490004C2A01302200240203184F2A502A562ADF
:1004A00001302100CD000030CE005E2A2200250858
:1004B0002100CE00220024082100CD0022002308C4
:1004C0002100D000220022082100CF005108520450
:1004D000031D6B2A6C2A712A2200261D702A712A9C
:1004E000762AFF302100CF07FF30D03D1F3021009A
:1004F000DB000030DC002400BF01E72AFF302100D0
:10050000DB07FF30DC3D0A30A400A501A601A701EE
:10051000A801A901AA01AB015308AC005408AD0021
:100520005508AE005608AF005708B0005808B10093
:100530005908B2005A08B3008D31242581312100B9
:100540002508B8002408B7009E314C2681312100CF
:100550003708303EC7005B08203E86000230870027
:1005600047088100FF30CD07FF30CE3DFF30CF0779
:10057000FF30D03D0A30A400A501A601A701A801C3
:10058000A901AA01AB015308AC005408AD005508FD
:10059000AE005608AF005708B0005808B10059081F
:1005A000B2005A08B3008531DA25813121002408D0
:1005B000D3002508D4002608D5002708D60028082F
:1005C000D7002908D8002A08D9002B08DA00210012
:1005D0005C08803AC70080304702031DF12A0130D1
:1005E0005B02031CF42AF52A222B21005308540431
:1005F000550456045704580459045A04031D012B8A
:10060000022B7E2A4E08803AC70080304702031D25
:100610000B2B01304D0203180E2B0F2B7E2A2100CD
:100620005008803AC70080304702031D192B013063
:100630004F02031C1C2B1D2B222B2200A618212B42
:10064000222B7E2A210051085204031D282B292B1E
:100650002E2B2200261D2D2B2E2B4B2BFF30210065
:10066000DB07FF30DC3D51085204031D382B392BCA
:100670003E2B2B30CA000030CB00422B2D30CA005D
:100680000030CB004A08C7005B08203E86000230DD
:1006900087004708810021005B08203EC70047080B
:1006A000B6005008B8004F08B7004C089731A7278C
:1006B000813121003708C0003608BF000800200043
:1006C000BB003008C4003108C5003208C60033083A
:1006D000C7003408C8003508C9003608CA00370802
:1006E000CB004430860000308700473FB800B81B7D
:1006F0007A2B7C2B01307D2B00302000B900BA0111
:100700003908C2003A08C300420843040319892B80
:100710008A2BA82BC409C509C609C709C809C90974
:10072000CA09CB09C40A031DA82BC50A031DA82B9F
:10073000C60A031DA82BC70A031DA82BC80A031D40
:10074000A82BC90A031DA82BCA0A031DA82BCB0A74
:100750002200A51BAC2BAD2BB12BFD30A605FF3025
:10076000A7052508803A2000B80080303802031D14
:10077000BC2B0130220024020318BF2BC02BC62B38
:1007800001302000BE000030BF00CE2B2200250823
:100790002000BF00220024082000BE002200230801
:1007A0002000C100220022082000C00042084304AB
:1007B000031DDB2BDC2BE12B2200261DE02BE12B84
:1007C000E62BFF302000C007FF30C13D1F30200066
:1007D000CC000030CD002400BF01572CFF3020009A
:1007E000CC07FF30CD3D0A30A000A101A201A3013A
:1007F000A401A501A601A7014408A8004508A90075
:100800004608AA004708AB004808AC004908AD00FC
:100810004A08AE004B08AF008C313A2483312000E7
:100820002108F4002008F3009D31A92583317308C5
:10083000303E2000B8004C08203E86000230870081
:1008400038088100FF30BE07FF30BF3DFF30C007D2
:10085000FF30C13D0A30A000A101A201A301A40103
:10086000A501A601A7014408A8004508A90046085B
:10087000AA004708AB004808AC004908AD004A0888
:10088000AE004B08AF008631DF2683312000200800
:10089000C4002108C5002208C6002308C700240898
:1008A000C8002508C9002608CA002708CB00200078
:1008B0004D08803AB80080303802031D612C0130A9
:1008C0004C02031C642C652C922C20004408450427
:1008D00046044704480449044A044B04031D712C90
:1008E000722CEE2B3F08803AB80080303802031D8E
:1008F0007B2C01303E0203187E2C7F2CEE2B200037
:100900004108803AB80080303802031D892C01303C
:100910004002031C8C2C8D2C922C2200A618912CAA
:10092000922CEE2B200042084304031D982C992C96
:100930009E2C2200261D9D2C9E2CBB2CFF302000BF
:10094000CC07FF30CD3D42084304031DA82CA92C41
:10095000AE2C2B30BC000030BD00B22C2D30BC00C2
:100960000030BD003C08B8004C08203E8600023034
:1009700087003808810020004C08203EB800380865
:10098000A4004108A6004008A5003B0897314E2767
:10099000833120002508B1002408B000080022009F
:1009A00035080319D42CD52CD62CD92D9A317A227E
:1009B000843105309A317F228431E530F0001C30DB
:1009C000F1009A31CA22843122005B08031DE92C10
:1009D000EA2CF02CDB01DB0A9B31F3238431D92D87
:1009E0002A032B04031DF52CF62CFF2C02302100CA
:1009F0006A066B04031DFD2CFE2CFF2CEC2C023030
:100A000022002A062B04031D062D072D102D04306D
:100A100021006A066B04031D0E2D0F2D102DEC2CEA
:100A2000023022002A062B04031D172D182D5D2DE0
:100A3000043021006A066B0403191F2D202D5D2D43
:100A4000412D0530A0000030A1009F31972784314F
:100A5000542D0A30A0000030A1009F319727843127
:100A6000542D0F30A0000030A1009F319727843112
:100A7000542D1430A0000030A1009F3197278431FD
:100A8000542D6B08003A0319462D212D6A08003AAF
:100A90000319212D013A0319292D033A0319312D88
:100AA000013A0319392D212DA3302100A30055301F
:100AB000890B582DA30B582DEC2C22002A032B0454
:100AC000031D632D642D852D21006A086B04031D11
:100AD0006A2D6B2D852D22005E080319702D722D55
:100AE0000130732D00302100A30023082200DE0016
:100AF000DC01DC0A5D082100A3002308FD002200C0
:100B00005E08933148238431D92D22002A032B0417
:100B1000031D8B2D8C2DAD2D21006A036B04031D4D
:100B2000922D932DAD2D22005D080319982D9A2D3D
:100B300001309B2D00302100A30023082200DD009E
:100B4000DC01DC0A5D082100A3002308FD0022006F
:100B50005E08933148238431D92D22002A082B04C2
:100B6000031DB32DB42DD92D2A082B04031DB92D37
:100B7000BA2DC92D21006B08803AA30080302302D2
:100B8000031DC42D03306A02031CC72DC82DC92DB7
:100B9000D92D21006A08013E2200AA000030210060
:100BA0006B3D2200AB002100EA01EB012200DC01D9
:100BB000DC0A08002100B601A4308600003087005E
:100BC000473FB400B41FE52DE62D082E2100A409EF
:100BD000A509A609A709A809A909AA09AB09A40A90
:100BE000031D052EA50A031D052EA60A031D052EAD
:100BF000A70A031D052EA80A031D052EA90A031D19
:100C0000052EAA0A031D052EAB0A2100B601B60A5D
:100C1000AC30860000308700473F2100B400B41F8D
:100C2000122E132E372E2100AC09AD09AE09AF09E3
:100C3000B009B109B209B309AC0A031D322EAD0ADD
:100C4000031D322EAE0A031D322EAF0A031D322EB3
:100C5000B00A031D322EB10A031D322EB20A031D43
:100C6000322EB30A01302100B4003408B606B73082
:100C700086000030870008302100B40000301E00DC
:100C8000B40B3F2E24082504260427042804290435
:100C90002A042B0403194D2E4E2EAA2EB501B50A97
:100CA0005D2EA435A50DA60DA70DA80DA90DAA0DA5
:100CB000AB0D0130B4003408B507AB1F602E612EB8
:100CC000512EB735B80DB90DBA0DBB0DBC0DBD0D0C
:100CD000BE0D2B083302031D872E2A083202031D86
:100CE000872E29083102031D872E28083002031D94
:100CF000872E27082F02031D872E26082E02031D8C
:100D0000872E25082D02031D872E24082C02031C84
:100D10008A2E8B2E9C2E2408AC022508AD3B26087B
:100D2000AE3B2708AF3B2808B03B2908B13B2A0857
:100D3000B23B2B08B33B3714AB36AA0CA90CA80C5A
:100D4000A70CA60CA50CA40C0130B502031DA92EFE
:100D5000AA2E612E36080319AE2EAF2ECD2EB7095E
:100D6000B809B909BA09BB09BC09BD09BE09B70A66
:100D7000031DCD2EB80A031DCD2EB90A031DCD2E9D
:100D8000BA0A031DCD2EBB0A031DCD2EBC0A031DBE
:100D9000CD2EBD0A031DCD2EBE0A21003708A400AA
:100DA0003808A5003908A6003A08A7003B08A800A3
:100DB0003C08A9003D08AA003E08AB000800F2016B
:100DC0002030860000308700473FF000F01FE92EFA
:100DD000EA2E0B2F2000A009A109A209A309A4094A
:100DE000A509A609A709A00A031D092FA10A031D29
:100DF000092FA20A031D092FA30A031D092FA40A04
:100E0000031D092FA50A031D092FA60A031D092F7B
:100E1000A70AF201F20A2830860000308700473F17
:100E2000F000F01F142F152F382F2000A809A90952
:100E3000AA09AB09AC09AD09AE09AF09A80A031D9F
:100E4000342FA90A031D342FAA0A031D342FAB0A1D
:100E5000031D342FAC0A031D342FAD0A031D342F9C
:100E6000AE0A031D342FAF0A0130F0007008F206FD
:100E700073308600003087000830F00000301E001C
:100E8000F00B3F2F20002008210422042304240417
:100E900025042604270403194E2F4F2FAB2FF101F1
:100EA000F10A5E2FA035A10DA20DA30DA40DA50D75
:100EB000A60DA70D0130F0007008F107A71F612FE4
:100EC000622F522FF335F40DF50DF60DF70DF80DD9
:100ED000F90DFA0D27082F02031D882F26082E0270
:100EE000031D882F25082D02031D882F24082C029E
:100EF000031D882F23082B02031D882F22082A0296
:100F0000031D882F21082902031D882F200828028D
:100F1000031C8B2F8C2F9D2F2008A8022108A93B92
:100F20002208AA3B2308AB3B2408AC3B2508AD3B79
:100F30002608AE3B2708AF3B7314A736A60CA50CBA
:100F4000A40CA30CA20CA10CA00C0130F102031DF7
:100F5000AA2FAB2F622F72080319AF2FB02FCE2FFD
:100F6000F309F409F509F609F709F809F909FA0985
:100F7000F30A031DCE2FF40A031DCE2FF50A031D1D
:100F8000CE2FF60A031DCE2FF70A031DCE2FF80A27
:100F9000031DCE2FF90A031DCE2FFA0A7308200075
:100FA000A0007408A1007508A2007608A3007708C5
:100FB000A4007808A5007908A6007A08A700080010
:100FC0002100AA00FA300032890BE32F2100A4018E
:100FD000A40A2A0890316720873121002A08A80036
:100FE0000330A835FF3E031DF12F2835A90029083D
:100FF000AA00A401A40A2A089031672087310800BA
:1010000000309F31DD27883108007E1C0928963189
:10101000F72E9A31FA228831003A03191028112844
:1010200044281E289B31A223883161289B31AB23A1
:10103000883161289B31BD238831612823002F0826
:101040002100A5002508A4000630A03E860001303E
:101050008700413F8A00403F0A0088312100A600F6
:10106000A7012708003A031936281A282608013A4A
:1010700003191A28033A03191228013A03191628EA
:10108000073A03191A281A2823003C101730A03EEB
:10109000860001308700403F84008501810A0008F6
:1010A0009A31F422883101302300B8020030B93B74
:1010B00038083904031D5D285E2860280630612841
:1010C00003300800210041084502D1004208463B98
:1010D000D2004308473BD3004408483BD40054089F
:1010E000B3005308B2005208B1005108B0003F08E5
:1010F000D5004008D6000030D61BFF30D700D800FE
:101100004108D5024208D63B4308D73B4408D83BA8
:101110005808A7005708A6005608A5005508A400BF
:1011200049084D02D9004A084E3BDA004B084F3BB4
:10113000DB004C08503BDC005C08AB005B08AA00FD
:101140005A08A9005908A8009331142388312100B6
:101150002708B7002608B6002508B5002408B40003
:101160008931C6218831210030084907DD00310866
:101170004A3DDE0032084B3DDF0033084C3DE000C5
:101180006008C2005F08C1005E08C0005D08BF00C3
:101190000800220090018F018C018D018E010F301B
:1011A00021009000FF308C00F8308D00BF308E00A1
:1011B0008F0123008F0124308E0020308D000730F6
:1011C00090001F308C0024008F0190018D01E030D1
:1011D0008C008E0121009513250090018C018D015A
:1011E0008E018F01FF3026008C00FF308D00FF3014
:1011F0008E00FF308F0007309000FF3027008C00FA
:10120000FF308D00FF308E00FF308F000F309000D8
:10121000931213139313921612179217911211131C
:10122000911322302100A4001A30A5009B317523B0
:10123000883123302100A4001A30A5009B317E2381
:10124000883124302100A4001A30A5009B31872367
:1012500088318B1517303C00A4001430A1001030E9
:101260003D00A3000E3098001130A4001430A600F9
:1012700013303C00A0000800210061086204031D37
:101280004229432947299B3128238931C5296208EE
:10129000C0006108BF000030C4000030C30000304F
:1012A000C2001330C1000030C8000030C700013058
:1012B000C6006630C5000030CC000030CB000030E6
:1012C000CA000030C9000030D0000030CF0000302C
:1012D000CE003C30CD0088316220893121004008A9
:1012E000E5003F08E400E51B762977298829650891
:1012F000803AE30080306302031D802914306402C9
:1013000003188329842988299B3121238931C52900
:1013100021006508803AE30080306302031D9229B2
:1013200014306402031C95299629A8292100650818
:10133000803AE30080306302031DA0292830640254
:101340000318A329A429A8299B3137238931C5294A
:1013500021006508803AE30080306302031DB22952
:1013600028306402031CB529B629C5292100650867
:10137000803AE30080306302031DC0293D306402DF
:101380000318C329C429C529432908002100BA012B
:10139000B31FCB29CC29D929B009B109B209B309A6
:1013A000B00A0319B10A0319B20A0319B30ABA0140
:1013B000BA0AB71FDC29DD29EC29B409B509B60939
:1013C000B709B40A0319B50A0319B60A0319B70A0B
:1013D0000130B8003808BA060030BE000030BD0049
:1013E0000030BC000030BB0033083204310430044C
:1013F0000319FB29FC293D2AB901B90A0A2A01303F
:10140000B035B10DB20DB30D890B002A0130B80013
:101410003808B907B31F0D2A0E2AFF290130BB3542
:10142000BC0DBD0DBE0D890B0F2A33083702031DFD
:10143000232A32083602031D232A31083502031DF0
:10144000232A30083402031C262A272A302A30088F
:10145000B4023108B53B3208B63B3308B73B3B1406
:101460000130B336B20CB10CB00C890B312A01300B
:10147000B902031D3C2A3D2A0E2A3A080319412AC3
:10148000422A4D2ABB09BC09BD09BE09BB0A031982
:10149000BC0A0319BD0A0319BE0A3E08B3003D0881
:1014A000B2003C08B1003B08B0000800D12A9031DE
:1014B00000208A312100AB0100309031B1208A3107
:1014C000E3302100AB009830AC009031D9208A3154
:1014D000E52A903100208A312100AB0100309031A3
:1014E000B1208A3116302100AB009930AC00903128
:1014F000D9208A312100AB01AB0A00309031B120F4
:101500008A317D302100AB009830AC009031D92079
:101510008A31E52A903100208A312100AB01003068
:101520009031B1208A31D2302100AB009830AC002C
:101530009031D9208A312100AB01AB0A00309031C3
:10154000B1208A319F302100AB009830AC0090313F
:10155000D9208A31E52A903100208A312100AB015F
:1015600000309031B1208A31A6302100AB00993093
:10157000AC009031D9208A312100AB01AB0A003098
:101580009031B1208A3188302100AB009930AC0015
:101590009031D9208A31E52A0130EA000030EB0091
:1015A000E52A21006B08003A0319D72ACC2A6A08D9
:1015B000003A0319572A013A0319692A033A031911
:1015C0008A2A013A0319AB2ACC2A0800742B22007C
:1015D00037080319EC2AED2A1D2B903100208A319F
:1015E0002100AB0100309031B1208A31F43021006C
:1015F000AB009830AC009031D9208A312100AB018A
:10160000AB0A00309031B1208A3122005E08031904
:101610000A2B0B2B142B8E302100AB009830AC0022
:101620009031D9208A31852B69302100AB00983068
:10163000AC009031D9208A31852B01302100EA0796
:101640000030EB3D220036080319272B282B582B9E
:10165000903100208A312100AB0100309031B1205F
:101660008A3105302100AB009930AC009031D9208F
:101670008A312100AB01AB0A00309031B1208A31B0
:1016800022005D080319452B462B4F2B8E3021007D
:10169000AB009830AC009031D9208A31852B69306D
:1016A0002100AB009830AC009031D9208A31852BD5
:1016B00001302100EA070030EB3D903100208A31F3
:1016C0002100AB0100309031B1208A315930210026
:1016D000AB009930AC009031D9208A31852B013094
:1016E000EA000030EB00852B21006B08003A03195B
:1016F0007A2B6F2B6A08003A0319E72A013A03197B
:10170000222B033A03195D2B6F2B0800222C9031FA
:1017100000208B312100AB0100309031B1208B31A2
:1017200097302100AB009930AC009031D9208B313B
:101730002100AB01AB0A00309031B1208B31693010
:101740002100AB009930AC009031D9208B31392C7D
:10175000903100208B312100AB0100309031B1205D
:101760008B31B0302100AB009830AC009031D920E3
:101770008B312100AB01AB0A00309031B1208B31AD
:1017800069302100AB009930AC009031D9208B3109
:10179000392C903100208B312100AB010030903189
:1017A000B1208B31C1302100AB009830AC009031BA
:1017B000D9208B312100AB01AB0A00309031B12030
:1017C0008B3169302100AB009930AC009031D920C9
:1017D0008B31392C903100208B312100AB0100304E
:1017E0009031B1208B3149302100AB009930AC00F1
:1017F0009031D9208B312100AB01AB0A0030903100
:10180000B1208B3169302100AB009930AC009031B0
:10181000D9208B31392C903100208B312100AB0144
:1018200000309031B1208B3159302100AB0099301C
:10183000AC009031D9208B31392C0130EA000030D6
:10184000EB00392C21006B08003A0319282C1D2CC1
:101850006A08003A0319872B013A0319A82B033AA7
:101860000319C92B013A0319EA2B073A03190B2C68
:101870001D2C0800F2012830860000308700473F09
:10188000F000F01F442C452C662C2000A809A90963
:10189000AA09AB09AC09AD09AE09AF09A80A031D35
:1018A000642CA90A031D642CAA0A031D642CAB0A2C
:1018B000031D642CAC0A031D642CAD0A031D642CAB
:1018C000AE0A031D642CAF0AF201F20A2030860032
:1018D00000308700473FF000F01F6F2C702C8F2CDA
:1018E0002000A009A109A209A309A409A509A60924
:1018F000A709A00A031D8F2CA10A031D8F2CA20A81
:10190000031D8F2CA30A031D8F2CA40A031D8F2CEB
:10191000A50A031D8F2CA60A031D8F2CA70A2000E1
:101920002008210422042304240425042604270477
:1019300003199B2C9C2CEF2CF101F10AAB2CA03548
:10194000A10DA20DA30DA40DA50DA60DA70D01308F
:10195000F0007008F107A71FAE2CAF2C9F2C2708B2
:101960002F02031DCD2C26082E02031DCD2C250889
:101970002D02031DCD2C24082C02031DCD2C230881
:101980002B02031DCD2C22082A02031DCD2C210879
:101990002902031DCD2C20082802031CD02CD12C99
:1019A000E12C2008A8022108A93B2208AA3B230811
:1019B000AB3B2408AC3B2508AD3B2608AE3B2708D3
:1019C000AF3BA736A60CA50CA40CA30CA20CA10C33
:1019D000A00C0130F102031DEE2CEF2CAF2C72088D
:1019E0000319F32CF42C122DA809A909AA09AB0993
:1019F000AC09AD09AE09AF09A80A031D122DA90A49
:101A0000031D122DAA0A031D122DAB0A031D122D50
:101A1000AC0A031D122DAD0A031D122DAE0A031DC3
:101A2000122DAF0A20002808A0002908A1002A08CA
:101A3000A2002B08A3002C08A4002D08A5002E0846
:101A4000A6002F08A70008002100B601AC308600D0
:101A500000308700473FB400B41F2F2D302D522D8A
:101A60002100AC09AD09AE09AF09B009B109B2094D
:101A7000B309AC0A031D4F2DAD0A031D4F2DAE0A4D
:101A8000031D4F2DAF0A031D4F2DB00A031D4F2D0F
:101A9000B10A031D4F2DB20A031D4F2DB30A2100B9
:101AA000B601B60AA430860000308700473F210007
:101AB000B400B41F5C2D5D2D7C2D2100A409A50967
:101AC000A609A709A809A909AA09AB09A40A031D1F
:101AD0007C2DA50A031D7C2DA60A031D7C2DA70ABB
:101AE000031D7C2DA80A031D7C2DA90A031D7C2D36
:101AF000AA0A031D7C2DAB0A210024082504260414
:101B00002704280429042A042B040319882D892D6D
:101B1000DC2DB501B50A982DA435A50DA60DA70D90
:101B2000A80DA90DAA0DAB0D0130B4003408B507FE
:101B3000AB1F9B2D9C2D8C2D2B083302031DBA2D22
:101B40002A083202031DBA2D29083102031DBA2DBD
:101B500028083002031DBA2D27082F02031DBA2DB5
:101B600026082E02031DBA2D25082D02031DBA2DAD
:101B700024082C02031CBD2DBE2DCE2D2408AC0242
:101B80002508AD3B2608AE3B2708AF3B2808B03BF5
:101B90002908B13B2A08B23B2B08B33BAB36AA0C51
:101BA000A90CA80CA70CA60CA50CA40C0130B5021E
:101BB000031DDB2DDC2D9C2D36080319E02DE12DB6
:101BC000FF2DAC09AD09AE09AF09B009B109B209E1
:101BD000B309AC0A031DFF2DAD0A031DFF2DAE0A8C
:101BE000031DFF2DAF0A031DFF2DB00A031DFF2D9E
:101BF000B10A031DFF2DB20A031DFF2DB30A2100F8
:101C00002C08A4002D08A5002E08A6002F08A70068
:101C10003008A8003108A9003208AA003308AB0038
:101C200008002000DF004E0886004F088700403F74
:101C3000D200413FD30052088400530885001200AF
:101C4000253A031D242E252EDB2E4E0886004F0834
:101C500087000130810741310318810A2200A20167
:101C6000A301A601A701FF30A400FF30A5002000BA
:101C70004E0886004F088700403FD200413FD30006
:101C800052088400530885001200643A0319492E53
:101C90004A2E5C2E4E0886004F088700403FD20037
:101CA000413FD30052088400530885001200693A6E
:101CB000031D5B2E5C2EA32E4E0886004F08870066
:101CC0000130810741310318810A5008860051080C
:101CD00087000108D2000230810741310108D3009A
:101CE00000300318810A81075208860053088700D4
:101CF000403FD400413FD5005408D7005508D800D4
:101D0000890D893B8909D900DA00DB00DC00DD00A0
:101D1000DE005708B0005808B1005908B2005A0850
:101D2000B3005B08B4005C08B5005D08B6005E084F
:101D3000B7005F0883315F238E3120003108CF0068
:101D40003008CE00002F4E0886004F088700403F25
:101D5000D200413FD300520884005308850012008E
:101D6000253A031DB42EB52ECF2E4E0886004F08FF
:101D700087000130810741310318810A2530F200C4
:101D80000030F3005F08D2005208F400943122249E
:101D90008E3101302000CE000030CF00002F4E08E1
:101DA00086004F0887000130810741310318810AFE
:101DB000CE01CF01002F4E0886004F088700403F1C
:101DC000D200413FD3005208840053088500000828
:101DD000D400D5015408F2005508F3005F08D6007E
:101DE0005608F400943122248E3120004E088600DB
:101DF0004F0887000130810741310318810AC92E3D
:101E000008002200CF0021005D0886000130870015
:101E1000403FDF00413FE0005F088400600885002C
:101E20001200253A031D152F162FD82F5D088600A6
:101E3000013087000130810741310318810A2200F7
:101E4000A201A301A601A701FF30A400FF30A50055
:101E500021005D08860001308700403FDF00413FE0
:101E6000E0005F088400600885001200643A0319EE
:101E70003A2F3B2F4D2F5D08860001308700403FF1
:101E8000DF00413FE0005F08840060088500120029
:101E9000693A031D4C2F4D2F9E2F5D08860001309F
:101EA00087000130810741310318810A5E088600EE
:101EB000013087000108840001308500023081076D
:101EC000003FDF00013FE0005F082200C700210063
:101ED00060082200C800890D893B8909C900CA0031
:101EE000CB00CC00CD00CE0047082100BF0022006F
:101EF00048082100C000220049082100C10022003A
:101F00004A082100C20022004B082100C300220021
:101F10004C082100C40022004D082100C500220009
:101F20004E082100C60022004F088131EF218F3179
:101F300021004008DE003F08DD00FF2F5D0886001D
:101F400001308700403FDF00413FE0005F08840030
:101F5000600885001200253A031DAF2FB02FCC2F4B
:101F60005D08860001308700013081074131031888
:101F7000810A2530A6000030A70022004F0821006A
:101F8000DF005F08A8009431E3248F310130210085
:101F9000DD000030DE00FF2F5D0886000130870085
:101FA0000130810741310318810ADD01DE01FF2F75
:101FB0005D08860001308700403FDF00413FE000C0
:101FC0005F088400600885000008E100E201610804
:101FD000A6006208A70022004F082100E300630862
:101FE000A8009431E3248F3121005D088600013080
:101FF00087000130810741310318810AC62F08008C
:102000002100AB0100309031B12090312730210008
:10201000AB009930AC009031D92090312100AB0158
:10202000AB0A00309031B120903127302100AB0055
:102030009930AC009031D9209031080020008F01F8
:1020400021008F0120008F1705302100AB00DD300B
:10205000890B2828AB0B2828003232309F31BA2751
:10206000903128309F31BA2790310C309F31BA27F8
:10207000903101309F31BA27903106309F31BA2715
:1020800090310800FC007C089331E8239031003A3D
:1020900003194B284C2843287B08F1007A08F000EC
:1020A00079089C31D52490310030F500F600F70115
:1020B0009C31592490319A31B62290319D31F825C6
:1020C0009031013A0319652866285E28080021002E
:1020D000A7002708A5000430A536890B6C28250821
:1020E000A6002608A70027080F39A5002508A70085
:1020F00020000F08F0398F000F082100270420006E
:102100008F002100240C2000031C8F1203188F164F
:102110000F130F160F120800083023009F00903095
:102120009D0024309E0019309B009C01003021004E
:10213000A4000030A5009B315A23903100302100CB
:10214000A4000030A5009B316323903100302100B2
:10215000A4000030A5009B31512390312200BA0128
:1021600008002100AE0002302B020318B828B9285D
:10217000D82810302E02031CBE28BF28C028D8281B
:102180002B030319C428C528CB2880302E04AC00AB
:102190000030AD00D028C0302E04AC000030AD00BF
:1021A0002C089F31BA279031FA300032890BD5289C
:1021B00008002100B001F0282C08AE002B08AD006B
:1021C00030082D0784002E0803182E0A8500000809
:1021D0008731E027903101302100AD002D08B00794
:1021E0002C08AE002B08AD0030082D0784002E0807
:1021F00003182E0A85001200031DFF280029DC2881
:1022000008002000A000A201A30119292108FB0059
:10221000FC017B08F2007C08F3007A08FD007D08D1
:10222000F40094312224913101302000A2070030C3
:10223000A33D22082007FB007B08860002308700B0
:102240000108FC007C08A1002108031D2829292978
:10225000062908002100B1002100310894316124D1
:102260009131003A0319352936292C2921003008EB
:10227000A5002F08A4002E089D3130259131003093
:102280002100A900AA00AB019C319A249131883128
:10229000002091319F3155279131013A031951297D
:1022A00052294A2908002100B500B301B4016B2965
:1022B0003208AF00B0012F08A6003008A7002E0892
:1022C000B1003108A8009431E3249131013021009C
:1022D000B3070030B43D33083507AF002F08860040
:1022E000023087000108B0003008B2003208031D38
:1022F0007A297B295829080022005C08031D8129BE
:1023000082299229A4298A3156229131A2298A311F
:10231000E6229131A2298B3186239131A229AA018B
:10232000AB01A2292B08003A031997298F292A0803
:10233000003A03198329013A03198729033A03193B
:102340008B298F292200DC010800F4007008710439
:102350000319AB29AC29BF297435A03E8600013092
:1023600087007008C03F7108C13F7208F30074080D
:10237000AC3E86000130870073088100CE29743599
:10238000A03E860001308700E830C03F1A30C13FD0
:102390007408AC3E860001308700810108009A3144
:1023A0002822913123003C1CD629D729E4299A31CF
:1023B000D0229131003A0319DE29DF29E4290F30B8
:1023C000F30073082300BA0023003A08F300F40175
:1023D000F335F40D0030730784009830743D8500A8
:1023E000013F8A00003F0A009131F5007508230083
:1023F000BA0008002100A800240825040319012AB6
:10240000022A152A2835A03E8600013087002408BC
:10241000C03F2508C13F2608A7002808AC3E86001B
:102420000130870027088100242A2835A03E860035
:1024300001308700E830C03F1A30C13F2808AC3E69
:102440008600013087008101080023003C10023023
:10245000F0007008BB00342A9A3198229231512A38
:102460009A319D229231512A2E08F0007008F00016
:102470000430A03E860001308700413F8A00403F83
:102480000A009231F100F2017208003A0319492A58
:10249000302A7108023A03192C2A013A03192C2A0E
:1024A000302A08009A314322923123003C1C592AD9
:1024B0005A2A682A9A31FA229231003A0319612A7B
:1024C000622A682A0F302100A80028082300BA00D9
:1024D00023003A082100A800A901A835A90D003061
:1024E000280784009830293D8500013F8A00003F7D
:1024F0000A0092312100AA002A082300BA0008002D
:102500002300BC15902A9A3198229231AE2A9A3132
:10251000402292310330AE2A9A319D229231AE2A66
:102520002C08F0007008F00021088A0020080A003A
:102530009231F100F2017208003A0319A02A8C2AA4
:102540007108013A03198C2A033A0319832A013AC4
:102550000319832A073A0319872A8C2A08002000C6
:10256000E5006108E7006008E6002200A001A10183
:10257000CD2A6630CE000030CF006308D10062085B
:10258000D00065088E311126923120004E082200BD
:10259000A00720004F082200A13D2000660884000B
:1025A000670885001200031DD62AD72AB92A2200FF
:1025B00021082000E100220020082000E00008009F
:1025C0002200D000210065082200D200210064080A
:1025D0002200D100A001A101032B51302100E7000E
:1025E0006708DD006608E8006808DE002200500881
:1025F0008F310127923121005D082200A0072100C0
:102600005E082200A13D5108840052088500120096
:10261000031D0B2B0C2BED2A21082100E5002200C5
:1026200020082100E400080000302100AF00003045
:10263000AE000030AD000030AC00241C202B212B5C
:10264000292B2808AC072908AD3D2A08AE3D2B08E8
:10265000AF3D0130A835A90DAA0DAB0D890B2A2B72
:102660000130A736A60CA50CA40C890B312B27082A
:10267000260425042404031D3E2B3F2B1D2B2F086D
:10268000A7002E08A6002D08A5002C08A40008000D
:102690002000A100230048082000A50023004708CF
:1026A0002000A400230046082000A30023004508C2
:1026B0002000A200210803195E2B5F2B612BA401CF
:1026C000A40A7D080319652B662B682BA501A50AB2
:1026D0002230A0002008F9000430FA000030FB008E
:1026E000503090314220933107302000A0007D30DF
:1026F000890B782BA00B782B08007E1C812B923144
:10270000252A23003C1002302100A40024082300C5
:10271000BB00922B9B31B4239331B12B9B31BD2352
:102720009331B12B2E082100A4002408A40004300A
:10273000A03E860001308700413F8A00403F0A00EA
:1027400093312100A500A6012608003A0319A92B00
:102750008E2B2508023A03198A2B013A03198A2B7A
:102760008E2B08007E1CB62B9231802A2300BC15CC
:10277000C62B9B31B4239331E72B9A315B229331E3
:102780000330E72B9B31BD239331E72B2C0821002D
:10279000A4002408A400230021088A0020080A00BD
:1027A00093312100A500A6012608003A0319D92B70
:1027B000C22B2508013A0319C22B033A0319B92B7E
:1027C000013A0319B92B073A0319BD2BC22B080094
:1027D000F100F201F20A23003C19EF2BF02B202C20
:1027E0007108F0007008B600BC103C153C100E30AB
:1027F000F0007008BA00F430B4000130B500BC1528
:10280000E830A0001A30A100AC01E830A2001A3074
:10281000A300AD01E830A4001A30A500AE01E830F5
:10282000A6001A30A700AF01EE30A8001A30A900A8
:10283000B0019A31282293319C314C249331F2011A
:102840007208080074080319262C272C2C2C7408F5
:10285000031D2B2C2C2C312C72089A31DC22943144
:10286000602C7408033E86008701160001040319DA
:102870003A2C3B2C582C7408033E86008701403FBD
:10288000F500413FF600740A86008701403FF700DB
:10289000413FF8007808803AF9007608803A7902DA
:1028A000031D542C750877020318572C582C602CE4
:1028B000740A860087010130810741310318810ABB
:1028C00008002100A500A601A60A23003C19692CD6
:1028D0006A2C9F2C21002508A40024082300B600A0
:1028E000BC103C153C100E302100A400240823002D
:1028F000BA00F430B4000130B500BC15E830A000D7
:102900001A30A100AC01E830A2001A30A300AD01DA
:10291000E830A4001A30A500AE01E830A6001A3055
:10292000A700AF01EE30A8001A30A900B0019A311B
:10293000432294319C318D2494312100A601210041
:10294000260808002100B800B401B501B430B30076
:102950003308AE000230AF000030B000503091318B
:102960002A219431B6302100B3003308AE00023082
:10297000AF000030B00050309F31762794312100F5
:102980003608031DC42CC52CCB2C3808860001301A
:1029900087008101D12C3808860001308700810131
:1029A000810A3708031DD52CD62CDC2C3208860072
:1029B000013087008101E22C320886000130870057
:1029C0008101810A0800210028080319E82CE92C5C
:1029D000EE2C2808031DED2CEE2CF32C26089B3141
:1029E0001A239431232D2808033E86008701160000
:1029F00001040319FC2CFD2C1A2D2808033E860027
:102A00008701403FA900413FAA00280A86008701AC
:102A1000403FAB00413FAC002C08803AAD002A0893
:102A2000803A2D02031D162D29082B020318192D9B
:102A30001A2D232D2100280A8600870101308107E5
:102A400041310318810A0800220035080319292D95
:102A50002A2D2B2D692D9A317A22953105309A3104
:102A60007F229531E530F0001C30F1009A31CA2206
:102A7000953122002A032B04031D3F2D402D4E2D9E
:102A8000023021006A066B04031D472D482D4E2D90
:102A90002200360803194D2D4E2D542DFF302100F4
:102AA000EA07FF30EB3D5F2D37080319582D592DEC
:102AB0005F2DFE302100EA07FF30EB3D5F2D210046
:102AC000EB1F632D642D662DEA01EB012200DC0172
:102AD000DC0A08009A313D229531F00023003708C6
:102AE00086008701700881000130F0007008B70788
:102AF0000130B8020030B93B380839040319812D80
:102B0000822D872D9A31622295310530AF2DBC156B
:102B1000912D9A31AC229531AF2D9A31A722953162
:102B2000AF2D2C08F0007008F00021088A00200862
:102B30000A009531F100F2017208003A0319A12D43
:102B40008D2D7108013A03198D2D033A0319892D32
:102B5000013A0319892D073A03198D2D8D2D08008F
:102B60007E1CB42D95316A2D9A3158229531210061
:102B7000A400230037088600870121002408810073
:102B80000130A40024082300B7070130B802003048
:102B9000B93B380839040319CE2DCF2DD42D9A31E5
:102BA0006E2295310530FF2DBC15DE2D9B31D823CB
:102BB0009531FF2D9B31CF239531FF2D2C0821001E
:102BC000A4002408A400230021088A0020080A0089
:102BD00095312100A500A6012608003A0319F12D20
:102BE000DA2D2508013A0319DA2D033A0319D62DF7
:102BF000013A0319D62D073A0319DA2DDA2D080008
:102C0000210061086204031D062E072E0E2E0030DF
:102C1000A400A5009D3190259631502E6208C00079
:102C20006108BF000030C4000030C3000030C200A3
:102C30000A30C1000030C8000030C7000330C600B1
:102C4000E830C5000030CC000030CB000030CA00B6
:102C50000030C9000030D0000030CF000030CE007E
:102C6000FF30CD0088316220963121004008E50018
:102C70003F08E400FF30E300640863022200AC0078
:102C8000210065090318890A2200AD002D082100E2
:102C9000A50022002C082100A4009D31902596312A
:102CA0000800220035080319562E572E582EA22E42
:102CB0009A317A22963105309A317F229631E53069
:102CC000F0001C30F1009A31CA2296310130210007
:102CD000EA070030EB3D22002A082B04031D712E69
:102CE000722E852E21006B08803AF200803072022D
:102CF000031D7C2E05306A02031C7F2E802E852E3C
:102D000004302100EA000030EB0022002A032B04EB
:102D1000031D8B2E8C2E9F2E21006B08803AF20013
:102D200080307202031D962E03306A02031C992E16
:102D30009A2E9F2E02302100EA000030EB00220084
:102D4000DC01DC0A08002100A6002608023E8600FD
:102D5000013087005130C03F1630C13F2608043E85
:102D60008600013087002430C03F1530C13F26085F
:102D7000063E860001308700CF30C03F0430C13F9F
:102D80002608083E8600013087007C30C03F1130A5
:102D9000C13F26080A3E8600013087005630C03FFA
:102DA0000A30C13F26080E3E860001308700E6301B
:102DB000C03F0A30C13F2608103E86000130870020
:102DC0007230C03F1A30C13F2408860002308700AD
:102DD0000108A50025082200B7002100240886006C
:102DE000023087000230413F2200B60008009A31CD
:102DF000D0229631003A0319FE2EFF2E302F0C2FD1
:102E00009A318E2296314D2F9A31932296314D2F41
:102E10009A319D2296314D2F23002F08F000700823
:102E2000F0000630A03E860001308700413F8A0056
:102E3000403F0A009731F100F2017208003A03198D
:102E4000222F082F7108013A0319082F033A03199A
:102E5000002F013A0319042F073A0319082F082FEE
:102E600023003C101730A03E860001308700403F11
:102E700084008501810A00089A318422963101304C
:102E80002300B8020030B93B38083904031D492F2C
:102E90004A2F4C2F06304D2F033008002000AC0085
:102EA0002200261C542F552F5E2F20002C08A7002F
:102EB0002708FA0024089131012197312000A61B30
:102EC000622F632F682F2608AB002508AA006A2FFF
:102ED000AA01AB01A801A9017E2F2030F200003029
:102EE000F30020002C08A7002708F40094312224C6
:102EF000973101302000A8070030A93D2908803A09
:102F0000A7002B08803A2702031D882F2A082802D1
:102F1000031C8B2F8C2F6D2F22002618902F912FA2
:102F20009A2F20002C08A7002708FA0024089131C6
:102F300001219731200024089D31C32597312000BD
:102F40002A087007A4002B08713DA5000800210085
:102F5000BE002200261CAD2FAE2FB72F21003E0849
:102F6000B9003908AE00360891315321973121005C
:102F7000B81BBB2FBC2FC12F3808BD003708BC00C1
:102F8000C32FBC01BD01BA01BB01D72F20302100E6
:102F9000A6000030A7003E08B9003908A800943107
:102FA000E324973101302100BA070030BB3D3B08D4
:102FB000803AB9003D08803A3902031DE12F3C08F0
:102FC0003A02031CE42FE52FC62F22002618E92F12
:102FD000EA2FF32F21003E08B9003908AE00360869
:102FE000913153219731210036089D31DD259731EC
:102FF00021003C082407B6003D08253DB700080025
:1030000099341B3473341C3427341C34053408348D
:10301000B03415341C341C34B2341334A2341B3491
:10302000AB341B34B4341B34BD341B34C6341B34B2
:10303000CF341B34D8341B34E1341B347D34133487
:10304000533465346E3473346F34723420346434E2
:10305000653420346C3475347A34203463347234FB
:10306000753464346F343A342034253464340D3488
:103070000A340034413470346134673461346E345E
:1030800064346F34203465346E3420342534643431
:10309000203473346534673475346E3464346F347B
:1030A00073340034533465346E3473346F34723493
:1030B0002034643465342034743465346D347034B1
:1030C0003A34203425346434203443340D340A3403
:1030D000003420342034443465347334683461342B
:1030E000623469346C3469347434613464346F34F8
:1030F0002034203420342034003420342034203450
:10310000643465342034413470346134673461345C
:1031100064346F342034203420340034203420349C
:10312000203448346134623469346C346934743422
:10313000613464346F34203420342034003420343B
:1031400020342034203445346E34633465346E3496
:103150006434693464346F342034203420340034CF
:103160003C34203420342034203420342034313492
:1031700030342034203420342034203420343E3481
:1031800000343C34203420342034203420342034A3
:103190003134353420342034203420342034203469
:1031A0003E3400343C3420342034203448346F34EE
:1031B0007234613420346434653420342034203453
:1031C00020343E340034203420342034203453342E
:1031D00065346E3473346F34723465347334203430
:1031E000203420343E3400343C34203420345434F1
:1031F00065346D34703465347234613474347534CC
:103200007234613420343E3400343C342034203471
:103210004C3475346D3469346E346F3473346934BE
:1032200064346134643420343E3400343C3420341B
:10323000543465346D3470346F34723469347A3494
:10324000613464346F34723420343E3400342034BA
:1032500020342034203420342034203420342034CE
:1032600020342034203420342034203420340034DE
:103270005034493443342034613470346134673419
:10328000613464346F342E342E342E340D340A34C9
:1032900000343C3420342034203420342034203492
:1032A000323430342034203420342034203420345C
:1032B00000343C34203420342034523465346734B4
:1032C00072346534733461347234203420342034E1
:1032D0000034203420342034203420346D346934D8
:1032E0006E34753474346F347334203420342034A5
:1032F0000034413470346134673461346E34643482
:103300006F342E342E342E3420340D340A340034ED
:103310002034203420342034413470346134673414
:10332000613464346F342034203420340034203449
:1033300020342034203420342034353420342034D8
:1033400020342034203420343E3400343C342034C3
:103350002034203448346F3472346134203464347F
:10336000653420340034543465346D34703465343D
:1033700072346134743475347234653400344234D8
:10338000693465346E34763465346E34693464344B
:103390006F34213400344C34693467346834743405
:0233A0000034F7
:10344400080008000800080001300800200091115D
:10345400080024009512080021009111080024009E
:1034640016140800240096140800240016150800F9
:103474002400961508002400110808002000911566
:103484000800200091110800240095120800210072
:103494009111080024001614080024009614080052
:1034A40024001615080024009615080024001108AD
:1034B400080020009115080024009616161608002E
:1034C40024009612161608001630210097000800F2
:1034D40024009616161608002400961216160800E4
:1034E400903100209A310800013401340134013450
:1034F40020009110210091140800F00070082000B1
:103504009B000800F00070082400910008002300CC
:10351400BC10BB010E3008009A3134229A310130BC
:1035240008009A3134229A31023008009A31342248
:103534009A31013008009A3137229A31003008005C
:103544009A3162229A31053008009A315E229A310A
:103554000A3008009A315E229A31093008002300AB
:10356400BC10BB010E30080000309E31F9269A31A0
:1035740008002000911021009110080020009110F3
:1035840021009110080001309F31DD279A31080095
:1035940071082300E5007008E40008002400160EFA
:1035A400890C890C013908002000911DDA2ADB2AD4
:1035B400D62A0800F10071089B31FD239A310800D6
:1035C400200091109C3166249A3108007E1CEC2A5C
:1035D4009A31262A013008007E1CF22A8031022802
:1035E400053008002100A4002408240091000800EC
:1035F4002400160E890C890C013908002000911D45
:10360400042B052B002B0800640080010131890B79
:10361400072B003423003C109A313A229B310430AA
:1036240008005830210099009801220096010800F2
:103634002100A50025089C3133249B31080021007A
:10364400A40101309D315F259B3108002100A401B4
:1036540000309D315F259B31080023003C14363532
:103664009A3184229B31033008002100A401A40A6A
:1036740000309D315F259B31080023003C14031466
:10368400360D9A3184229B310530080086302100A2
:103694009E009F019B019C0101309D0008002100B8
:1036A40025082400D700210024082400D60008009F
:1036B400210025082300E900210024082300E80054
:1036C4000800210025082300E70021002408230026
:1036D400E600080024009401083095009601F930B2
:1036E400920095120800210025082300EF00210014
:1036F40024082300EE000800210025082300ED0023
:10370400210024082300EC000800210025082300E0
:10371400EB00210024082300EA000800210025080A
:103724002300E500210024082300E40008007E1C97
:103734009D2B9A31892A2300BC10BB010E3008004E
:103744007E1CA62B9A318E2A9A314F229B3101304E
:1037540008007E1CAF2B9A31932A9A314F229B3159
:10376400023008007E1CB82B9A31982A9A314F22D5
:103774009B31013008007E1CC12B9A319D2A9A315D
:1037840052229B31003008007E1CCA2B9A31A22A97
:103794009A316E229B31053008007E1CD32B9A315E
:1037A400A72A9A316A229B310A3008007E1CDC2B3E
:1037B4009A31AC2A9A316A229B31093008007E1C66
:1037C400E52B9A31B12A2300BC10BB010E3008004E
:1037D400FF302100A4000030A5009D3190259B31CD
:1037E40008002200AA01AB012100EA01EB0122003A
:1037F400DC01DC0A0800F0002000111E022C032C5E
:10380400FE2B700823009A00080040302800960020
:10381400950120009210073028009700080080309E
:103824002C0099009801970125001E08CF39103803
:103834009E0008007E1C202C9B310C2B23003C1086
:103844009A3155229C31043008007E1C2B2C9B316C
:103854002F2B23003C1436359A31F4229C3103304B
:1038640008002100A4002000111E392C3A2C352C0C
:103874002100240823009A000800462C9A31D622FD
:103884009C319131CF219C312300BC184A2C4B2C04
:10389400402C08002400951A502C512C582C9401CB
:1038A400083095009601F9309200951608007608C4
:1038B400F1007508F0007708F8007808F20002308B
:1038C4009131A5219C310800230064086504031983
:1038D4006C2C6D2C722C65088A0064080A009C31DB
:1038E40008007E1C772C9B313F2B23003C140314CF
:1038F400360D9A31F4229C3105300800872C9B3117
:1039040000239C31923152229C312300BC188B2C11
:103914008C2C812C08002400951A912C922C992C23
:103924009401083095009601F9309200951608002C
:1039340021002A08A5002908A4002B08AC002C08A3
:10394400A60002309131FA219C31080023006E0850
:103954006F040319AE2CAF2CB42C6F088A006E08C8
:103964000A009C3127009312080023006C086D04A0
:103974000319BD2CBE2CC32C6D088A006C080A00E8
:103984009C3127001313080023006A086B040319F1
:10399400CC2CCD2CD22C6B088A006A080A009C31EE
:1039A400270093130800F3002300BC1DDA2CDB2C42
:1039B400E42C7308F2007208B7007108B9007008AB
:1039C400B800BC1108001430F0001E30F1009A3128
:1039D400CA229C31E7309A317F229C319A31BB2232
:1039E4009C312200B50108006A302000EE0000304E
:1039F400EF006908E1006808E0006E30E200003082
:103A0400E30000309231AF229C310800F3302000F3
:103A14009B009A019110210091142530A4001A30C2
:103A2400A5009B3190239D317F3020009C0008002D
:103A340055302100E90069082200D900540821000A
:103A4400E500220053082100E4005930E900690828
:103A5400E60000309231E0229D3108002100A700E9
:103A64002300BC1D362D372D462D21002708A60026
:103A740026082300B700210025082300B9002100EF
:103A840024082300B800BC1108002100A70027085F
:103A9400A600A60DA60D1D082606833926069D0040
:103AA4001D14000021009D149D18592D5A2D562DCA
:103AB4001C08A5001B08A40008002100A500250877
:103AC4000319652D662D692D22008D146B2D22009E
:103AD4008D10210024080319702D712D742D2200DE
:103AE4000D15762D22000D1108002700931E7B2D45
:103AF4007C2D7F2D9C31A8249D312700131F832DFD
:103B0400842D872D9C31B7249D312700931F8B2D45
:103B14008C2D8F2D9C31C6249D3108002100250851
:103B2400A7002408A600A736A60CA736A60C2608CC
:103B34002C009800210024080339A6000530A6357E
:103B4400FF3E031DA12D26352C00970008007408A4
:103B5400803AF50080307502031DB22D01307302E6
:103B64000318B52DB62DC22D7309F5007409F6009E
:103B7400F50A0319F60A7508F3007608F400C22D55
:103B84000800F4007408F2007208F300CD2D01302F
:103B9400F2007208F40774088600023087000108F6
:103BA400031DD52DD62DC92D73087402F000F10123
:103BB400F01BF10308002100A8002808A60026082D
:103BC400A700E82D0130A6002608A80728088600CB
:103BD400023087000108031DF02DF12DE42D270884
:103BE4002802A400A501A41BA5030800F101F10A01
:103BF4002300BC18FE2DFF2D122E3C11FF30F000C7
:103C04007008B6009A3128229D319A312E229D31B6
:103C14009A312B229D3123003B08F0007008F100FB
:103C24007108080001302100A00020082200B40718
:103C340032083402031C1F2E202E2F2E7930200030
:103C4400E8009930E9009C31F6249E319A31BB2278
:103C54009E312200B401B201DB0108009B316C23C8
:103C64009E318831C9209E319B3113239E319A3174
:103C740066229E319B3148239E319C3107249E311C
:103C84009C3111249E319D3108259E3190318C2028
:103C94009E31080021003808803AB900803039028A
:103CA400031D562E013037020318592E5A2E672E43
:103CB40021003709B9003809BA00B90A0319BA0A48
:103CC4003908B7003A08B800672E08002100A4009C
:103CD40024088600013087000030C03F1630C13F01
:103CE4002408023E8600013087003C30C03F093082
:103CF400C13F2408043E860001308700EA30C03FFB
:103D04001B30C13F08002100A400240886000130B4
:103D14008700CB30C03F9930C13F2408023E860063
:103D2400013087003630C03F1F30C13F2408043EB5
:103D3400860001308700DC30C03F1E30C13F0800E0
:103D44002100A4002408860001308700B330C03F5E
:103D54009930C13F2408023E8600013087001730A5
:103D6400C03F1F30C13F2408043E86000130870055
:103D7400BF30C03F1E30C13F08002200380803197D
:103D8400C42EC52ED82E5E080319C92ECA2ED82ECD
:103D940000309D3147259E3121002508AB002408C1
:103DA400AA002B08A9002A08A800DB2E2100A801DC
:103DB400A9010800220039080319E12EE22EF52E8C
:103DC4005D080319E62EE72EF52E01309D314725B7
:103DD4009E3121002508AB002408AA002B08A90065
:103DE4002A08A800F82E2100A801A9010800F7005C
:103DF400F801F80A2300BC18002F012F152FBC145A
:103E0400F80177080319072F082F0B2FBA01BA0AF4
:103E14000F2F0230F6007608BA009A3131229E3113
:103E24009C313F249E317808080000309D3147259D
:103E34009F3121002508AB002408AA002B08803AF2
:103E4400A80080302802031D292F01302A020318FC
:103E54002C2F2E2F01302F2F00302100A9002908EC
:103E64002200B8003808080001309D3147259F31F1
:103E740021002508AB002408AA002B08803AA800DA
:103E840080302802031D482F01302A0203184B2FCB
:103E94004D2F01304E2F00302100A90029082200A7
:103EA400B900390808002100A501A50A2300BC189F
:103EB4005C2F5D2F732F3C11FF302100A4002408D8
:103EC4002300B6009A3143229F319A3149229F310F
:103ED4009A3146229F3123003B082100A400240884
:103EE400A5002100250808002100B10021003108A7
:103EF400943161249F31003A0319812F822F782F46
:103F040021003008A5002F08A4002E089D3130257B
:103F14009F319A31C5229F319F3155279F31013AF4
:103F24000319952F962F8E2F08003A302000E800B1
:103F34009830E900210021082000EB00210020082E
:103F44002000EA009C31F6249F3121002008A200C1
:103F540022082200B200F4302100A2008030890B34
:103F6400B12FA20BB12F00009A317A229F310800A1
:103F74002100AA00FA300032890BBD2F2100A401D0
:103F84002A08903167209F3121002A08A8000330B5
:103F9400A835FF3E031DCA2F2835A9002908AA0009
:103FA4005330890BD32F00002100A4012A0890313B
:103FB40067209F3108002100AC00AD01AD0A230049
:103FC400BC18E52FE62FFD2FBC142100AD012C08F1
:103FD4000319ED2FEE2FF22F2300BA01BA0AF72F9F
:103FE4000230AB002B082300BA009A314C229F31D7
:0C3FF4009C3180249F3121002D08080022
:020000040001F9
:04000E00E43FFF3E8E
:00000001FF
