:020000040000FA
:10000000803102288731EB2FF800F401F5017008E8
:10001000F200F3017208F6007308F700781C11284B
:10002000122816287608F4077708F53D0130F635D2
:10003000F70D890B17280310F80C7808031D2128E9
:1000400022280E287508F1007408F000080091318C
:10005000DE21803128309231422280312E3092319F
:100060005E228031343092312622803122003508E0
:100070008A0034080A0080310230343E86000130A4
:100080008700413F8A00403F0A0080310430343EFF
:10009000860001308700413F8A00403F0A008031DE
:1000A0000230283E860001308700413F8A00403FF1
:1000B0000A00803121005C082200A30021005B08B7
:1000C0002200A20021005A082200A10021005908A4
:1000D0002200A00002302E3E860001308700413F02
:1000E0008A00403F0A00803121005C082200A700FE
:1000F00021005B082200A60021005A082200A5006A
:10010000210059082200A4003B302000E50098306F
:10011000E600220023082000EA0022002208200036
:10012000E900220021082000E80022002008200029
:10013000E7009131A821803100302000E50098309F
:10014000E600220027082000EA00220026082000FE
:10015000E900220025082000E800220024082000F1
:10016000E7009131A82180315028803102282100F8
:10017000BE00BA01BB01200044082100D0002000CD
:1001800043082100CF00200042082100CE002000BB
:1001900041082100CD0050082000B80021004F0880
:1001A0002000B70021004E082000B60021004D08B5
:1001B0002000B5000030BC000030BB000030BA00A9
:1001C0000030B90096318A2680310318E828E928E2
:1001D000022901302100BA000030BB005008F300B2
:1001E0004F08F2004E08F1004D08F00091319D21BA
:1001F000803173082100D0007208CF007108CE0052
:100200007008CD002100D301D4016808C000670840
:10021000BF003A083B04031D0E290F2913296B1D4B
:100220001229132931293A083B04031D18291929D9
:100230001E292B30A0000030A10022292D30A00063
:100240000030A10020082000C60046082300A000BE
:1002500001302100D3070030D43DFF30BF07FF300D
:10026000C03D5008F3004F08F2004E08F1004D0861
:10027000F00096310B26803170037104031D412973
:100280004229942920004508BF3EC600FF300318CC
:100290000030C700003047021A3003194602031C21
:1002A00052295429013055290030C800C901480895
:1002B0002100A200200049082100A30022082304F5
:1002C0000319632964296E290430F0009930F10084
:1002D0005308A03E92319A22803177290C30F000E9
:1002E0009930F1005308A03E92319A228031FD30BE
:1002F0002100BF07FF30C03DA0302000C6004608E7
:10030000A400210040082000A60021003F08200092
:10031000A50021003E089431DF248031200025080B
:10032000C2002408C100EA2F21005008F3004F0842
:10033000F2004E08F1004D08F00096310B26803196
:1003400070087104031DA529A629F8292000450875
:10035000BF3EC600FF3003180030C7000030470220
:100360001A3003194602031CB629B8290130B929ED
:100370000030C800C90148082100A4002000490835
:100380002100A500240825040319C729C829D2295A
:100390000830F0009930F1005308A03E92319A22C3
:1003A0008031DB291030F0009930F1005308A03E75
:1003B00092319A228031FD302100BF07FF30C03DCD
:1003C000A0302000C6004608A400210040082000FC
:1003D000A60021003F082000A50021003E0894311E
:1003E000DF24803120002508C2002408C100EA2F44
:1003F0003F302100D8008030D7000030D6000030D8
:10040000D500D101D2015008F3004F08F2004E0888
:10041000F1004D08F0000030F7000030F600003029
:10042000F5000030F4009331E62380310318192AD7
:100430001A2ACF2A4B2A41302000A3002030A200E4
:100440000030A1000030A000210058082000A700C3
:10045000210057082000A600210056082000A50012
:10046000210055082000A4008D31A92580312000ED
:1004700023082100D800200022082100D7002000F6
:1004800021082100D600200020082100D5000130DD
:10049000D1070030D23D210050082000B8002100D3
:1004A0004F082000B70021004E082000B6002100B0
:1004B0004D082000B5004130A3002030A2000030DC
:1004C000A1000030A000210058082000A700210052
:1004D00057082000A600210056082000A500210092
:1004E00055082000A4008D31A92580312000230863
:1004F000BC002208BB002108BA002008B9009631D0
:100500008A2680310318852A862A1B2AA82A413088
:10051000F3002030F2000030F1000030F000210044
:100520005808F7005708F6005608F5005508F4007B
:100530008931B621803173082100D8007208D700B4
:100540007108D6007008D500FF30D107FF30D23DCA
:10055000210050082000B80021004F082000B700FB
:1005600021004E082000B60021004D082000B500F3
:10057000210058082000BC00210057082000BB00C3
:10058000210056082000BA00210055082000B900BB
:1005900096318A268031031CCE2ACF2A872A200052
:1005A0004508C600C7014608F6004708F700923123
:1005B000DD22803176082000C80048082100C200F2
:1005C00042082000C60046082100C10067304206EC
:1005D000031DEB2AEC2A112B69086A04031DF12A7A
:1005E000F22AF62A0130E9000030EA006A08803A6F
:1005F0002000C60080304602031D012B013021007F
:1006000069020318042B052B0B2B06302100BC00BC
:100610000030BD00162B21006A08BD006908BC002F
:10062000162BEA1B142B152B052B0B2B67304206C0
:10063000031D1B2B1C2B542B5208803A2000C60094
:100640007F304602031D272BFC3021005102031C82
:100650002A2B2B2B4E2B21003C08FF3E2000C600EE
:10066000FF3021003D3D2000C7004708803AC80008
:1006700021005208803A20004802031D432B21002C
:10068000510820004602031C462B472B4E2B663098
:100690002000C60046082100C100542B6530200010
:1006A000C60046082100C1003D08B3003C08B20066
:1006B00067304206031D5D2B5E2B682B66304106BA
:1006C000031D632B642B6C2BD21F672B682B6C2BA9
:1006D0000130B2070030B33D66304106031D712B77
:1006E000722B8A2BD21F752B762B802B3F30D80094
:1006F0008030D7000030D6000030D500D101D201C3
:10070000673042060319852B862B8A2B5108B207C6
:100710005208B33DCB01CC015008C6004F08C500BC
:100720004E08C4004D08C3005808B7005708B6006B
:100730005608B5005508B4004B2C21005808F300AA
:100740005708F2005608F1005508F0004608F70077
:100750004508F6004408F5004308F4008931B62145
:10076000803173082000B0007208AF007108AE003D
:100770007008AD0097311527803120003008210026
:10078000CA0020002F082100C90020002E082100E7
:10079000C80020002D082100C7004A08F3004908BE
:1007A000F2004808F1004708F000953197258031A4
:1007B00071082100B9007008B8004A082000A7009D
:1007C000210049082000A600210048082000A500BB
:1007D000210047082000A400210058082000A300A1
:1007E000210057082000A200210056082000A10087
:1007F000210055082000A0008D31A925803120005E
:100800002308B8002208B7002108B6002008B50068
:10081000210046082000BC00210045082000BB0044
:10082000210044082000BA00210043082000B9003C
:1008300092317A228031200038082100C600200041
:1008400037082100C500200036082100C400200020
:1008500035082100C3004130F3002030F2000030A1
:10086000F1000030F0005808F7005708F60056086D
:10087000F5005508F4008931B62180317308210054
:10088000D8007208D7007108D6007008D500013072
:10089000CB070030CC3D4C08803A2000C600210038
:1008A0003308803A20004602031D592C21003208EB
:1008B0004B02031C5C2C5D2C9D2B40302000A300C0
:1008C000A030A2000030A1000030A0002100580894
:1008D0002000A700210057082000A600210056088C
:1008E0002000A500210055082000A4008D31A92575
:1008F0008031200023082100CA00200022082100A6
:10090000C900200021082100C80020002008210083
:10091000C70046082000B800210045082000B700A5
:10092000210044082000B600210043082000B50043
:1009300021004A082000BC00210049082000BB001B
:10094000210048082000BA00210047082000B90013
:1009500096318A2680310318AE2CAF2CB92C00308A
:100960002100CA000030C9000030C8000030C700B4
:10097000DE2C21004608F3004508F2004408F1008F
:100980004308F0004A08F7004908F6004808F50057
:100990004708F4009331E6238031031CD02CD12C7E
:1009A000DE2C21003818D52CD62CDE2C0030CA00C5
:1009B0000030C9000030C8000030C70021004A08DC
:1009C000F3004908F2004808F1004708F000500819
:1009D000F7004F08F6004E08F5004D08F4008B3183
:1009E0006A23803173082100C6007208C5007108AF
:1009F000C4007008C30046082000B8002100450864
:100A00002000B700210044082000B6002100430860
:100A10002000B5004130A3002030A2000030A1002A
:100A20000030A000210037082000A7002100360870
:100A30002000A600210035082000A5002100340870
:100A40002000A4008D31A925803120002308BC009E
:100A50002208BB002108BA002008B90096318A2676
:100A60008031031C342D352D702D01302100D1072C
:100A70000030D23D41302000A3002030A2000030E1
:100A8000A1000030A000210037082000A7002100AD
:100A900036082000A600210035082000A50021000E
:100AA00034082000A4008D31A925803120002308BE
:100AB0002100B700200022082100B60020002108F4
:100AC0002100B500200020082100B4006630410656
:100AD000031D6B2D6C2D702D0130B2070030B33D1E
:100AE00021003708D8003608D7003508D60034086A
:100AF000D5006530410603197E2D7F2D842D5208C7
:100B0000B1005108B000862DB001B101AE01AF01B6
:100B1000AC01AD01CB01CC01B12E21005808F3008E
:100B20005708F2005608F1005508F0004608F70093
:100B30004508F6004408F5004308F4008931B62161
:100B4000803173082000B0007208AF007108AE0059
:100B50007008AD0097311527803120003008210042
:100B6000CA0020002F082100C90020002E08210003
:100B7000C80020002D082100C7004A08F3004908DA
:100B8000F2004808F1004708F000953197258031C0
:100B900071082100B9007008B8006B1AD02DD12D52
:100BA000E62D38083904031DD62DD72DE62D6730E4
:100BB0004206031DDC2DDD2DE62DB11FE02DE12DBC
:100BC000E62D0130AC070030AD3D3F2E2E082F043E
:100BD000031DEB2DEC2D232EB11FEF2DF02D232E19
:100BE0002E302000C60021005308A03E86000130B0
:100BF000870020004608810001302100D307003023
:100C0000D43DFF30BF07FF30C03D0130AE000030A3
:100C1000AF00232E30302000C60021005308A03E34
:100C20008600013087002000460881000130210045
:100C3000D3070030D43DFF30BF07FF30C03DFF3049
:100C4000AC07FF30AD3D2C082D04031D282E292EA6
:100C50000A2E3808303E2000C60021005308A03E6E
:100C60008600013087002000460881000130210005
:100C7000D3070030D43DFF30BF07FF30C03D4A08E6
:100C80002000A700210049082000A60021004808F4
:100C90002000A500210047082000A40021005808DA
:100CA0002000A300210057082000A20021005608C0
:100CB0002000A100210055082000A0008D31A925A9
:100CC000803120002308B8002208B7002108B600B0
:100CD0002008B500210046082000BC00210045087E
:100CE0002000BB00210044082000BA002100430876
:100CF0002000B90092317A2280312000380821008A
:100D0000C600200037082100C50020003608210059
:100D1000C400200035082100C3004130F30020301A
:100D2000F2000030F1000030F0005808F7005708DA
:100D3000F6005608F5005508F4008931B6218031D7
:100D400073082100D8007208D7007108D600700817
:100D5000D500FF30B007FF30B13D0130CB07003088
:100D6000CC3D4C08803A2000C60021003308803A70
:100D700020004602031DBF2E210032084B0203183B
:100D8000C22EC32ED32E21005408803A2000C60064
:100D900080304602031DCF2E4B3021005302031C2E
:100DA000D22ED32E8D2D21002E082F04031DD92ED7
:100DB000DA2EEF2E6B1EDD2EDE2EEF2E2E302000D3
:100DC000C60021005308A03E8600013087002000A5
:100DD0004608810001302100D3070030D43D53087C
:100DE000A03E860001308700810165304106031D69
:100DF000FA2EFB2ED32F4F30CB000030CC004B0807
:100E0000A03E8600013087008101BA01BB01D21FDC
:100E10000A2F0B2F142F0130BA000030BB00D1096C
:100E2000D209D10A0319D20A0230BC000030BD0039
:100E30004F2FFF302100CB07FF30CC3D0A30F000B0
:100E40000030F1005208F3005108F20094313424CC
:100E500080317008303E2000C60021004B08A03EC3
:100E60008600013087002000460881000A30F0002B
:100E70000030F10021005208F3005108F2009531D2
:100E80003825803171082100D2007008D100FF3070
:100E9000BC07FF30BD3DFF30BF07FF30C03D5108EC
:100EA0005204031D542F552F192F3D08803A20005E
:100EB000C60080304602031D602F013021003C0235
:100EC0000318632F642F192FFF302100CB07FF3049
:100ED000CC3D3A083B04031D6E2F6F2F742F2B302F
:100EE000A6000030A700782F2D30A6000030A70004
:100EF00026082000C60021004B08A03E86000130D5
:100F00008700200046088100FF302100BF07FF3026
:100F1000C03DFF30CB07FF30CC3D20004508BF3E31
:100F2000C600FF3003180030C700003047021A30F7
:100F300003194602031C9D2F9F2F0130A02F003064
:100F4000C800C90148082100AA0020004908210062
:100F5000AB002A082B04031DAE2FAF2FB42F653032
:100F6000A8000030A900B82F4530A8000030A90023
:100F700028082000C60021004B08A03E8600013052
:100F80008700200046088100FF302100BF07FF30A6
:100F9000C03D4B08A03EF0000130F1005308A03ED8
:100FA00092319A228031A0302000C6004608A40069
:100FB000210040082000A60021003F082000A500D5
:100FC00021003E089431DF24803120002508C20032
:100FD0002408C10008002000EF01DD30840000304B
:100FE00085001030913154218731A03084000130C8
:100FF00085005030913154218731200080312728DD
:10100000FB302000E5009830E6009131A8218831BE
:1010100008002000DC004A0886008701403FCC0021
:10102000413FCD004C0884004D0885001200253A50
:10103000031D1B281C2892294A08860087010130BD
:10104000810741310318810A2100E701E801EB0122
:10105000EC01FF30E900FF30EA0020004A0886007A
:101060008701403FCC00413FCD004C0884004D0833
:1010700085000008CE00CF014E08F6004F08F700AB
:101080009231DD22883176082000D0005008D80047
:10109000580803194C284D288C284A0886008701D7
:1010A000403FCC00413FCD0001304C0784004D084B
:1010B00003184D0A85000008CE00CF014E08F60047
:1010C0004F08F7009231DD22883176082000D000E9
:1010D0005008D900590803196E286F288C284A082F
:1010E00086008701403FCC00413FCD0002304C07D5
:1010F00084004D0803184D0A85000008CE00CF017A
:101100004E08F6004F08F7009231DD22883176084C
:101110002000D0005008DA0066305806031D9128E0
:101120009228CF284A0886008701403FCC00413FE3
:10113000CD004C0884004D0885000008CE004E0804
:10114000DB004A088600870101308107413103181E
:10115000810A4B088600870101088400850104305C
:101160008107003FD400013FD500023FD600033F76
:10117000D7005708C4005608C3005508C2005408D9
:10118000C1005B08CC004C08C5005C088031B7206A
:10119000883120004208CB004108CA00B52914302C
:1011A000F0009930F1000230F2000030F3005830C6
:1011B00094318724883170087104031DE028E128E8
:1011C0005C2920004A0886008701403FCC00413F4F
:1011D000CD0001304C0784004D0803184D0A8500EE
:1011E0000008CE004E08DB004A0886008701403F19
:1011F000CC00413FCD004C0884004D08850000081C
:10120000BF3ECE00FF3003180030CF0000304F0249
:101210001A3003194E02031C0E291029013011291E
:101220000030D000D1015008D2005108D30052083C
:10123000530403191C291D292E294B0886008701F8
:1012400001088400850104308107003FD400013F7C
:10125000D500023FD600033FD7003E294B08860049
:10126000870101088400850104308107003FD40014
:10127000013FD500023FD600033FD7004A08860051
:1012800087010230810741310318810A5708C400E1
:101290005608C3005508C2005408C1005B08CC00C2
:1012A0004C08C5005C088031B72088312000420816
:1012B000CB004108CA00B52920004A0886008701F2
:1012C000403FCC00413FCD004C0884004D088500D4
:1012D0001200253A031D6D296E2987294A088600C8
:1012E00087010130810741310318810A2530F2005E
:1012F0000030F3005C08CC004C08F40093315C2310
:10130000883101302000CA000030CB00B5294A08DE
:10131000860087010130810741310318810ACA0123
:10132000CB01B5294A0886008701403FCC00413FE8
:10133000CD004C0884004D0885000008CE00CF0188
:101340004E08F2004F08F3005C08D0005008F4008B
:1013500093315C23883120004A08860087010130E0
:10136000810741310318810A8129080077088039F3
:10137000F80078082000A4007735F8007808AB0062
:10138000F61FC329C429C5292B142B080319C92901
:10139000CA29DA292B0A031DCE29CF29D7290030E3
:1013A000F7000030F6000030F5000030F400F617CA
:1013B000F701E2290030F7000030F6000030F500B8
:1013C0000030F40073088039F8007808A4067335FB
:1013D000F8007808AC00F21FEE29EF29F0292C1450
:1013E0002C080319F429F529052A2C0A031DF929CB
:1013F000FA29022A0030F3000030F2000030F10038
:101400000030F000F217F3010D2A0030F300003035
:10141000F2000030F1000030F00073087204710433
:101420007004031D142A152A2E2A0030F7000030FC
:10143000F6000030F5000030F4008030F6047F3014
:10144000F7042408F8007808F7047708F300760812
:10145000F2007508F1007408F000692B2B08031DD9
:10146000322A332A3C2A0030F3000030F2000030E8
:10147000F1000030F000692B2B08F800F901790821
:10148000FB002C087802FA00031CFB037A087F3E5D
:10149000A50000307B3DA6007708A3007608A200D7
:1014A0007508A1007408A0000030F7000030F600B5
:1014B0000030F5000030F4000030AA000030A90030
:1014C0000030A8000030A700AC01A42A2C080319A2
:1014D0006A2A6B2A852A0130A035A10DA20DA30D21
:1014E000890B6C2A0130F435F50DF60DF70D890BDB
:1014F000732AAA1F7C2A7D2A7E2A74140130A735FC
:10150000A80DA90DAA0D890B7F2A73082302031DBC
:10151000932A72082202031D932A71082102031DD7
:10152000932A70082002031C962A972AA02A2A17B9
:101530007008A0027108A13B7208A23B7308A33B8C
:101540000130F8007808AC071A302C02031CA92AD5
:10155000AA2A662A23082204210420040319B12A96
:10156000B22ACB2A2714CB2A0130F435F50DF60D1B
:10157000F70D890BB52AAA1FBE2ABF2AC02A7414E8
:101580000130A735A80DA90DAA0D890BC12AFF307E
:10159000A507FF30A63DF61FCE2ACF2AB42AAC01FC
:1015A000AA1FD32AD42AF02AFF302705F800FF30DB
:1015B0002805F900FF302905FA007F302A05FB00D5
:1015C0007B087A04790478040319E72AE82AEB2ACD
:1015D000AC01AC0AF02A741CEE2AEF2AF02AE82AA1
:1015E0002C080319F42AF52A1D2B0130F4070030CA
:1015F000F53D0030F63D0030F73D771C002B012B08
:101600001D2B7408F8007508F9007608FA007708B1
:10161000FB000130FC00FB37FA0CF90CF80CFC0B5A
:101620000B2B7B08F7007A08F6007908F50078089C
:10163000F4000130A5070030A63D2608803AF800E6
:1016400080307802031D262BFF302502031C292B36
:101650002A2B372BFF302000A5000030A6000030D9
:10166000F7000030F6000030F5000030F4002000F4
:101670002608803AF80080307802031D412B0130A3
:1016800025020318442B452B512B2000A501A60150
:101690000030F7000030F6000030F5000030F400B4
:1016A000A40120002508F8007808AB002B1C592B5A
:1016B0005A2B5C2BF617602B7F30F8007808F60564
:1016C0002B36F8007808F7002408F8007808F704AB
:1016D000252A0800730880392000A0002008F8009F
:1016E0007335A0002008FA00F21F772B782B792B96
:1016F0007A147A0803197D2B7E2B8E2B7A0A031D10
:10170000822B832B8B2B0030F3000030F200003053
:10171000F1000030F000F217F301962B0030F300D7
:101720000030F2000030F1000030F000770880391E
:10173000A0002008F900790878060319A02BA12B36
:10174000A22B78177735A0002008F900F61FA92BE7
:10175000AA2BAB2B791479080319AF2BB02BC02B14
:10176000790A031DB42BB52BBD2B0030F7000030D8
:10177000F6000030F5000030F400F617F701C82B32
:101780000030F7000030F6000030F5000030F400C3
:101790007A0879020318CD2BCE2B122C781FD12B6F
:1017A000D22BD62B8030A0002008F8067A08A000A3
:1017B0002008FB007908A0002008FA007B08A000A0
:1017C0002008F9007008A0002008FB007408A000A1
:1017D0002008F0007B08A0002008F4007108A00099
:1017E0002008FB007508A0002008F1007B08A0007D
:1017F0002008F5007208A0002008FB007608A00071
:101800002008F2007B08A0002008F6007308A00062
:101810002008FB007708A0002008F3007B08A00048
:101820002008F700FB017908A000A1012108A3000E
:101830007A082002A200031CA3032308803AA40014
:1018400080302402031D262C1A302202031C292C6E
:101850002A2C642C7308720471047004031D312C4B
:10186000332C0130342C00302000A0002008FB0075
:101870000030F3000030F2000030F1000030F000E2
:101880007908A0002008FA006A2C7B1C482C492CFF
:10189000502C7B3601382000A0002008FB00522C81
:1018A0000310FB0C701C552C562C572CFB170130C9
:1018B0002000A000F337F20CF10CF00CA00B5A2C16
:1018C0000130A0002008FA0779087A02031C692C6D
:1018D0006A2C452C781B6D2C6E2CA82C7A08031DC5
:1018E000722C732C7C2C0030F3000030F20000309E
:1018F000F1000030F000A82D7408F0077508F13DE4
:101900007608F23D7708F33D731C872C882C352D23
:101910007B1C8B2C8C2C932C7B3601382000A00058
:101920002008FB00952C0310FB0C701C982C992CA4
:101930009A2CFB1701302000A000F337F20CF10CB9
:10194000F00CA00B9D2C0130A0002008FA07352DCB
:101950007308803A2000A0007708803A2002031D17
:10196000BB2C76087202031DBB2C75087102031D87
:10197000BB2C740870020318BE2CBF2CF72CFF3050
:10198000A000FF30A100FF30A200FF30A3007008CC
:101990007402A4007108753BA5007208763BA6008E
:1019A0007308773BA7002408A0072508A13D260857
:1019B000A23D2708A33D2308F3002208F2002108D6
:1019C000F1002008F0008030A0002008F806FB0994
:1019D000FB0A7B08031DED2CEE2CFF2C0130F007D9
:1019E0000030F13D0030F23D0030F33DFF2C740833
:1019F000F0027508F13B7608F23B7708F33B730879
:101A0000720471047004031D062D072D312D7B080F
:101A1000031D0B2D0C2D312D0030F3000030F20092
:101A20000030F1000030F000A82D0130F035F10D4C
:101A3000F20DF30D890B162DFB1F1F2D202D212DCF
:101A400070147B1C242D252D282D0314FB0D2A2D0D
:101A50000310FB0D7A0803192E2D2F2D312D013087
:101A6000FA02F21F342D352D152DF901FB1F392DEA
:101A70003A2D482D7B087F3903193F2D402D432DEA
:101A8000F901F90A482D701C462D472D482D402D8F
:101A9000790803194C2D4D2D7B2D0130F0070030B6
:101AA000F13D0030F23D0030F33D731C582D592DAF
:101AB0007B2D70082000A0007108A1007208A20010
:101AC0007308A3000130A400A337A20CA10CA00C42
:101AD000A40B642D2308F3002208F2002108F10072
:101AE0002008F0007A0A0319762D772D7B2D01301E
:101AF000A0002008FA077A0A03197F2D802D852D72
:101B00007A08031D842D852D932D0030F3000030BD
:101B1000F2000030F1000030F0007A08031D912D32
:101B2000922D932DF8017A1C962D972D992DF21751
:101B30009E2D7F302000A0002008F2057A3620007C
:101B4000A0002008F300F81FA62DA72DA82DF3173D
:101B50000800200023088039F9007908A8002335FF
:101B6000F9007908AE00A21FB62DB72DB82D2E149E
:101B70002E080319BC2DBD2DCC2D2E0A031DC12D01
:101B8000C22DCA2D0030A3000030A2000030A100F9
:101B90000030A000A217D42D0030A3000030A20016
:101BA0000030A1000030A00027088039F900790832
:101BB000A8062735F9007908AD00A61FE02DE12D14
:101BC000E22D2D142D080319E62DE72DF62D2D0AF3
:101BD000031DEB2DEC2DF42D0030A7000030A600E6
:101BE0000030A5000030A400A617FE2D0030A7008D
:101BF0000030A6000030A5000030A4002D08031915
:101C0000022E032E082E2E08031D072E082E112E3D
:101C10000030A3000030A2000030A1000030A0007E
:101C2000FF2F2008F9007908F000260880310420F1
:101C30008D3171082000B4007008B3003308F9003A
:101C4000FA01FB01FC017C08AC007B08AB007A08C0
:101C5000AA007908A9003408F900FA01FB01FC0187
:101C60007C08B2007B08B1007A08B0007908AF00A8
:101C70002108F9007908F0002508803104208D3111
:101C800071082000B4007008B3003308F900FA01AD
:101C9000FB01FC017908A9077A08AA3D7B08AB3D46
:101CA0007C08AC3D3408F900FA01FB01FC0179081D
:101CB000AF077A08B03D7B08B13D7C08B23D2208F1
:101CC000F9007908F0002408803104208D31710872
:101CD0002000B4007008B3003308F900FA01FB01DA
:101CE000FC017908A9077A08AA3D7B08AB3D7C086E
:101CF000AC3D3408F900FA01FB01FC017908AF079B
:101D00007A08B03D7B08B13D7C08B23D0830A9356A
:101D1000AA0DAB0DAC0D890B872E2108F9007908AF
:101D2000F0002408803104208D3171082000B400B7
:101D30007008B3003308A9073408AA3D0030AB3D52
:101D4000AC3D2008F9007908F00025088031042016
:101D50008D3171082000B4007008B3003308A90762
:101D60003408AA3D0030AB3DAC3D0830A935AA0D82
:101D7000AB0DAC0D890BB62E2008F9007908F000E8
:101D80002408803104208D3171082000B4007008CF
:101D9000B3003308A9073408AA3D0030AB3DAC3D81
:101DA0002108F9007908F0002608803104208D31DF
:101DB00071082000B4007008B3003308AF0734087E
:101DC000B03D0030B13DB23D2208F9007908F00085
:101DD0002508803104208D3171082000B40070087E
:101DE000B3003308AF073408B03D0030B13DB23D19
:101DF0002208F9007908F0002608803104208D318E
:101E000071082000B4007008B3003308F9003408EA
:101E1000FA00FB01FC010830F935FA0DFB0DFC0D51
:101E2000890B0C2F7908AF077A08B03D7B08B13DCC
:101E30007C08B23D2908F9002A08FA002B08FB00AB
:101E40002C08FC001830FC36FB0CFA0CF90C890B42
:101E5000232F7908AF077A08B03D7B08B13D7C0895
:101E6000B23D0830A935AA0DAB0DAC0D890B322F50
:101E70002E082D07F900FA01FA0D7908823EB30009
:101E8000FF307A3DB4005B2F0130AF35B00DB10D9E
:101E9000B20D890B452FAC1F4E2F4F2F502F2F14F3
:101EA0000130A935AA0DAB0DAC0D890B512FFF30B8
:101EB000B307FF30B43DB11F5E2F5F2F442FAD013C
:101EC000AC1F632F642F802FFF302905F900FF30EE
:101ED0002A05FA00FF302B05FB007F302C05FC00A3
:101EE0007C087B047A0479040319772F782F7B2FE1
:101EF000AD01AD0A802F2F1C7E2F7F2F802F782FD2
:101F00002D080319842F852FAD2F0130AF07003026
:101F1000B03D0030B13D0030B23D321C902F912FCA
:101F2000AD2F2F08F9003008FA003108FB00320805
:101F3000FC000130FD00FC37FB0CFA0CF90CFD0B2A
:101F40009B2F7C08B2007B08B1007A08B0007908AA
:101F5000AF000130B3070030B43D3408803AF900D7
:101F600080307902031DB62FFF303302031CB92FD6
:101F7000BA2FC42F7F302000B2008030B100003073
:101F8000B0000030AF00F32F20003408803AF90091
:101F900080307902031DCE2F013033020318D12F78
:101FA000D22FDD2F00302000B2000030B100003011
:101FB000B0000030AF00A801F32F20003308F90073
:101FC0007908AE00FF30AF05FF30B0057F30B105B6
:101FD0000030B2052E1CED2FEE2FEF2FB1172E364D
:101FE000F9007908B2002808F9007908B20432082B
:101FF000A3003108A2003008A1002F08A0000800AB
:10227000163021009700080071082200BB0070088A
:10228000BA00080071082100EE007008ED00080097
:1022900071082200BD007008BC000800F100710840
:1022A00091317D2191310800640080010131890B59
:1022B00055290034583021009900980122009601D8
:1022C0000800E9302000E5009830E6009131A821AF
:1022D00091310800F2302000E5009830E60091319D
:1022E000A82191310800F9302800960095012000BE
:1022F00092100C30280097000800F0002000111EFA
:10230000822983297E29700823009A0008008030E2
:102310002C0099009801970125001E08CF3910382C
:102320009E00080080302C009C009B019A01250033
:102330001E083F3940389E0008007308720471047B
:1023400070040319A429A529A7298030F3060800E1
:1023500067302000EB006B08EE006608DE006508C1
:10236000DD006E30EB006B08DF00003093312B2373
:1023700091310800D4302000E5009830E60091311A
:10238000A821913140302100DC008C30DB00CC30C2
:10239000DA00CD30D90008007F302000E500983009
:1023A000E6009131A821913140302100DC000C3051
:1023B000DB00CC30DA00CD30D900080093319B230C
:1023C000913191315A2191319131382191319131AD
:1023D0007321913191319221913191318721913144
:1023E0009231BB22913108007008BF3EF200FF30ED
:1023F000713DF300003073021A3003197202031C9E
:10240000022A042A0130052A0030F400F50174087C
:10241000F0007508F1000800F4007408F20072087A
:10242000F300162A0130F2007208F40774088600DF
:10243000013087000108031D1E2A1F2A122A730873
:102440007402F000F101F01BF1030800F0007008C5
:102450008600013087006130C03F1130C13F7008F5
:10246000023E8600013087006A30C03F1130C13F14
:102470007008043E8600013087000030C03F0830FD
:10248000C13F0800F000700886000130870000306E
:10249000C03F0030C13F7008023E86000130870017
:1024A000CC30C03F1130C13F7008043E860001307F
:1024B00087000030C03F0030C13F0800F0007008C6
:1024C0008600013087000030C03F0030C13F7008F7
:1024D000023E860001308700BA30C03F1130C13F54
:1024E0007008043E8600013087000030C03F003095
:1024F000C13F080080302000B8063C08F3003B08CC
:10250000F2003A08F1003908F0003808F7003708FF
:10251000F6003608F5003508F4008B316A23923155
:1025200073082000B8007208B7007108B600700880
:10253000B5000800F7007108F5007008F40077088E
:10254000F2007208F6007608860001308700F60A6D
:102550007508F3007408F200F40A0319F50A72080A
:102560008400730885000008C03F8908031DB92A4C
:10257000BA2AA32A0800083023009F0090309D004B
:1025800024309E0019309B009C010030F000003088
:10259000F1009131422192310030F0000030F10021
:1025A0009131482192310030F0000030F10091313A
:1025B0003C2192312000EF0108007608BF3EF80070
:1025C000FF30773DF900003079021A3003197802A4
:1025D000031CEB2AED2A0130EE2A0030FA00FB0141
:1025E0007A08FC007B08FD007C087D040319F92AA9
:1025F000FA2A012B20307604F60000307704F70029
:10260000012B08002000A300A101A2011A2B200821
:10261000FB00FC017B08F2007C08F3007A08FD0057
:102620007D08F40093315C23933101302000A10731
:102630000030A23D21082307FB007B088600013003
:1026400087000108FC007C08A0002008031D292B3E
:102650002A2B072B08002000E2005E08E4005D083A
:10266000E3002100E501E601492B6330E00060084A
:10267000CA005F08E1006108CB00620888310920C8
:10268000933120004A082100E50720004B08210073
:10269000E63D200063088400640885001200031DE5
:1026A000522B532B352B210066082000DE00210021
:1026B00065082000DD00080074080319602B612BF9
:1026C000662B7408031D652B662B6B2B72089131EA
:1026D0004E2193319A2B7408033E86008701160021
:1026E00001040319742B752B922B7408033E86008A
:1026F0008701403FF500413FF600740A86008701DC
:10270000403FF700413FF8007808803AF90076082A
:10271000803A7902031D8E2B750877020318912BDE
:10272000922B9A2B740A8600870101308107413170
:102730000318810A0800220090018F018C018D018D
:102740008E010F3021009000FF308C00E0308D00B2
:10275000BF308E00FF308F00FF3023008F007C30B1
:102760008E0023308D00073090003F308C00240015
:102770008F0190018D018C018E012100951725009C
:1027800090018C018D018E018F01FF3026008C009D
:10279000FF308D00FF308E00FF308F00073090003B
:1027A000FF3027008C00FF308D00FF308E00FF309F
:1027B0008F000F30900017303C00A4000F303D0018
:1027C00099000E3098001430A60008000030700503
:1027D000F80000307105F90080307205FA007F3092
:1027E0007305FB007B087A0479047804031DF92B38
:1027F000FA2B022C0030F3000030F2000030F10020
:102800000030F00000307405F80000307505F90064
:1028100080307605FA007F307705FB007B087A046C
:1028200079047804031D152C162C1E2C0030F7009B
:102830000030F6000030F5000030F4007708730631
:10284000031D2C2C76087206031D2C2C75087106AE
:10285000031D2C2C7408700603192F2C302C322CDD
:102860000310332C03140800F601F31F382C392C05
:10287000402CF209F309F20A0319F30AF601F60AE9
:10288000F11F432C442C492CF009F109F00A0319DB
:10289000F10A7008710403194E2C4F2C782CF501A5
:1028A000F50A5B2C0130F035F10D890B532C01300A
:1028B000F4007408F507F11F5E2C5F2C522C710890
:1028C0007302031D652C70087202031C682C692CAE
:1028D0006D2C7008F2027108F33B0130F136F00CF8
:1028E000890B6E2C0130F502031D772C782C5F2CA0
:1028F000760803197C2C7D2C822CF209F309F20A4C
:102900000319F30A7308F1007208F0000800F500DB
:102910007508F4007408F8007108F7007008F600F4
:102920000130F2020030F33B720A031D9B2C730A44
:10293000031D9B2C9C2CAB2CF001F101DE2C0130F3
:10294000F4007408F8070130F6070030F73D013055
:10295000F2020030F33B7808860087010108031972
:10296000B22CB32CD12C7608840077088500120095
:102970000319BB2CBC2CD12C720873040319C12C75
:10298000C22CD12C76088400770885000008F4005A
:10299000780886008701010874060319D02CD12C11
:1029A0009F2C7808860087017608840077088500C8
:1029B00000080102F000F101031CF10308002000EF
:1029C000AC0021006B1CE52CE62CEF2C20002C0821
:1029D000A7002708FA00240893310223943120002D
:1029E000A61BF32CF42CF92C2608AB002508AA0012
:1029F000FB2CAA01AB01A801A9010F2D2030F20088
:102A00000030F30020002C08A7002708F4009331C1
:102A10005C23943101302000A8070030A93D29082B
:102A2000803AA7002B08803A2702031D192D2A0897
:102A30002802031C1C2D1D2DFE2C21006B18212D9E
:102A4000222D2B2D20002C08A7002708FA0024088F
:102A50009331022394312000240892310C229431C6
:102A600020002A087007A4002B08713DA50008006B
:102A7000F601F11F3C2D3D2D442DF009F109F00A1E
:102A80000319F10AF601F60AF31F472D482D512DBF
:102A9000F209F309F20A0319F30A0130F400740889
:102AA000F606F701F801700871040319582D592D25
:102AB000882DF501F50A652D0130F035F10D890BF2
:102AC0005D2D0130F4007408F507F11F682D692DA4
:102AD0005C2D0130F735F80D890B6A2D71087302F2
:102AE000031D742D70087202031C772D782D7D2D27
:102AF0007008F2027108F33B77140130F136F00CE4
:102B0000890B7E2D0130F502031D872D882D692D3F
:102B1000760803198C2D8D2D922DF709F809F70AE7
:102B20000319F80A7808F1007708F000080003108C
:102B3000720D730DF4007408FA007A08031DA12DBC
:102B4000A22DAB2D0030F3000030F2000030F10078
:102B50000030F0000A2E7008F4007108F5007208C9
:102B6000F6007308F7001F30F736F60CF50CF40C7E
:102B7000890BB42D7408F8007808F900F217FF30BB
:102B8000F005FF30F105FF30F2050030F305963017
:102B9000FA02FA1FCC2DCD2DE52D7A08803A973E0A
:102BA0000318D32DD42DD52DA22D0130F336F20CE0
:102BB000F10CF00C890BD62D0130F4007408FA07E3
:102BC000031DE32DE42DD52DFA2D20307A02031CB0
:102BD000EA2DEB2DF52DA22D0130F035F10DF20D82
:102BE000F30D890BED2D0130FA027A08031DF92D42
:102BF000FA2DEC2D79080319FE2DFF2D0A2EF00970
:102C0000F109F209F309F00A0319F10A0319F20AAA
:102C10000319F30A0800210064082000A500210020
:102C200063082000A400210062082000A300210006
:102C300061082000A2007308A5007208A4007108B2
:102C4000A3007008A2002208F4002308F50024085D
:102C5000F6002508F7001730F736F60CF50CF40CE3
:102C6000890B2C2EFF307405A00000307505A100E3
:102C700020082104031D3D2E3E2E5F2E2208F40065
:102C80002308F5002408F6002508F7000130F43584
:102C9000F50DF60DF70D890B472E770876047504B0
:102CA0007404031D542E552E5A2E0230F0000030AD
:102CB000F100892E0330F0000030F100892E200A47
:102CC0002104031D642E652E852E2208F40023089E
:102CD000F5002408F6002508F7000930F435F50D55
:102CE000F60DF70D890B6E2E7708760475047404C3
:102CF00003197B2E7D2E01307E2E0030F800F90165
:102D00007808F0007908F100892E0430F0000030D6
:102D1000F1000800003020003505BD000030360508
:102D2000BE0080303705BF007F303805C000400846
:102D30003F043E043D04031D9E2E9F2EA72E00300F
:102D4000B8000030B7000030B6000030B5000030E9
:102D50003905BD0000303A05BE0080303B05BF009C
:102D60007F303C05C00040083F043E043D04031D85
:102D7000BA2EBB2EC32E0030BC000030BB0000308A
:102D8000BA000030B900B81FC62EC72EDF2E0030A3
:102D9000BD000030BE000030BF008030C0003508EC
:102DA000BD023608BE3B3708BF3B3808C03B400871
:102DB000B8003F08B7003E08B6003D08B500BC1F8C
:102DC000E22EE32EFB2E0030BD000030BE000030AE
:102DD000BF008030C0003908BD023A08BE3B3B0846
:102DE000BF3B3C08C03B4008BC003F08BB003E085E
:102DF000BA003D08B9008030B8068030BC063C08F7
:102E00003802031D0D2F3B083702031D0D2F3A0812
:102E10003602031D0D2F390835020318102F112F0C
:102E2000132F0310142F0314080021006008200042
:102E3000C00021005F082000BF0021005E082000C4
:102E4000BE0021005D082000BD003008C0002F0832
:102E5000BF002E08BE002D08BD003D08B1003E0891
:102E6000B2003F08B3004008B4001730B436B30CCA
:102E7000B20CB10C890B362FFF303105B500003094
:102E80003205B6003508813EBB00FF30363DBC0040
:102E90003C08803AB10080303102031D512F1730B9
:102EA0003B02031C542F552F562FFF2F2000BC1B15
:102EB0005A2F5B2FB82FFF30B100FF30B2007F30A8
:102EC000B3000030B4003B0A692FB437B30CB20C26
:102ED000B10C890B652F3408BA003308B9003208E9
:102EE000B8003108B7003D083705B1003E08380585
:102EF000B2003F083905B30040083A05B400340871
:102F0000330432043104031D862F872F882F552F59
:102F10003D08B1003E08B2003F08B3004008B400CD
:102F20001F30B436B30CB20CB10C890B912F34089E
:102F300033043204310403199E2F9F2FA72F370823
:102F4000BD073808BE3D3908BF3D3A08C03D3709C6
:102F5000B1003809B2003909B3003A09B4003108A8
:102F6000BD053208BE053308BF053408C005F72F7C
:102F70003D08B1003E08B2003F08B3004008B4006D
:102F80001F30B436B30CB20CB10C890BC12F34080E
:102F9000330432043104031DCE2FCF2FD82F00303D
:102FA000C0000030BF000030BE000030BD00F72F71
:102FB0003D08B1003E08B2003F08B3004008B4002D
:102FC0000130B135B20DB30DB40D890BE12F3408CA
:102FD0003304320431040319EE2FEF2FF72FBF30E3
:102FE000C0008030BF000030BE000030BD0040088F
:102FF000B0003F08AF003E08AE003D08AD0008003D
:10300000543465346D3470346534723461347434DE
:103010007534723465342034733465346E347334EB
:103020006F3472342034763461346C3475346534E2
:103030003A342034253466340A3400345434653448
:103040006D3470342034733465346E3473346F34BB
:10305000723420346F34703465346E3469346E34B5
:10306000673420346634613469346C3465346434D4
:1030700021340A3400344C3469346734683474348D
:103080002034733465346E3473346F3472342034C6
:10309000763461346C34753465343A3420342534F4
:1030A00066340A3400344C34693467346834743418
:1030B0002034733465346E3473346F347234203496
:1030C0006F34703465346E346534643421340A34BA
:1030D00000344C34693467346834743420347334C5
:1030E00065346E3473346F347234203463346C342A
:1030F0006F3473346534643421340A340034523408
:1031000065346134643469346E34673420346C342B
:1031100069346734683474342034733465346E34FD
:1031200073346F3472340A34003453346534743475
:10313000743469346E3467342034623472346934E0
:103140006734683474346E346534733473342134C2
:103150000A340034543465346D347034203473349C
:1031600065346E3473346F34723420346F34703499
:1031700065346E346534643421340A340034543494
:1031800065346D3470342034733465346E34733484
:103190006F347234203463346C346F347334653478
:1031A000643421340A340034523465346134643474
:1031B00069346E3467342034743465346D3470345B
:1031C0002034733465346E3473346F3472340A349B
:1031D0000034443465346D346F3420343134213458
:1031E0000A340034443465346D346F34203432345E
:1031F00021340A340034443465346D346F3420345F
:10320000333421340A34003449344E3446340034E3
:103210004E3441344E34003469346E3466340034F4
:0E3220006E3461346E3400346C346634003425
:020000040001F9
:04000E00E43FFF3E8E
:00000001FF
