:020000040000FA
:040000008031132810
:1000060008007E1480318B1D09280A2811280B1C34
:100016000D280E2811288931842180317E1009008F
:100026008031152821008731FD278031EF008D3082
:100036008400883085004030860001308700073014
:10004600883179208031FC01A030840000308500A1
:1000560033308831732080312030840001308500B0
:1000660020308831732080317E1020008131AB2909
:100076002000BD003008C4003108C5003208C600A3
:100086003308C7003408C8003508C9003608CA0056
:100096003708CB004430860000308700473FB80061
:1000A600B81B562858280130592800302000B900BE
:1000B600BA013908C2003A08C300420843040319CA
:1000C600652866288428C409C509C609C709C80958
:1000D600C909CA09CB09C40A031D8428C50A031D18
:1000E6008428C60A031D8428C70A031D8428C80A53
:1000F600031D8428C90A031D8428CA0A031D8428EF
:10010600CB0A2100A81B882889288D28FD30A9053F
:10011600FF30AA052808803A2000B800803038024F
:10012600031D982801302100270203189B289C28CC
:10013600A22801302000BE000030BF00AA282100FE
:1001460028082000BF00210027082000BE0021004B
:1001560026082000C100210025082000C000420812
:100166004304031DB728B828BD282100291DBC2833
:10017600BD28C228FF302000C007FF30C13D1F3018
:100186002000CC000030CD002200BF013329FF3013
:100196002000CC07FF30CD3D0A30A000A101A2010E
:1001A600A301A401A501A601A7014408A8004508CA
:1001B600A9004608AA004708AB004808AC00490851
:1001C600AD004A08AE004B08AF008431D42480311C
:1001D60020002108F5002008F4008931E82180314B
:1001E6007408303E2000B8004C08203E86000130DE
:1001F600870038088100FF30BE07FF30BF3DFF3063
:10020600C007FF30C13D0A30A000A101A201A30131
:10021600A401A501A601A7014408A8004508A90054
:100226004608AA004708AB004808AC004908AD00DC
:100236004A08AE004B08AF008331D323803120003B
:100246002008C4002108C5002208C6002308C700EC
:100256002408C8002508C9002608CA002708CB00BC
:1002660020004D08803AB80080303802031D3D2931
:1002760001304C02031C402941296E292000440804
:10028600450446044704480449044A044B04031D34
:100296004D294E29CA283F08803AB80080303802D6
:1002A600031D572901303E0203185A295B29CA2823
:1002B60020004108803AB80080303802031D6529C5
:1002C60001304002031C682969296E292100A918FA
:1002D6006D296E29CA28200042084304031D74298B
:1002E60075297A292100291D79297A299729FF302C
:1002F6002000CC07FF30CD3D42084304031D84296E
:1003060085298A292B30BB000030BC008E292D3070
:10031600BB000030BC003B08B8004C08203E8600FD
:10032600013087003808810020004C08203EB800C4
:100336003808A7004108A9004008A8003D088D31EB
:100346004225803120002808B1002708B0000800A7
:100356008931402181318A31F2228131D4308600BF
:100366000030870006302100D30000301E00D30B7A
:10037600B929D430D3005308E000E101E201C930C5
:1003860089319D218131C3308931B6218131CF3008
:10039600893109218131B3308C31232481310230F6
:1003A600C33E86008701413F8A00403F0A008131F3
:1003B600003A0319DF29E029F42900302000E8007B
:1003C6009030E90089311A218131210060088600C8
:1003D60087014308C03F4408C13F0130E1070030B0
:1003E600E23D0230C93E86008701413F8A00403F18
:1003F6000A008131003A0319012A022A192A2230F9
:100406002000E8009030E90089311A21813121006D
:1004160061356007D3005308860087014908C03F4D
:100426004A08C13F0130E1070030E23D2100DE010C
:10043600DF01362ADC302000E8009130E900210097
:100446005E356007D300530886008701403F2000D1
:10045600EA00413FEB0089311A2181310130210048
:10046600DE070030DF3D5F08803AD3006208803A3D
:100476005302031D402A61085E02031C432A442AD4
:100486001D2A8B170B1721003408F2003308F100E0
:1004960088314F20813121003608F2003508F100FD
:1004A60088315520813121003808F2003708F100E3
:1004B60088315B208131CA30F8009130F9008B31E8
:1004C6005D23813141302100D300EE30890B692A4A
:1004D600D30B692A00000430C93E86008701413FDC
:1004E6008A00403F0A00823176082100DB00750849
:1004F600DA000430C33E86008701413F8A00403F50
:100506000A00823176082100DD007508DC005B08F0
:100516002000D50021005A082000D40021005008F0
:100526008A004F080A00823121005D082000D500AC
:1005360021005C082000D4000230CF3E86008701EF
:10054600413F8A00403F0A00823121006F080319AB
:10055600AD2AAE2A6E2A0630B33E86008701413F99
:100566008A00403F0A0082310830B33E8600870188
:10057600413F8A00403F0A0082312100EF016E2A86
:10058600803113282000DF004E0886008701403F97
:10059600D000413FD1005008840051088500120068
:1005A600253A031DD72AD82AAF2B4E088600870185
:1005B6000130810741310318810A2100A501A601F6
:1005C600A901AA01FF30A700FF30A80020004E08AD
:1005D60086008701403FD000413FD100500884008B
:1005E600510885001200643A0319FA2AFB2A0C2BDB
:1005F6004E0886008701403FD000413FD100500899
:100606008400510885001200693A031D0B2B0C2B40
:10061600472B4E08860087010130810741310318B8
:10062600810A4F088600870101088400850102308F
:100636008107003FD000013FD1005008D500510886
:10064600D600890D893B8909D700D800D900DA0080
:10065600DB00DC005508B0005608B1005708B200B0
:100666005808B3005908B4005A08B5005B08B6002C
:100676005C08B7005F0880313B20823120003108DA
:10068600CF003008CE00D22B4E0886008701403FAF
:10069600D000413FD1005008840051088500120067
:1006A600733A031D572B582B7A2B4E088600870169
:1006B6000130810741310318810A4F0886008701FE
:1006C60001088400850102308107003FDD00013FFB
:1006D600DE005E08A1005D08A0005F088531BE252A
:1006E600823120002108CF002008CE00D22B4E08F0
:1006F60086008701403FD000413FD100500884006A
:10070600510885001200253A031D8A2B8B2BA42B3A
:100716004E08860087010130810741310318810A9E
:100726002530F3000030F4005F08D0005008F500D3
:100736008B31E423823101302000CE000030CF001F
:10074600D22B4E08860087010130810741310318FC
:10075600810ACE01CF01D22B4E0886008701403F89
:10076600D000413FD10050088400510885000008A0
:10077600D200D3015208F3005308F4005F08D400F6
:100786005408F5008B31E423823120004E088600A0
:1007960087010130810741310318810A9E2B080029
:1007A600F3012030860000308700473FF100F11F3B
:1007B600DD2BDE2BFF2B2000A009A109A209A3092E
:1007C600A409A509A609A709A00A031DFD2BA10ACC
:1007D600031DFD2BA20A031DFD2BA30A031DFD2BE2
:1007E600A40A031DFD2BA50A031DFD2BA60A031D46
:1007F600FD2BA70AF301F30A283086000030870094
:10080600473FF100F11F082C092C2C2C2000A809C9
:10081600A909AA09AB09AC09AD09AE09AF09A80A2D
:10082600031D282CA90A031D282CAA0A031D282CFF
:10083600AB0A031D282CAC0A031D282CAD0A031D88
:10084600282CAE0A031D282CAF0A0130F1007108CE
:10085600F30674308600003087000830F10000305F
:100866001E00F10B332C200020082104220423044F
:1008760024042504260427040319422C432C9F2C08
:10088600F201F20A522CA035A10DA20DA30DA40D62
:10089600A50DA60DA70D0130F1007108F207A71FDF
:1008A600552C562C462CF435F50DF60DF70DF80D96
:1008B600F90DFA0DFB0D27082F02031D7C2C2608C7
:1008C6002E02031D7C2C25082D02031D7C2C2408DA
:1008D6002C02031D7C2C23082B02031D7C2C2208D2
:1008E6002A02031D7C2C21082902031D7C2C2008CA
:1008F6002802031C7F2C802C912C2008A80221089A
:10090600A93B2208AA3B2308AB3B2408AC3B25089D
:10091600AD3B2608AE3B2708AF3B7414A736A60CA2
:10092600A50CA40CA30CA20CA10CA00C0130F20285
:10093600031D9E2C9F2C562C73080319A32CA42C44
:10094600C22CF409F509F609F709F809F909FA09B3
:10095600FB09F40A031DC22CF50A031DC22CF60A74
:10096600031DC22CF70A031DC22CF80A031DC22C54
:10097600F90A031DC22CFA0A031DC22CFB0A7408CD
:100986002000A0007508A1007608A2007708A30041
:100996007808A4007908A5007A08A6007B08A700B5
:1009A6000800F3012830860000308700473FF10039
:1009B600F11FDE2CDF2C002D2000A809A909AA09A9
:1009C600AB09AC09AD09AE09AF09A80A031DFE2C97
:1009D600A90A031DFE2CAA0A031DFE2CAB0A031D41
:1009E600FE2CAC0A031DFE2CAD0A031DFE2CAE0A1E
:1009F600031DFE2CAF0AF301F30A203086000030F7
:100A06008700473FF100F11F092D0A2D292D2000EF
:100A1600A009A109A209A309A409A509A609A7096C
:100A2600A00A031D292DA10A031D292DA20A031DB3
:100A3600292DA30A031D292DA40A031D292DA50A64
:100A4600031D292DA60A031D292DA70A200020080B
:100A5600210422042304240425042604270403195C
:100A6600352D362D892DF201F20A452DA035A10D21
:100A7600A20DA30DA40DA50DA60DA70D0130F10025
:100A86007108F207A71F482D492D392D27082F0277
:100A9600031D672D26082E02031D672D25082D022E
:100AA600031D672D24082C02031D672D23082B0226
:100AB600031D672D22082A02031D672D210829021E
:100AC600031D672D20082802031C6A2D6B2D7B2D24
:100AD6002008A8022108A93B2208AA3B2308AB3B11
:100AE6002408AC3B2508AD3B2608AE3B2708AF3BA8
:100AF600A736A60CA50CA40CA30CA20CA10CA00C4A
:100B06000130F202031D882D892D492D7308031922
:100B16008D2D8E2DAC2DA809A909AA09AB09AC0902
:100B2600AD09AE09AF09A80A031DAC2DA90A031D1C
:100B3600AC2DAA0A031DAC2DAB0A031DAC2DAC0AC5
:100B4600031DAC2DAD0A031DAC2DAE0A031DAC2D45
:100B5600AF0A20002808A0002908A1002A08A20040
:100B66002B08A3002C08A4002D08A5002E08A6001B
:100B76002F08A70008002000B00040308600013092
:100B8600870025308400003085000730A20016005B
:100B96001A00A20BCA2D2108B2002008B1003108A4
:100BA6003204031DD72DD82DDC2D2530B1000030A1
:100BB600B2003208F2003108F1008931CF218531C7
:100BC60072082000B6007108B50021002808200030
:100BD600B400210027082000B300B41BF32DF42D28
:100BE600082E3408803AA2003608803A2202031DF5
:100BF600FE2D35083302031C012E022E032E082E6D
:100C060020003408B6003308B50020003608B400CA
:100C16003508B300210026082000AF002100250872
:100C26002000AE0021002918192E1A2E3B2E2C2E3C
:100C36002030F3000030F40020003008A200220823
:100C4600F5008B31E423853101302000B5070030F3
:100C5600B63D20003608803AA2002F08803A2202CC
:100C6600031D372E2E083502031C3A2E3B2E1B2E53
:100C76002000AC01AD015B2E200031088400320853
:100C860085000008A200A3012208F3002308F4004F
:100C96003008A4002408F5008B31E42385310130A7
:100CA6002000B1070030B23D0130AC070030AD3D49
:100CB6002D08803AA2003408803A2202031D652ED0
:100CC60033082C02031C682E692E3F2E2100291C96
:100CD6006D2E6E2E8F2E802E2030F3000030F40005
:100CE60020003008A2002208F5008B31E42385316C
:100CF60001302000B5070030B63D20003608803AA6
:100D0600A2002F08803A2202031D8B2E2E083502E0
:100D1600031C8E2E8F2E6F2E20003608A10035085C
:100D2600A00008001F2F8A3102228631F801003008
:100D36008B31362386313230F8009130F9008B3111
:100D46005D238631F801F80A00308B31362386316F
:100D56007430F8009130F9008B315D238631362FDF
:100D66008A3102228631F80100308B3136238631F2
:100D7600FF30F8009030F9008B315D238631F801A1
:100D8600F80A00308B31362386318430F8009130F2
:100D9600F9008B315D238631362F8A310222863166
:100DA600F80100308B3136238631FF30F800903061
:100DB600F9008B315D238631F801F80A00308B315A
:100DC600362386315430F8009130F9008B315D239B
:100DD6008631362F8A3102228631F80100308B3176
:100DE60036238631FF30F8009030F9008B315D23D1
:100DF6008631F801F80A00308B313623863193307C
:100E0600F8009130F9008B315D238631362F8A3117
:100E160002228631F80100308B3136238631643068
:100E2600F8009130F9008B315D238631362F013081
:100E3600AD000030AE00362F21002E08003A03190F
:100E4600252F1A2F2D08003A0319962E013A031959
:100E5600B32E033A0319D02E013A0319ED2E073AA1
:100E660003190A2F1A2F0800B42F8A31022287315C
:100E7600F80100308B31362387311030F80091307D
:100E8600F9008B315D238731CB2F8A3102228731DE
:100E9600F80100308B3136238731EE30F800903080
:100EA600F9008B315D238731CB2F8A3102228731BE
:100EB600F80100308B31362387312130F80091302C
:100EC600F9008B315D238731F801F80A00308B3148
:100ED600362387319930F8009030F9008B315D2345
:100EE6008731CB2F8A3102228731F80100308B31CE
:100EF60036238731BB30F8009030F9008B315D2303
:100F06008731F801F80A00308B3136238731AA3051
:100F1600F8009030F9008B315D238731CB2F8A3171
:100F260002228731F80100308B3136238731B13008
:100F3600F8009130F9008B315D238731F801F80A0A
:100F460000308B3136238731A230F8009130F9001A
:100F56008B315D238731CB2F0130AD000030AE00E1
:100F6600CB2F21002E08003A0319BA2FAF2F2D08D8
:100F7600003A0319382F013A0319482F033A031987
:100F8600582F013A0319752F073A0319922FAF2FDD
:100F960008002000E5006108E7006008E60021007F
:100FA600A301A401EA2F6630E3006308CE006208BD
:100FB600E4006408CF0065088231C522873120002D
:100FC6004E082100A30720004F082100A43D200061
:100FD60066088400670885001200031DF32FF42FAE
:100FE600D62F210024082000E1002100230820003C
:0A0FF600E0000800013408000800C4
:10107200163021009700080072082100E400710870
:10108200E300080072082100E8007108E700080088
:1010920072082100E6007108E500080072082100CC
:1010A200EE007108ED00080072082100EC007108E2
:1010B200EB00080072082100EA007108E90008004C
:1010C200F101013089312C2188310800F101003011
:1010D20089312C2188310800F20072088831B92048
:1010E20088310800640080010131890B74280034C2
:1010F200FE0012001E00FE0B7A2800345830210038
:1011020099009801220096010800F101F10A0030CD
:1011120089312C218831080028346E3475346C34BE
:101122006C3429340034863021009E009F019B01DB
:101132009C0101309D000800003089316C2188310A
:101142007208F6007108F5000800013089316C213F
:1011520088317208F6007108F50008004030280056
:101162009600950120009210073028009700080091
:10117200F1002000111EBE28BF28BA2871082300E2
:101182009A00080080302C009900980197012500F0
:101192001E08CF3910389E000800FF302100AD072D
:1011A200FF30AE3DAE1FD628D728D928AD01AE01FB
:1011B200EF01EF0A080021006D086E040319E2280E
:1011C200E328E8286E088A006D080A0088312700A3
:1011D2009312080021006B086C040319F128F2280D
:1011E200F7286C088A006B080A008831270013135D
:1011F2000800210069086A04031900290129062947
:101202006A088A0069080A008931270093130800D6
:10121200F1007108860087016430C03F0C30C13F85
:101222007108023E860087016C30C03F0E30C13F1C
:1012320008006A302000EC006C08EF006908E10049
:101242006808E0006F30EC006C08E2000030873183
:10125200CC2789310800F20072080319312932299A
:10126200352922008D14372922008D1071080319A7
:101272003B293C293E290D153F290D1108008D31CE
:101282009E25893188317F20893188313920893101
:101292008831942089318831AF2089318831C32047
:1012A20089318A31B022893108007208F40071084C
:1012B200F300F436F30CF436F30C73082C009800A8
:1012C20071080339F3000530F335FF3E031D65292C
:1012D200733597000800F4007408F300F30DF30D62
:1012E20021001D087306833973069D001D1400003A
:1012F20021009D149D187E297F297B291C08F2005C
:101302001B08F10008002700931E882989298C29CF
:101312008831DC2089312700131F902991299429D3
:101322008831EB2089312700931F982999299C291C
:101332008831FA2089310800F1007108860087019E
:10134200D630C03F9130C13F7108023E860087010E
:101352003830C03F0A30C13F7108043E8600870121
:10136200A630C03F0830C13F0800F1007108860076
:101372008701BE30C03F9130C13F7108023E8600F6
:1013820087011C30C03F0A30C13F7108043E86000D
:1013920087019D30C03F0830C13F08007208F50048
:1013A2007108F400D8290130F1070030F23D7108CC
:1013B2008400720885001200031DE029E129D42966
:1013C20074087102F1007508723BF200080075089A
:1013D200803AF60080307602031DF1290130740252
:1013E2000318F429F529012A7409F6007509F70092
:1013F200F60A0319F70A7608F4007708F500012ABD
:101402000800F80100308B3136238A314330F8006E
:101412009130F9008B315D238A31F801F80A0030EE
:101422008B3136238A314330F8009130F9008B3109
:101432005D238A310800003089316C218A317208BB
:10144200F8007108F7007808803AF50080307502DC
:10145200031D2D2A013077020318302A322A013067
:10146200332A0030F6007608F900790808000130C6
:1014720089316C218A317208F8007108F700780806
:10148200803AF50080307502031D492A0130770247
:1014920003184C2A4E2A01304F2A0030F6007608F3
:1014A200F90079080800F700FA300032890B562A51
:1014B200F101F10A77088A3190228A317708F50022
:1014C2000330F535FF3E031D622A7535F6007608B6
:1014D200F700F101F10A77088A3190228A31080077
:1014E200F700FA300032890B732AF10177088A314A
:1014F20090228A317708F5000330F535FF3E031D4F
:101502007E2A7535F6007608F7005330890B872A54
:101512000000F10177088A3190228A310800F40034
:101522007408F2000430F236890B942A7208F30030
:101532007308F40074080F39F2007208F4002000F6
:101542000F08F0398F000F0874048F00710C031C10
:101552008F1203188F160F130F160F120800083080
:1015620023009F0090309D0024309E0019309B0084
:101572009C010030F1000030F200883143208A31B2
:101582000030F1000030F200883149208A31003009
:10159200F1000030F20088313D208A31FC01080060
:1015A20052302000E8009030E90021002E0820008F
:1015B200EB0021002D082000EA0089311A218A312E
:1015C2003E302000E8009030E90021003008200081
:1015D200EB0021002F082000EA0089311A218A310C
:1015E200080020008F0121008F0120008F17053095
:1015F200F800DE30890BFB2AF80BFB2A32308A31E5
:1016020071228A3128308A3171228A310C308A3132
:1016120071228A3101308A3171228A3106308A314F
:1016220071228A310800242B873137278B31352BE1
:10163200863195268B31352B8E31EE268B31352B2B
:10164200AF01B001352B21003008003A03192A2BD3
:10165200212B2F08003A0319152B013A0319192BD4
:10166200033A03191D2B212B0800FB0002307802DC
:1016720003183C2B3D2B5C2B10307B02031C422BAE
:10168200432B442B5C2B78030319482B492B4F2BFC
:1016920080307B04F9000030FA00542BC0307B0408
:1016A200F9000030FA0079088A3171228B31FA3060
:1016B2000032890B592B0800FA01732B7908A1001B
:1016C2007808A0007A082007840021080318210A5C
:1016D200850000088A3154228B3101302000A0009D
:1016E2002008FA0779082000A1007808A0007A08EB
:1016F2002007840021080318210A85001200031D17
:10170200832B842B5F2B08002000A600A401A501D7
:101712009D2B2308A000A1012008F3002108F4005A
:101722007B08A2002208F5008B31E4238B310130C3
:101732002000A4070030A53D24082607A0002008A9
:101742008600013087000108A1002108A3002308B8
:10175200031DAC2BAD2B8A2B080000302000A30008
:101762000030A2000030A1000030A000711CBA2B92
:10177200BB2BC42B75082000A0077608A13D770873
:10178200A23D7808A33D0130F535F60DF70DF80DB1
:10179200890BC52B0130F436F30CF20CF10C890BDA
:1017A200CC2B7408730472047104031DD92BDA2B39
:1017B200B72B20002308F4002208F3002108F200CE
:1017C2002008F100080075080319E82BE92BEE2B1D
:1017D2007508031DED2BEE2BF32B730888316D205A
:1017E2008B31222C7508033E860087011600010406
:1017F2000319FC2BFD2B1A2C7508033E860087016A
:10180200403FF600413FF700750A86008701403FDE
:10181200F800413FF9007908803AFA007708803AE7
:101822007A02031D162C760878020318192C1A2C3A
:10183200222C750A86008701013081074131031885
:10184200810A0800F100710886008701EE30C03F6E
:101852000C30C13F7108023E86008701CE30C03F86
:101862000830C13F7108043E86008701A530C03FA1
:101872000C30C13F7108063E86008701D130C03F5F
:101882000A30C13F7108083E860087011430C03F0C
:101892000B30C13F71080A3E860087013730C03FD6
:1018A2000730C13F71080C3E860087019530C03F6A
:1018B2000630C13F71080E3E86008701EE30C03F00
:1018C2000E30C13F080020005508B3005408B20092
:1018D2000030B7000030B6000030B5000A30B40066
:1018E2000030BB000030BA000330B900E830B80065
:1018F2000030BF000030BE000030BD000030BC0030
:101902000030C3000030C2000030C1006430C000AB
:101912008E3105268C3120003308D7003208D600DC
:101922006430FA0056087A022100AB002000570901
:101932000318890A2100AC002C08F2002B08F100E0
:10194200893156218C31080021002F033004031DF8
:10195200AB2CAC2CBA2C04302D062E04031DB22C59
:10196200B32CBA2CAF01B001AD01AE01EF01EF0A09
:10197200ED2C02302F063004031DC02CC12CC92CC3
:1019820003302D062E04031DC72CC82CC92CB32CE2
:101992002F083004031DCE2CCF2CED2C2F08300441
:1019A200031DD42CD52CE32C2E08803AF000803075
:1019B2007002031DDE2C02302D02031CE12CE22CEE
:1019C200E32CED2C21002D08013EAF0000302E3D0E
:1019D200B000AD01AE01B72C080001302100AD0707
:1019E2000030AE3D2F083004031DF82CF92C0B2DCE
:1019F2002E08803AF00080307002031D022D05305F
:101A02002D02031C052D062D0B2D04302100AD00E7
:101A12000030AE0021002F033004031D112D122DC2
:101A2200242D2E08803AF00080307002031D1B2DF9
:101A320005302D02031C1E2D1F2D242D04302100E4
:101A4200AD000030AE00023021002F063004031D2D
:101A52002B2D2C2D3E2D2E08803AF0008030700266
:101A6200031D352D04302D02031C382D392D3E2D3A
:101A720003302100AD000030AE002100EF01EF0A7B
:101A820008002000AF002100291C482D492D522DAD
:101A920020002F08AA002A08FB0027088B31852383
:101AA2008D312000A91B562D572D5C2D2908AE0023
:101AB2002808AD005E2DAD01AE01AB01AC01722D67
:101AC2002030F3000030F40020002F08AA002A087A
:101AD200F5008B31E4238D3101302000AB0700305B
:101AE200AC3D2C08803AAA002E08803A2A02031D37
:101AF2007C2D2D082B02031C7F2D802D612D2100B2
:101B02002918842D852D8E2D20002F08AA002A0841
:101B1200FB0027088B3185238D3120002708F10037
:101B22000130F2008931CF218D3120002D0871075B
:101B3200A7002E08723DA8000800220090018F0124
:101B42008C018D018E010F3021009000FF308C003E
:101B5200F8308D00BF308E008F0123008F013C30A2
:101B62008E0020308D00073090001F308C00240042
:101B72008F0190018D01E0308C008E0121009513C0
:101B8200250090018C018D018E018F01FF3026000E
:101B92008C00FF308D00FF308E00FF308F00073049
:101BA2009000FF3027008C00FF308D00FF308E0048
:101BB200FF308F000F30900093121313931392167D
:101BC200121792179112111391130330F100003082
:101BD200F20088314F208D31FF30F1000730F200E2
:101BE200883155208D31FE30F1000730F200883106
:101BF2005B208D318B1517303C00A4000E303D0068
:101C020098001430A6000800200034083802C400EE
:101C12003508393BC50036083A3BC60037083B3B1E
:101C2200C7004708A7004608A6004508A5004408C3
:101C3200A4003208C8003308C9000030C91BFF30B5
:101C4200CA00CB003408C8023508C93B3608CA3B73
:101C52003708CB3B4B08F4004A08F3004908F2006E
:101C62004808F1003C084002CC003D08413BCD0051
:101C72003E08423BCE003F08433BCF004F08F800EE
:101C82004E08F7004D08F6004C08F5008B31AE23E4
:101C92008E3174082000AB007308AA007208A900F4
:101CA2007108A8008F3170278E31200024083C076C
:101CB200D00025083D3DD10026083E3DD200270830
:101CC2003F3DD3005308B5005208B4005108B30099
:101CD2005008B200080020005508B3005408B200B2
:101CE2000030B7000030B6000030B5001330B40049
:101CF2000030BB000030BA000130B9006630B800D5
:101D02000030BF000030BE000030BD000030BC001B
:101D12000030C3000030C2000030C1003C30C000BF
:101D22008E3105268E3120003308D7003208D600C6
:101D3200D71B9C2E9D2EAE2E5708803AFA0080307B
:101D42007A02031DA62E143056020318A92EAA2EBB
:101D5200AE2E883161208E31ED2E20005708803A58
:101D6200FA0080307A02031DB82E14305602031C8A
:101D7200BB2EBC2ECE2E20005708803AFA008030AF
:101D82007A02031DC62E283056020318C92ECA2E07
:101D9200CE2E883186208E31ED2E20005708803AD3
:101DA200FA0080307A02031DD82E28305602031C16
:101DB200DB2EDC2EED2E20005708803AFA00803010
:101DC2007A02031DE62E3D3056020318E92EEA2E52
:101DD200ED2E883167208E3108005B2F8A31022276
:101DE2008E31F80100308B3136238E31CC30F80041
:101DF2009030F9008B315D238E31F801F80A003002
:101E02008B3136238E316430F8009030F9008B31FB
:101E12005D238E316F2F8A3102228E31F80100301C
:101E22008B3136238E31DD30F8009030F9008B3162
:101E32005D238E31F801F80A00308B3136238E3162
:101E42007630F8009030F9008B315D238E316F2FA0
:101E52008A3102228E31F80100308B3136238E31E5
:101E6200DD30F8009030F9008B315D238E31F801BE
:101E7200F80A00308B3136238E318830F8009030EA
:101E8200F9008B315D238E316F2F8A3102228E3120
:101E9200F80100308B3136238E316430F8009130F6
:101EA200F9008B315D238E316F2F0130AD00003090
:101EB200AE006F2F21002E08003A0319612F562F12
:101EC2002D08003A0319EF2E013A03190C2F033A99
:101ED2000319292F013A0319462F562F0800200013
:101EE200AD01A71F752F762F832FA409A509A60977
:101EF200A709A40A0319A50A0319A60A0319A70A1E
:101F0200AD01AD0AAB1F862F872F962FA809A9090D
:101F1200AA09AB09A80A0319A90A0319AA0A0319EB
:101F2200AB0A0130F9007908AD060030B10000308B
:101F3200B0000030AF000030AE00270826042504B0
:101F420024040319A52FA62FE72FAC01AC0AB42F46
:101F52000130A435A50DA60DA70D890BAA2F0130BE
:101F6200F9007908AC07A71FB72FB82FA92F0130A6
:101F7200AE35AF0DB00DB10D890BB92F27082B026D
:101F8200031DCD2F26082A02031DCD2F2508290265
:101F9200031DCD2F24082802031CD02FD12FDA2FA6
:101FA2002408A8022508A93B2608AA3B2708AB3B20
:101FB2002E140130A736A60CA50CA40C890BDB2F1E
:101FC2000130AC02031DE62FE72FB82F2D080319AD
:101FD200EB2FEC2FF72FAE09AF09B009B109AE0A0A
:101FE2000319AF0A0319B00A0319B10A3108A7008D
:101FF2003008A6002F08A5002E08A40008005434BB
:1020020065346D34703465347234613474347534CB
:10201200723465342034733465346E3473346F34FF
:102022007234203469347334203461347634613448
:1020320069346C34613462346C3465340D340A347E
:1020420000344C3469346734683474342034733463
:1020520065346E3473346F347234203469347334BB
:10206200203461347634613469346C3461346234DE
:102072006C3465340D340A3400346D3465346E3496
:1020820075345F34633475347234723465346E344B
:1020920074343A3420342534643420340A340D3410
:1020A20000346D3465346E3475345F3469346E34A3
:1020B2006434653478343A3420342534643420343A
:1020C2000A340D34003420342034543465346D34F1
:1020D20070346534723461347434753472346134FA
:1020E200203420342034203400342034203420346E
:1020F20020344C3475346D3469346E346F34633447
:10210200693464346134643420342034003420343B
:10211200203420342034203453346F346E34693404
:1021220064346F342034203420342034203400349A
:10213200203420342034203420344134703461344B
:102142006734613464346F342034203420342034D2
:102152000034203420342034203445346E34633447
:1021620065346E346434693464346F34203420341A
:10217200203400343C3420342034203448346F344A
:102182007234613420346434653420342034203491
:1021920020343E34003420342034533465346E34D9
:1021A20073346F3472342034643465342034203410
:1021B200203420343E3400343C3420342034533430
:1021C20065346E3473346F3472342034643465345D
:1021D2002034203420343E3400343C342034203443
:1021E2002034533465346E3473346F34723465344E
:1021F20073342034203420343E3400343C342034D0
:10220200203449346E34743465346E347334693432
:10221200643461346434203420343E340034203455
:1022220020344D346F3464346F3420346434653474
:102232002034753473346F34203420343E34003407
:102242003C342034543465346D3470346F34723419
:1022520069347A34613464346F34723420343E34F5
:1022620000344134753474346F346D3461347434F1
:10227200693463346F34203470346F3472342034F0
:102282003E340034203420342034203420342034AE
:10229200203420342034203420342034203420349C
:1022A20020342034003420342034203420342034AC
:1022B2004D3465346434693461342034203420343C
:1022C2002034203400343C3420342034203452343E
:1022D2006534673472346534733461347234203453
:1022E2002034203400342034203420342034533439
:1022F20065346E3473346F3472346534733420341D
:10230200203420340034203420342034203420344B
:10231200423461346A34613420342034203420342D
:10232200203400342034203420342034203441340A
:102332006C3474346134203420342034203420341A
:102342000034203420342034203441347034613459
:102352006734613464346F342034203420340034E0
:102362003C3420342034203448346F3472346134A5
:1023720020346434653420340034543465346D348C
:102382007034653472346134743475347234653443
:1023920000344234693465346E34763465346E34D4
:1023A200693464346F34213400344C346934673412
:1023B2006834743400342534733420340D340A34D0
:0223C2000034E5
:020000040001F9
:04000E00E43FFF3E8E
:00000001FF
