:020000040000FA
:1000000080312628053008007E1480318B1D092898
:100010000A2812280B1C0D280E281228943133248C
:10002000803124280B1F1528162824282100911C14
:100030001A281B2824282000911C1F282028242847
:100040009331ED23803124287E1009008031282847
:10005000210091316E218031E80091316F21803192
:10006000E900913170218031EA0060308400003075
:1000700085000830923100228031CB30840000307E
:100080008500193092310022803120308400013007
:1000900085004B30923100228031A0308400013045
:1000A000850020309231002280317E102000833183
:1000B000202B2100A200200043082100A9002000DD
:1000C00044082100AA00200045082100AB002000C0
:1000D00046082100AC00200047082100AD002000A8
:1000E00048082100AE00200049082100AF00200090
:1000F0004A082100B000A930860000308700473F41
:100100002000CB00CB1B85288728013088280030B1
:100110002000CC00CD014C082100A70020004D0894
:100120002100A80027082804031997289828B62832
:10013000A909AA09AB09AC09AD09AE09AF09B00913
:10014000A90A031DB628AA0A031DB628AB0A031D77
:10015000B628AC0A031DB628AD0A031DB628AE0AA0
:10016000031DB628AF0A031DB628B00A2100D01B14
:10017000BA28BB28C028FD302000E005FF30E1058B
:1001800021005008803A2000CB0080304B02031D34
:10019000CC28013021004F020318CF28D028D628C0
:1001A00001302100A3000030A400DB28210050080A
:1001B000A4004F08A3004E08A6004D08A50027087C
:1001C0002804031DE428E528EA282000601DE9280A
:1001D000EA28EF28FF302100A507FF30A63D1F3099
:1001E0002100B1000030B2002300BF019429FF308C
:1001F0002100B107FF30B23D0A302000A800A9015C
:10020000AA01AB01AC01AD01AE01AF01210029088B
:100210002000B00021002A082000B10021002B0896
:100220002000B20021002C082000B30021002D087E
:100230002000B40021002E082000B50021002F0866
:100240002000B600210030082000B70084311E24B1
:10025000803120002908BC002808BB009431D32439
:10026000803120003B08303ECB0021003108A03E09
:1002700086000130870020004B088100FF302100FC
:10028000A307FF30A43DFF30A507FF30A63D0A308D
:100290002000A800A901AA01AB01AC01AD01AE018B
:1002A000AF01210029082000B00021002A08200009
:1002B000B10021002B082000B20021002C082000F2
:1002C000B30021002D082000B40021002E082000DA
:1002D000B50021002F082000B600210030082000C2
:1002E000B70082311B228031200028082100A9009C
:1002F000200029082100AA0020002A082100AB00C4
:1003000020002B082100AC0020002C082100AD00AB
:1003100020002D082100AE0020002E082100AF0093
:1003200020002F082100B00021003208803A200070
:10033000CB0080304B02031DA02901302100310287
:10034000031CA329A429D529210029082A042B0448
:100350002C042D042E042F043004031DB029B129D0
:10036000F7282408803A2000CB0080304B02031D80
:10037000BC290130210023020318BF29C029F72816
:1003800021002608803A2000CB0080304B02031D5C
:10039000CC29013021002502031CCF29D029D529E1
:1003A0002000E018D429D529F7282100270828049F
:1003B000031DDB29DC29E1292000601DE029E1295A
:1003C000012AFF302100B107FF30B23D2708280481
:1003D000031DEB29EC29F1292B30A0000030A100EE
:1003E000F5292D30A0000030A10020082000CB000E
:1003F00021003108A03E86000130870020004B0814
:10040000810021003108A03E2000CB004B08BA003B
:10041000210026082000BC00210025082000BB0088
:10042000210022088C31D924803120003B08C400EF
:100430003A08C30008002000BA01283086000030C6
:100440008700473FB800B81F262A272A492A2000DC
:10045000A809A909AA09AB09AC09AD09AE09AF09F8
:10046000A80A031D462AA90A031D462AAA0A031D33
:10047000462AAB0A031D462AAC0A031D462AAD0ACA
:10048000031D462AAE0A031D462AAF0A2000BA0100
:10049000BA0A3030860000308700473F2000B8009D
:1004A000B81F532A542A782A2000B009B109B2098A
:1004B000B309B409B509B609B709B00A031D732A0F
:1004C000B10A031D732AB20A031D732AB30A031D5E
:1004D000732AB40A031D732AB50A031D732AB60AC8
:1004E000031D732AB70A01302000B8003808BA0685
:1004F0003B3086000030870008302000B800003014
:100500001E00B80B802A280829042A042B042C0476
:100510002D042E042F0403198E2A8F2AEB2AB901E9
:10052000B90A9E2AA835A90DAA0DAB0DAC0DAD0DCB
:10053000AE0DAF0D0130B8003808B907AF1FA12AC2
:10054000A22A922ABB35BC0DBD0DBE0DBF0DC00D3C
:10055000C10DC20D2F083702031DC82A2E0836020E
:10056000031DC82A2D083502031DC82A2C08340291
:10057000031DC82A2B083302031DC82A2A08320289
:10058000031DC82A29083102031DC82A2808300281
:10059000031CCB2ACC2ADD2A2808B0022908B13B4B
:1005A0002A08B23B2B08B33B2C08B43B2D08B53BC3
:1005B0002E08B63B2F08B73B3B14AF36AE0CAD0C44
:1005C000AC0CAB0CAA0CA90CA80C0130B902031D91
:1005D000EA2AEB2AA22A3A080319EF2AF02A0E2B5C
:1005E000BB09BC09BD09BE09BF09C009C109C209CF
:1005F000BB0A031D0E2BBC0A031D0E2BBD0A031DD7
:100600000E2BBE0A031D0E2BBF0A031D0E2BC00AA4
:10061000031D0E2BC10A031D0E2BC20A20003B082E
:10062000A8003C08A9003D08AA003E08AB003F080E
:10063000AC004008AD004108AE004208AF00080021
:100640009431B72483319631C5268331003023009D
:10065000C2000030C3000030C40065309431EF2484
:1006600083315F3095310C25833102305F3E860047
:1006700001308700413F8A00403F0A00833121005A
:10068000C90049082300CA000230653E86000130D7
:100690008700413F8A00403F0A0083312100C900A2
:1006A00049082300CB00CC01CD014A082100C90034
:1006B00049082300CC004B082100C9004908230049
:1006C000CD00E0309331B6238331CC302100C90016
:1006D00049082000A80045308B31EC2383318B176B
:1006E0000B17220048082000A9002200470820001C
:1006F000A80092316F22833122004A082000A9000D
:10070000220049082000A80092317822833122007B
:100710004C082000A90022004B082000A8009231BC
:1007200081228331DC302000A8001130A9009231F1
:100730008A2283312B302000AF009930B0009731EE
:100740005D27833141302100C900EE30890BA62B93
:10075000C90BA62B0000E9302100C9004908200080
:10076000B700EA308A31E622833151302100B900E6
:100770009930BA006A08C900CA014908BB004A0892
:10078000BC009331C82383319431802483310430F9
:100790005F3E860001308700413F8A00403F0A00EB
:1007A000833120002D082300C70020002C082300DF
:1007B000C6000430653E860001308700413F8A0054
:1007C000403F0A00833120002D082300C90020008B
:1007D0002C082300C80047082000D6002300460844
:1007E0002000D5000230E03E86008701413F8A00AC
:1007F000403F0A008331230049082000D60023002F
:1008000048082000D500210061088A0060080A001D
:1008100084310A30453E860001308700413F8A001E
:10082000403F0A0084311E302100C7000030C8005C
:100830009731D7278331C72B803126282000BA0172
:100840003030860000308700473FB800B81F292CA1
:100850002A2C4C2C2000B009B109B209B309B40903
:10086000B509B609B709B00A031D492CB10A031D21
:10087000492CB20A031D492CB30A031D492CB40AA2
:10088000031D492CB50A031D492CB60A031D492C2A
:10089000B70A2000BA01BA0A283086000030870063
:1008A000473F2000B800B81F562C572C762C20004C
:1008B000A809A909AA09AB09AC09AD09AE09AF0994
:1008C000A80A031D762CA90A031D762CAA0A031D6B
:1008D000762CAB0A031D762CAC0A031D762CAD0AD0
:1008E000031D762CAE0A031D762CAF0A20002808C3
:1008F00029042A042B042C042D042E042F0403198C
:10090000822C832CD62CB901B90A922CA835A90DBA
:10091000AA0DAB0DAC0DAD0DAE0DAF0D0130B80095
:100920003808B907AF1F952C962C862C2F08370254
:10093000031DB42C2E083602031DB42C2D083502DD
:10094000031DB42C2C083402031DB42C2B083302D5
:10095000031DB42C2A083202031DB42C29083102CD
:10096000031DB42C28083002031CB72CB82CC82C4B
:100970002808B0022908B13B2A08B23B2B08B33B38
:100980002C08B43B2D08B53B2E08B63B2F08B73BCF
:10099000AF36AE0CAD0CAC0CAB0CAA0CA90CA80C71
:1009A0000130B902031DD52CD62C962C3A08031918
:1009B000DA2CDB2CF92CB009B109B209B309B4095E
:1009C000B509B609B709B00A031DF92CB10A031D10
:1009D000F92CB20A031DF92CB30A031DF92CB40A31
:1009E000031DF92CB50A031DF92CB60A031DF92CB9
:1009F000B70A20003008A8003108A9003208AA0070
:100A00003308AB003408AC003508AD003608AE0042
:100A10003708AF0008002000DD004E08860087017F
:100A2000403FD000413FD10050088400510885006C
:100A30001200253A031D1D2D1E2DC42D4E088600C3
:100A400087010130810741310318810A2100CD015E
:100A5000CE012000E001E101FF302100CF00FF3096
:100A6000D00020004E0886008701403FD000413F63
:100A7000D10050088400510885001200643A03191F
:100A8000422D432D542D4E0886008701403FD00053
:100A9000413FD10050088400510885001200693A96
:100AA000031D532D542D8F2D4E08860087010130D4
:100AB000810741310318810A4F0886008701010828
:100AC0008400850102308107003FD000013FD10042
:100AD0005008D5005108D600890D893B8909D700F7
:100AE000D800D900DA00DB00DC005508C300560846
:100AF000C4005708C5005808C6005908C7005A085E
:100B0000C8005B08C9005C08CA005D088031592034
:100B1000853120004408CF004308CE00E72D4E0861
:100B200086008701403FD000413FD100500884003B
:100B3000510885001200253A031D9F2DA02DB92DC7
:100B40004E08860087010130810741310318810A70
:100B50002530AA000030AB005D08D0005008AC0082
:100B60008B316423853101302000CE000030CF006E
:100B7000E72D4E08860087010130810741310318B7
:100B8000810ACE01CF01E72D4E0886008701403F44
:100B9000D000413FD1005008840051088500000872
:100BA000D200D3015208AA005308AB005D08D4005C
:100BB0005408AC008B316423853120004E08860038
:100BC00087010130810741310318810AB32D0800E4
:100BD00048302100B9009830BA0020006308210095
:100BE000BC00200062082100BB009331C82385317E
:100BF00020302100B9009830BA002000650821009B
:100C0000BC00200064082100BB009331C82385315B
:100C1000962E21005E0803190E2E0F2E3F2E9531C1
:100C2000DD2585312000AF01003097313527853132
:100C3000AF302000AF009830B00097315D2785318C
:100C40002000AF01AF0A00309731352785312100F0
:100C50006A0803192C2E2D2E362E6B302000AF0083
:100C60009830B00097315D278531A72E34302000B1
:100C7000AF009830B00097315D278531A72E013045
:100C80002000E2070030E33D21005D080319492EF2
:100C90004A2E7A2E9531DD2585312000AF010030B6
:100CA000973135278531C0302000AF009830B00033
:100CB00097315D2785312000AF01AF0A00309731B1
:100CC00035278531210069080319672E682E712E9A
:100CD0006B302000AF009830B00097315D27853130
:100CE000A72E34302000AF009830B00097315D2738
:100CF0008531A72E01302000E2070030E33D953119
:100D0000DD2585312000AF01003097313527853151
:100D1000F3302000AF009830B00097315D27853167
:100D2000A72E0130E2000030E300A72E2000630868
:100D3000003A03199C2E912E6208003A0319092EDD
:100D4000013A0319442E033A03197F2E912E08000D
:100D50002000450849022100A000200046084A3B27
:100D60002100A100200047084B3B2100A2002000E9
:100D700048084C3B2100A30023082000B7002100B5
:100D800022082000B600210021082000B500210023
:100D900020082000B40043082100A40020004408DB
:100DA0002100A5000030A51BFF30A600A7002000F1
:100DB00045082100A402200046082100A53B200090
:100DC00047082100A63B200048082100A73B270830
:100DD0002000AB00210026082000AA0021002508E1
:100DE0002000A900210024082000A8004D0851027D
:100DF0002100A80020004E08523B2100A90020003D
:100E00004F08533B2100AA0020005008543B21000A
:100E1000AB002B082000AF0021002A082000AE0004
:100E2000210029082000AD00210028082000AC0086
:100E300089319E21863120002B08BB002A08BA0088
:100E40002908B9002808B8008F31702786312000A2
:100E500034084D072100AC00200035084E3D21002C
:100E6000AD00200036084F3D2100AE0020003708BD
:100E7000503D2100AF002F082000C60021002E08A1
:100E80002000C50021002D082000C40021002C08EE
:100E90002000C3000800C62F9531DD2587312000D2
:100EA000AF0100309731352787319E302000AF00E9
:100EB0009830B00097315D278731DA2F9531DD25E5
:100EC00087312000AF010030973135278731D1308D
:100ED0002000AF009830B00097315D2787312000A7
:100EE000AF01AF0A00309731352787315A302000E3
:100EF000AF009830B00097315D278731DA2F9531F8
:100F0000DD2587312000AF0100309731352787314B
:100F10008D302000AF009830B00097315D278731C9
:100F20002000AF01AF0A00309731352787317C3080
:100F30002000AF009830B00097315D278731DA2F5D
:100F40009531DD2587312000AF01003097313527FD
:100F5000873112302000AF009930B00097315D2703
:100F600087312000AF01AF0A003097313527873134
:100F700003302000AF009930B00097315D278731F2
:100F8000DA2F0130E2000030E300DA2F200063089E
:100F9000003A0319CC2FC12F6208003A03194C2FD5
:100FA000013A03195E2F033A03197F2F013A0319FF
:100FB000A02FC12F0800083023009F0090309D0013
:100FC00024309E0019309B009C0100302000A800B6
:100FD0000030A90092315422873100302000A8004F
:100FE0000030A90092315D22873100302000A80036
:100FF0000030A90092314B2287312100DF01080027
:101000007E1C04289131B2292200BD10BC010E3093
:101010000800F4007008710403190F281028232811
:101020007435203E8600013087007008C03F71088B
:10103000C13F7208F30074082C3E8600013087001F
:101040007308810032287435203E86000130870005
:10105000E230C03F1130C13F74082C3E86000130A1
:1010600087008101080091313821883122003D1C20
:101070003A283B2848289131D0218831003A031979
:101080004228432848280F30F30073082200BB0091
:1010900022003B08F300F401F335F40D0030730730
:1010A00084009830743D8500013F8A00003F0A00AB
:1010B0008831F50075082200BB0008002000AC0054
:1010C0002808290403196528662879282C35203E2C
:1010D0008600013087002808C03F2908C13F2A0840
:1010E000AB002C082C3E8600013087002B088100C5
:1010F00088282C35203E860001308700E230C03F32
:101100001130C13F2C082C3E860001308700810140
:1011100008002000B600200036088B3123238831D8
:10112000003A0319942895288B2820003308A90039
:101130003208A8003508AB003408AA009431042412
:10114000883100302000AD00AE00AF0193316C2338
:1011500088319131C121883196313B268831013A5D
:101160000319B328B428AC28080022003D1002302F
:10117000F0007008BC00C428913199218831E12821
:1011800091319E218831E1282E08F0007008F0008E
:101190000430203E860001308700413F8A00403FF6
:1011A0000A008831F100F2017208003A0319D928C7
:1011B000C0287108023A0319BC28013A0319BC2857
:1011C000C028080091315321883122003D1CE928B4
:1011D000EA28F8289131F4218831003A0319F128DE
:1011E000F228F8280F302000AC002C082200BB00A9
:1011F00022003B082000AC00AD01AC35AD0D003045
:101200002C07840098302D3D8500013F8A00003F67
:101210000A0089312000AE002E082200BB00080021
:101220002200BD1520299131992189313E29913122
:101230005021893103303E2991319E2189313E2947
:101240002C08F0007008F00021088A0020080A002D
:101250008931F100F2017208003A031930291C2982
:101260007108013A03191C29033A03191329013A99
:1012700003191329073A031917291C29080021000B
:10128000B6003408B8003308B700CB01CC016029A0
:10129000B7302000DE005E08CE00210035082000B7
:1012A000DF005F08CF002100360885310B2589312A
:1012B00020004E082100CB0720004F082100CC3D24
:1012C00037088400380885001200031D6829692941
:1012D00048294C08B4004B08B30008002000640300
:1012E0006504031D7429752982290230620663048E
:1012F000031D7B297C29822921005D08031981298E
:1013000082298829FF302000E207FF30E33D93293E
:101310005E0803198C298D299329FE302000E207ED
:10132000FF30E33D93292000E31F972998299A294C
:10133000E201E3012100E801E80A08000030200092
:10134000B3000030B2000030B1000030B000281C03
:10135000AA29AB29B3292C08B0072D08B13D2E08C6
:10136000B23D2F08B33D0130AC35AD0DAE0DAF0D24
:10137000890BB4290130AB36AA0CA90CA80C890B37
:10138000BB292B082A0429042804031DC829C929BC
:10139000A7293308AB003208AA003108A900300899
:1013A000A80008002000A200220041082000A6009A
:1013B000220040082000A50022003F082000A400D1
:1013C00022003E082000A30022080319E829E92989
:1013D000EB29A501A50A20080319EF29F029F22914
:1013E000A601A60A2330F9000030FA000430FB0001
:1013F0000030FC00503097310D2789310730200034
:10140000A1007D30890B022AA10B022A08007E1C54
:101410000B2A8831B52822003D1002302000A80098
:1014200028082200BC001C2A9231AE228A313B2AB5
:101430009231B7228A313B2A2E082000A8002808C2
:10144000A8000430203E860001308700413F8A001A
:10145000403F0A008A312000A900AA012A08003A68
:101460000319332A182A2908023A0319142A013ABF
:101470000319142A182A08007E1C402A89311029D1
:101480002200BD15502A9231AE228A31712A913143
:101490006B218A310330712A9231B7228A31712A45
:1014A0002C082000A8002808A800220021088A0093
:1014B00020080A008A312000A900AA012A08003A5F
:1014C0000319632A4C2A2908013A03194C2A033AC2
:1014D0000319432A013A0319432A073A0319472AF1
:1014E0004C2A080001302000E2070030E33D640888
:1014F0006504031D7C2A7D2A8F2A6308803AF00048
:1015000080307002031D862A05306202031C892A7E
:101510008A2A8F2A04302000E2000030E3002000F5
:1015200064036504031D952A962AA82A6308803A55
:10153000F00080307002031D9F2A03306202031CFA
:10154000A22AA32AA82A02302000E2000030E300E9
:101550002100E801E80A0800F100F201F20A220085
:101560003D19B32AB42AE42A7108F0007008B600C5
:10157000BD103D153D100E30F0007008BB00F4307A
:10158000B4000130B500BD15E230A0001130A1005B
:10159000AC01E230A2001130A300AD01E230A400A2
:1015A0001130A500AE01E230A6001130A700AF0156
:1015B000E830A8001130A900B001913138218A31FA
:1015C00093311E238A31F201720808002000BC000A
:1015D000B801B9013830B2000030B3000230B400B5
:1015E0000030B5005030883189208A313A302000EF
:1015F000B2000030B3000230B4000030B50050300B
:101600009631E9268A3120003A08031D082B092B60
:101610000E2B3C08860087018101132B3C088600B5
:1016200087018101810A3B08031D172B182B1D2BF5
:101630003708860087018101222B37088600870141
:101640008101810A08002000A900AA01AA0A22003B
:101650003D192B2B2C2B612B20002908A8002808D2
:101660002200B600BD103D153D100E302000A80030
:1016700028082200BB00F430B4000130B500BD15CD
:10168000E230A0001130A100AC01E230A200113024
:10169000A300AD01E230A4001130A500AE01E2309C
:1016A000A6001130A700AF01E830A8001130A90052
:1016B000B001913153218B3193315F238B31200065
:1016C000AA0120002A08080020002C080319692B11
:1016D0006A2B6F2B2C08031D6E2B6F2B742B2A0883
:1016E000923114228B31A42B2C08033E86008701F3
:1016F0001600010403197D2B7E2B9B2B2C08033E27
:1017000086008701403FAD00413FAE002C0A8600B5
:101710008701403FAF00413FB0003008803AB10040
:101720002E08803A3102031D972B2D082F02031833
:101730009A2B9B2BA42B20002C0A860087010130BA
:10174000810741310318810A080091314D218B3105
:10175000F0002200370886003808870070088100F2
:101760000130B7070030B83D0130B9020030BA3B54
:1017700039083A040319BD2BBE2BC32B91317521B7
:101780008B310530EB2BBD15CD2B9131AD218B313C
:10179000EB2B9131A8218B31EB2B2C08F00070083A
:1017A000F00021088A0020080A008B31F100F201C4
:1017B0007208003A0319DD2BC92B7108013A03198D
:1017C000C92B033A0319C52B013A0319C52B073A54
:1017D0000319C92BC92B08002000AA002A08023EC1
:1017E0008600013087007230C03F0A30C13F2A08AE
:1017F000043E8600013087006E30C03F0930C13F93
:101800002A08063E8600013087005F30C03F0E3058
:10181000C13F2A080A3E860001308700A230C03F3F
:101820001630C13F2A080C3E8600013087004B303D
:10183000C03F0730C13F2A08103E860001308700B4
:10184000E830C03F0530C13F2808860001308700DE
:101850000108A90029082100DE00200028088600D0
:10186000013087000130413F2100DD0008007E1C6F
:101870003B2C8B31A52B913168218C312000A800A5
:1018800022003708860038088700200028088100D9
:1018900001302200B7070030B83D0130B9020030F6
:1018A000BA3B39083A040319562C572C5C2C913159
:1018B00081218C310530872CBD15662C9231D222C6
:1018C0008C31872C9231C9228C31872C2C08200036
:1018D000A8002808A800220021088A0020080A0081
:1018E0008C312000A900AA012A08003A0319792C9A
:1018F000622C2908013A0319622C033A03195E2C61
:10190000013A03195E2C073A0319622C622C080075
:10191000200055085604031D8E2C8F2C962C003069
:10192000A800A90094314C248C31D82C5608C4004E
:101930005508C3000030C8000030C7000030C600A2
:101940000A30C5000030CC000030CB000330CA00A4
:10195000E830C9000030D0000030CF000030CE00A9
:101960000030CD000030D4000030D3000030D20071
:101970006430D1008631A8268C3120004408D9007B
:101980004308D8006430D700580857022100D5001A
:10199000200059090318890A2100D60056082000A2
:1019A000A900210055082000A80094314C248C3156
:1019B00008002000C200601CDE2CDF2CE72C42084F
:1019C000BD003D08B2003A08973185278C312000D0
:1019D000BC1BEB2CEC2CF12C3C08C1003B08C000DC
:1019E000F32CC001C101BE01BF01072D2030200032
:1019F000AA000030AB004208BD003D08AC008B31AE
:101A000064238C3101302000BE070030BF3D3F0809
:101A1000803ABD004108803A3D02031D112D400867
:101A20003E02031C142D152DF62C20006018192DD4
:101A30001A2D222D4208BD003D08B2003A08973108
:101A400085278C3120003A08943165248C312000A0
:101A500040082807BA004108293DBB000800913121
:101A6000D0218D31003A0319362D372D682D442DA4
:101A700091318F218D31872D913194218D31872D99
:101A800091319E218D31872D22002F08F0007008A2
:101A9000F0000630203E860001308700413F8A007A
:101AA000403F0A008D31F100F2017208003A03193B
:101AB0005A2D402D7108013A0319402D033A03199C
:101AC000382D013A03193C2D073A0319402D402DBA
:101AD00022003D103808F1003708F000B70A03195A
:101AE000B80A7008860071088700010891318521C5
:101AF0008D3101302200B9020030BA3B39083A0476
:101B0000031D832D842D862D0630872D033008007C
:101B10007E1C8C2D8D312F2D9131F4218D31003A89
:101B20000319932D942DC72DA12D92319C228D3117
:101B3000EB2D9231A5228D31EB2D9231B7228D31D3
:101B4000EB2D22002F082000A9002908A80006304C
:101B5000203E860001308700413F8A00403F0A0056
:101B60008D312000AA00AB012B08003A0319B92DD2
:101B70009D2D2A08013A03199D2D033A0319952D2D
:101B8000013A0319992D073A03199D2D9D2D220025
:101B90003D1038082000AA00220037082000A900C4
:101BA0002200B70A0319B80A2000290886002A086B
:101BB000870001089131EE218D3101302200B902F8
:101BC0000030BA3B39083A04031DE72DE82DEA2D11
:101BD0000630EB2D03300800220090018F018C01AC
:101BE0008D018E010F3021009000FF308C00F83005
:101BF0008D00BF308E008F0123008F0124308E00B6
:101C000020308D00073090001F308C0024008F01A1
:101C100090018D01E0308C008E012100951325008C
:101C200090018C018D018E018F01FF3026008C0008
:101C3000FF308D00FF308E00FF308F0007309000A6
:101C4000FF3027008C00FF308D00FF308E00FF300A
:101C50008F000F30900093121313931392161217E4
:101C6000921791121113911332302000A8001130F5
:101C7000A90092316F228D3133302000A80011303D
:101C8000A900923178228D3134302000A800113023
:101C9000A900923181228D318B1517303C00A400B0
:101CA0001430A10010303D00A3000E309800113018
:101CB000A4001430A60013303C00A000080020004F
:101CC00064036504031D652E662E752E02306206C0
:101CD0006304031D6C2E6D2E752EE401E501E201F7
:101CE000E3012100E801E80AE52E64036504031D11
:101CF0007A2E7B2E9B2E62086304031D802E812E7C
:101D00009B2E21006A080319862E882E0130892E09
:101D100000302000A70027082100EA00E801E80AB7
:101D200069082000A7002708A00021006A0889315F
:101D3000D2218E31E52E64036504031DA02EA12E51
:101D4000C12E62036304031DA62EA72EC12E2100FF
:101D500069080319AC2EAE2E0130AF2E00302000E2
:101D6000A70027082100E900E801E80A6908200027
:101D7000A7002708A00021006A088931D2218E31EE
:101D8000E52E64086504031DC62EC72EE52E6408E3
:101D90006504031DCC2ECD2EDB2E6308803AA700F0
:101DA00080302702031DD62E02306202031CD92E7A
:101DB000DA2EDB2EE52E20006208013EE400003022
:101DC000633DE500E201E301712E080020005508A3
:101DD0005604031DEC2EED2EF12E923122228E316F
:101DE0006F2F5608C4005508C3000030C8000030EB
:101DF000C7000030C6001330C5000030CC000030F2
:101E0000CB000130CA006630C9000030D00000307D
:101E1000CF000030CE000030CD000030D4000030C4
:101E2000D3000030D2003C30D1008631A8268E315C
:101E300020004408D9004308D800D91B202F212FA7
:101E4000322F5908803AD70080305702031D2A2FBD
:101E50001430580203182D2F2E2F322F92311B22AF
:101E60008E316F2F20005908803AD70080305702FA
:101E7000031D3C2F14305802031C3F2F402F522FBC
:101E800020005908803AD70080305702031D4A2F9E
:101E90002830580203184D2F4E2F522F92313122E5
:101EA0008E316F2F20005908803AD70080305702BA
:101EB000031D5C2F28305802031C5F2F602F6F2FEB
:101EC00020005908803AD70080305702031D6A2F3E
:101ED0003D30580203186D2F6E2F6F2FED2E080026
:101EE0002000BE01B71F752F762F832FB409B509C7
:101EF000B609B709B40A0319B50A0319B60A0319D2
:101F0000B70ABE01BE0ABB1F862F872F962FB809BE
:101F1000B909BA09BB09B80A0319B90A0319BA0AF7
:101F20000319BB0A0130BC003C08BE060030C200E9
:101F30000030C1000030C0000030BF003708360458
:101F4000350434040319A52FA62FE72FBD01BD0AC0
:101F5000B42F0130B435B50DB60DB70D890BAA2FCE
:101F60000130BC003C08BD07B71FB72FB82FA92F01
:101F70000130BF35C00DC10DC20D890BB92F370817
:101F80003B02031DCD2F36083A02031DCD2F350825
:101F90003902031DCD2F34083802031CD02FD12F56
:101FA000DA2F3408B8023508B93B3608BA3B37088F
:101FB000BB3B3F140130B736B60CB50CB40C890BE3
:101FC000DB2F0130BD02031DE62FE72FB82F3E089F
:101FD0000319EB2FEC2FF72FBF09C009C109C20964
:101FE000BF0A0319C00A0319C10A0319C20A420829
:101FF000B7004108B6004008B5003F08B40008002B
:10226400080008000800080001300800200091114F
:102274000800240095120800210091110800240090
:1022840016140800240096140800240016150800EB
:102294002400961508002400110808002000911558
:1022A4000800200091110800240095120800210064
:1022B4009111080024001614080024009614080044
:1022C400240016150800240096150800240011089F
:1022D4000800200091150800013401340134240061
:1022E40096161616080024009612161608001630C4
:1022F40021009700080024009616161608002400F2
:10230400961216160800F0007008240091000800C8
:102314002200BD10BC010E300800913144219131DE
:10232400013008009131442191310230080091318B
:10233400442191310130080091314721913100301D
:1023440008009131752191310530080091317121D6
:1023540091310A300800913171219131093008001E
:102364002200BD10BC010E30080000309531292533
:1023740091310800013096317F26913108000030F8
:1023840096317F2691310800200091102100911090
:102394000800200091102100911408002400160E5A
:1023A400890C890C013908002000911DDA29DB29E8
:1023B400D62908001E30F00070082100DC07080050
:1023C4007E1CE62991313629013008007E1CEC2957
:1023D40080310228053008002000A80028082400C5
:1023E400910008002400160E890C890C013908009C
:1023F4002000911DFE29FF29FA29080064008001AC
:102404000131890B012A003422003D1091314A2107
:1024140092310430080058302100990098012200BC
:10242400960108002000A90029089231E522923182
:1024340008002000A801013094311B2492310800C7
:102444002000A801003094311B249231080022009E
:102454003D14363591318521923103300800200036
:10246400A801A80A003094311B24923108002200EC
:102474003D140314360D9131852192310530080045
:10248400863021009E009F019B019C0101309D002C
:102494000800200029082300CF002000280823007A
:1024A400CE000800200029082300D30020002808BB
:1024B4002300D2000800200029082300D1002000B6
:1024C40028082300D0000800240094010830950057
:1024D4009601F93092009512080020002908210085
:1024E400E700200028082100E60008002000290851
:1024F4002100E500200028082100E4000800200055
:1025040029082200EE00200028082200ED0008001F
:10251400200029082200EC00200028082200EB00FB
:1025240008007E1C972A91318A292200BD10BC0123
:102534000E3008007E1CA02A91318F2991315F2131
:102544009231013008007E1CA92A913194299131DD
:102554005F219231023008007E1CB22A9131992900
:1025640091315F219231013008007E1CBB2A9131E8
:102574009E29913162219231003008007E1CC42AC8
:102584009131A329913181219231053008007E1CBB
:10259400CD2A9131A82991317D2192310A30080048
:1025A4007E1CD62A9131AD2991317D219231093099
:1025B4000800403028009600950120009210073052
:1025C4002800970008002000A800111EEA2AEB2A20
:1025D400E72A280823009A00080080302C0099007C
:1025E4009801970125001E08CF3910389E00080075
:1025F4007E1CFE2A9231062A22003D10913165216B
:102604009231043008007E1C092B9231292A2200C1
:102614003D1436359131EE21933103300800182BE7
:102624009131D62193318831332093312200BD1862
:102634001C2B1D2B122B08002400951A222B232B54
:102644002A2B9401083095009601F93092009516D2
:1026540008007608F1007508F0007708F80078089B
:10266400F2000230883109209331080022006B08FF
:102674006C0403193E2B3F2B442B6C088A006B0817
:102684000A00933108007E1C492B9231392A22001A
:102694003D140314360D9131EE21933105300800B9
:1026A400592B9131FA2193318831E2209331220060
:1026B400BD185D2B5E2B532B08002400951A632B49
:1026C400642B6B2B9401083095009601F93092002D
:1026D4009516080020002E08A9002D08A8002F0830
:1026E400B0003008AA00023088315E20933108001F
:1026F4002100660867040319802B812B862B670849
:102704008A0066080A00933127009312080021000A
:102714006408650403198F2B902B952B65088A0098
:1027240064080A0093312700131308002200BD1D1A
:102734009C2B9D2BA62B7108B8007008B70073085A
:10274400BA007208B900BD11080022006D086E04B9
:102754000319AD2BAE2BB32B6E088A006D080A004B
:1027640093312700931308002000A800280886004E
:1027740087018830C03F0C30C13F2808023E8600E4
:102784008701E630C03F0E30C13F0800BB30210056
:10279400BD003D08C0003A08B4003908B300C03099
:1027A400BD003D08B500003089313F219331080058
:1027B400F33020009B009A019110210091143530D0
:1027C4002000A8001130A90092318A2293317F3071
:1027D40020009C0008002000911001302100D10746
:1027E4000030D23D003052020F3003195102031C55
:1027F400FC2BFD2B032C9331382393312100D10181
:10280400D20108002200BD1D082C092C1A2C20001E
:1028140029082200B800200028082200B700200060
:102824002B082200BA0020002A082200B900BD119A
:1028340008002000A90029080319212C222C252C8A
:1028440022008D14272C22008D1020002808031943
:102854002C2C2D2C302C22000D15322C22000D1185
:1028640008002700931E372C382C3B2C93317A23F5
:1028740094312700131F3F2C402C432C9331892380
:1028840094312700931F472C482C4B2C9331A723BA
:102894009431080020002908AB002808AA00AB36B0
:1028A400AA0CAB36AA0C2A082C0098002000280891
:1028B4000339AA000530AA35FF3E031D5D2C2A35D5
:1028C4002C00970008002000AC002C08AA002A085D
:1028D400AB00702C0130AA002A08AC072C08860033
:1028E400013087000108031D782C792C6C2C2B08EF
:1028F4002C02A800A901A81BA9030800003020008D
:10290400B2000030B3000130B4000030B5006830CC
:1029140088318920943157302000B2000130B3004F
:102924000830B4000030B50068309631E92694319F
:102934000800F101F10A2200BD18A12CA22CB52C2B
:102944003D11FF30F0007008B60091313821943108
:1029540091313E21943191313B21943122003C0844
:10296400F0007008F1007108080092316622943179
:102974008D31EC25943192310D22943191317921AC
:1029840094319231422294319231DB22943192314A
:10299400EF2294319331DA2394318731DB27943158
:1029A400080020003C08803ABD0080303D02031D31
:1029B400DD2C01303B020318E02CE12CEE2C20002E
:1029C4003B09BD003C09BE00BD0A0319BE0A3D080F
:1029D400BB003E08BC00EE2C08002000A80028081C
:1029E4008600013087004B30C03F9930C13F280832
:1029F400023E8600013087008330C03F1530C13F5E
:102A04002808043E860001308700BF30C03F1530DF
:102A1400C13F08002000A800280886000130870074
:102A24001F30C03F9930C13F2808023E8600013064
:102A340087006530C03F1530C13F2808043E86003A
:102A440001308700A130C03F1530C13F0800F700B6
:102A5400F801F80A2200BD18302D312D452DBD1482
:102A6400F80177080319372D382D3B2DBB01BB0A1C
:102A74003F2D0230F6007608BB009131412195319B
:102A8400933111239531780808002000AB002B08FE
:102A9400AA00AA0DAA0D21001D0820002A068339C8
:102AA4002A0621009D001D14000021009D149D187C
:102AB4005C2D5D2D592D1C082000A90021001B0848
:102AC4002000A800080000309531472595312000EA
:102AD4002908AF002808AE002F08803AAC008030E7
:102AE4002C02031D772D01302E0203187A2D7C2D24
:102AF40001307D2D00302000AD002D08E600660871
:102B04000800013095314725953120002908AF0090
:102B14002808AE002F08803AAC0080302C02031D38
:102B2400952D01302E020318982D9A2D01309B2DDE
:102B340000302000AD002D08E700670808002000E1
:102B440066080319A62DA72DBB2D21006A080319B9
:102B5400AC2DAD2DBB2D003095314725953120008E
:102B64002908AF002808AE002F08AD002E08AC00DD
:102B7400BE2D2000AC01AD01080020006708031938
:102B8400C42DC52DD92D210069080319CA2DCB2DBB
:102B9400D92D013095314725953120002908AF0002
:102BA4002808AE002F08AD002E08AC00DC2D200054
:102BB400AC01AD0108002000AF010030973135278A
:102BC4009531E2302000AF009830B00097315D2796
:102BD40095312000AF01AF0A003097313527953188
:102BE400E2302000AF009830B00097315D27953176
:102BF40008002000AB002B08A9000430A936890B7B
:102C0400002E2908AA002A08AB002B080F39A900B6
:102C14002908AB000F08F0398F000F082B048F0030
:102C2400280C031C8F1203188F160F130F160F1284
:102C340008002000AE00FA300032890B1E2E20005E
:102C4400A801A80A2E089531FB25963120002E08EC
:102C5400AC000330AC35FF3E031D2C2E2C35AD00EB
:102C64002D08AE00A801A80A2E089531FB2596313F
:102C740008002000A901A90A2200BD18422E432EF3
:102C8400592E3D11FF302000A80028082200B6006C
:102C940091315321963191315921963191315621F7
:102CA400963122003C082000A8002808A900200032
:102CB400290808002000AE00FA300032890B5F2E8C
:102CC4002000A8012E089531FB25963120002E08FE
:102CD400AC000330AC35FF3E031D6C2E2C35AD002B
:102CE4002D08AE005330890B752E00002000A8017A
:102CF4002E089531FB25963108002000B000B10163
:102D0400B10A2200BD18872E882E9F2EBD142000E4
:102D1400B101300803198F2E902E942E2200BB018E
:102D2400BB0A992E0230AF002F082200BB0091315C
:102D34005C219631933152239631200031080800EA
:102D440021006808031DA72EA82EB42EC42E873197
:102D54004B279631C22E8531E8259631C22EE401E7
:102D6400E501C22E20006508003A0319BA2EB12EDF
:102D74006408003A0319A92E013A0319AD2EB12EA5
:102D84002100E801080020008F0121008F012000AC
:102D94008F1705302000AF00DD30890BCF2EAF0B2D
:102DA400CF2E0032323096315C269631283096315F
:102DB4005C2696310C3096315C2696310130963182
:102DC4005C269631063096315C2696310800200048
:102DD400B600200036088B3123239631003A0319BC
:102DE400F42EF52EEB2E20003308A9003208A8009B
:102DF4003508AB003408AA0094310424963191318B
:102E0400BC21963196313B269631013A03190B2F9A
:102E14000C2F042F0800FD007D088A31AC22973165
:102E2400003A0319162F172F0E2F7A08F10079088C
:102E3400F0007C08F3007B08F2009331982397316B
:102E44000030F500F600F70193312B2397319131CF
:102E5400B721973194319B249731013A0319332FC9
:102E6400342F2C2F08002000B20002302F02031848
:102E74003C2F3D2F5C2F10303202031C422F432F76
:102E8400442F5C2F2F030319482F492F4F2F8030D5
:102E94003204B0000030B100542FC0303204B0000E
:102EA4000030B100300896315C269731FA30003298
:102EB400890B592F08002000B401742F3008B20088
:102EC4002F08B10034083107840032080318320A8D
:102ED4008500000896311B26973101302000B1008F
:102EE4003108B4073008B2002F08B10034083107A4
:102EF400840032080318320A85001200031D832F50
:102F0400842F602F08002000B900B701B8019D2F5D
:102F14003608B300B4013308AA003408AB00320801
:102F2400B5003508AC008B316423973101302000A3
:102F3400B7070030B83D37083907B30033088600B7
:102F4400013087000108B4003408B6003608031DB8
:102F5400AC2FAD2F8A2F08009431802497312200A2
:102F640058082100C500C60144084606031DBC2FAD
:102F740043084506031DBF2FC02FD62F2200590832
:102F84002100C500C60142084606031DCB2F410897
:102F94004506031DCE2FCF2FD62F3730B9009930D9
:102FA400BA009331C8239731080021005B08031D40
:102FB400DC2FDD2FE32F9131CB2197312100DB0171
:102FC400DB0A4808803A803C031DEA2F47085C026C
:102FD400031CED2FEE2FFF2F9131C62197311430B2
:102FE4002100C1000030C2000630C3000030C4001C
:102FF4009731AE2797312100DC0108009334123455
:10300400453413340534133488340D3437340C34D4
:10301400FA3412343C340A349C341234A534123455
:10302400AE341234B7341234C0341234C9341234C6
:10303400D23412340034083407340A346D3465341D
:103044006E3475345F346334753472347234653479
:103054006E3474343A3420342534643420340A34DD
:103064000D340034203420344434653473346834EB
:103074006134623469346C34693474346134643472
:103084006F34203420342034203400346D346534DB
:103094006E3475345F3469346E3464346534783432
:1030A4003A3420342534643420340A340D34003462
:1030B4002034203420342034413470346134673473
:1030C400613464346F342034203420342034203488
:1030D4000034203420342034483461346234693478
:1030E4006C3469347434613464346F34203420347F
:1030F40020340034203420342034203445346E34D9
:10310400633465346E346434693464346F34203425
:103114002034203400343C342034203420344834E7
:103124006F34723461342034643465342034203490
:10313400203420343E3400342034203420342034ED
:10314400533465346E3473346F3472346534733489
:103154002034203420343E3400343C3420342034B1
:10316400543465346D347034653472346134743479
:1031740075347234613420343E3400343C342034A9
:1031840020344C3475346D3469346E346F34733494
:10319400693464346134643420343E3400343C345F
:1031A4002034543465346D3470346F34723469347B
:1031B4007A34613464346F34723420343E340034ED
:1031C400203420342034203420342034203420345B
:1031D400203420342034203420342034203420344B
:1031E40000343C3420342034203452346534673481
:1031F40072346534733461347234203420342034AE
:103204000034203420342034203441347034613488
:103214006734613464346F3420342034203400340F
:103224003C3420342034203448346F3472346134D4
:1032340020346434653420340034543465346D34BB
:103244007034653472346134743475347234653472
:1032540000344234693465346E34763465346E3403
:10326400693464346F3421340034573461346B343A
:1032740065346534553450342134213400345334A6
:1032840068347534743464346F34773421342134BD
:1032940000344C346934673468347434003425346D
:0432A400643400345A
:020000040001F9
:04000E00E43FFF3E8E
:00000001FF
