:020000040000FA
:1000000080312628053008007E1480318B1D092898
:100010000A2812280B1C0D280E2812289E31232690
:10002000803124280B1F1528162824282100911C14
:100030001A281B2824282000911C1F282028242847
:100040009D31C525803124287E1009008031282863
:1000500022009B3148238031E5009B3149238031C8
:10006000E6009B314A238031E7009B314B238031EE
:10007000E8002100E801E901EA01203084000130B4
:1000800085003030903100208031A0308400013074
:1000900085003D30903100208031203084000230D6
:1000A000850020309031002080317E102000863184
:1000B0003E2E2100CD004008D4004108D500420862
:1000C000D6004308D7004408D8004508D9004608A0
:1000D000DA004708DB00D430860000308700473F55
:1000E000C800C81B7428762801307728003021000A
:1000F000C900CA014908D2004A08D3005208530473
:10010000031983288428A228D409D509D609D70938
:10011000D809D909DA09DB09D40A031DA228D50AAE
:10012000031DA228D60A031DA228D70A031DA22850
:10013000D80A031DA228D90A031DA228DA0A031D22
:10014000A228DB0A2200C31BA628A728AB28FD3063
:10015000C405FF30C5054308803A2100C80080303F
:100160004802031DB6280130220042020318B928B4
:10017000BA28C02801302100CE000030CF00C828A6
:10018000220043082100CF00220042082100CE00B7
:10019000220041082100D100220040082100D000A7
:1001A00052085304031DD528D628DB282200441DFD
:1001B000DA28DB28E028FF302100D007FF30D13DCE
:1001C0001F302100DC000030DD002400BF01512978
:1001D000FF302100DC07FF30DD3D0A30A500A6011D
:1001E000A701A801A901AA01AB01AC015408AD0007
:1001F0005508AE005608AF005708B0005808B100C7
:100200005908B2005A08B3005B08B4008D312625A6
:10021000803121002608B9002508B8009E31F82653
:10022000803121003808303EC8005C08203E86003E
:100230000230870048088100FF30CE07FF30CF3DF5
:10024000FF30D007FF30D13D0A30A500A601A7013D
:10025000A801A901AA01AB01AC015408AD005508E1
:10026000AE005608AF005708B0005808B100590852
:10027000B2005A08B3005B08B400833139238031DF
:1002800021002508D4002608D5002708D600280814
:10029000D7002908D8002A08D9002B08DA002C0832
:1002A000DB0021005D08803AC80080304802031D51
:1002B0005B2901305C02031C5E295F298C29210027
:1002C0005408550456045704580459045A045B044E
:1002D000031D6B296C29E8284F08803AC80080303C
:1002E0004802031D752901304E0203187829792927
:1002F000E82821005108803AC80080304802031DD8
:10030000832901305002031C862987298C29220069
:10031000C4188B298C29E828210052085304031D96
:100320009229932998292200441D97299829B529B3
:10033000FF302100DC07FF30DD3D52085304031D70
:10034000A229A329A8292B30CB000030CC00AC294E
:100350002D30CB000030CC004B08C8005C08203E9C
:100360008600023087004808810021005C08203E9A
:10037000C8004808B7005108B9005008B8004D0837
:1003800088315B20803121003808C1003708C00067
:1003900008002000BB003008C4003108C500320846
:1003A000C6003308C7003408C8003508C90036083D
:1003B000CA003708CB004430860000308700473F32
:1003C000B800B81BE429E6290130E72900302000F5
:1003D000B900BA013908C2003A08C3004208430410
:1003E0000319F329F429122AC409C509C609C70942
:1003F000C809C909CA09CB09C40A031D122AC50ABA
:10040000031D122AC60A031D122AC70A031D122A37
:10041000C80A031D122AC90A031D122ACA0A031D8B
:10042000122ACB0A2200C31B162A172A1B2AFD30C8
:10043000C405FF30C5054308803A2000B80080306D
:100440003802031D262A0130220042020318292AFD
:100450002A2A302A01302000BE000030BF00382A8E
:10046000220043082000BF00220042082000BE00F6
:10047000220041082000C100220040082000C000E6
:1004800042084304031D452A462A4B2A2200441DE4
:100490004A2A4B2A502AFF302000C007FF30C13DB6
:1004A0001F302000CC000030CD002400BF01C12A45
:1004B000FF302000CC07FF30CD3D0A30A000A10165
:1004C000A201A301A401A501A601A7014408A80057
:1004D0004508A9004608AA004708AB004808AC0038
:1004E0004908AD004A08AE004B08AF008C313C24EF
:1004F000813120002108F4002008F3009E315526A8
:1005000081317308303E2000B8004C08203E860040
:100510000230870038088100FF30BE07FF30BF3D42
:10052000FF30C007FF30C13D0A30A000A101A20189
:10053000A301A401A501A601A7014408A80045083C
:10054000A9004608AA004708AB004808AC004908C3
:10055000AD004A08AE004B08AF0084313E24813123
:1005600020002008C4002108C5002208C600230876
:10057000C7002408C8002508C9002608CA002708A3
:10058000CB0020004D08803AB80080303802031DAF
:10059000CB2A01304C02031CCE2ACF2AFC2A200091
:1005A0004408450446044704480449044A044B04EB
:1005B000031DDB2ADC2A582A3F08803AB800803025
:1005C0003802031DE52A01303E020318E82AE92A11
:1005D000582A20004108803AB80080303802031DB4
:1005E000F32A01304002031CF62AF72AFC2A2200D3
:1005F000C418FB2AFC2A582A200042084304031D81
:10060000022B032B082B2200441D072B082B252B24
:10061000FF302000CC07FF30CD3D42084304031DCE
:10062000122B132B182B2B30BC000030BD001C2BC1
:100630002D30BC000030BD003C08B8004C08203E06
:100640008600023087003808810020004C08203ED8
:10065000B8003808A4004108A6004008A5003B08DF
:1006600088310220813120002508B1002408B00023
:1006700008002100B701A530860000308700473F01
:10068000B500B51F442B452B672B2100A509A609F2
:10069000A709A809A909AA09AB09AC09A50A031D5C
:1006A000642BA60A031D642BA70A031D642BA80A4A
:1006B000031D642BA90A031D642BAA0A031D642BC6
:1006C000AB0A031D642BAC0A2100B701B70AAD3099
:1006D000860000308700473F2100B500B51F712B11
:1006E000722B962B2100AD09AE09AF09B009B109F3
:1006F000B209B309B409AD0A031D912BAE0A031D5B
:10070000912BAF0A031D912BB00A031D912BB10A47
:10071000031D912BB20A031D912BB30A031D912BCC
:10072000B40A01302100B5003508B706B83086009C
:100730000030870008302100B50000301E00B50BE6
:100740009E2B250826042704280429042A042B04A8
:100750002C040319AC2BAD2B092CB601B60ABC2B0B
:10076000A535A60DA70DA80DA90DAA0DAB0DAC0DB5
:100770000130B5003508B607AC1FBF2BC02BB02B1E
:10078000B835B90DBA0DBB0DBC0DBD0DBE0DBF0DFD
:100790002C083402031DE62B2B083302031DE62B25
:1007A0002A083202031DE62B29083102031DE62B1D
:1007B00028083002031DE62B27082F02031DE62B15
:1007C00026082E02031DE62B25082D02031CE92B0B
:1007D000EA2BFB2B2508AD022608AE3B2708AF3BD2
:1007E0002808B03B2908B13B2A08B23B2B08B33B91
:1007F0002C08B43B3814AC36AB0CAA0CA90CA80CD2
:10080000A70CA60CA50C0130B602031D082C092C60
:10081000C02B370803190D2C0E2C2C2CB809B90944
:10082000BA09BB09BC09BD09BE09BF09B80A031D45
:100830002C2CB90A031D2C2CBA0A031D2C2CBB0A24
:10084000031D2C2CBC0A031D2C2CBD0A031D2C2CB3
:10085000BE0A031D2C2CBF0A21003808A500390848
:10086000A6003A08A7003B08A8003C08A9003D08DC
:10087000AA003E08AB003F08AC000800F20120309F
:10088000860000308700473FF000F01F482C492CBD
:100890006A2C2000A009A109A209A309A409A5099D
:1008A000A609A709A00A031D682CA10A031D682C2C
:1008B000A20A031D682CA30A031D682CA40A031DA9
:1008C000682CA50A031D682CA60A031D682CA70A1C
:1008D000F201F20A2830860000308700473FF0001E
:1008E000F01F732C742C972C2000A809A909AA09C1
:1008F000AB09AC09AD09AE09AF09A80A031D932CD9
:10090000A90A031D932CAA0A031D932CAB0A031DED
:10091000932CAC0A031D932CAD0A031D932CAE0A35
:10092000031D932CAF0A0130F0007008F2067330FB
:100930008600003087000830F00000301E00F00B09
:100940009E2C2000200821042204230424042504D2
:10095000260427040319AD2CAE2C0A2DF101F10A4F
:10096000BD2CA035A10DA20DA30DA40DA50DA60DA6
:10097000A70D0130F0007008F107A71FC02CC12C93
:10098000B12CF335F40DF50DF60DF70DF80DF90D4D
:10099000FA0D27082F02031DE72C26082E02031D3F
:1009A000E72C25082D02031DE72C24082C02031D2B
:1009B000E72C23082B02031DE72C22082A02031D23
:1009C000E72C21082902031DE72C20082802031C1C
:1009D000EA2CEB2CFC2C2008A8022108A93B2208B9
:1009E000AA3B2308AB3B2408AC3B2508AD3B2608BB
:1009F000AE3B2708AF3B7314A736A60CA50CA40C7E
:100A0000A30CA20CA10CA00C0130F102031D092DB6
:100A10000A2DC12C720803190E2D0F2D2D2DF3094F
:100A2000F409F509F609F709F809F909FA09F30AC9
:100A3000031D2D2DF40A031D2D2DF50A031D2D2D4B
:100A4000F60A031D2D2DF70A031D2D2DF80A031D8F
:100A50002D2DF90A031D2D2DFA0A73082000A00080
:100A60007408A1007508A2007608A3007708A40006
:100A70007808A5007908A6007A08A70008002200D7
:100A8000D80021005E08860001308700403FE0006A
:100A9000413FE10060088400610885001200253AAA
:100AA000031D532D542D162E5E088600013087003D
:100AB0000130810741310318810A2200C001C101C0
:100AC000C401C501FF30C200FF30C30021005E0831
:100AD000860001308700403FE000413FE1006008B0
:100AE0008400610885001200643A0319782D792D7D
:100AF0008B2D5E08860001308700403FE000413FBB
:100B0000E10060088400610885001200693A031D55
:100B10008A2D8B2DDC2D5E08860001308700013088
:100B2000810741310318810A5F0886000130870080
:100B3000010884000130850002308107003FE00099
:100B4000013FE10060082200D0002100610822007E
:100B5000D100890D893B8909D200D300D400D5008A
:100B6000D600D70050082100C00022005108210003
:100B7000C100220052082100C200220053082100B7
:100B8000C300220054082100C4002200550821009F
:100B9000C500220056082100C60022005708210087
:100BA000C7002200580880315920853121004108B2
:100BB000DF004008DE003D2E5E0886000130870021
:100BC000403FE000413FE10060088400610885008B
:100BD0001200253A031DED2DEE2D0A2E5E0886002B
:100BE000013087000130810741310318810A253027
:100BF000A7000030A800220058082100E00060088B
:100C0000A90096313226853101302100DE00003006
:100C1000DF003D2E5E08860001308700013081072D
:100C200041310318810ADE01DF013D2E5E08860096
:100C300001308700403FE000413FE1006008840050
:100C4000610885000008E200E3016208A70063086C
:100C5000A800220058082100E4006408A900963189
:100C60003226853121005E08860001308700013080
:100C7000810741310318810A042E08009E31DC26C9
:100C800086319031AC20863100302400C200003023
:100C9000C3000030C400D7309F3131278631D130B6
:100CA0009F314E2786310230D13E860001308700C9
:100CB000413F8A00403F0A0086312200E400640878
:100CC0002400CA000230D73E860001308700413F31
:100CD0008A00403F0A0086312200E40064082400B4
:100CE000CB00CC01CD014A082200E40064082400B6
:100CF000CC004B082200E40064082400CD00CB3077
:100D00009F31142786314C302200E4006408210012
:100D1000A500B1309631BA2686318B170B17230008
:100D200034082100A600230033082100A5009C31CF
:100D300030248631230036082100A6002300350820
:100D40002100A5009C313924863123003808210078
:100D5000A600230037082100A5009C3142248631DB
:100D60000A302100A5001330A6009C314B248631A7
:100D7000BF302100AC009930AD0091318E21863119
:100D800041302200E400EE30890BC42EE40BC42E67
:100D9000000067302200E40064082100B4006830DD
:100DA0009531F1258631220065080319D82ED92EF8
:100DB000272F0430D13E860001308700413F8A0052
:100DC000403F0A00863121002A082400C700210084
:100DD00029082400C6000430D73E86000130870071
:100DE000413F8A00403F0A00863121002A08240042
:100DF000C900210029082400C80047082100E30099
:100E0000240046082100E2000230CB3E860001307B
:100E10008700413F8A00403F0A008731240049088B
:100E20002100E300240048082100E20023004C08D0
:100E30008A004B080A0087310A30B13E8600013033
:100E40008700413F8A00403F0A008731D32ECB30D4
:100E5000DF009930E0009D31B02586310430CB3E73
:100E6000860001308700413F8A00403F0A008731F9
:100E7000D32E80312628D72F9F31E22787312100BA
:100E8000AC0100309131662187318B302100AC00FC
:100E90009930AD0091318E2187312100AC01AC0A2F
:100EA00000309131662187316C302100AC009930DF
:100EB000AD0091318E218731EE2F9F31E2278731AE
:100EC0002100AC010030913166218731C43021000E
:100ED000AC009830AD0091318E2187312100AC01FA
:100EE000AC0A00309131662187316C302100AC00B2
:100EF0009930AD0091318E218731EE2F9F31E2275D
:100F000087312100AC010030913166218731D53025
:100F10002100AC009830AD0091318E218731210045
:100F2000AC01AC0A00309131662187316C30210070
:100F3000AC009930AD0091318E218731EE2F9F3179
:100F4000E22787312100AC010030913166218731E1
:100F50004C302100AC009930AD0091318E218731A9
:100F60002100AC01AC0A00309131662187316C3030
:100F70002100AC009930AD0091318E218731EE2FE8
:100F80009F31E22787312100AC0100309131662189
:100F900087315C302100AC009930AD0091318E2159
:100FA0008731EE2F0130E8000030E900EE2F2100FC
:100FB0006908003A0319DD2FD22F6808003A031997
:100FC0003C2F013A03195D2F033A03197E2F013A92
:100FD00003199F2F073A0319C02FD22F08007E3024
:100FE0002200DF009830E0009D31B0258731FF30CE
:100FF0002100A5000030A6009E313C268731080064
:10100000013008002000AC002200441C08280928F8
:10101000122820002C08A7002708FA002408913184
:10102000B62188312000A61B162817281C28260860
:10103000AB002508AA001E28AA01AB01A801A9013E
:1010400032282030F2000030F30020002C08A700E6
:101050002708F40095317125883101302000A80758
:101060000030A93D2908803AA7002B08803A2702C2
:10107000031D3C282A082802031C3F284028212859
:1010800022004418442845284E2820002C08A70098
:101090002708FA0024089131B6218831200024085D
:1010A0009E316F26883120002A087007A4002B0883
:1010B000713DA50008002100BF002200441C6128EA
:1010C00062286B2821003F08BA003A08AF003708B1
:1010D0009231082288312100B91B6F2870287528A9
:1010E0003908BE003808BD007728BD01BE01BB012C
:1010F000BC018B2820302100A7000030A8003F0849
:10110000BA003A08A9009631322688310130210010
:10111000BB070030BC3D3C08803ABA003E08803A2C
:101120003A02031D95283D083B02031C9828992884
:101130007A28220044189D289E28A72821003F08CD
:10114000BA003A08AF0037089231082288312100EE
:1011500037089E318926883121003D082507B700D0
:101160003E08263DB80008007E1CB8289731A72FFE
:101170009B31BB238831003A0319BF28C028F328CC
:10118000CD289C315D24883117299C316624883113
:1011900017299C3178248831172922002F08210033
:1011A000A6002608A5000630203E860001308700F4
:1011B000413F8A00403F0A0088312100A700A80172
:1011C0002808003A0319E528C9282708013A031915
:1011D000C928033A0319C128013A0319C528073A57
:1011E0000319C928C92822003D1038082100A7008A
:1011F000220037082100A6002200B70A0319B80A06
:101200002100260886002708870001089B31B523A6
:10121000883101302200B9020030BA3B39083A0463
:10122000031D132914291629063017290330080035
:10123000210042084602D2004308473BD30044083D
:10124000483BD4004508493BD5005508B400540834
:10125000B3005308B2005208B1004008D60041085C
:10126000D7000030D71BFF30D800D9004208D60283
:101270004308D73B4408D83B4508D93B5908A80048
:101280005808A7005708A6005608A5004A084E02AD
:10129000DA004B084F3BDB004C08503BDC004D08AC
:1012A000513BDD005D08AC005C08AB005B08AA00A8
:1012B0005A08A90094312624893121002808B80051
:1012C0002708B7002608B6002508B5008A317C2219
:1012D0008931210031084A07DE0032084B3DDF002A
:1012E00033084C3DE00034084D3DE1006108C30087
:1012F0006008C2005F08C1005E08C000080022004C
:1013000090018F018C018D018E010F302100900022
:10131000FF308C00F8308D00BF308E008F0123002D
:101320008F0124308E0020308D00073090001F3058
:101330008C0024008F0190018D01E0308C008E0123
:1013400021009513250090018C018D018E018F01E4
:10135000FF3026008C00FF308D00FF308E00FF3004
:101360008F0007309000FF3027008C00FF308D0089
:10137000FF308E00FF308F000F3090009312131358
:101380009313921612179217911211139113FA30A8
:101390002100A5001A30A6009C3130248931FB3091
:1013A0002100A5001A30A6009C3139248931FC3077
:1013B0002100A5001A30A6009C31422489318B15EA
:1013C00017303C00A4001430A10010303D00A300F1
:1013D0000E3098001130A4001430A60013303C00E9
:1013E000A0000800210062086304031DF829F92900
:1013F000FD299B31DC2389317B2A6308C100620807
:10140000C0000030C5000030C4000030C3001330FD
:10141000C2000030C9000030C8000130C70066308B
:10142000C6000030CD000030CC000030CB000030D2
:10143000CA000030D1000030D0000030CF003C3076
:10144000CE0089311821893121004108E600400889
:10145000E500E61B2C2A2D2A3E2A6608803AE40085
:1014600080306402031D362A143065020318392ABD
:101470003A2A3E2A9B31D52389317B2A21006608EE
:10148000803AE40080306402031D482A143065026B
:10149000031C4B2A4C2A5E2A21006608803AE4008D
:1014A00080306402031D562A283065020318592A29
:1014B0005A2A5E2A9B31F22389317B2A2100660851
:1014C000803AE40080306402031D682A28306502F7
:1014D000031C6B2A6C2A7B2A21006608803AE400F0
:1014E00080306402031D762A3D3065020318792A94
:1014F0007A2A7B2AF92908002100BB01B41F812A1E
:10150000822A8F2AB109B209B309B409B10A0319B1
:10151000B20A0319B30A0319B40ABB01BB0AB81F04
:10152000922A932AA22AB509B609B709B809B50AB9
:101530000319B60A0319B70A0319B80A0130B9002A
:101540003908BB060030BF000030BE000030BD00CF
:101550000030BC0034083304320431040319B12ACA
:10156000B22AF32ABA01BA0AC02A0130B135B20D43
:10157000B30DB40D890BB62A0130B9003908BA078A
:10158000B41FC32AC42AB52A0130BC35BD0DBE0D17
:10159000BF0D890BC52A34083802031DD92A330828
:1015A0003702031DD92A32083602031DD92A310811
:1015B0003502031CDC2ADD2AE62A3108B50232088E
:1015C000B63B3308B73B3408B83B3C140130B43663
:1015D000B30CB20CB10C890BE72A0130BA02031D1F
:1015E000F22AF32AC42A3B080319F72AF82A032B04
:1015F000BC09BD09BE09BF09BC0A0319BD0A03190C
:10160000BE0A0319BF0A3F08B4003E08B3003D08F4
:10161000B2003C08B1000800872B9F31E2278B31D4
:101620002100AC010030913166218B31F73021006F
:10163000AC009830AD0091318E218B319B2B9F31C6
:10164000E2278B312100AC010030913166218B31D2
:101650002A302100AC009930AD0091318E218B31C0
:101660002100AC01AC0A0030913166218B31913000
:101670002100AC009830AD0091318E218B319B2B35
:101680009F31E2278B312100AC010030913166217E
:101690008B31E6302100AC009830AD0091318E21C5
:1016A0008B312100AC01AC0A0030913166218B31C5
:1016B000B3302100AC009830AD0091318E218B31D8
:1016C0009B2B9F31E2278B312100AC0100309131FF
:1016D00066218B319A302100AC009930AD009131F8
:1016E0008E218B312100AC01AC0A00309131662192
:1016F0008B317C302100AC009930AD0091318E21CE
:101700008B319B2B0130E8000030E9009B2B21003E
:101710006908003A03198D2B822B6808003A0319D7
:101720000D2B013A03191F2B033A0319402B013AE1
:101730000319612B822B08002A2C22004D08031963
:10174000A22BA32BD32B9F31E2278B312100AC019D
:101750000030913166218B3108302100AC00993086
:10176000AD0091318E218B312100AC01AC0A0030EB
:10177000913166218B31220068080319C02BC12BDF
:10178000CA2BA2302100AC009830AD0091318E21DF
:101790008B313B2C6A302100AC009830AD00913188
:1017A0008E218B313B2C01302100E8070030E93DD0
:1017B00022004C080319DD2BDE2B0E2C9F31E22773
:1017C0008B312100AC010030913166218B31193011
:1017D0002100AC009930AD0091318E218B31210078
:1017E000AC01AC0A0030913166218B3122006708D0
:1017F0000319FB2BFC2B052CA2302100AC009830E8
:10180000AD0091318E218B313B2C6A302100AC0030
:101810009830AD0091318E218B313B2C013021006D
:10182000E8070030E93D9F31E2278B312100AC0110
:101830000030913166218B315C302100AC00993051
:10184000AD0091318E218B313B2C0130E80000300E
:10185000E9003B2C21006908003A0319302C252CA3
:101860006808003A03199D2B013A0319D82B033A53
:101870000319132C252C0800F201283086000030B3
:101880008700473FF000F01F462C472C682C2000B3
:10189000A809A909AA09AB09AC09AD09AE09AF09A4
:1018A000A80A031D662CA90A031D662CAA0A031D9B
:1018B000662CAB0A031D662CAC0A031D662CAD0A10
:1018C000031D662CAE0A031D662CAF0AF201F20A54
:1018D0002030860000308700473FF000F01F712C59
:1018E000722C912C2000A009A109A209A309A40926
:1018F000A509A609A709A00A031D912CA10A031D89
:10190000912CA20A031D912CA30A031D912CA40A59
:10191000031D912CA50A031D912CA60A031D912CD1
:10192000A70A2000200821042204230424042504FB
:101930002604270403199D2C9E2CF12CF101F10A99
:10194000AD2CA035A10DA20DA30DA40DA50DA60DC6
:10195000A70D0130F0007008F107A71FB02CB12CC3
:10196000A12C27082F02031DCF2C26082E02031DB1
:10197000CF2C25082D02031DCF2C24082C02031D7B
:10198000CF2C23082B02031DCF2C22082A02031D73
:10199000CF2C21082902031DCF2C20082802031C6C
:1019A000D22CD32CE32C2008A8022108A93B220822
:1019B000AA3B2308AB3B2408AC3B2508AD3B2608DB
:1019C000AE3B2708AF3BA736A60CA50CA40CA30C76
:1019D000A20CA10CA00C0130F102031DF02CF12C83
:1019E000B12C72080319F52CF62C142DA809A9099D
:1019F000AA09AB09AC09AD09AE09AF09A80A031DD4
:101A0000142DA90A031D142DAA0A031D142DAB0AB7
:101A1000031D142DAC0A031D142DAD0A031D142D36
:101A2000AE0A031D142DAF0A20002808A0002908C3
:101A3000A1002A08A2002B08A3002C08A4002D084E
:101A4000A5002E08A6002F08A70008002100B70156
:101A5000AD30860000308700473FB500B51F312DFF
:101A6000322D542D2100AD09AE09AF09B009B109DD
:101A7000B209B309B409AD0A031D512DAE0A031D05
:101A8000512DAF0A031D512DB00A031D512DB10A6E
:101A9000031D512DB20A031D512DB30A031D512DF3
:101AA000B40A2100B701B70AA530860000308700CC
:101AB000473F2100B500B51F5E2D5F2D7E2D210013
:101AC000A509A609A709A809A909AA09AB09AC098A
:101AD000A50A031D7E2DA60A031D7E2DA70A031D40
:101AE0007E2DA80A031D7E2DA90A031D7E2DAA0A9C
:101AF000031D7E2DAB0A031D7E2DAC0A2100250897
:101B000026042704280429042A042B042C0403197E
:101B10008A2D8B2DDE2DB601B60A9A2DA535A60D80
:101B2000A70DA80DA90DAA0DAB0DAC0D0130B50088
:101B30003508B607AC1F9D2D9E2D8E2D2C08340226
:101B4000031DBC2D2B083302031DBC2D2A083202B5
:101B5000031DBC2D29083102031DBC2D28083002AD
:101B6000031DBC2D27082F02031DBC2D26082E02A5
:101B7000031DBC2D25082D02031CBF2DC02DD02D0B
:101B80002508AD022608AE3B2708AF3B2808B03B2E
:101B90002908B13B2A08B23B2B08B33B2C08B43BC5
:101BA000AC36AB0CAA0CA90CA80CA70CA60CA50C67
:101BB0000130B602031DDD2DDE2D9E2D37080319E1
:101BC000E22DE32D012EAD09AE09AF09B009B1092F
:101BD000B209B309B409AD0A031D012EAE0A031DF3
:101BE000012EAF0A031D012EB00A031D012EB10AFA
:101BF000031D012EB20A031D012EB30A031D012E7F
:101C0000B40A21002D08A5002E08A6002F08A70061
:101C10003008A8003108A9003208AA003308AB0038
:101C20003408AC0008002000DF004E0886004F0892
:101C30008700403FD200413FD30052088400530840
:101C400085001200253A031D262E272EDD2E4E0874
:101C500086004F0887000130810741310318810A4F
:101C60002200C001C101C401C501FF30C200FF3024
:101C7000C30020004E0886004F088700403FD20076
:101C8000413FD30052088400530885001200643A93
:101C900003194B2E4C2E5E2E4E0886004F088700EF
:101CA000403FD200413FD3005208840053088500D2
:101CB0001200693A031D5D2E5E2EA52E4E08860089
:101CC0004F0887000130810741310318810A50080D
:101CD0008600510887000108D20002308107413197
:101CE0000108D30000300318810A810752088600DA
:101CF00053088700403FD400413FD5005408D70027
:101D00005508D800890D893B8909D900DA00DB0024
:101D1000DC00DD00DE005708B0005808B1005908AB
:101D2000B2005A08B3005B08B4005C08B5005D0857
:101D3000B6005E08B7005F088131C9218E312000EE
:101D40003108CF003008CE00022F4E0886004F0821
:101D50008700403FD200413FD3005208840053081F
:101D600085001200253A031DB62EB72ED12E4E083F
:101D700086004F0887000130810741310318810A2E
:101D80002530F2000030F3005F08D2005208F40062
:101D9000953171258E3101302000CE000030CF000A
:101DA000022F4E0886004F0887000130810741311D
:101DB0000318810ACE01CF01022F4E0886004F087A
:101DC0008700403FD200413FD300520884005308AF
:101DD00085000008D400D5015408F2005508F3002E
:101DE0005F08D6005608F400953171258E31200029
:101DF0004E0886004F0887000130810741310318E3
:101E0000810ACB2E08002200E501E50A46034704BB
:101E1000031D0B2F0C2F1E2F0230210068066904B2
:101E2000031D132F142F1E2F2200C601C7012100EE
:101E3000E801E9012200E601E60AFF2F0230220054
:101E400046064704031D252F262F2F2F043021007F
:101E500068066904031D2D2F2E2F2F2F142F0230FB
:101E6000220046064704031D362F372F862F0430E5
:101E700021006806690403193E2F3F2F862F542F37
:101E80000530A3000030A400672F0A30A300003003
:101E9000A400672F0F30A3000030A400672F143078
:101EA000A3000030A400672F6908003A0319592FD6
:101EB0004F2F6808003A0319402F013A0319452FA4
:101EC000033A03194A2F013A03194F2F4F2FA73016
:101ED0002000E8009930E900210024082000EB00F0
:101EE000210023082000EA009D318C258F3121003C
:101EF0002408A1002308A0009E31C0268F312200B3
:101F0000C601C7012100E801E9011A2F220046039A
:101F10004704031D8C2F8D2FAF2F21006808690403
:101F2000031D932F942FAF2F220068080319992FB8
:101F30009B2F01309C2F00302100A200220822009C
:101F4000E800E601E60A67082100A2002208200056
:101F5000A0002200680894315A248F31FF2F2200FC
:101F600046034704031DB52FB62FD82F2100680361
:101F70006904031DBC2FBD2FD82F22006708031949
:101F8000C22FC42F0130C52F00302100A20022082B
:101F90002200E700E601E60A67082100A200220805
:101FA0002000A0002200680894315A248F31FF2FAE
:101FB000220046084704031DDE2FDF2FFF2F4608AF
:101FC0004704031DE42FE52FF42F21006908803A10
:101FD000A20080302202031DEF2F03306802031C91
:101FE000F22FF32FF42FFF2F21006808013E22006B
:101FF000C60000302100693D2200C700822F080082
:10200000640080010131890B0128003400309D31CA
:10201000F325903121002608AC002508AB002C08E0
:10202000803AA90080302902031D182801302B02B4
:1020300003181B281D2801301E2800302100AA008B
:102040002A082200CE004E0808002100AB00FA301A
:102050000032890B28282100A501A50A2B08903100
:10206000F420903121002B08A9000330A935FF3E50
:10207000031D36282935AA002A08AB00A501A50AA8
:102080002B089031F420903108002100A601A60A07
:102090002200BD184C284D2863283D11FF30210037
:1020A000A50025082200B6009B31192390319B31F1
:1020B0001F2390319B311C23903122003C082100CA
:1020C000A5002508A6002100260808002100AB0075
:1020D000FA300032890B69282100A5012B089031C4
:1020E000F420903121002B08A9000330A935FF3ED0
:1020F000031D76282935AA002A08AB005330890B26
:102100007F2800002100A5012B089031F420903198
:1021100008002100AD00AE01AE0A2200BD189128D2
:102120009228A928BD142100AE012D080319992871
:102130009A289E282200BB01BB0AA3280230AC00CB
:102140002C082200BB009B31222390319D31282591
:10215000903121002E08080020008F0121008F01FE
:1021600020008F1705302100AC00DD30890BB62828
:10217000AC0BB628003232309031662090312830D6
:102180009031662090310C309031662090310130D2
:1021900090316620903106309031662090310800F1
:1021A0002100B300210033089531B0259031003A69
:1021B0000319DB28DC28D22821003008A6002F08CC
:1021C000A5003208A8003108A7009D31DC25903118
:1021D0009B318D239031903145209031013A031984
:1021E000F228F328EB2808002100A8002808A60000
:1021F0000430A636890BF9282608A7002708A8006E
:1022000028080F39A6002608A80020000F08F0397A
:102210008F000F082100280420008F002100250CCA
:102220002000031C8F1203188F160F130F160F12A6
:102230000800083023009F0090309D0024309E004D
:1022400019309B009C0100302100A5000030A60041
:102250009C311524913100302100A5000030A600EA
:102260009C311E24913100302100A5000030A600D1
:102270009C310C2491312200CF010800FD007D0823
:102280009431FA249131003A0319472948293F290A
:102290007A08F1007908F0007C08F3007B08F2006E
:1022A0009D316E2591310030F500F600F7019D312A
:1022B000012591319B317E2391319E31A4269131AC
:1022C000013A0319642965295D2908002100AF003E
:1022D00002302C0203186D296E298D2910302F022F
:1022E000031C7329742975298D292C030319792955
:1022F0007A29802980302F04AD000030AE00852976
:10230000C0302F04AD000030AE002D0890316620A3
:102310009131FA300032890B8A2908002100B1017D
:10232000A5292D08AF002C08AE0031082E07840027
:102330002F0803182F0A85000008903125209131BD
:1023400001302100AE002E08B1072D08AF002C0887
:10235000AE0031082E0784002F0803182F0A8500CD
:102360001200031DB429B529912908002000A000FE
:10237000A201A301CE292108FB00FC017B08F20089
:102380007C08F3007A08FD007D08F4009531712582
:10239000913101302000A2070030A33D2208200720
:1023A000FB007B088600023087000108FC007C08E7
:1023B000A1002108031DDD29DE29BB290800220018
:1023C0006608031DE429E529F529072A8B310C232A
:1023D0009131052A8B319C239131052A87313B2786
:1023E0009131052AC601C701052A4708003A031999
:1023F000FA29F2294608003A0319E629013A031995
:10240000EA29033A0319EE29F2292200E60108001D
:102410002100B600B401B501202A3308B000B10193
:102420003008A7003108A8002F08B2003208A90020
:1024300096313226923101302100B4070030B53D8B
:1024400034083607B00030088600023087000108E3
:10245000B1003108B3003308031D2F2A302A0D2A9A
:102460000800F400700871040319372A382A4B2A2F
:102470007435203E8600013087007008C03F710827
:10248000C13F7208F30074082C3E860001308700BB
:10249000730881005A2A7435203E86000130870077
:1024A000A930C03F1B30C13F74082C3E860001306C
:1024B0008700810108009A31FE22923122003D1CE2
:1024C000622A632A702A9B3197239231003A0319BA
:1024D0006A2A6B2A702A0F30F30073082200BB00AF
:1024E00022003B08F300F401F335F40D00307307CC
:1024F00084009830743D8500013F8A00003F0A0047
:102500009231F50075082200BB0008002100A900E7
:102510002508260403198D2A8E2AA12A2935203E52
:102520008600013087002508C03F2608C13F2708E4
:10253000A80029082C3E8600013087002808810069
:10254000B02A2935203E860001308700A930C03FDF
:102550001B30C13F29082C3E8600013087008101D5
:1025600008002100B300210033089531B0259231D5
:10257000003A0319BC2ABD2AB32A21003008A6005C
:102580002F08A5003208A8003108A7009D31DC25DE
:10259000923100302100AA00AB00AC019D314225F0
:1025A00092319B3192239231903145209231013A00
:1025B0000319DB2ADC2AD42A080022003D1002304D
:1025C000F0007008BC00EC2A9B3160239231092B8B
:1025D0009B3165239231092B2E08F0007008F00022
:1025E0000430203E860001308700413F8A00403F92
:1025F0000A009231F100F2017208003A0319012B2E
:10260000E82A7108023A0319E42A013A0319E42A74
:10261000E82A080056302000E8009830E9009D3193
:102620008C25933105302100A00020082200CB0723
:1026300023002808803A803C031D212B2708220014
:102640004B02031C242B252B372B20302000E800C5
:102650009830E9009D318C2593319B31882393314B
:102660002200CB012300A701A8012200E5010800F8
:102670009B311923933122003D1C3F2B402B4E2BC5
:102680009B31BB239331003A0319472B482B4E2B28
:102690000F302100A90029082200BB0022003B08BE
:1026A0002100A900AA01A935AA0D0030290784003C
:1026B00098302A3D8500013F8A00003F0A0093318F
:1026C0002100AB002B082200BB0008002200BD1532
:1026D000762B9B3160239331942B9B3116239331BE
:1026E0000330942B9B3165239331942B2C08F000FD
:1026F0007008F00021088A0020080A009331F100D8
:10270000F2017208003A0319862B722B7108013A04
:102710000319722B033A0319692B013A0319692B28
:10272000073A03196D2B722B08002200DC005A08AF
:10273000DE005908DD00BE01BF01B62B5D3021006F
:10274000E5006508DE0022005B082100E60066085F
:10275000DF0022005C0885313F25933121005E08AF
:102760002200BE0721005F082200BF3D5D088400F3
:102770005E0885001200031DBE2BBF2B9E2B3F0859
:10278000DA003E08D9000800220046034704031D72
:10279000CA2BCB2BD92B0230210068066904031DFC
:1027A000D22BD32BD92B22004C080319D82BD92B91
:1027B000DF2BFF302100E807FF30E93DEA2B4D0811
:1027C0000319E32BE42BEA2BFE302100E807FF304E
:1027D000E93DEA2B2100E91FEE2BEF2BF12BE8015D
:1027E000E9012200E601E60A08002000E500610890
:1027F000E7006008E6002200BE01BF01132C66302E
:10280000CE000030CF006308D1006208D000650818
:102810008E311326933120004E082200BE0720007F
:102820004F082200BF3D200066088400670885002D
:102830001200031D1C2C1D2CFF2B22003F08200022
:10284000E10022003E082000E000080000302100E6
:10285000B0000030AF000030AE000030AD00251CED
:10286000322C332C3B2C2908AD072A08AE3D2B080F
:10287000AF3D2C08B03D0130A935AA0DAB0DAC0D14
:10288000890B3C2C0130A836A70CA60CA50C890B93
:10289000432C2808270426042504031D502C512C02
:1028A0002F2C3008A8002F08A7002E08A6002D08FE
:1028B000A50008002000A200230023082000A60095
:1028C000230022082000A500230021082000A400E6
:1028D000230020082000A30022080319702C712C6B
:1028E000732CA501A50A20080319772C782C7A2CC3
:1028F000A601A60A2330F9000030FA000430FB00DC
:102900000030FC00503091313E21943107302000DE
:10291000A1007D30890B8A2CA10B8A2C08007E1C1B
:10292000932C9231DD2A22003D1002302100A500B7
:1029300025082200BC00A42C9C316F249431C32CA8
:102940009C3178249431C32C2E082100A500250841
:10295000A5000430203E860001308700413F8A00F8
:10296000403F0A0094312100A600A7012708003A41
:102970000319BB2CA02C2608023A03199C2C013AFF
:1029800003199C2CA02C08007E1CC82C9331662BAC
:102990002200BD15D82C9C316F249431F92C9B3129
:1029A000312394310330F92C9C3178249431F92C63
:1029B0002C082100A5002508A500220021088A0076
:1029C00020080A0094312100A600A7012708003A38
:1029D0000319EB2CD42C2608013A0319D42C033A02
:1029E0000319CB2C013A0319CB2C073A0319CF2C2E
:1029F000D42C0800F100F201F20A22003D19012D49
:102A0000022D322D7108F0007008B600BD103D1582
:102A10003D100E30F0007008BB00F430B4000130FF
:102A2000B500BD15A930A0001B30A100AC01A93034
:102A3000A2001B30A300AD01A930A4001B30A500EB
:102A4000AE01A930A6001B30A700AF01AF30A8002F
:102A50001B30A900B0019A31FE2294319C31F4243C
:102A60009431F2017208080001302100E8070030BB
:102A7000E93D220046084704031D3F2D402D532DFC
:102A800021006908803AF00080307002031D4A2D51
:102A900005306802031C4D2D4E2D532D04302100AE
:102AA000E8000030E900220046034704031D592DC9
:102AB0005A2D6D2D21006908803AF0008030700297
:102AC000031D642D03306802031C672D682D6D2DD6
:102AD00002302100E8000030E9002200E601E60AA9
:102AE000080074080319752D762D7B2D7408031DBD
:102AF0007A2D7B2D802D72089B31A3239531AF2D2C
:102B00007408033E86008701160001040319892D0D
:102B10008A2DA72D7408033E86008701403FF500EB
:102B2000413FF600740A86008701403FF700413FAD
:102B3000F8007808803AF9007608803A7902031D97
:102B4000A32D750877020318A62DA72DAF2D740AA3
:102B5000860087010130810741310318810A08008E
:102B60002100A600A701A70A22003D19B82DB92D02
:102B7000EE2D21002608A50025082200B600BD1074
:102B80003D153D100E302100A50025082200BB0098
:102B9000F430B4000130B500BD15A930A0001B30E1
:102BA000A100AC01A930A2001B30A300AD01A930E7
:102BB000A4001B30A500AE01A930A6001B30A70061
:102BC000AF01AF30A8001B30A900B0019B31192321
:102BD00095319D31352595312100A7012100270828
:102BE00008002100B900B501B601B530AF000030D2
:102BF000B0000230B1000030B20050309231B1224A
:102C00009531B7302100AF000030B0000230B10084
:102C10000030B20050309031D0209531210037087B
:102C2000031D132E142E1A2E39088600013087003A
:102C30008101202E39088600013087008101810A38
:102C40003808031D242E252E2B2E34088600013033
:102C500087008101312E3408860001308700810110
:102C6000810A0800210029080319372E382E3D2E2D
:102C70002908031D3C2E3D2E422E27089B31E323BD
:102C80009631722E2908033E860087011600010442
:102C900003194B2E4C2E692E2908033E860087010E
:102CA000403FAA00413FAB00290A86008701403F10
:102CB000AC00413FAD002D08803AAE002B08803AB1
:102CC0002E02031D652E2A082C020318682E692E79
:102CD000722E2100290A86008701013081074131C7
:102CE0000318810A08009B3113239631F00022005B
:102CF0003708860038088700700881000130B70760
:102D00000030B83D0130B9020030BA3B39083A040E
:102D100003198B2E8C2E912E9B3138239631053042
:102D2000B92EBD159B2E9B3174239631B92E9B3144
:102D30006F239631B92E2C08F0007008F00021089E
:102D40008A0020080A009631F100F2017208003A68
:102D50000319AB2E972E7108013A0319972E033AE7
:102D60000319932E013A0319932E073A0319972E4C
:102D7000972E08002100A7002708023E8600013098
:102D800087003430C03F1530C13F2708043E86001D
:102D900001308700C430C03F1330C13F2708063ED2
:102DA0008600013087000330C03F0F30C13F270845
:102DB0000A3E860001308700DF30C03F1130C13F3E
:102DC00027080C3E8600013087000C30C03F0B30D6
:102DD000C13F2708103E8600013087009C30C03F6D
:102DE0000B30C13F25088600023087000108A6008D
:102DF00026082200CD002100250886000230870029
:102E00000230413F2200CC0008007E1C092F963181
:102E1000732E9B312E2397312100A5002200370805
:102E20008600380887002100250881000130220033
:102E3000B7070030B83D0130B9020030BA3B39085D
:102E40003A040319242F252F2A2F9B31442397312D
:102E50000530552FBD15342F9C3193249731552FB4
:102E60009C318A249731552F2C082100A500250874
:102E7000A500220021088A0020080A0097312100BD
:102E8000A600A7012708003A0319472F302F26086C
:102E9000013A0319302F033A03192C2F013A031971
:102EA0002C2F073A0319302F302F08002100620819
:102EB0006304031D5C2F5D2F642F0030A500A60066
:102EC0009E313C269731A62F6308C1006208C000DE
:102ED0000030C5000030C4000030C3000A30C2001A
:102EE0000030C9000030C8000330C700E830C60019
:102EF0000030CD000030CC000030CB000030CA00E4
:102F00000030D1000030D0000030CF00FF30CE00C4
:102F100089311821973121004108E6004008E50079
:102F2000FF30E400650864022300AB00210066095D
:102F30000318890A2300AC002C082100A6002300F6
:102F40002B082100A5009E313C26973108009B31BB
:102F500097239731003A0319AE2FAF2FE02FBC2FE4
:102F60009B3156239731FF2F9B315B239731FF2FE6
:102F70009B3165239731FF2F22002F08F000700846
:102F8000F0000630203E860001308700413F8A0075
:102F9000403F0A009731F100F2017208003A03192C
:102FA000D22FB82F7108013A0319B82F033A031929
:102FB000B02F013A0319B42F073A0319B82FB82FCD
:102FC00022003D103808F1003708F000B70A031955
:102FD000B80A700886007108870001089B314C23ED
:102FE000973101302200B9020030BA3B39083A0467
:102FF000031DFB2FFC2FFE2F0630FF2F0330080090
:1030000054341C341B341D34CF341C34B4340834D1
:1030100005341734C4341C34C43414345D341C34C3
:1030200066341C346F341C3478341C3481341C34C2
:103030008A341C3493341C349C341C348F34143440
:1030400045346E34743472346F34203461346C34EB
:103050002034693466342C34203461347034613463
:10306000673461346E3464346F342E342E342E342D
:1030700020340D340A3400345434753472346E34D0
:1030800069346E34673420346F34663466342034E7
:1030900069346E3420342534643420347334653418
:1030A00063346F346E3464347334003449346E34B2
:1030B0007334693464346534203473346C34653467
:1030C00065347034203449345334523420340D3450
:1030D0000A34003420342034443465347334683482
:1030E0006134623469346C34693474346134643406
:1030F0006F34203420342034203400345434753478
:1031000072346E3469346E34673420346F3466340C
:10311000663420346C346534643420340D340A341D
:10312000003420342034203420344134703461346D
:103130006734613464346F342034203420342034D4
:103140002034003420342034203448346134623454
:1031500069346C3469347434613464346F342034C9
:1031600020342034003420342034203420344534BA
:103170006E34633465346E346434693464346F346B
:1031800020342034203400343C34203420342034A3
:10319000203420342034313430342034203420346E
:1031A0002034203420343E3400343C342034203465
:1031B0002034203420342034313435342034203449
:1031C00020342034203420343E3400343C34203445
:1031D0002034203448346F34723461342034643401
:1031E000653420342034203420343E3400342034FC
:1031F000203420342034533465346E3473346F34C7
:103200007234653473342034203420343E34003436
:103210003C3420342034543465346D347034653497
:1032200072346134743475347234613420343E3411
:1032300000343C34203420344C3475346D346934DB
:103240006E346F34733469346434613464342034DC
:103250003E3400343C342034543465346D3470349E
:103260006F34723469347A34613464346F34723454
:1032700020343E34003420342034203420342034B0
:10328000203420342034203420342034203420349E
:1032900020342034203400343C3420342034203492
:1032A000203420342034323430342034203420345C
:1032B00020342034203400343C3420342034203472
:1032C0005234653467347234653473346134723423
:1032D000203420342034003420342034203420346E
:1032E00020346D3469346E34753474346F3473340F
:1032F000203420342034003420342034203420344E
:103300004134703461346734613464346F34203450
:10331000203420340034203420342034203420342D
:1033200020343534203420342034203420342034E8
:103330003E3400343C3420342034203448346F345C
:10334000723461342034643465342034003473348E
:10335000653463346F346E34643473343A342034F7
:10336000253464340034543465346D347034653439
:1033700072346134743475347234653400344234D8
:10338000693465346E34763465346E34693464344B
:103390006F34213400344D346F3464346534203458
:1033A0006F34663466340D340A3400345734613473
:1033B0006B34653465345534503421342134003451
:1033C000533468347534743464346F34773421344E
:1033D000213400344C346934673468347434003434
:1035F40008000800080008002000911108002400B9
:1036040095120800210091110800240016140800E6
:1036140024009614080024001615080024009615AA
:10362400080024001108080020009115080020005B
:10363400911108002400951208002100911108003E
:1036440024001614080024009614080024001615FB
:103654000800240096150800240011080800200022
:1036640091150800240096161616080024009612D8
:10367400161608001630210097000800240096163C
:103684001616080024009612161608000134013498
:1036940001340134F0007008240091000800220075
:1036A400BD10BC010E3008009B310A239B31013050
:1036B40008009B310A239B31023008009B310A2306
:1036C4009B31013008009B310D239B3100300800F1
:1036D4009B3138239B31053008009B3134239B31C7
:1036E4000A3008009B3134239B3109300800220042
:1036F400BD10BC010E30080000309F3188279B317B
:10370400080020009110210091140800200091105D
:103714002100911008000130903189209B3108006C
:103724000030903189209B3108002400160E890C4A
:10373400890C013908002000911DA12BA22B9D2B7F
:103744000800F10071089C31A5249B3108007E1CFF
:10375400AD2B88310028013008007E1CB32B80314A
:103764000228053008002100A50025082400910046
:1037740008002400160E890C890C01390800200069
:10378400911DC52BC62BC12B080022003D109B3177
:1037940010239B310430080058302100990098010F
:1037A4002200960108002100A50101309E310B265C
:1037B4009B3108002100A50100309E310B269B316E
:1037C40008002100A60026089C31DB249B31080058
:1037D40022003D1436359B314C239B3103300800C5
:1037E4002100A501A50A00309E310B269B3108005B
:1037F40022003D140314360D9B314C239B310530BC
:103804000800863021009E009F019B019C0101302D
:103814009D000800210026082300E000210025085F
:103824002300DF000800210026082300E400210013
:1038340025082300E3000800210026082300E200F5
:10384400210025082300E100080024009401083029
:1038540095009601F930920095120800210026087F
:103864002300EA00210025082300E90008002100C4
:1038740026082300E800210025082300E7000800AB
:10388400210026082300E600210025082300E50086
:103894000800210026082300DE002100250823005B
:1038A400DD0008007E1C582C9B31512B2200BD10DA
:1038B400BC010E3008007E1C612C9B31562B9B31C1
:1038C40025239C31013008007E1C6A2C9B315B2B24
:1038D4009B3125239C31023008007E1C732C9B31C4
:1038E400602B9B3125239C31013008007E1C7C2CED
:1038F4009B31652B9B3128239C31003008007E1CB2
:10390400852C9B316A2B9B3144239C310530080064
:103914007E1C8E2C9B316F2B9B3140239C310A30B3
:1039240008007E1C972C9B31742B9B3140239C31C7
:10393400093008007E1CA02C9B31792B2200BD107D
:10394400BC010E300800F0002000111EAA2CAB2C84
:10395400A62C700823009A00080040302800960026
:10396400950120009210073028009700080080304D
:103974002C0099009801970125001E08CF391038B2
:103984009E0008007E1CC82C9B31C72B22003D10D2
:103994009B312B239C31043008007E1CD32C9B319B
:1039A400EA2B22003D1436359B31B5239C3103307C
:1039B40008002100A5002000111EE12CE22CDD2CC2
:1039C4002100250823009A000800EE2C9B319D233A
:1039D4009C3192315B229C312200BD18F22CF32CD5
:1039E400E82C08002400951AF82CF92C002D9401D9
:1039F400083095009601F930920095160800760873
:103A0400F1007508F0007708F8007808F200023039
:103A1400923131229D31080023005D085E040319B0
:103A2400142D152D1A2D5E088A005D080A009D319B
:103A340008007E1C1F2D9B31FA2B22003D14031419
:103A4400360D9B31B5239D31053008002F2D9B3158
:103A5400C1239D31933138239D312200BD18332D6C
:103A6400342D292D08002400951A392D3A2D412D85
:103A74009401083095009601F930920095160800DB
:103A840021002B08A6002A08A5002C08AD002D084B
:103A9400A7000230923186229D3108002300690874
:103AA4006A040319562D572D5C2D6A088A0069088B
:103AB4000A009D3127009312080023006708680458
:103AC4000319652D662D6B2D68088A0067080A00A6
:103AD4009D312700131308002200BD1D722D732D84
:103AE4007C2D7108B8007008B7007308BA0072081A
:103AF400B900BD1108002300650866040319832D6D
:103B0400842D892D66088A0065080A009D312700E6
:103B1400931308006A302000EE000030EF006908BB
:103B2400E1006808E0006E30E2000030E30000309D
:103B34009331F5239D310800F33020009B009A0156
:103B4400911021009114FD30A5001A30A6009C317B
:103B54004B249D317F3020009C00080061302100FF
:103B6400E70067082200E3006008DA005F08D90074
:103B740063302100E70067082200DB000030933146
:103B840095239D3108002000911001302200C807C0
:103B94000030C93D00304902053003194802031CB6
:103BA400D42DD52DDB2D9D310E259D312200C8014C
:103BB400C90108002200BD1DE02DE12DF22D2100D8
:103BC40026082200B800210025082200B7002100A1
:103BD40028082200BA00210027082200B900BD11DC
:103BE40008002100A8002808A700A70DA70D1D089C
:103BF4002706833927069D001D14000021009D140B
:103C04009D18052E062E022E1C08A6001B08A500D2
:103C140008002100A60026080319112E122E152EC5
:103C240022008D14172E22008D102100250803195F
:103C34001C2E1D2E202E22000D15222E22000D11C9
:103C440008002700931E272E282E2B2E9D31502549
:103C54009E312700131F2F2E302E332E9D315F25CA
:103C64009E312700931F372E382E3B2E9D317D2504
:103C74009E31080021002608A8002508A700A836C0
:103C8400A70CA836A70C27082C00980021002508AB
:103C94000339A7000530A735FF3E031D4D2E2735F8
:103CA4002C00970008007408803AF50080307502F3
:103CB400031D5E2E013073020318612E622E6E2ED8
:103CC4007309F5007409F600F50A0319F60A750874
:103CD400F3007608F4006E2E0800F4007408F20075
:103CE4007208F300792E0130F2007208F4077408A8
:103CF4008600023087000108031D812E822E752E56
:103D040073087402F000F101F01BF10308002100B4
:103D1400A9002908A7002708A800942E0130A700AD
:103D24002708A90729088600023087000108031D17
:103D34009C2E9D2E902E28082902A500A601A51BC5
:103D4400A6030800F101F10A2200BD18AA2EAB2E29
:103D5400BE2E3D11FF30F0007008B6009A31FE22ED
:103D64009E319B3104239E319B3101239E312200DD
:103D74003C08F0007008F1007108080021002108D7
:103D84002300A800210020082300A7009B318323DF
:103D94009E313C302000E8009830E90021002108E1
:103DA4002000EB00210020082000EA009D318C2532
:103DB4009E3108009C3127249E3189317F219E3118
:103DC4009B31CE239E319B313C239E319C31032475
:103DD4009E319C31AF249E319C31B9249E319D315A
:103DE4009E259E31913119219E3108002100390808
:103DF400803ABA0080303A02031D022F01303802A3
:103E04000318052F062F132F21003809BA0039098A
:103E1400BB00BA0A0319BB0A3A08B8003B08B90048
:103E2400132F08002100A500250886000130870013
:103E34005630C03F1730C13F2508023E860001308E
:103E44008700F230C03F0930C13F2508043E860098
:103E540001308700EF30C03F0730C13F0800210028
:103E6400A5002508860001308700EA30C03F99305C
:103E7400C13F2508023E860001308700A630C03FBE
:103E84001F30C13F2508043E860001308700C4303E
:103E9400C03F1F30C13F08002100A500250886004F
:103EA40001308700B330C03F9930C13F2508023E3E
:103EB4008600013087000630C03F1030C13F25081E
:103EC400043E8600013087006B30C03F1F30C13F85
:103ED400080022004E080319702F712F842F6808E0
:103EE4000319752F762F842F00309D31F3259F31D0
:103EF40021002608AC002508AB002C08AA002B08DA
:103F0400A900872F2100A901AA010800F700F801E0
:103F1400F80A2200BD188F2F902FA42FBD14F8018A
:103F240077080319962F972F9A2FBB01BB0A9E2F50
:103F34000230F6007608BB009B3107239F319C3189
:103F4400E7249F317808080001309D31F3259F3123
:103F540021002608AC002508AB002C08803AA900F3
:103F640080302902031DB82F01302B020318BB2F08
:103F7400BD2F0130BE2F00302100AA002A08EA001C
:103F84006A08080021006A080319C92FCA2FDE2F06
:103F9400220067080319CF2FD02FDE2F01309D3167
:103FA400F3259F3121002608AC002508AB002C081E
:103FB400AA002B08A900E12F2100A901AA010800E9
:103FC4002100AC010030913166219F313B3021004A
:103FD400AC009930AD0091318E219F312100AC01AC
:103FE400AC0A0030913166219F313B302100AC0096
:0C3FF4009930AD0091318E219F31080002
:020000040001F9
:04000E00E43FFF3E8E
:00000001FF
