:020000040000FA
:08000000803102288731E12F55
:10023000163021009700080071082100E3007008C3
:10024000E200080071082100E7007008E6000800DD
:1002500071082100E5007008E4000800F100710851
:100260008131862181310800F00101308131BE21C8
:1002700081310800F00100308131BE218131080058
:10028000640080010131890B41290034FE00120015
:100290001E00FE0B472900345830210099009801B8
:1002A000220096010800F001F00A00308131BE21E1
:1002B0008131080028346E3475346C346C34293440
:1002C0000034863021009E009F019B019C0101307B
:1002D0009D00080000308131FE2181317108F50058
:1002E0007008F400080001308131FE21813171086D
:1002F000F5007008F4000800FF3028009600950112
:10030000200092100630280097000800F00020001E
:10031000111E8B298C298729700823009A00080058
:1003200080302C0099009801970125001E08CF39D4
:1003300010389E000800F0007008860087011E300B
:10034000C03F0430C13F7008023E860087018830FC
:10035000C03F0430C13F080047302000C9004908B1
:10036000CC004608BE004508BD004C30C900490815
:10037000BF0000308231D42281310800F1007108C1
:100380000319C329C429C72922008D14C9292200B1
:100390008D1070080319CD29CE29D0290D15D1292A
:1003A0000D11080083316E23813181314C2181315F
:1003B00081311821813181316121813181317C216B
:1003C00081318131902181318231B2228131080025
:1003D0007108F3007008F200F336F20CF336F20CF9
:1003E00072082C00980070080339F2000530F235CD
:1003F000FF3E031DF729723597000800F3007308CC
:10040000F200F20DF20D21001D087206833972060A
:100410009D001D14000021009D149D18102A112A12
:100420000D2A1C08F1001B08F0000800F0007008FD
:10043000860087010030C03F0030C13F7008023E97
:10044000860087010030C03F0030C13F7008043E85
:10045000860087010030C03F0030C13F0800F00037
:100460007008860087016530C03F8830C13F700842
:10047000023E860087019630C03F0230C13F7008BF
:10048000043E860087017330C03F0130C13F080041
:10049000F0007008860087013E30C03F8830C13FC1
:1004A0007008023E860087017A30C03F0230C13FAB
:1004B0007008043E860087016A30C03F0130C13FAA
:1004C00008007108F4007008F3006A2A0130F00790
:1004D0000030F13D70088400710885001200031D92
:1004E000722A732A662A73087002F0007408713B3E
:1004F000F100080000308131FE2182317108F700DF
:100500007008F6007708803AF40080307402031D0A
:100510008B2A0130760203188E2A902A0130912A04
:100520000030F5007508F8007808080001308131C6
:10053000FE2182317108F7007008F6007708803AD2
:10054000F40080307402031DA72A013076020318DC
:10055000AA2AAC2A0130AD2A0030F5007508F8004F
:1005600078080800083023009F0090309D00243058
:100570009E0019309B009C010030F0000030F1001B
:100580008131222182310030F0000030F1008131D0
:10059000282182310030F0000030F10081311C212F
:1005A00082312000EE0108002000C2003E08C40095
:1005B0003D08C300E401E501EE2A4330C0004008D5
:1005C000FC003F08C1004108FD00420885319A2522
:1005D00082317C082000E4077D08E53D4308840063
:1005E000440885001200031DF62AF72ADD2A650853
:1005F000BE006408BD0008000030FB000030FA00B7
:100600000030F9000030F800701C072B082B102B6D
:100610007408F8077508F93D7608FA3D7708FB3D40
:100620000130F435F50DF60DF70D890B112B013066
:10063000F336F20CF10CF00C890B182B73087204D2
:1006400071047004031D252B262B042B7B08F3005B
:100650007A08F2007908F1007808F00008007408C0
:100660000319332B342B392B7408031D382B392BEA
:100670003E2B720881312E2183316D2B7408033E8D
:1006800086008701160001040319472B482B652BB0
:100690007408033E86008701403FF500413FF600A5
:1006A000740A86008701403FF700413FF800780850
:1006B000803AF9007608803A7902031D612B7508AB
:1006C00077020318642B652B6D2B740A8600870153
:1006D0000130810741310318810A0800220090018E
:1006E0008F018C018D018E010F3021009000FF30B1
:1006F0008C00F8308D00BF308E00FF308F00FF304F
:1007000023008F003C308E0020308D000730900099
:100710003F308C0024008F0190018D018C018E01EF
:1007200021009517250090018C018D018E018F010C
:10073000FF3026008C00FF308D00FF308E00FF3030
:100740008F0007309000FF3027008C00FF308D00B5
:10075000FF308E00FF308F000F30900017303C00CC
:10076000A4000E303D0098001430A60008002000C0
:1007700030083402C0003108353BC1003208363B36
:10078000C2003308373BC3004308A3004208A2005D
:100790004108A1004008A0002E08C4002F08C50091
:1007A0000030C51BFF30C600C7003008C402310846
:1007B000C53B3208C63B3308C73B4708F300460831
:1007C000F2004508F1004408F00038083C02C80077
:1007D00039083D3BC9003A083E3BCA003B083F3B55
:1007E000CB004B08F7004A08F6004908F500480816
:1007F000F4008231FC22833173082000A7007208C4
:10080000A6007108A5007008A40085310A2583316F
:10081000200020083807CC002108393DCD002208EF
:100820003A3DCE0023083B3DCF004F08B1004E08B3
:10083000B0004D08AF004C08AE0008002000510881
:10084000AF005008AE000030B3000030B2000030FE
:10085000B1000A30B0000030B7000030B6000330FD
:10086000B500E830B4000030BB000030BA00013001
:10087000B9007430B8000030BF000030BE00033053
:10088000BD008530BC008331B723843120002F08A0
:10089000D1002E08D0005108AF005008AE00003043
:1008A000B3000030B2000130B1007430B00000304D
:1008B000B7000030B6000330B5008530B40000301A
:1008C000BB000030BA000030B9000030B800003082
:1008D000BF000030BE000030BD006430BC0083317A
:1008E000B723843120002F08D3002E08D2006430B3
:1008F000FD0052087D02EC0053090318890AED003F
:100900006D08F1006C08F0008131E82184310800A5
:1009100020005108AF005008AE000030B300003096
:10092000B2000030B1001330B0000030B70000302A
:10093000B6000130B5006630B4000030BB000030B6
:10094000BA000030B9000030B8000030BF000030FD
:10095000BE000030BD003C30BC008331B723843181
:1009600020002F08D3002E08D200D31BB82CB92C9E
:10097000CA2C5308803AFD0080307D02031DC22C32
:10098000143052020318C52CC62CCA2C81313421D4
:100990008431092D20005308803AFD0080307D020B
:1009A000031DD42C14305202031CD72CD82CEA2C53
:1009B00020005308803AFD0080307D02031DE22CA8
:1009C000283052020318E52CE62CEA2C8131532101
:1009D0008431092D20005308803AFD0080307D02CB
:1009E000031DF42C28305202031CF72CF82C092D7F
:1009F00020005308803AFD0080307D02031D022D47
:100A00003D3052020318052D062D092D81313A2162
:100A1000843108002000A901A31F0F2D102D1D2DCA
:100A2000A009A109A209A309A00A0319A10A03198F
:100A3000A20A0319A30AA901A90AA71F202D212D83
:100A4000302DA409A509A609A709A40A0319A50A16
:100A50000319A60A0319A70A0130FC007C08A9069D
:100A60000030AD000030AC000030AB000030AA0018
:100A7000230822042104200403193F2D402D812D39
:100A8000A801A80A4E2D0130A035A10DA20DA30D7D
:100A9000890B442D0130FC007C08A807A31F512DB1
:100AA000522D432D0130AA35AB0DAC0DAD0D890B88
:100AB000532D23082702031D672D22082602031D3C
:100AC000672D21082502031D672D20082402031C21
:100AD0006A2D6B2D742D2008A4022108A53B220845
:100AE000A63B2308A73B2A140130A336A20CA10C75
:100AF000A00C890B752D0130A802031D802D812DBE
:100B0000522D29080319852D862D912DAA09AB098F
:100B1000AC09AD09AA0A0319AB0A0319AC0A0319F7
:100B2000AD0A2D08A3002C08A2002B08A1002A085A
:100B3000A00008002000BC007C0886008701403F20
:100B4000B500413FB6003508840036088500120024
:100B5000253A031DAC2DAD2D232E7C088600870180
:100B60000130810741310318810AE601E701EA01FA
:100B7000EB01FF30E800FF30E9007C0886008701C8
:100B8000403FB500413FB600350884003608850077
:100B90001200733A031DCD2DCE2DEF2D7C0886005B
:100BA00087010130810741310318810A7D088600E1
:100BB000870101088400850102308107003FBA00E7
:100BC000013FBB003B08FB003A08FA003C088631B5
:100BD000462685317B08FD007A08FC00452E7C08FE
:100BE00086008701403FB500413FB60035088400CC
:100BF000360885001200253A031DFF2D002E182E01
:100C00007C08860087010130810741310318810A81
:100C10002530F2000030F3003C08B5003508F40040
:100C200083312F2385310130FC000030FD00452E3B
:100C30007C08860087010130810741310318810A51
:100C4000FC01FD01452E7C0886008701403FB50070
:100C5000413FB60035088400360885000008B7001B
:100C6000B8013708F2003808F3003C08B900390829
:100C7000F40083312F2385317C0886008701013001
:100C8000810741310318810A132E08002000B000AB
:100C9000DB30860000308700233084000030850080
:100CA0000730A00016001A00A00B522E7B08AF00E0
:100CB0007A08AE002E082F04031D5F2E602E642ECE
:100CC0002330AE000030AF002F08F1002E08F000F6
:100CD00082316122863171082000B4007008B300AF
:100CE0006908B2006808B100B21B772E782E8C2EEE
:100CF0003208803AA0003408803A2002031D822E78
:100D000033083102031C852E862E872E8C2E200060
:100D10003208B4003108B30020003408B2003308B0
:100D2000B1006708AD006608AC006A18982E992ECD
:100D3000B92EAB2E2030F2000030F3002000300836
:100D4000A0002008F40083312F23863101302000D9
:100D5000B3070030B43D3408803AA0002D08803A33
:100D60002002031DB52E2C083302031CB82EB92E09
:100D70009A2E2000AA01AB01D92E20002E08840053
:100D80002F0885000008A000A1012008F20021081A
:100D9000F3003008A2002208F40083312F238631AB
:100DA00001302000AE070030AF3D0130AA0700300F
:100DB000AB3D2B08803AA0003208803A2002031D88
:100DC000E32E31082A02031CE62EE72EBD2E20005A
:100DD0006A1CEB2EEC2E0C2FFE2E2030F200003081
:100DE000F30020003008A0002008F40083312F23F6
:100DF000863101302000B3070030B43D3408803A1A
:100E0000A0002D08803A2002031D082F2C08330271
:100E1000031C0B2F0C2FED2E20003408FB00330891
:100E2000FA0008008131D221873155308600003028
:100E3000870006302000D40000301E00D40B1D2F88
:100E40005530D4005408E100E201E301D130823191
:100E50002F228731CB30823148228731C530823111
:100E600016228731D73081319B2187310230CB3E2A
:100E700086008701413F8A00403F0A008731003ADF
:100E80000319432F442F5A2F00302000C50088300B
:100E9000C6008131AC2187312000610886008701BE
:100EA00021004B08C03F4C08C13F01302000E20741
:100EB0000030E33D0230D13E86008701413F8A0089
:100EC000403F0A008731003A0319672F682F812FAE
:100ED00022302000C5008830C6008131AC21873126
:100EE000200062356107D400540886008701210084
:100EF0005108C03F5208C13F01302000E2070030D6
:100F0000E33D2000DF01E0019C2F6B302000C50095
:100F10008830C6005F356107D40054088600870119
:100F2000403FC700413FC8008131AC2187310130CB
:100F30002000DF070030E03D6008803AD4006308FD
:100F4000803A5402031DA62F62085F02031CA92FDA
:100F5000AA2F852F0430D13E86008701413F8A00A9
:100F6000403F0A00873175082000DC007408DB0070
:100F70000430CB3E86008701413F8A00403F0A0093
:100F8000873175082000DE007408DD005C08D100A0
:100F90005B08D000210058088A0057080A008731F2
:100FA00020005E08D1005D08D0000230D73E8600E8
:100FB0008701413F8A00403F0A008731AA2F8031D4
:100FC00002285A30840081308500DB3086000030F2
:100FD000870007308131462187316430840000303A
:100FE00085000B30813140218731A03084000030F2
:100FF00085003B3081314021873120008731122F1D
:10100000543465346D3470346534723461347434FE
:101010007534723465342034733465346E3473340B
:101020006F3472342034693473342034613476344C
:10103000613469346C34613462346C3465340D3439
:101040000A3400344C3469346734683474342034DE
:10105000733465346E3473346F34723420346934CD
:101060007334203461347634613469346C346134DF
:1010700062346C3465340D340A34003454346534CD
:101080006D34703465347234613474347534723450
:1010900065340034443465346D346F342034313475
:1010A00021340A340034443465346D346F342034D0
:1010B000323421340A340034443465346D346F34AE
:1010C0002034333421340A3400344C3469346734E6
:1010D0006834743400342534733420340D340A34C5
:0210E0000034DA
:020000040001F9
:04000E00E43FFF3E8E
:00000001FF
