:020000040000FA
:08000000803102288731F52F41
:100B9200163021009700080071082100A10070089A
:100BA200A000080071082000EE007008ED000800A7
:100BB20071082100A3007008A2000800F10071086A
:100BC20086310D2685310800640080010131890BD0
:100BD200E62D003438302100990098012200960158
:100BE20008009E302000D6008830D70086312426A7
:100BF20085310800A7302000D6008830D700863122
:100C0200242685310800B0302000D6008830D70075
:100C12008631242686310800F0002000111E122E93
:100C2200132E0E2E700823009A00080087313427F5
:100C320086318531EB2586318531C925863186316C
:100C42008126863108005830FD007D082000DA0038
:100C52005708CF005608CE005A30FD007D08D0005C
:100C620000308631A32686310800F0007008860025
:100C72008701F230C03F0530C13F7008023E860056
:100C82008701FB30C03F0530C13F7008043E86003B
:100C920087010430C03F0630C13F0800F0007008F1
:100CA200860087010030C03F0030C13F7008023E1D
:100CB200860087010030C03F0030C13F7008043E0B
:100CC200860087010030C03F0030C13F0800F000BD
:100CD2007008860087010030C03F0030C13F7008B5
:100CE200023E860087010030C03F0030C13F7008DD
:100CF200043E860087010030C03F0030C13F08003B
:100D0200083023009F0090309D0024309E000C305C
:100D12009B009C010030F0000030F1008531D325AA
:100D220086310030F0000030F1008531D92586315E
:100D32000030F0000030F1008531CD2586312000F1
:100D4200C80108002000D3004F08D5004E08D40087
:100D5200C001C101BD2E5430D1005108FA00500823
:100D6200D2005208FB00530887317B2786317A086C
:100D72002000C0077B08C13D540884005508850047
:100D82001200031DC52EC62EAC2E4108CF0040080E
:100D9200CE0008008631172686315B3086314F2619
:100DA2008631613086316826863167308631362653
:100DB2008631200068088A0067080A0086310230FE
:100DC200673E86008701413F8A00403F0A00863124
:100DD2000430673E86008701413F8A00403F0A0097
:100DE2008631F22E8031022874080319F92EFA2E68
:100DF200FF2E7408031DFE2EFF2E042F720885316C
:100E0200DF258631332F7408033E860087011600E2
:100E1200010403190D2F0E2F2B2F7408033E860099
:100E22008701403FF500413FF600740A86008701C2
:100E3200403FF700413FF8007808803AF900760811
:100E4200803A7902031D272F7508770203182A2F8B
:100E52002B2F332F740A860087010130810741311D
:100E62000318810A0800220090018F018C018D0174
:100E72008E010F3021009000FF308C00FF308D007A
:100E8200BF308E00FF308F00FF3023008F007C3098
:100E92008E003F308D00073090003F308C002400E0
:100EA2008F0190018D018C018E0121009517250083
:100EB20090018C018D018E018F01FF3026008C0084
:100EC200FF308D00FF308E00FF308F000730900022
:100ED200FF3027008C00FF308D00FF308E00FF3086
:100EE2008F000F30900017303C00A40014303D00FA
:100EF200A6000800FC007A0886008701403F200017
:100F0200C900413FCA00490884004A08850012000E
:100F1200253A031D8D2F8E2FD22F7A088600870146
:100F22000130810741310318810AC201C301C601A0
:100F3200C701FF30C400FF30C5007A088600870170
:100F4200403FC900413FCA00490884004A08850061
:100F52001200253A031DAE2FAF2FC72F7A08860045
:100F620087010130810741310318810A2530F200DF
:100F72000030F3007C08C9004908F4008631F526E8
:100F820087310130FA000030FB00F42F7A08860026
:100F920087010130810741310318810AFA01FB01FF
:100FA200F42F7A0886008701403FC900413FCA00FA
:100FB200490884004A0885000008CB00CC014B0890
:100FC200F2004C08F3007C08CD004D08F400863195
:100FD200F52687317A088600870101308107413181
:100FE2000318810AC22F08002030840000308500D7
:100FF20029308531E525873120008631CB2E5434C6
:1010020065346D3470342034733465346E34733423
:101012006F34723420346F34703465346E34693412
:101022006E34673420346634613469346C34653428
:10103200643421340A3400344C34693467346834FB
:1010420074342034733465346E3473346F347234D0
:1010520020346F34703465346E3465346434213432
:101062000A3400344C3469346734683474342034BC
:10107200733465346E3473346F34723420346334B1
:101082006C346F3473346534643421340A3400347C
:10109200523465346134643469346E3467342034D4
:1010A2006C3469346734683474342034733465348E
:1010B2006E3473346F3472340A3400345434653409
:1010C2006D3470342034733465346E3473346F3459
:1010D200723420346F34703465346E346534643461
:1010E20021340A340034543465346D34703420347D
:1010F200733465346E3473346F3472342034633431
:101102006C346F3473346534643421340A340034FB
:10111200523465346134643469346E346734203453
:10112200743465346D3470342034733465346E3401
:1011320073346F3472340A340034443465346D3499
:101142006F342034313421340A3400344434653469
:101152006D346F342034323421340A340034443450
:1011620065346D346F342034333421340A3400341E
:020000040001F9
:04000E00E43FFF3E8E
:00000001FF
