:020000040000FA
:1000000080311328080008007E1480318B1D0928D8
:100010000A2811280B1C0D280E2811288931AF2120
:1000200080317E10090080311528B6308400883078
:100030008500E03086000030870007308831A2203C
:100040008031FC01A03084000030850024308831EC
:100050009C208031203084000130850020308831A0
:100060009C2080317E1020008231B42A2000BD0007
:100070003008C4003108C5003208C6003308C70084
:100080003408C8003508C9003608CA003708CB0054
:100090004430860000308700473FB800B81B512825
:1000A00053280130542800302000B900BA01390823
:1000B000C2003A08C30042084304031960286128BB
:1000C0007F28C409C509C609C709C809C909CA09D9
:1000D000CB09C40A031D7F28C50A031D7F28C60A51
:1000E000031D7F28C70A031D7F28C80A031D7F2818
:1000F000C90A031D7F28CA0A031D7F28CB0A2100D5
:10010000A81B832884288828FD30A905FF30AA056C
:100110002808803A2000B80080303802031D932858
:100120000130210027020318962897289D280130C6
:100130002000BE000030BF00A528210028082000B4
:10014000BF00210027082000BE0021002608200053
:10015000C100210025082000C00042084304031DFF
:10016000B228B328B8282100291DB728B828BD28EF
:10017000FF302000C007FF30C13D1F302000CC0001
:100180000030CD002200BF012E29FF302000CC0717
:10019000FF30CD3D0A30A000A101A201A301A401BE
:1001A000A501A601A7014408A8004508A900460822
:1001B000AA004708AB004808AC004908AD004A084F
:1001C000AE004B08AF008431BF24803120002108ED
:1001D000F5002008F4008A312D2280317408303E69
:1001E0002000B8004C08203E860001308700380807
:1001F0008100FF30BE07FF30BF3DFF30C007FF303A
:10020000C13D0A30A000A101A201A301A401A501E2
:10021000A601A7014408A8004508A9004608AA00AD
:100220004708AB004808AC004908AD004A08AE00DA
:100230004B08AF008331BE23803120002008C4006A
:100240002108C5002208C6002308C7002408C800EA
:100250002508C9002608CA002708CB0020004D0841
:10026000803AB80080303802031D382901304C0232
:10027000031C3B293C296929200044084504460405
:100280004704480449044A044B04031D48294929EA
:10029000C5283F08803AB80080303802031D522933
:1002A00001303E02031855295629C528200041086F
:1002B000803AB80080303802031D602901304002C6
:1002C000031C6329642969292100A918682969295F
:1002D000C528200042084304031D6F297029752991
:1002E0002100291D742975299229FF302000CC078F
:1002F000FF30CD3D42084304031D7F298029852915
:100300002B30BB000030BC0089292D30BB000030F1
:10031000BC003B08B8004C08203E86000130870036
:100320003808810020004C08203EB8003808A7009B
:100330004108A9004008A8003D088C31D52480312F
:1003400020002808B1002708B00008002000DF00C6
:100350004E0886008701403FD000413FD100500841
:100360008400510885001200253A031DB829B929D7
:10037000902A4E0886008701013081074131031819
:10038000810A2100A501A601A901AA01FF30A70049
:10039000FF30A80020004E0886008701403FD000B3
:1003A000413FD10050088400510885001200643A92
:1003B0000319DB29DC29ED294E0886008701403F1F
:1003C000D000413FD1005008840051088500120040
:1003D000693A031DEC29ED29282A4E088600870179
:1003E0000130810741310318810A4F0886008701D7
:1003F00001088400850102308107003FD000013FE1
:10040000D1005008D5005108D600890D893B8909D3
:10041000D700D800D900DA00DB00DC005508B000B6
:100420005608B1005708B2005808B3005908B40084
:100430005A08B5005B08B6005C08B7005F08803159
:100440003620813120003108CF003008CE00B32A99
:100450004E0886008701403FD000413FD100500840
:100460008400510885001200733A031D382A392A86
:100470005B2A4E088600870101308107413103184D
:10048000810A4F0886008701010884008501023037
:100490008107003FDD00013FDE005E08A1005D082E
:1004A000A0005F088531A925813120002108CF00F7
:1004B0002008CE00B32A4E0886008701403FD000B6
:1004C000413FD10050088400510885001200253AB0
:1004D000031D6B2A6C2A852A4E088600870101308D
:1004E000810741310318810A2530F3000030F40000
:1004F0005F08D0005008F5008C3140248131013074
:100500002000CE000030CF00B32A4E0886008701BD
:100510000130810741310318810ACE01CF01B32A8E
:100520004E0886008701403FD000413FD10050086F
:100530008400510885000008D200D3015208F3005E
:100540005308F4005F08D4005408F5008C314024AF
:10055000813120004E08860087010130810741313A
:100560000318810A7F2A080089316B2182318B317F
:100570001D238231C53086000030870006302100FF
:10058000C40000301E00C40BC22AC530C400440899
:10059000D100D201D301BA308931C8218231B430BF
:1005A0008931E1218231C0308931342182310230F8
:1005B000B43E86008701413F8A00403F0A008231F5
:1005C000003A0319E42AE52AF92A00302000E8005D
:1005D0009030E9008931452182312100510886009F
:1005E00087013408C03F3508C13F0130D2070030D1
:1005F000D33D0230BA3E86008701413F8A00403F2A
:100600000A008331003A0319062B072B1E2B2230D8
:100610002000E8009030E900893145218231210035
:1006200052355107C4004408860087013A08C03F8C
:100630003B08C13F0130D2070030D33D2100CF013C
:10064000D0013B2BD7302000E8009130E900210099
:100650004F355107C400440886008701403F200001
:10066000EA00413FEB008931452182310130210010
:10067000CF070030D03D5008803AC4005308803A7C
:100680004402031D452B52084F02031C482B492BE3
:10069000222B8B170B177F30F1000C30F2008831C2
:1006A000782082312430F1000930F20088317E2038
:1006B0008231B730F1000730F20088318420823176
:1006C000CA30F8009130F9008B3188238231213013
:1006D0002100C4007630890B6B2BC40B6B2B000000
:1006E0002100B301B30A0430BA3E86008701413FBE
:1006F0008A00403F0A00833176082100CC0075084B
:10070000CB000430B43E86008701413F8A00403F61
:100710000A00833176082100CE007508CD004C0810
:100720002000D50021004B082000D4002100410802
:100730008A0040080A00833121004E082000D500BD
:1007400021004D082000D4000230C03E8600870101
:10075000413F8A00403F0A008331210033080319DA
:10076000B22BB32B732B8A31FC2282318B313F2386
:1007700082312100B301732B80311328F301203023
:10078000860000308700473FF100F11FC82BC92BBE
:10079000EA2B2000A009A109A209A309A409A5091F
:1007A000A609A709A00A031DE82BA10A031DE82B2F
:1007B000A20A031DE82BA30A031DE82BA40A031DAC
:1007C000E82BA50A031DE82BA60A031DE82BA70AA0
:1007D000F301F30A2830860000308700473FF1001C
:1007E000F11FF32BF42B172C2000A809A909AA0943
:1007F000AB09AC09AD09AE09AF09A80A031D132C5A
:10080000A90A031D132CAA0A031D132CAB0A031DEE
:10081000132CAC0A031D132CAD0A031D132CAE0AB6
:10082000031D132CAF0A0130F1007108F306743078
:100830008600003087000830F10000301E00F10B08
:100840001E2C200020082104220423042404250453
:100850002604270403192D2C2E2C8A2CF201F20ACF
:100860003D2CA035A10DA20DA30DA40DA50DA60D27
:10087000A70D0130F1007108F207A71F402C412C91
:10088000312CF435F50DF60DF70DF80DF90DFA0DC7
:10089000FB0D27082F02031D672C26082E02031DBF
:1008A000672C25082D02031D672C24082C02031D2C
:1008B000672C23082B02031D672C22082A02031D24
:1008C000672C21082902031D672C20082802031C1D
:1008D0006A2C6B2C7C2C2008A8022108A93B22083A
:1008E000AA3B2308AB3B2408AC3B2508AD3B2608BC
:1008F000AE3B2708AF3B7414A736A60CA50CA40C7E
:10090000A30CA20CA10CA00C0130F202031D892C37
:100910008A2C412C730803198E2C8F2CAD2CF409D2
:10092000F509F609F709F809F909FA09FB09F40AC2
:10093000031DAD2CF50A031DAD2CF60A031DAD2CCD
:10094000F70A031DAD2CF80A031DAD2CF90A031D8F
:10095000AD2CFA0A031DAD2CFB0A74082000A00080
:100960007508A1007608A2007708A3007808A40003
:100970007908A5007A08A6007B08A7000800F30103
:100980002830860000308700473FF100F11FC92C56
:10099000CA2CEB2C2000A809A909AA09AB09AC09AB
:1009A000AD09AE09AF09A80A031DE92CA90A031D68
:1009B000E92CAA0A031DE92CAB0A031DE92CAC0A99
:1009C000031DE92CAD0A031DE92CAE0A031DE92C19
:1009D000AF0AF301F30A2030860000308700473F5A
:1009E000F100F11FF42CF52C142D2000A009A10911
:1009F000A209A309A409A509A609A709A00A031D1C
:100A0000142DA10A031D142DA20A031D142DA30ADF
:100A1000031D142DA40A031D142DA50A031D142D56
:100A2000A60A031D142DA70A200020082104220471
:100A3000230424042504260427040319202D212D32
:100A4000742DF201F20A302DA035A10DA20DA30DD7
:100A5000A40DA50DA60DA70D0130F1007108F20738
:100A6000A71F332D342D242D27082F02031D522DAF
:100A700026082E02031D522D25082D02031D522D7E
:100A800024082C02031D522D23082B02031D522D76
:100A900022082A02031D522D21082902031D522D6E
:100AA00020082802031C552D562D662D2008A8026B
:100AB0002108A93B2208AA3B2308AB3B2408AC3BF6
:100AC0002508AD3B2608AE3B2708AF3BA736A60C52
:100AD000A50CA40CA30CA20CA10CA00C0130F202DA
:100AE000031D732D742D342D73080319782D792D62
:100AF000972DA809A909AA09AB09AC09AD09AE0946
:100B0000AF09A80A031D972DA90A031D972DAA0A4C
:100B1000031D972DAB0A031D972DAC0A031D972DBE
:100B2000AD0A031D972DAE0A031D972DAF0A2000B5
:100B30002808A0002908A1002A08A2002B08A30069
:100B40002C08A4002D08A5002E08A6002F08A70039
:100B500008002000B000E03086000030870025301B
:100B60008400003085000730A20016001A00A20B96
:100B7000B52D2108B2002008B10031083204031D50
:100B8000C22DC32DC72D2530B1000030B200320870
:100B9000F2003108F1008931FA2185317208200014
:100BA000B6007108B500210028082000B40021001B
:100BB00027082000B300B41BDE2DDF2DF32D3408F1
:100BC000803AA2003608803A2202031DE92D35083A
:100BD0003302031CEC2DED2DEE2DF32D20003408F7
:100BE000B6003308B50020003608B4003508B3005D
:100BF000210026082000AF00210025082000AE00BB
:100C000021002918042E052E262E172E2030F30041
:100C10000030F40020003008A2002208F5008C31DA
:100C20004024853101302000B5070030B63D20005A
:100C30003608803AA2002F08803A2202031D222E95
:100C40002E083502031C252E262E062E2000AC0170
:100C5000AD01462E200031088400320885000008CE
:100C6000A200A3012208F3002308F4003008A40026
:100C70002408F5008C314024853101302000B10773
:100C80000030B23D0130AC070030AD3D2D08803A58
:100C9000A2003408803A2202031D502E33082C0291
:100CA000031C532E542E2A2E2100291C582E592E57
:100CB0007A2E6B2E2030F3000030F4002000300834
:100CC000A2002208F5008C3140248531013020003B
:100CD000B5070030B63D20003608803AA2002F0844
:100CE000803A2202031D762E2E083502031C792E2F
:100CF0007A2E5A2E20003608A1003508A0000800E0
:100D00000A2F8A3113228631F80100308B3161239A
:100D100086313230F8009130F9008B3188238631EA
:100D2000F801F80A00308B31612386317430F80005
:100D30009130F9008B3188238631212F8A3113229B
:100D40008631F80100308B3161238631FF30F800A5
:100D50009030F9008B3188238631F801F80A003091
:100D60008B31612386318430F8009130F9008B316A
:100D700088238631212F8A3113228631F8010030F1
:100D80008B3161238631FF30F8009030F9008B31D0
:100D900088238631F801F80A00308B3161238631CF
:100DA0005430F8009130F9008B3188238631212F9F
:100DB0008A3113228631F80100308B31612386316C
:100DC000FF30F8009030F9008B3188238631F8012C
:100DD000F80A00308B31612386319330F80091306E
:100DE000F9008B3188238631212F8A3113228631F5
:100DF000F80100308B31612386316430F800913086
:100E0000F9008B3188238631212F0130AD0000306D
:100E1000AE00212F21002E08003A0319102F052FB4
:100E20002D08003A0319812E013A03199E2E033A28
:100E30000319BB2E013A0319D82E073A0319F52ED0
:100E4000052F08009F2F8A3113228731F8010030C7
:100E50008B31612387311030F8009130F9008B31EC
:100E600088238731B62F8A3113228731F801003069
:100E70008B3161238731EE30F8009030F9008B31EF
:100E800088238731B62F8A3113228731F801003049
:100E90008B31612387312130F8009130F9008B319B
:100EA00088238731F801F80A00308B3161238731BC
:100EB0009930F8009030F9008B3188238731B62FB4
:100EC0008A3113228731F80100308B316123873159
:100ED000BB30F8009030F9008B3188238731F8015E
:100EE000F80A00308B3161238731AA30F800903046
:100EF000F9008B3188238731B62F8A31132287314D
:100F0000F80100308B3161238731B130F800913026
:100F1000F9008B3188238731F801F80A00308B31D2
:100F200061238731A230F8009130F9008B3188239A
:100F30008731B62F0130AD000030AE00B62F210052
:100F40002E08003A0319A52F9A2F2D08003A0319ED
:100F5000232F013A0319332F033A0319432F013A80
:100F60000319602F073A03197D2F9A2F08002100DB
:100F70002F033004031DBD2FBE2FCC2F04302D06B0
:100F80002E04031DC42FC52FCC2FAF01B001AD011E
:100F9000AE01B301B30AFF2F02302F063004031D48
:100FA000D22FD32FDB2F03302D062E04031DD92F74
:100FB000DA2FDB2FC52F2F083004031DE02FE12F80
:100FC000FF2F2F083004031DE62FE72FF52F2E08E3
:100FD000803AF00080307002031DF02F02302D02A5
:100FE000031CF32FF42FF52FFF2F21002D08013EB6
:100FF000AF0000302E3DB000AD01AE01C92F08009A
:1010C2000800163021009700080072082100D500A0
:1010D2007108D400080072082100D9007108D800F4
:1010E200080072082100D7007108D60008007208B3
:1010F2002100DF007108DE00080072082100DD0017
:101102007108DC00080072082100DB007108DA00B7
:101112000800F10101308931572188310800F101BD
:1011220000308931572188310800F2007208883175
:10113200E22088310800640080010131890B9D287A
:101142000034FE0012001E00FE0BA32800345830AB
:10115200210099009801220096010800F101F10A8C
:101162000030893157218831080028346E347534B3
:101172006C346C3429340034863021009E009F0187
:101182009B019C0101309D000800003089319721AC
:1011920088317208F6007108F500080001308931C3
:1011A200972188317208F6007108F5000800FF30B7
:1011B2002800960095012000921006302800970022
:1011C2000800F1002000111EE728E828E328710832
:1011D20023009A00080080302C00990098019701A2
:1011E20025001E08CF3910389E00080021005E0835
:1011F2005F040319FD28FE2803295F088A005E08A0
:101202000A00893127009312080021005C085D045E
:1012120003190C290D2912295D088A005C080A00AD
:10122200893127001313080021005A085B040319AF
:101232001B291C2921295B088A005A080A008931C6
:1012420027009313080021002D08FF3EAD00FF3058
:101252002E3DAE00AE1F2E292F293129AD01AE0140
:10126200B301B30A0800F100710886008701FF305C
:10127200C03F0D30C13F7108023E86008701EE304B
:10128200C03F0E30C13F08006A302000EC006C08FD
:10129200EF006908E1006808E0006F30EC006C08BC
:1012A200E20000308B31D92389310800F200720844
:1012B20003195C295D29602922008D14622922000C
:1012C2008D10710803196629672969290D156A2984
:1012D2000D1108008D31312589318831A8208931DD
:1012E2008831622089318831BD2089318831D82006
:1012F20089318831EC2089318A31DB228931080039
:101302007208F4007108F300F436F30CF436F30CAF
:1013120073082C00980071080339F3000530F33587
:10132200FF3E031D9029733597000800F4007408EE
:10133200F300F30DF30D21001D08730683397306C4
:101342009D001D14000021009D149D18A929AA29A1
:10135200A6291C08F2001B08F10008002700931EB2
:10136200B329B429B7298831F72089312700131FFF
:10137200BB29BC29BF298931062189312700931F46
:10138200C329C429C7298931152189310800F100EF
:10139200710886008701D130C03F9130C13F71088A
:1013A200023E860087016330C03F0A30C13F7108A8
:1013B200043E86008701CF30C03F0830C13F08009D
:1013C200F100710886008701BE30C03F9130C13FF5
:1013D2007108023E860087014730C03F0A30C13F94
:1013E2007108043E86008701C630C03F0830C13F05
:1013F20008007208F5007108F400032A0130F107B1
:101402000030F23D71088400720885001200031D4D
:101412000B2A0C2AFF2974087102F1007508723B2D
:10142200F2000800F80100308B3161238A31433029
:10143200F8009130F9008B3188238A31F801F80ADB
:1014420000308B3161238A314330F8009130F9004A
:101452008B3188238A3108007508803AF600803083
:101462007602031D362A013074020318392A3A2AF9
:10147200462A7409F6007509F700F60A0319F70AF5
:101482007608F4007708F500462A08000030893112
:1014920097218A317208F8007108F7007808803ABB
:1014A200F50080307502031D582A013077020318B7
:1014B2005B2A5D2A01305E2A0030F6007608F900C8
:1014C200790808000130893197218A317208F800C1
:1014D2007108F7007808803AF50080307502031D24
:1014E200742A013077020318772A792A01307A2A7E
:1014F2000030F6007608F90079080800F700FA30A3
:101502000032890B812AF101F10A77088A31BB2264
:101512008A317708F5000330F535FF3E031D8D2A29
:101522007535F6007608F700F101F10A77088A317D
:10153200BB228A310800F700FA300032890B9E2A5A
:10154200F10177088A31BB228A317708F50003302E
:10155200F535FF3E031DA92A7535F6007608F7001A
:101562005330890BB22A0000F10177088A31BB227D
:101572008A310800F4007408F2000430F236890B54
:10158200BF2A7208F3007308F40074080F39F200DE
:101592007208F40020000F08F0398F000F0874045D
:1015A2008F00710C031C8F1203188F160F130F1666
:1015B2000F120800083023009F0090309D00243055
:1015C2009E0019309B009C010030F1000030F200B7
:1015D20088316C208A310030F1000030F20088310D
:1015E20072208A310030F1000030F200883166202A
:1015F2008A31FC01080052302000E8009030E900F6
:1016020021002E082000EB0021002D082000EA0016
:10161200893145218A313E302000E8009030E900CE
:10162200210030082000EB0021002F082000EA00F2
:10163200893145218A31080020008F0121008F0164
:1016420020008F170530F800DE30890B262BF80BAF
:10165200262B32308A319C228B3128308A319C22CF
:101662008B310C308A319C228B3101308A319C22A1
:101672008B3106308A319C228B3108004F2B873107
:1016820022278B31602B863180268B31602B8E3165
:101692006C268B31602BAF01B001602B210030082A
:1016A200003A0319552B4C2B2F08003A0319402BF3
:1016B200013A0319442B033A0319482B4C2B080017
:1016C200FB00023078020318672B682B872B10303F
:1016D2007B02031C6D2B6E2B6F2B872B7803031958
:1016E200732B742B7A2B80307B04F9000030FA00C4
:1016F2007F2BC0307B04F9000030FA0079088A3170
:101702009C228B31FA300032890B842B0800FA01BB
:101712009E2B7908A1007808A0007A08200784008F
:1017220021080318210A850000088A317F228B31A3
:1017320001302000A0002008FA0779082000A1004B
:101742007808A0007A082007840021080318210ADB
:1017520085001200031DAE2BAF2B8A2B0800200040
:10176200A600A401A501C82B2308A000A1012008FE
:10177200F3002108F4007B08A2002208F5008C3156
:1017820040248B3101302000A4070030A53D2408FD
:101792002607A00020088600013087000108A1006A
:1017A2002108A3002308031DD72BD82BB52B080033
:1017B2002000E5006108E7006008E6002100A301BF
:1017C200A401F72B6630E3006308CE006208E40050
:1017D2006408CF0065088131A6218B3120004E08B4
:1017E2002100A30720004F082100A43D2000660825
:1017F2008400670885001200031D002C012CE32BD6
:10180200210024082000E100210023082000E0003C
:10181200080000302000A3000030A2000030A10028
:101822000030A000711C162C172C202C75082000EB
:10183200A0077608A13D7708A23D7808A33D0130B4
:10184200F535F60DF70DF80D890B212C0130F43624
:10185200F30CF20CF10C890B282C7408730472043B
:101862007104031D352C362C132C20002308F400A0
:101872002208F3002108F2002008F1000800750890
:101882000319442C452C4A2C7508031D492C4A2C5B
:101892004F2C7308883196208C317E2C7508033EBC
:1018A20086008701160001040319582C592C762C46
:1018B2007508033E86008701403FF600413FF7006E
:1018C200750A86008701403FF800413FF900790818
:1018D200803AFA007708803A7A02031D722C760861
:1018E20078020318752C762C7E2C750A86008701E7
:1018F2000130810741310318810A080021002D08B7
:10190200013EAD0000302E3DAE002F083004031D15
:101912008B2C8C2C9E2C2E08803AF000803070028A
:10192200031D952C05302D02031C982C992C9E2CFE
:1019320004302100AD000030AE0021002F0330043E
:10194200031DA42CA52CB72C2E08803AF000803061
:101952007002031DAE2C05302D02031CB12CB22CDB
:10196200B72C04302100AD000030AE00023021005F
:101972002F063004031DBE2CBF2CD12C2E08803A1A
:10198200F00080307002031DC82C04302D02031CAD
:10199200CB2CCC2CD12C03302100AD000030AE007A
:1019A2002100B301B30A08002000AF002100291C66
:1019B200DB2CDC2CE52C20002F08AA002A08FB00D7
:1019C20027088B31B0238C312000A91BE92CEA2C8B
:1019D200EF2C2908AE002808AD00F12CAD01AE01B4
:1019E200AB01AC01052D2030F3000030F4002000E3
:1019F2002F08AA002A08F5008C3140248C310130CE
:101A02002000AB070030AC3D2C08803AAA002E081B
:101A1200803A2A02031D0F2D2D082B02031C122DC2
:101A2200132DF42C21002918172D182D212D2000FB
:101A32002F08AA002A08FB0027088B31B0238C311B
:101A420020002708F1000130F2008931FA218C319F
:101A520020002D087107A7002E08723DA80008007B
:101A6200220090018F018C018D018E010F30210027
:101A72009000FF308C00F8308D00BF308E008F0157
:101A820023008F013C308E0020308D000730900003
:101A92001F308C0024008F0190018D01E0308C00FA
:101AA2008E0121009513250090018C018D018E017C
:101AB2008F01FF3026008C00FF308D00FF308E003A
:101AC200FF308F0007309000FF3027008C00FF307E
:101AD2008D00FF308E00FF308F000F309000931288
:101AE2001313931392161217921791121113911343
:101AF2006130F1000830F200883178208D310230F7
:101B0200F1000030F20088317E208D310330F10087
:101B12000030F200883184208D318B1517303C0063
:101B2200A4000E303D0098001430A60008002000EA
:101B320034083802C4003508393BC50036083A3B40
:101B4200C60037083B3BC7004708A7004608A60067
:101B52004508A5004408A4003208C8003308C9009B
:101B62000030C91BFF30CA00CB003408C802350858
:101B7200C93B3608CA3B3708CB3B4B08F4004A083E
:101B8200F3004908F2004808F1003C084002CC008A
:101B92003D08413BCD003E08423BCE003F08433B5F
:101BA200CF004F08F8004E08F7004D08F6004C0829
:101BB200F5008C310A248D3174082000AB007308C3
:101BC200AA007208A9007108A8008F3170278D3110
:101BD200200024083C07D00025083D3DD1002608FE
:101BE2003E3DD20027083F3DD3005308B5005208BE
:101BF200B4005108B3005008B20008002000550894
:101C0200B3005408B2000030B7000030B600003014
:101C1200B5000A30B4000030BB000030BA00033017
:101C2200B900E830B8000030BF000030BE0001301B
:101C3200BD007430BC000030C3000030C20003306D
:101C4200C1008530C0008D3198258D3120003308C8
:101C5200D5003208D4005508B3005408B200003051
:101C6200B7000030B6000130B5007430B400003067
:101C7200BB000030BA000330B9008530B800003034
:101C8200BF000030BE000030BD000030BC0000309C
:101C9200C3000030C2000030C1006430C0008D318A
:101CA20098258D3120003308D7003208D6006430E1
:101CB200FA0056087A022100AB00200057090318E7
:101CC200890A2100AC002C08F2002B08F1008931AE
:101CD20081218D310800D92E8A3113228E31F801EB
:101CE20000308B3161238E31CC30F8009030F90016
:101CF2008B3188238E31F801F80A00308B31612351
:101D02008E316430F8009030F9008B3188238E31A7
:101D1200ED2E8A3113228E31F80100308B3161238E
:101D22008E31DD30F8009030F9008B3188238E310E
:101D3200F801F80A00308B3161238E317630F800D9
:101D42009030F9008B3188238E31ED2E8A311322A7
:101D52008E31F80100308B3161238E31DD30F80095
:101D62009030F9008B3188238E31F801F80A003067
:101D72008B3161238E318830F8009030F9008B313D
:101D820088238E31ED2E8A3113228E31F8010030F4
:101D92008B3161238E316430F8009130F9008B3140
:101DA20088238E31ED2E0130AD000030AE00ED2ED5
:101DB20021002E08003A0319DF2ED42E2D08003AF6
:101DC20003196D2E013A03198A2E033A0319A72E1D
:101DD200013A0319C42ED42E080020005508B3007E
:101DE2005408B2000030B7000030B6000030B50031
:101DF2001330B4000030BB000030BA000130B9002B
:101E02006630B8000030BF000030BE000030BD00B8
:101E12000030BC000030C3000030C2000030C100FE
:101E22003C30C0008D3198258E3120003308D70018
:101E32003208D600D71B1E2F1F2F302F5708803A8B
:101E4200FA0080307A02031D282F1430560203183C
:101E52002B2F2C2F302F88318A208E316F2F20008C
:101E62005708803AFA0080307A02031D3A2F143064
:101E72005602031C3D2F3E2F502F20005708803A58
:101E8200FA0080307A02031D482F283056020318C8
:101E92004B2F4C2F502F8831AF208E316F2F2000C7
:101EA2005708803AFA0080307A02031D5A2F2830F0
:101EB2005602031C5D2F5E2F6F2F20005708803AB9
:101EC200FA0080307A02031D682F3D305602031853
:101ED2006B2F6C2F6F2F883190208E3108002000DD
:101EE200AD01A71F752F762F832FA409A509A60977
:101EF200A709A40A0319A50A0319A60A0319A70A1E
:101F0200AD01AD0AAB1F862F872F962FA809A9090D
:101F1200AA09AB09A80A0319A90A0319AA0A0319EB
:101F2200AB0A0130F9007908AD060030B10000308B
:101F3200B0000030AF000030AE00270826042504B0
:101F420024040319A52FA62FE72FAC01AC0AB42F46
:101F52000130A435A50DA60DA70D890BAA2F0130BE
:101F6200F9007908AC07A71FB72FB82FA92F0130A6
:101F7200AE35AF0DB00DB10D890BB92F27082B026D
:101F8200031DCD2F26082A02031DCD2F2508290265
:101F9200031DCD2F24082802031CD02FD12FDA2FA6
:101FA2002408A8022508A93B2608AA3B2708AB3B20
:101FB2002E140130A736A60CA50CA40C890BDB2F1E
:101FC2000130AC02031DE62FE72FB82F2D080319AD
:101FD200EB2FEC2FF72FAE09AF09B009B109AE0A0A
:101FE2000319AF0A0319B00A0319B10A3108A7008D
:101FF2003008A6002F08A5002E08A40008005434BB
:1020020065346D34703465347234613474347534CB
:10201200723465342034733465346E3473346F34FF
:102022007234203469347334203461347634613448
:1020320069346C34613462346C3465340D340A347E
:1020420000344C3469346734683474342034733463
:1020520065346E3473346F347234203469347334BB
:10206200203461347634613469346C3461346234DE
:102072006C3465340D340A3400346D3465346E3496
:1020820075345F34633475347234723465346E344B
:1020920074343A3420342534643420340A340D3410
:1020A20000346D3465346E3475345F3469346E34A3
:1020B2006434653478343A3420342534643420343A
:1020C2000A340D34003420342034543465346D34F1
:1020D20070346534723461347434753472346134FA
:1020E200203420342034203400342034203420346E
:1020F20020344C3475346D3469346E346F34633447
:10210200693464346134643420342034003420343B
:10211200203420342034203453346F346E34693404
:1021220064346F342034203420342034203400349A
:10213200203420342034203420344134703461344B
:102142006734613464346F342034203420342034D2
:102152000034203420342034203445346E34633447
:1021620065346E346434693464346F34203420341A
:10217200203400343C3420342034203448346F344A
:102182007234613420346434653420342034203491
:1021920020343E34003420342034533465346E34D9
:1021A20073346F3472342034643465342034203410
:1021B200203420343E3400343C3420342034533430
:1021C20065346E3473346F3472342034643465345D
:1021D2002034203420343E3400343C342034203443
:1021E2002034533465346E3473346F34723465344E
:1021F20073342034203420343E3400343C342034D0
:10220200203449346E34743465346E347334693432
:10221200643461346434203420343E340034203455
:1022220020344D346F3464346F3420346434653474
:102232002034753473346F34203420343E34003407
:102242003C342034543465346D3470346F34723419
:1022520069347A34613464346F34723420343E34F5
:1022620000344134753474346F346D3461347434F1
:10227200693463346F34203470346F3472342034F0
:102282003E340034203420342034203420342034AE
:10229200203420342034203420342034203420349C
:1022A20020342034003420342034203420342034AC
:1022B2004D3465346434693461342034203420343C
:1022C2002034203400343C3420342034203452343E
:1022D2006534673472346534733461347234203453
:1022E2002034203400342034203420342034533439
:1022F20065346E3473346F3472346534733420341D
:10230200203420340034203420342034203420344B
:10231200423461346A34613420342034203420342D
:10232200203400342034203420342034203441340A
:102332006C3474346134203420342034203420341A
:102342000034203420342034203441347034613459
:102352006734613464346F342034203420340034E0
:102362003C3420342034203448346F3472346134A5
:1023720020346434653420340034543465346D348C
:102382007034653472346134743475347234653443
:102392000034A13468346F346C3461342134003435
:1023A2004C346934673468347434003425347334FB
:0823B20020340D340A3400341C
:020000040001F9
:04000E00E43FFF3E8E
:00000001FF
