:020000040000FA
:1000000080311328053008007E1480318B1D0928AB
:100010000A2811280B1C0D280E2811289431912430
:1000200080317E10090080311528210090319C20FC
:100030008031ED0090319D208031EE0090319E2086
:100040008031EF004E308400003085001130913156
:100050001E218031DB308400003085000C3091316E
:100060001E218031203084000130850042309131E2
:100070001E218031A0308400013085002030913174
:100080001E2180317E1020008431D52C2100AD004E
:100090002008B4002108B5002208B6002308B700E4
:1000A0002408B8002508B9002608BA002708BB00B4
:1000B000B430860000308700473FA800A81B6128A5
:1000C00063280130642800302100A900AA01290812
:1000D000B2002A08B30032083304031970287128CB
:1000E0008F28B409B509B609B709B809B909BA0919
:1000F000BB09B40A031D8F28B50A031D8F28B60A51
:10010000031D8F28B70A031D8F28B80A031D8F28E7
:10011000B90A031D8F28BA0A031D8F28BB0A2000C5
:10012000D11B932894289828FD30D205FF30D305A1
:100130005108803A2100A80080302802031DA3281E
:100140000130200050020318A628A728AD2801304E
:100150002100AE000030AF00B5282000510821007A
:10016000AF00200050082100AE0020004F08210001
:10017000B10020004E082100B00032083304031DF6
:10018000C228C328C8282000521DC728C828CD2847
:10019000FF302100B007FF30B13D1F302100BC000F
:1001A0000030BD002300BF017029FF302100BC07D3
:1001B000FF30BD3D0A302000B100B201B301B401EF
:1001C000B501B601B701B801210034082000B9001B
:1001D000210035082000BA00210036082000BB00AD
:1001E000210037082000BC00210038082000BD0095
:1001F000210039082000BE0021003A082000BF007D
:1002000021003B082000C0008331E823803120001A
:100210003208C5003108C400953113258031200013
:100220004408303E2100A8003C08A03E8600013072
:10023000870028088100FF30AE07FF30AF3DFF3058
:10024000B007FF30B13D0A302000B100B201B30168
:10025000B401B501B601B701B8012100340820008E
:10026000B900210035082000BA002100360820001E
:10027000BB00210037082000BC0021003808200006
:10028000BD00210039082000BE0021003A082000EE
:10029000BF0021003B082000C0008131F1218031E6
:1002A000200031082100B400200032082100B500F0
:1002B000200033082100B600200034082100B700D8
:1002C000200035082100B800200036082100B900C0
:1002D000200037082100BA00200038082100BB00A8
:1002E00021003D08803AA80080302802031D7A29A9
:1002F00001303C02031C7D297E29AB2921003408F2
:10030000350436043704380439043A043B04031D29
:100310008A298B29D5282F08803AA8008030280206
:10032000031D942901302E02031897299829D528F6
:1003300021003108803AA80080302802031DA2293C
:1003400001303002031CA529A629AB292000D218B0
:10035000AA29AB29D528210032083304031DB1296D
:10036000B229B7292000521DB629B729D429FF3058
:100370002100BC07FF30BD3D32083304031DC129F5
:10038000C229C7292B30AB000030AC00CB292D305F
:10039000AB000030AC002B08A8003C08A03E860053
:1003A000013087002808810021003C08A03EA800F9
:1003B00028082000C300210031082000C5002100CA
:1003C00030082000C40021002D088D3144258031E3
:1003D000200044082100A100200043082100A000C3
:1003E00008002000C3013130860000308700473FFD
:1003F000C100C11FFC29FD291F2A2000B109B20933
:10040000B309B409B509B609B709B809B10A031D9A
:100410001C2AB20A031D1C2AB30A031D1C2AB40A93
:10042000031D1C2AB50A031D1C2AB60A031D1C2A1B
:10043000B70A031D1C2AB80A2000C301C30A3930B9
:10044000860000308700473F2000C100C11F292AD5
:100450002A2A4E2A2000B909BA09BB09BC09BD09DC
:10046000BE09BF09C009B90A031D492ABA0A031DFA
:10047000492ABB0A031D492ABC0A031D492ABD0A91
:10048000031D492ABE0A031D492ABF0A031D492A22
:10049000C00A01302000C1004108C3064430860074
:1004A0000030870008302000C10000301E00C10B62
:1004B000562A310832043304340435043604370430
:1004C00038040319642A652AC12AC201C20A742A9F
:1004D000B135B20DB30DB40DB50DB60DB70DB80DE8
:1004E0000130C1004108C207B81F772A782A682A5C
:1004F000C435C50DC60DC70DC80DC90DCA0DCB0D30
:1005000038084002031D9E2A37083F02031D9E2A19
:1005100036083E02031D9E2A35083D02031D9E2A11
:1005200034083C02031D9E2A33083B02031D9E2A09
:1005300032083A02031D9E2A31083902031CA12AFF
:10054000A22AB32A3108B9023208BA3B3308BB3BAE
:100550003408BC3B3508BD3B3608BE3B3708BF3BC3
:100560003808C03B4414B836B70CB60CB50CB40C04
:10057000B30CB20CB10C0130C202031DC02AC12A57
:10058000782A43080319C52AC62AE42AC409C509DA
:10059000C609C709C809C909CA09CB09C40A031D84
:1005A000E42AC50A031DE42AC60A031DE42AC70A71
:1005B000031DE42AC80A031DE42AC90A031DE42A0C
:1005C000CA0A031DE42ACB0A20004408B1004508EA
:1005D000B2004608B3004708B4004808B50049080F
:1005E000B6004A08B7004B08B80008002100CB004D
:1005F00020004C0886008701403F2100BE00413F9B
:10060000BF003E0884003F0885001200253A031D04
:100610000A2B0B2BBD2B20004C08860087010130D4
:10062000810741310318810ACE01CF01D201D301E4
:10063000FF30D000FF30D1004C0886008701403FDA
:100640002100BE00413FBF003E0884003F088500F6
:100650001200643A03192D2B2E2B412B20004C083D
:1006600086008701403F2100BE00413FBF003E0899
:1006700084003F0885001200693A031D402B412B7E
:10068000822B20004C088600870101308107413110
:100690000318810A4D088600013087000108840094
:1006A000850102308107003F2100BE00013FBF00ED
:1006B0003E08C3003F08C400890D893B8909C50075
:1006C000C600C700C800C900CA004308A00044080B
:1006D000A1004508A2004608A3004708A400480856
:1006E000A5004908A6004A08A7004B08803146200B
:1006F0008231210021082000CD00210020082000A7
:10070000CC00E72B20004C0886008701403F2100E9
:10071000BE00413FBF003E0884003F088500120034
:10072000253A031D942B952BB12B20004C088600F5
:1007300087010130810741310318810A2530B30058
:100740000030B40021004B08BE003E082000B50078
:100750008B31C623823101302000CC000030CD0027
:10076000E72B20004C0886008701013081074131CA
:100770000318810ACC01CD01E72B20004C0886002C
:100780008701403F2100BE00413FBF003E0884007A
:100790003F0885000008C000C10140082000B300E8
:1007A000210041082000B40021004B08C20042088B
:1007B0002000B5008B31C623823120004C08860012
:1007C00087010130810741310318810AAB2B0800F2
:1007D0002000C3013930860000308700473FC10048
:1007E000C11FF32BF42B162C2000B909BA09BB0941
:1007F000BC09BD09BE09BF09C009B90A031D132CF4
:10080000BA0A031D132CBB0A031D132CBC0A031DBB
:10081000132CBD0A031D132CBE0A031D132CBF0A83
:10082000031D132CC00A2000C301C30A3130860007
:1008300000308700473F2000C100C11F202C212C21
:10084000402C2000B109B209B309B409B509B609B1
:10085000B709B809B10A031D402CB20A031D402C88
:10086000B30A031D402CB40A031D402CB50A031D16
:10087000402CB60A031D402CB70A031D402CB80AB1
:1008800020003108320433043404350436043704BC
:10089000380403194C2C4D2CA02CC201C20A5C2C2C
:1008A000B135B20DB30DB40DB50DB60DB70DB80D14
:1008B0000130C1004108C207B81F5F2C602C502CCA
:1008C00038084002031D7E2C37083F02031D7E2C92
:1008D00036083E02031D7E2C35083D02031D7E2C8A
:1008E00034083C02031D7E2C33083B02031D7E2C82
:1008F00032083A02031D7E2C31083902031C812C78
:10090000822C922C3108B9023208BA3B3308BB3B27
:100910003408BC3B3508BD3B3608BE3B3708BF3BFF
:100920003808C03BB836B70CB60CB50CB40CB30CD9
:10093000B20CB10C0130C202031D9F2CA02C602C04
:1009400043080319A42CA52CC32CB909BA09BB0967
:10095000BC09BD09BE09BF09C009B90A031DC32CE2
:10096000BA0A031DC32CBB0A031DC32CBC0A031DFA
:10097000C32CBD0A031DC32CBE0A031DC32CBF0A12
:10098000031DC32CC00A20003908B1003A08B20088
:100990003B08B3003C08B4003D08B5003E08B60073
:1009A0003F08B7004008B80008009431AA248431F9
:1009B00097316727843100302300C2000030C30024
:1009C0000030C4005C3095312F258431563095318C
:1009D0004C2584310230563E860001308700413F6D
:1009E0008A00403F0A0084312100D90059082300C1
:1009F000CA0002305C3E860001308700413F8A0019
:100A0000403F0A0085312100D90059082300CB005E
:100A1000CC01CD014A082100D90059082300CC009F
:100A20004B082100D90059082300CD00E330933151
:100A30006B238431CC302100D90059082000B1004B
:100A400044308C31F02484318B170B172200470877
:100A50002000B200220046082000B10091318D2113
:100A60008431220049082000B200220048082000FA
:100A7000B10091319621843122004B082000B20050
:100A800022004A082000B10091319F2184312B308F
:100A90002000B8009930B9008831172084314130E6
:100AA0002100D900EE30890B532DD90B532D0000B6
:100AB000EE302100D90059082000C800EF308B31FA
:100AC000452384313D302100D4009930D5006F0892
:100AD000D900DA015908D6005A08D70093317D238E
:100AE00084310430563E860001308700413F8A0041
:100AF000403F0A008531200036082300C70020004F
:100B000035082300C60004305C3E860001308700B3
:100B1000413F8A00403F0A0085312000360823000B
:100B2000C900200035082300C80047082100C30081
:100B3000230046082100C2000230E33E8600870100
:100B4000413F8A00403F0A008531230049082100C7
:100B5000C300230048082100C20064088A0063081B
:100B60000A0085310A30443E860001308700413F4B
:100B70008A00403F0A008531712D803113284830AA
:100B80002100D4009830D500200057082100D7005C
:100B9000200056082100D60093317D238531203076
:100BA0002100D4009830D500200059082100D7003A
:100BB000200058082100D60093317D2385316D2E09
:100BC000210062080319E52DE62D162E96313B26ED
:100BD00085312000B80100309731D8278531AF30FA
:100BE0002000B8009830B9008831172085312000E6
:100BF000B801B80A00309731D827853121006F0835
:100C00000319032E042E0D2E6B302000B8009830EF
:100C1000B9008831172085317E2E34302000B8008D
:100C20009830B9008831172085317E2E01302000A0
:100C3000D6070030D73D210061080319202E212E50
:100C4000512E96313B2685312000B8010030973176
:100C5000D8278531C0302000B8009830B9008831DD
:100C6000172085312000B801B80A00309731D82705
:100C7000853121006E0803193E2E3F2E482E6B3021
:100C80002000B8009830B9008831172085317E2EB9
:100C900034302000B8009830B900883117208531F1
:100CA0007E2E01302000D6070030D73D96313B26FE
:100CB00085312000B80100309731D8278531F330D5
:100CC0002000B8009830B9008831172085317E2E79
:100CD0000130D6000030D7007E2E20005708003AA1
:100CE0000319732E682E5608003A0319E02D013AB5
:100CF00003191B2E033A0319562E682E08002100F3
:100D000042084304031D852E862E8A2E91313921F7
:100D10008631122F4308A1004208A0000030A50030
:100D20000030A4000030A3001330A2000030A9005E
:100D30000030A8000130A7006630A6000030AD00EA
:100D40000030AC000030AB000030AA000030B10031
:100D50000030B0000030AF003C30AE008E31642671
:100D6000863121002108C5002008C400C51BB92E0A
:100D7000BA2ECD2E4508803A2000CC0080304C029F
:100D8000031DC52E1430210044020318C82EC92E9D
:100D9000CD2E913132218631122F21004508803A23
:100DA0002000CC0080304C02031DD92E14302100CD
:100DB0004402031CDC2EDD2EF12E21004508803A72
:100DC0002000CC0080304C02031DE92E2830210089
:100DD00044020318EC2EED2EF12E91314F21863175
:100DE000122F21004508803A2000CC0080304C02B0
:100DF000031DFD2E283021004402031C002F012F6B
:100E0000122F21004508803A2000CC0080304C028F
:100E1000031D0D2F3D30210044020318102F112F08
:100E2000122F862E08008E2F96313B268731200008
:100E3000B80100309731D82787319E302000B800A4
:100E40009830B900883117208731A22F96313B2680
:100E500087312000B80100309731D8278731D13051
:100E60002000B8009830B900883117208731200061
:100E7000B801B80A00309731D82787315A3020009E
:100E8000B8009830B900883117208731A22F9631E9
:100E90003B2687312000B80100309731D8278731B1
:100EA0008D302000B8009830B90088311720873184
:100EB0002000B801B80A00309731D82787317C303C
:100EC0002000B8009830B900883117208731A22F50
:100ED00096313B2687312000B80100309731D82762
:100EE000873112302000B8009930B90088311720BE
:100EF00087312000B801B80A00309731D8278731F0
:100F000003302000B8009930B900883117208731AC
:100F1000A22F0130D6000030D700A22F20005708A2
:100F2000003A0319942F892F5608003A0319142FF9
:100F3000013A0319262F033A0319472F013A0319DF
:100F4000682F892F08007E1CA72F8D319A2D913193
:100F500012218731003A0319AE2FAF2FE22FBC2F99
:100F60009131B1218731FF2F9131BA218731FF2F84
:100F70009131CC218731FF2F22002F082000BB00A8
:100F80003B08BA000630203E860001308700413F12
:100F90008A00403F0A0087312000BC00BD013D08A7
:100FA000003A0319D42FB82F3C08013A0319B82F7F
:100FB000033A0319B02F013A0319B42F073A031962
:100FC000B82FB82F22003C101730203E8600013089
:100FD0008700403F84008501810A000891310C217F
:100FE000873101302200B8020030B93B380839049B
:100FF000031DFB2FFC2FFE2F0630FF2F03300800B0
:101000007E1C042893315A2B02302000B10000309E
:10101000B2003A0893319123883100302000B600A5
:10102000B700B80192318A228831023008002000CE
:10103000BD012E283908BB003808BA003D083A0720
:1010400084003B0803183B0A850000089631792686
:10105000883101302000BA003A08BD073908BB00CA
:101060003808BA003D083A0784003B0803183B0AD9
:1010700085001200031D3D283E281A280800200084
:10108000C700200047088B3185238831003A0319B7
:101090004A284B28412820004608B2004508B100E4
:1010A000440893319123883100302000B600B70006
:1010B000B8019231982288319031EF2088319631F1
:1010C00099268831013A0319662867285F280800A5
:1010D0002000C200C001C10180283F08BC00BD0142
:1010E0003C08B3003D08B4003B08BE003E08B50014
:1010F0008B31C623883101302000C0070030C13D4C
:1011000040084207BC003C08860001308700010807
:10111000BD003D08BF003F08031D8F2890286D28A3
:101120000800F40070087104031997289828AB2868
:101130007435203E8600013087007008C03F71087A
:10114000C13F7208F30074082C3E8600013087000E
:1011500073088100BA287435203E8600013087006C
:101160000030C03F1130C13F74082C3E8600013072
:101170008700810108002000B500310832040319FE
:10118000C228C328D6283535203E86000130870086
:101190003108C03F3208C13F3308B40035082C3E47
:1011A00086000130870034088100E5283535203E6F
:1011B0008600013087000030C03F1130C13F350844
:1011C0002C3E8600013087008101080022003C107F
:1011D0000230FA007A08BB00F5289031C720883128
:1011E00012299031CC20883112292E08FA007A0871
:1011F000F9000430203E860001308700413F8A001C
:10120000403F0A008931FB00FC017C08003A0319C9
:101210000A29F1287B08023A0319ED28013A03193B
:10122000ED28F128080090316620893122003C1C0D
:101230001A291B2929299031F4208931003A0319F0
:101240002229232929290F302000A000200822006C
:10125000BA0022003A082000A000A101A035A10D8B
:101260000030200784009830213D8500013F8A002E
:10127000003F0A0089312000A20022082200BA00A3
:10128000080090318120893122003C1C48294929DD
:101290005729913112218931003A031950295129D6
:1012A00057290F302000BE003E082200BA0022005D
:1012B0003A082000BE00BF01BE35BF0D00303E071A
:1012C000840098303F3D8500013F8A00003F0A00BE
:1012D00089312000C00040082200BA000800220026
:1012E000BC157F299031C72089319D2990317E20FE
:1012F000893103309D299031CC2089319D292C08DA
:10130000FA007A08F90021088A0020080A008931C9
:10131000FB00FC017C08003A03198F297B297B081C
:10132000013A03197B29033A03197229013A031977
:101330007229073A031976297B2908002100D10078
:101340004D08D3004C08D200DB01DC01BF29D230AC
:10135000CF004F082000CC0021004E08D0005008DC
:101360002000CD00210051088231F6228931200071
:101370004C082100DB0720004D082100DC3D52080D
:101380008400530885001200031DC729C829A72916
:101390005C08CD005B08CC0008002000580359040D
:1013A000031DD329D429E129023056065704031D11
:1013B000DA29DB29E129210061080319E029E12963
:1013C000E729FF302000D607FF30D73DF229620819
:1013D0000319EB29EC29F229FE302000D607FF3053
:1013E000D73DF2292000D71FF629F729F929D60180
:1013F000D7012100ED01ED0A080000302000BC00FB
:101400000030BB000030BA000030B900311C092A9E
:101410000A2A122A3508B9073608BA3D3708BB3DF3
:101420003808BC3D0130B535B60DB70DB80D890B88
:10143000132A0130B436B30CB20CB10C890B1A2A42
:101440003408330432043104031D272A282A062ACB
:101450003C08B4003B08B3003A08B2003908B100B8
:1014600008002000AB00220040082000AF0022004E
:101470003F082000AE0022003E082000AD00220000
:101480003D082000AC002B080319472A482A4A2AA5
:10149000AE01AE0A290803194E2A4F2A512AAF017C
:1014A000AF0A2C30AA002A08A5000430A60000309C
:1014B000A70050309731B0278A3107302000AA00AA
:1014C0007D30890B612AAA0B612A08007E1C6A2ADA
:1014D0008831E62822003C1002302000BB003B0887
:1014E0002200BB007B2A9131C3218A319A2A913193
:1014F000CC218A319A2A2E082000BB003B08BA0072
:101500000430203E860001308700413F8A00403F82
:101510000A008A312000BC00BD013D08003A0319D1
:10152000922A772A3C08023A0319732A013A0319CE
:10153000732A772A08007E1C9F2A89316F2922008E
:10154000BC15AF2A9131C3218A31D02A903199201C
:101550008A310330D02A9131CC218A31D02A2C080B
:101560002000BB003B08BA00220021088A002008A6
:101570000A008A312000BC00BD013D08003A031971
:10158000C22AAB2A3C08013A0319AB2A033A0319D1
:10159000A22A013A0319A22A073A0319A62AAB2A5A
:1015A000080001302000D6070030D73D5808590404
:1015B000031DDB2ADC2AEE2A5708803AF00080302F
:1015C0007002031DE52A05305602031CE82AE92AA9
:1015D000EE2A04302000D6000030D7002000580347
:1015E0005904031DF42AF52A072B5708803AF00006
:1015F00080307002031DFE2A03305602031C012BAB
:10160000022B072B02302000D6000030D70021002B
:10161000ED01ED0A0800F100F201F20A22003C1986
:10162000122B132B432B7108F0007008B600BC106E
:101630003C153C100E30F0007008BA00F430B400D5
:101640000130B500BC150030A0001130A100AC0184
:101650000030A2001130A300AD010030A400113011
:10166000A500AE010030A6001130A700AF01063082
:10167000A8001130A900B001903166208B31923161
:1016800049228B31F201720808002100A400A00158
:10169000A101A0302000C9004908C4000230C500E3
:1016A0000030C600503088313F208B31A2302000FE
:1016B000C9004908C4000230C5000030C6005030DF
:1016C0009631BA268B3121002208031D682B692B25
:1016D0006E2B2408860087018101732B2408860065
:1016E00087018101810A2308031D772B782B7E2B2C
:1016F00020004808860087018101842B20004808CB
:10170000860087018101810A08002000B200B30130
:10171000B30A22003C198D2B8E2BC32B20003208DC
:10172000B10031082200B600BC103C153C100E3050
:101730002000B10031082200BA00F430B4000130BA
:10174000B500BC150030A0001130A100AC01003084
:10175000A2001130A300AD010030A4001130A5009B
:10176000AE010030A6001130A700AF010630A8007E
:101770001130A900B001903181208B3192317D224E
:101780008B312000B3012000330808002000350809
:101790000319CB2BCC2BD12B3508031DD02BD12BF0
:1017A000D62B3308913140218B31062C3508033E6E
:1017B00086008701160001040319DF2BE02BFD2BA7
:1017C0003508033E86008701403FB600413FB70021
:1017D000350A86008701403FB800413FB90039080B
:1017E000803ABA003708803A3A02031DF92B3608CE
:1017F00038020318FC2BFD2B062C2000350A86002E
:1018000087010130810741310318810A08009031B6
:101810007B208C31FA0022003708860087017A0885
:1018200081000130FA007A08B7070130B8020030B1
:10183000B93B3808390403191E2C1F2C242C903175
:10184000A3208C3105304C2CBC152E2C9031DB2084
:101850008C314C2C9031D6208C314C2C2C08FA0039
:101860007A08F90021088A0020080A008C31FB0060
:10187000FC017C08003A03193E2C2A2C7B08013A13
:1018800003192A2C033A0319262C013A0319262C92
:10189000073A03192A2C2A2C08007E1C512C8C3163
:1018A000072C903196208C312000BB002200370895
:1018B0008600870120003B0881000130BB003B0807
:1018C0002200B7070130B8020030B93B38083904AC
:1018D00003196B2C6C2C712C9031AF208C3105309E
:1018E0009C2CBC157B2C9131E7218C319C2C9131A7
:1018F000DE218C319C2C2C082000BB003B08BA0058
:10190000220021088A0020080A008C312000BC0037
:10191000BD013D08003A03198E2C772C3C08013A92
:101920000319772C033A0319732C013A0319732C0A
:10193000073A0319772C772C08002100420843044A
:10194000031DA32CA42CAC2C00302000B100B2004D
:101950009431C3248C31EF2C4308A1004208A0002D
:101960000030A5000030A4000030A3000A30A2001F
:101970000030A9000030A8000330A700E830A6001E
:101980000030AD000030AC000030AB000030AA00E9
:101990000030B1000030B0000030AF006430AE0065
:1019A0008E3164268C3121002108C5002008C40036
:1019B00064302000CC002100440820004C022100AB
:1019C000DD0045090318890ADE005E082000B20028
:1019D00021005D082000B1009431C3248C3108003F
:1019E0002000B3003308023E860001308700D1306A
:1019F000C03F0A30C13F3308043E860001308700F3
:101A0000CD30C03F0930C13F3308063E860001306B
:101A10008700E930C03F0E30C13F3308083E8600E2
:101A2000013087000030C03F0030C13F33080A3E1C
:101A30008600013087004430C03F1730C13F330873
:101A40000C3E8600013087001330C03F0730C13F95
:101A50003308103E860001308700BF30C03F05309C
:101A6000C13F31088600013087000108B20032080A
:101A70002100E2002000310886000130870001309B
:101A8000413F2100E10008002000CB00521C492DFD
:101A90004A2D522D4B08C6004608BB00430888312A
:101AA00068208D312000C51B562D572D5C2D450813
:101AB000CA004408C9005E2DC901CA01C701C80196
:101AC000722D20302000B3000030B4004B08C60057
:101AD0004608B5008B31C6238D3101302000C70781
:101AE0000030C83D4808803AC6004A08803A46029D
:101AF000031D7C2D49084702031C7F2D802D612D7D
:101B000020005218842D852D8D2D4B08C6004608C7
:101B1000BB004308883168208D3120004308943190
:101B2000DC248D31200049083107C3004A08323DCA
:101B3000C40008009031F4208D31003A0319A12D22
:101B4000A22DD32DAF2D9031BD208D31F02D9031B0
:101B5000C2208D31F02D9031CC208D31F02D22001E
:101B60002F08FA007A08F9000630203E860001307E
:101B70008700413F8A00403F0A008D31FB00FC0195
:101B80007C08003A0319C52DAB2D7B08013A0319D7
:101B9000AB2D033A0319A32D013A0319A72D073AD8
:101BA0000319AB2DAB2D22003C101730203E8600D0
:101BB00001308700403F84008501810A0008903190
:101BC000B3208D3101302200B8020030B93B380813
:101BD0003904031DEC2DED2DEF2D0630F02D0330D3
:101BE0000800220090018F018C018D018E010F30C1
:101BF00021009000FF308C00F8308D00BF308E0047
:101C00008F0123008F0124308E0020308D0007309B
:101C100090001F308C0024008F0190018D01E03076
:101C20008C008E0121009513250090018C018D01FF
:101C30008E018F01FF3026008C00FF308D00FF30B9
:101C40008E00FF308F0007309000FF3027008C009F
:101C5000FF308D00FF308E00FF308F000F3090007E
:101C600093121313931392161217921791121113C2
:101C7000911361302000B1001030B20091318D21FC
:101C80008D3162302000B1001030B20091319621C8
:101C90008D3163302000B1001030B20091319F21AE
:101CA0008D318B1517303C00A4001430A10010308A
:101CB0003D00A3000E3098001130A4001430A6009F
:101CC00013303C00A0000800210022082602B200C8
:101CD0002308273BB3002408283BB4002508293BF0
:101CE000B50035082000C000210034082000BF00E6
:101CF000210033082000BE00210032082000BD0072
:101D000021002008B6002108B7000030B71BFF30C3
:101D1000B800B9002208B6022308B73B2408B83B34
:101D20002508B93B39082000B400210038082000FC
:101D3000B300210037082000B2002100360820003F
:101D4000B10021002A082E02BA002B082F3BBB004D
:101D50002C08303BBC002D08313BBD003D08200065
:101D6000B80021003C082000B70021003B082000FB
:101D7000B60021003A082000B5008931FD218E31DE
:101D800020003408C4003308C3003208C200310800
:101D9000C1008F3170278E3120003D0821002A07B5
:101DA000BE0020003E0821002B3DBF0020003F0860
:101DB00021002C3DC0002000400821002D3DC10025
:101DC0004108A3004008A2003F08A1003E08A0006F
:101DD0000800200058035904031DEF2EF02EFF2E9B
:101DE000023056065704031DF62EF72EFF2ED8019B
:101DF000D901D601D7012100ED01ED0A6F2F58035B
:101E00005904031D042F052F252F56085704031DC1
:101E10000A2F0B2F252F21006F080319102F122FC7
:101E20000130132F00302000B00030082100EF00F7
:101E3000ED01ED0A6E082000B0003008A900210075
:101E40006F088A3131228E316F2F58035904031DD8
:101E50002A2F2B2F4B2F56035704031D302F312FC2
:101E60004B2F21006E080319362F382F0130392FE0
:101E700000302000B00030082100EE00ED01ED0A36
:101E80006E082000B0003008A90021006F088A31D8
:101E900031228E316F2F58085904031D502F512FB6
:101EA0006F2F58085904031D562F572F652F5708B9
:101EB000803AB00080303002031D602F023056029D
:101EC000031C632F642F652F6F2F20005608013EDF
:101ED000D8000030573DD900D601D701FB2E0800AD
:101EE0002000C701C01F752F762F832FBD09BE09A3
:101EF000BF09C009BD0A0319BE0A0319BF0A0319A5
:101F0000C00AC701C70AC41F862F872F962FC10991
:101F1000C209C309C409C10A0319C20A0319C30AC1
:101F20000319C40A0130C5004508C7060030CB00BC
:101F30000030CA000030C9000030C80040083F042B
:101F40003E043D040319A52FA62FE72FC601C60A9C
:101F5000B42F0130BD35BE0DBF0DC00D890BAA2FAA
:101F60000130C5004508C607C01FB72FB82FA92FDD
:101F70000130C835C90DCA0DCB0D890BB92F4008EA
:101F80004402031DCD2F3F084302031DCD2F3E0801
:101F90004202031DCD2F3D084102031CD02FD12F3B
:101FA000DA2F3D08C1023E08C23B3F08C33B400850
:101FB000C43B48140130C036BF0CBE0CBD0C890BAD
:101FC000DB2F0130C602031DE62FE72FB82F47088D
:101FD0000319EB2FEC2FF72FC809C909CA09CB0940
:101FE000C80A0319C90A0319CA0A0319CB0A4B08FC
:101FF000C0004A08BF004908BE004808BD000800EC
:1020C20008000800080001300800200091110800F3
:1020D2002400951208002100911108002400161412
:1020E2000800240096140800240016150800240095
:1020F2009615080024001108080020009115080018
:10210200200091110800240095120800210091116D
:102112000800240016140800240096140800240065
:10212200161508002400961508002400110808005E
:102132002000911508000134013401342400961660
:1021420016160800240096121616080016302100F2
:10215200970008002400961616160800240096120E
:1021620016160800F00070082400910008002200F2
:10217200BC10BB010E30080090317220903101304A
:1021820008009031722090310230080090317220A4
:1021920090310130080090317520903100300800F4
:1021A2009031A32090310530080090319F2090316A
:1021B2000A30080090319F20903109300800220037
:1021C200BC10BB010E30080000309631DB26903186
:1021D20008000130973121279031080000309731F3
:1021E2002127903108002400160E890C890C013930
:1021F20008002000911DFE28FF28FA2808007E1CF6
:10220200042990316428013008007E1C0A2980319B
:102212000228053008002000B10031082400910096
:1022220008002400160E890C890C013908002000D0
:10223200911D1C291D291829080064008001013103
:10224200890B1F29003422003C10903178209131F3
:1022520004300800583021009900980122009601AC
:1022620008002000B1010130943179249131080035
:102272002000B1010030943179249131080020000E
:10228200B2003208923103229131080022003C143C
:1022920036359031B3209131033008002000B1016E
:1022A200B10A0030943179249131080022003C14A3
:1022B2000314360D9031B320913105300800863079
:1022C20021009E009F019B019C0101309D0008009E
:1022D200200032082200E300200031082200E20040
:1022E2000800200032082200E70020003108220006
:1022F200E6000800200032082200E5002000310834
:102302002200E400080024009401083095009601A0
:10231200F930920095120800200032082100EC00EA
:10232200200031082100EB000800200032082100C3
:10233200EA00200031082100E900080020003208EC
:102342002100E800200031082100E70008007E1C7F
:10235200AC299031B8282200BC10BB010E30080015
:102362007E1CB5299031BD2890318D2091310130EC
:1023720008007E1CBE299031C22890318D209131F7
:10238200023008007E1CC7299031C72890318D2069
:102392009131013008007E1CD0299031CC28903137
:1023A20090209131003008007E1CD9299031D1282B
:1023B2009031AF209131053008007E1CE229903126
:1023C200D6289031AB2091310A3008007E1CEB29CF
:1023D2009031DB289031AB209131093008007E1C0E
:1023E200F4299031E0282200BC10BB010E30080015
:1023F20040302800960095012000921007302800F6
:10240200970008002000B100111E082A092A052A97
:10241200310823009A00080080302C0099009801AE
:10242200970125001E08CF3910389E0008007E1C37
:102432001C2A9131242922003C10903193209231A0
:10244200043008007E1C272A9131472922003C14BF
:10245200363591310C219231033008007608F100B3
:102462007508F0007708F8007808F200003088312B
:10247200912092310800432A9031FA209231893119
:10248200132192312200BC18472A482A3D2A08000B
:102492002400951A4D2A4E2A552A94010830950097
:1024A2009601F9309200951608007608F100750839
:1024B200F0007708F8007808F200023088319120A5
:1024C200923108007E1C672A9131572922003C1460
:1024D2000314360D91310C21923105300800772A10
:1024E2009131182192318931412192312200BC1857
:1024F2007B2A7C2A712A08002400951A812A822AC2
:10250200892A9401083095009601F93092009516B7
:10251200080020003708B2003608B1003808B900B8
:102522003908B30000308831BB2092310800200006
:102532003708B2003608B1003808B9003908B300CC
:1025420002308831BB209231080021006B086C04F4
:102552000319AC2AAD2AB22A6C088A006B080A0059
:102562009231270093120800210069086A040319B6
:10257200BB2ABC2AC12A6A088A0069080A00923169
:102582002700131308002100670868040319CA2AE8
:10259200CB2AD02A68088A0067080A0092312700ED
:1025A20093130800F3002200BC1DD82AD92AE22A7C
:1025B2007308F2007208B7007108B9007008B80019
:1025C200BC1108000230F0000030F10079089231AD
:1025D200D32292310030F500F600F70192312F221A
:1025E2009231043008000130F0000030F100790827
:1025F2009231D32292310030F500F600F701923188
:102602002F229231023008000230F0000030F10037
:1026120079089231D32293310030F500F600F701A8
:1026220092312F229331023008000130F000003045
:10263200F10079089231D32293310030F500F6008F
:10264200F70192312F229331043008000230F0005A
:102652000030F10079089231D32293310030F50035
:10266200F600F70192312F22933104300800013035
:10267200F0000030F10079089231D322933100301A
:10268200F500F600F70192312F2293310430080051
:102692000130F0000030F10079089231D3229331F9
:1026A2000030F500F600F70192312F22933102300B
:1026B20008000230F0000030F10079089231D32294
:1026C20093310030F500F600F70192312F22933159
:1026D200023008002000B1003108860087019D30D9
:1026E200C03F0C30C13F3108023E860087017F3077
:1026F200C03F0630C13F0800D6302100D80058083C
:102702002200EA0021005508CD005408CC006A30AE
:10271200D8005808CE00003089319E21933108003C
:102722002000B4002200BC1D972B982BA72B200061
:102732003408B30033082200B70020003208220018
:10274200B900200031082200B800BC1108007E1C2C
:10275200AC2B9231E32A02302000B1000030B200EB
:102762003A0893319123933100302000B600B7002C
:10277200B80192318A229331043008007E1CC32BA7
:102782009231F42A01302000B1000030B2003A0840
:1027920093319123933100302000B600B700B80185
:1027A20092318A229331023008007E1CDA2B933157
:1027B200052B02302000B1000030B2003A089331FC
:1027C2009123933100302000B600B700B801923156
:1027D2008A229331023008007E1CF12B9331162B92
:1027E20001302000B1000030B2003A089331912349
:1027F200933100302000B600B700B80192318A222E
:102802009331043008007E1C082C9331272B0230B0
:102812002000B1000030B2003A0893319123943184
:1028220000302000B600B700B80192318A229431FC
:10283200043008007E1C1F2C9331382B01302000FD
:10284200B1000030B2003A08933191239431003044
:102852002000B600B700B80192318A2294310430C8
:1028620008007E1C362C9331492B01302000B10028
:102872000030B2003A0893319123943100302000A5
:10288200B600B700B80192318A22943102300800B2
:10289200790886008701403FF000413FF100790846
:1028A200023E8600870101089231D3229431003022
:1028B200F500F600F70192312F2294310230080020
:1028C200790886008701403FF000413FF100790816
:1028D200023E8600870101089231D32294310030F2
:1028E200F500F600F70192312F22943102300800F0
:1028F2002000B200320803197F2C802C832C220086
:102902008D14852C22008D102000310803198A2C89
:102912008B2C8E2C22000D15902C22000D110800FC
:102922002700931E952C962C992C9231A622943135
:102932002700131F9D2C9E2CA12C9231B52294317D
:102942002700931FA52CA62CA92C9231C4229431C6
:1029520008009131842194318D31F12594319131E6
:102962002B2194319031A7209431913160219431FF
:102972009131F921943192310D22943197318B2783
:102982009431080020003208B4003108B300B43694
:10299200B30CB436B30C33082C0098002000310875
:1029A2000339B3000530B335FF3E031DD42C333554
:1029B2002C00970008002000B5003508B30033084A
:1029C200B400E72C0130B3003308B50735088600A0
:1029D200013087000108031DEF2CF02CE32C340892
:1029E2003502B100B201B11BB2030800F101F10AD4
:1029F2002200BC18FD2CFE2C112D3C11FF30F000E2
:102A02007008B60090316620943190316C20943178
:102A120090316920943122003B08F0007008F100E7
:102A22007108080020004508803AC600803046023E
:102A3200031D1D2D013044020318202D212D2E2DA2
:102A420020004409C6004509C700C60A0319C70A7F
:102A52004608C4004708C5002E2D08002000B1001A
:102A620031088600013087003730C03F9930C13FBE
:102A72003108023E860001308700E130C03F153048
:102A8200C13F3108043E8600013087001D30C03F3F
:102A92001630C13F08002000B10031088600013025
:102AA20087001F30C03F9930C13F3108023E860087
:102AB20001308700C330C03F1530C13F3108043EAA
:102AC200860001308700FF30C03F1530C13F08004B
:102AD2007E1C6D2D9431492C20003A088600870116
:102AE200403FB100413FB2003A08023E86008701F2
:102AF200010893319123953100302000B600B700D0
:102B0200B80192318A229531023008007E1C8B2D49
:102B12009431612C20003A0886008701403FB100C1
:102B2200413FB2003A08023E860087010108933114
:102B32009123953100302000B600B700B8019231E0
:102B42008A229531023008002000B4003408B30014
:102B5200B30DB30D21001D0820003306833933065F
:102B620021009D001D14000021009D149D18BA2D06
:102B7200BB2DB72D1C082000B20021001B0820002D
:102B8200B100080000309531A525953120003208AA
:102B9200B8003108B7003808803AB50080303502F5
:102BA200031DD52D013037020318D82DDA2D01303F
:102BB200DB2D00302000B6003608DC005C0808007F
:102BC20001309531A525953120003208B800310831
:102BD200B7003808803AB50080303502031DF32D66
:102BE200013037020318F62DF82D0130F92D00308F
:102BF2002000B6003608DD005D08080020005C08F1
:102C02000319042E052E192E21006F0803190A2E0E
:102C12000B2E192E00309531A52595312000320852
:102C2200B8003108B7003808B6003708B5001C2EC6
:102C32002000B501B601080020005D080319222E0C
:102C4200232E372E21006E080319282E292E372E07
:102C520001309531A525963120003208B80031089F
:102C6200B7003808B6003708B5003A2E2000B50183
:102C7200B60108002000B80100309731D8279631FC
:102C8200E2302000B8009830B90088311720963120
:102C92002000B801B80A00309731D8279631E230C7
:102CA2002000B8009830B90088311720963108000A
:102CB2002000B4003408B2000430B236890B5E2E14
:102CC2003208B3003308B40034080F39B2003208B6
:102CD200B4000F08F0398F000F0834048F00310C54
:102CE200031C8F1203188F160F130F160F120800F2
:102CF2002000B700FA300032890B7C2E2000B1018F
:102D0200B10A370896315926963120003708B500A6
:102D12000330B535FF3E031D8A2E3535B600360821
:102D2200B700B101B10A3708963159269631080029
:102D32002000B201B20A2200BC18A02EA12EB72E8A
:102D42003C11FF302000B10031082200B600903162
:102D520081209631903187209631903184209631AE
:102D620022003B082000B1003108B20020003208E6
:102D720008002000C700200047088B3185239631C8
:102D8200003A0319C52EC62EBC2E20004608B200FA
:102D92004508B10044089331912396319031EA20DD
:102DA2009631963199269631013A0319D92EDA2EA7
:102DB200D22E08002000A300A401A40A2200BC18FD
:102DC200E32EE42EFB2EBC142000A40123080319D9
:102DD200EB2EEC2EF02E2200BA01BA0AF52E0230AA
:102DE200FD007D082200BA0090316F2096319231A9
:102DF2003C2296312000240808002000B700FA3057
:102E02000032890B012F2000B10137089631592673
:102E1200963120003708B5000330B535FF3E031D5B
:102E22000E2F3535B6003608B7005330890B172FF1
:102E320000002000B101370896315926963108006A
:102E42002000C200C301C30A2200BC18292F2A2F66
:102E5200412FBC142000C30142080319312F322F25
:102E6200362F2200BA01BA0A3B2F0230C1004108B4
:102E72002200BA0090318A20973192317022973124
:102E820020004308080021006D08031D492F4A2F26
:102E9200562F662F873113279731642F8531BF252F
:102EA2009731642FD801D901642F20005908003AC4
:102EB20003195C2F532F5808003A03194B2F013A7C
:102EC20003194F2F532F2100ED01080020008F011D
:102ED20021008F0120008F1705302000B800DD305F
:102EE200890B712FB80B712F003232309631FE26CA
:102EF200973128309631FE2697310C309631FE26D6
:102F0200973101309631FE26973106309631FE26F2
:102F120097310800083023009F0090309D00243034
:102F22009E0019309B009C0100302000B10000304F
:102F3200B20091317221973100302000B10000308F
:102F4200B20091317B21973100302000B100003076
:102F5200B2009131692197312000DE010800200082
:102F6200A800200028088B310B239731003A03195F
:102F7200BB2FBC2FB22F20002708F1002608F0003B
:102F820025089231D32297310030F500F600F7017F
:102F92009231562297319031E52097319431F724BE
:102FA2009731013A0319D62FD72FCF2F08002000CF
:102FB200BB00023038020318DF2FE02FFF2F103042
:102FC2003B02031CE52FE62FE72FFF2F38030319DF
:102FD200EB2FEC2FF22F80303B04B9000030BA0007
:102FE200F72FC0303B04B9000030BA0039089631DF
:102FF200FE269731FA300032890BFC2F0800A834E4
:1030020011346334123423341234A33407344D346C
:103012000C34183412349B340A34B1341134BA34B7
:103022001134C3341134CC341134D5341134DE3478
:103032001134E7341134F034113466340A346D3407
:1030420065346E3475345F3463347534723472347B
:1030520065346E3474343A34203425346434203484
:103062000A340D340034203420344434653473344B
:1030720068346134623469346C3469347434613470
:1030820064346F34203420342034203400346D34DE
:1030920065346E3475345F3469346E346434653447
:1030A20078343A3420342534643420340A340D34EC
:1030B20000342034203420342034413470346134DC
:1030C2006734613464346F34203420342034203443
:1030D20020340034203420342034483461346234C3
:1030E20069346C3469347434613464346F34203438
:1030F2002034203400342034203420342034453429
:103102006E34633465346E346434693464346F34D9
:1031120020342034203400343C3420342034203411
:1031220048346F347234613420346434653420346A
:103132002034203420343E340034203420342034EF
:103142002034533465346E3473346F3472346534DE
:1031520073342034203420343E3400343C34203460
:103162002034543465346D347034653472346134CF
:10317200743475347234613420343E3400343C3457
:10318200203420344C3475346D3469346E346F34E9
:103192007334693464346134643420343E3400342A
:1031A2003C342034543465346D3470346F347234AA
:1031B20069347A34613464346F34723420343E3486
:1031C200003420342034203420342034203420347D
:1031D200203420342034203420342034203420344D
:1031E200203400343C3420342034203452346534CA
:1031F2006734723465347334613472342034203469
:1032020020340034203420342034203441347034CB
:1032120061346734613464346F34203420342034B0
:1032220000343C3420342034203448346F34723437
:1032320061342034643465342034003454346534C9
:103242006D3470346534723461347434753472346C
:10325200653400344234693465346E34763465340E
:103262006E34693464346F34213400344C3469343C
:0E327200673468347434003425346434003416
:020000040001F9
:04000E00E43FFF3E8E
:00000001FF
