:020000040000FA
:1000000080312628053008007E1480318B1D092898
:100010000A2812280B1C0D280E2812289E31232690
:10002000803124280B1F1528162824282100911C14
:100030001A281B2824282000911C1F282028242847
:100040009B31BC23803124287E1009008031282870
:1000500022008731FC278031E5008731FD27803180
:10006000E6008731FE278031E7008731FF278031A6
:10007000E8002100E801E901EA01203084000130B4
:10008000850030309B31E0238031A0308400013086
:1000900085003B309B31E0238031203084000230EA
:1000A000850020309B31E02380317E102000833199
:1000B000392B2100CD004008D4004108D50042086A
:1000C000D6004308D7004408D8004508D9004608A0
:1000D000DA004708DB00D430860000308700473F55
:1000E000C800C81B7428762801307728003021000A
:1000F000C900CA014908D2004A08D3005208530473
:10010000031983288428A228D409D509D609D70938
:10011000D809D909DA09DB09D40A031DA228D50AAE
:10012000031DA228D60A031DA228D70A031DA22850
:10013000D80A031DA228D90A031DA228DA0A031D22
:10014000A228DB0A2200C31BA628A728AB28FD3063
:10015000C405FF30C5054308803A2100C80080303F
:100160004802031DB6280130220042020318B928B4
:10017000BA28C02801302100CE000030CF00C828A6
:10018000220043082100CF00220042082100CE00B7
:10019000220041082100D100220040082100D000A7
:1001A00052085304031DD528D628DB282200441DFD
:1001B000DA28DB28E028FF302100D007FF30D13DCE
:1001C0001F302100DC000030DD002400BF01512978
:1001D000FF302100DC07FF30DD3D0A30A500A6011D
:1001E000A701A801A901AA01AB01AC015408AD0007
:1001F0005508AE005608AF005708B0005808B100C7
:100200005908B2005A08B3005B08B4008E312326A7
:10021000803121002608B9002508B8009E31F82653
:10022000803121003808303EC8005C08203E86003E
:100230000230870048088100FF30CE07FF30CF3DF5
:10024000FF30D007FF30D13D0A30A500A601A7013D
:10025000A801A901AA01AB01AC015408AD005508E1
:10026000AE005608AF005708B0005808B100590852
:10027000B2005A08B3005B08B400843143248031D3
:1002800021002508D4002608D5002708D600280814
:10029000D7002908D8002A08D9002B08DA002C0832
:1002A000DB0021005D08803AC80080304802031D51
:1002B0005B2901305C02031C5E295F298C29210027
:1002C0005408550456045704580459045A045B044E
:1002D000031D6B296C29E8284F08803AC80080303C
:1002E0004802031D752901304E0203187829792927
:1002F000E82821005108803AC80080304802031DD8
:10030000832901305002031C862987298C29220069
:10031000C4188B298C29E828210052085304031D96
:100320009229932998292200441D97299829B529B3
:10033000FF302100DC07FF30DD3D52085304031D70
:10034000A229A329A8292B30CB000030CC00AC294E
:100350002D30CB000030CC004B08C8005C08203E9C
:100360008600023087004808810021005C08203E9A
:10037000C8004808B7005108B9005008B8004D0837
:1003800088316D20803121003808C1003708C00055
:1003900008002000BB003008C4003108C500320846
:1003A000C6003308C7003408C8003508C90036083D
:1003B000CA003708CB004430860000308700473F32
:1003C000B800B81BE429E6290130E72900302000F5
:1003D000B900BA013908C2003A08C3004208430410
:1003E0000319F329F429122AC409C509C609C70942
:1003F000C809C909CA09CB09C40A031D122AC50ABA
:10040000031D122AC60A031D122AC70A031D122A37
:10041000C80A031D122AC90A031D122ACA0A031D8B
:10042000122ACB0A2200C31B162A172A1B2AFD30C8
:10043000C405FF30C5054308803A2000B80080306D
:100440003802031D262A0130220042020318292AFD
:100450002A2A302A01302000BE000030BF00382A8E
:10046000220043082000BF00220042082000BE00F6
:10047000220041082000C100220040082000C000E6
:1004800042084304031D452A462A4B2A2200441DE4
:100490004A2A4B2A502AFF302000C007FF30C13DB6
:1004A0001F302000CC000030CD002400BF01C12A45
:1004B000FF302000CC07FF30CD3D0A30A000A10165
:1004C000A201A301A401A501A601A7014408A80057
:1004D0004508A9004608AA004708AB004808AC0038
:1004E0004908AD004A08AE004B08AF008C314E24DD
:1004F000813120002108F4002008F3009E315526A8
:1005000081317308303E2000B8004C08203E860040
:100510000230870038088100FF30BE07FF30BF3D42
:10052000FF30C007FF30C13D0A30A000A101A20189
:10053000A301A401A501A601A7014408A80045083C
:10054000A9004608AA004708AB004808AC004908C3
:10055000AD004A08AE004B08AF0085314825813117
:1005600020002008C4002108C5002208C600230876
:10057000C7002408C8002508C9002608CA002708A3
:10058000CB0020004D08803AB80080303802031DAF
:10059000CB2A01304C02031CCE2ACF2AFC2A200091
:1005A0004408450446044704480449044A044B04EB
:1005B000031DDB2ADC2A582A3F08803AB800803025
:1005C0003802031DE52A01303E020318E82AE92A11
:1005D000582A20004108803AB80080303802031DB4
:1005E000F32A01304002031CF62AF72AFC2A2200D3
:1005F000C418FB2AFC2A582A200042084304031D81
:10060000022B032B082B2200441D072B082B252B24
:10061000FF302000CC07FF30CD3D42084304031DCE
:10062000122B132B182B2B30BC000030BD001C2BC1
:100630002D30BC000030BD003C08B8004C08203E06
:100640008600023087003808810020004C08203ED8
:10065000B8003808A4004108A6004008A5003B08DF
:1006600088311420813120002508B1002408B00011
:1006700008009E31DC2683319031D1208331003057
:100680002400C2000030C3000030C400D5309F31C8
:1006900031278331CF309F314E2783310230CF3E17
:1006A000860001308700413F8A00403F0A008331C5
:1006B0002200E40064082400CA000230D53E86000F
:1006C00001308700413F8A00403F0A008331220009
:1006D000E40064082400CB00CC01CD014A082200CC
:1006E000E40064082400CC004B082200E400640805
:1006F0002400CD00C9309F31142783314C302200B3
:10070000E40064082100A500AF30973153278331FE
:100710008B170B17230032082100A6002300310895
:100720002100A5009C314F2483312300340821008F
:10073000A600230033082100A5009C3158248331F2
:10074000230036082100A600230035082100A5005B
:100750009C316124833169302100A5001030A6004E
:100760009C316A2483319B319B238331A930210042
:10077000AC009930AD009131B3218331413022007A
:10078000E400EE30890BC22BE40BC22B0000673073
:100790002200E40064082100B40068309531E825A7
:1007A0008331220065080319D62BD72B252C043062
:1007B000CF3E860001308700413F8A00403F0A005B
:1007C000833121002A082400C700210029082400C1
:1007D000C6000430D53E860001308700413F8A00C4
:1007E000403F0A00833121002A082400C90021006B
:1007F00029082400C80047082100E3002400460817
:100800002100E2000230C93E860001308700413FEE
:100810008A00403F0A008431240049082100E30097
:10082000240048082100E20023004A088A00490801
:100830000A0084310830AF3E860001308700413F16
:100840008A00403F0A008431D12B0730DF00993005
:10085000E0009D31C72583310430C93E8600013058
:100860008700413F8A00403F0A0084311030AF3E8C
:10087000860001308700413F8A00403F0A008431F2
:10088000D12B803126282100B701A5308600003009
:100890008700473FB500B51F4E2C4F2C712C21000F
:1008A000A509A609A709A809A909AA09AB09AC09BC
:1008B000A50A031D6E2CA60A031D6E2CA70A031D94
:1008C0006E2CA80A031D6E2CA90A031D6E2CAA0A01
:1008D000031D6E2CAB0A031D6E2CAC0A2100B70160
:1008E000B70AAD30860000308700473F2100B500D1
:1008F000B51F7B2C7C2CA02C2100AD09AE09AF09C3
:10090000B009B109B209B309B409AD0A031D9B2CA2
:10091000AE0A031D9B2CAF0A031D9B2CB00A031DBE
:100920009B2CB10A031D9B2CB20A031D9B2CB30AFE
:10093000031D9B2CB40A01302100B5003508B70611
:10094000B83086000030870008302100B500003044
:100950001E00B50BA82C250826042704280429040A
:100960002A042B042C040319B62CB72C132DB60122
:10097000B60AC62CA535A60DA70DA80DA90DAA0D62
:10098000AB0DAC0D0130B5003508B607AC1FC92C56
:10099000CA2CBA2CB835B90DBA0DBB0DBC0DBD0DA6
:1009A000BE0DBF0D2C083402031DF02C2B083302A2
:1009B000031DF02C2A083202031DF02C29083102F5
:1009C000031DF02C28083002031DF02C27082F02ED
:1009D000031DF02C26082E02031DF02C25082D02E5
:1009E000031CF32CF42C052D2508AD022608AE3B84
:1009F0002708AF3B2808B03B2908B13B2A08B23B87
:100A00002B08B33B2C08B43B3814AC36AB0CAA0C07
:100A1000A90CA80CA70CA60CA50C0130B602031D4E
:100A2000122D132DCA2C37080319172D182D362D0A
:100A3000B809B909BA09BB09BC09BD09BE09BF0992
:100A4000B80A031D362DB90A031D362DBA0A031D37
:100A5000362DBB0A031D362DBC0A031D362DBD0ADB
:100A6000031D362DBE0A031D362DBF0A210038088E
:100A7000A5003908A6003A08A7003B08A8003C08D2
:100A8000A9003D08AA003E08AB003F08AC000800E2
:100A9000F2012030860000308700473FF000F01F51
:100AA000522D532D742D2000A009A109A209A309DC
:100AB000A409A509A609A709A00A031D722DA10A68
:100AC000031D722DA20A031D722DA30A031D722D90
:100AD000A40A031D722DA50A031D722DA60A031D6B
:100AE000722DA70AF201F20A283086000030870032
:100AF000473FF000F01F7D2D7E2DA12D2000A8097D
:100B0000A909AA09AB09AC09AD09AE09AF09A80A40
:100B1000031D9D2DA90A031D9D2DAA0A031D9D2DB0
:100B2000AB0A031D9D2DAC0A031D9D2DAD0A031DAF
:100B30009D2DAE0A031D9D2DAF0A0130F0007008F7
:100B4000F20673308600003087000830F000003075
:100B50001E00F00BA82D20002008210422042304ED
:100B600024042504260427040319B72DB82D142EB8
:100B7000F101F10AC72DA035A10DA20DA30DA40D01
:100B8000A50DA60DA70D0130F0007008F107A71FF5
:100B9000CA2DCB2DBB2DF335F40DF50DF60DF70D4C
:100BA000F80DF90DFA0D27082F02031DF12D260867
:100BB0002E02031DF12D25082D02031DF12D240801
:100BC0002C02031DF12D23082B02031DF12D2208F9
:100BD0002A02031DF12D21082902031DF12D2008F1
:100BE0002802031CF42DF52D062E2008A80221084A
:100BF000A93B2208AA3B2308AB3B2408AC3B2508B1
:100C0000AD3B2608AE3B2708AF3B7314A736A60CB6
:100C1000A50CA40CA30CA20CA10CA00C0130F10299
:100C2000031D132E142ECB2D72080319182E192E06
:100C3000372EF309F409F509F609F709F809F90956
:100C4000FA09F30A031D372EF40A031D372EF50A9D
:100C5000031D372EF60A031D372EF70A031D372E04
:100C6000F80A031D372EF90A031D372EFA0A7308F6
:100C70002000A0007408A1007508A2007608A30057
:100C80007708A4007808A5007908A6007A08A700CC
:100C900008002200D80021005E088600013087008D
:100CA000403FE000413FE1006008840061088500AA
:100CB0001200253A031D5D2E5E2E202F5E08860051
:100CC000013087000130810741310318810A220079
:100CD000C001C101C401C501FF30C200FF30C30023
:100CE00021005E08860001308700403FE000413F60
:100CF000E10060088400610885001200643A03196D
:100D0000822E832E952E5E08860001308700403F9C
:100D1000E000413FE10060088400610885001200A6
:100D2000693A031D942E952EE62E5E08860001304A
:100D300087000130810741310318810A5F0886006E
:100D400001308700010884000130850002308107EE
:100D5000003FE000013FE10060082200D0002100D8
:100D600061082200D100890D893B8909D200D30096
:100D7000D400D500D600D70050082100C0002200C2
:100D800051082100C100220052082100C2002200A7
:100D900053082100C300220054082100C40022008F
:100DA00055082100C500220056082100C600220077
:100DB00057082100C7002200580880315920863189
:100DC00021004108DF004008DE00472F5E08860052
:100DD00001308700403FE000413FE10060088400AF
:100DE000610885001200253A031DF72EF82E142FF6
:100DF0005E08860001308700013081074131031809
:100E0000810A2530A7000030A800220058082100E0
:100E1000E0006008A90096312926863101302100C2
:100E2000DE000030DF00472F5E08860001308700BB
:100E30000130810741310318810ADE01DF01472FAC
:100E40005E08860001308700403FE000413FE1003E
:100E500060088400610885000008E200E301620880
:100E6000A7006308A800220058082100E4006408D5
:100E7000A90096312926863121005E0886000130BE
:100E800087000130810741310318810A0E2F0800C5
:100E9000E42F9F31A62787312100AC01003091312A
:100EA0008B21873175302100AC009930AD00913134
:100EB000B32187312100AC01AC0A003091318B2184
:100EC000873138302100AC009930AD009131B32129
:100ED0008731FB2F9F31A62787312100AC010030DD
:100EE00091318B2187317F302100AC009830AD00EB
:100EF0009131B32187312100AC01AC0A003091312E
:100F00008B21873138302100AC009930AD00913110
:100F1000B3218731FB2F9F31A62787312100AC01F8
:100F2000003091318B21873190302100AC00983016
:100F3000AD009131B32187312100AC01AC0A003002
:100F400091318B21873138302100AC009930AD00D0
:100F50009131B3218731FB2F9F31A62787312100A3
:100F6000AC01003091318B21873118302100AC0069
:100F70009930AD009131B32187312100AC01AC0A29
:100F8000003091318B21873138302100AC0099300D
:100F9000AD009131B3218731FB2F9F31A6278731D7
:100FA0002100AC01003091318B21873128302100A4
:100FB000AC009930AD009131B3218731FB2F013066
:100FC000E8000030E900FB2F21006908003A03190E
:100FD000EA2FDF2F6808003A0319492F013A031955
:100FE0006A2F033A03198B2F013A0319AC2F073AE2
:100FF0000319CD2FDF2F08000134013401340134EF
:1010000001300800F33020009B009A01911021006C
:1010100091140B30A5001B30A6009C316A24883146
:101020007F3020009C0008002000AC002200441CFF
:101030001A281B28242820002C08A7002708FA00BB
:1010400024089131DB2188312000A61B282829287B
:101050002E282608AB002508AA003028AA01AB01DB
:10106000A801A90144282030F2000030F30020003C
:101070002C08A7002708F400953168258831013035
:101080002000A8070030A93D2908803AA7002B08B6
:10109000803A2702031D4E282A082802031C5128E3
:1010A0005228332822004418562857286028200048
:1010B0002C08A7002708FA0024089131DB21883189
:1010C000200024089E316F26883120002A087007EE
:1010D000A4002B08713DA50008002100BF002200DC
:1010E000441C732874287D2821003F08BA003A0860
:1010F000AF0037089231042288312100B91B8128C2
:10110000822887283908BE003808BD008928BD011B
:10111000BE01BB01BC019D2820302100A70000308A
:10112000A8003F08BA003A08A9009631292688315C
:1011300001302100BB070030BC3D3C08803ABA00BA
:101140003E08803A3A02031DA7283D083B02031CD3
:10115000AA28AB288C2822004418AF28B028B92828
:1011600021003F08BA003A08AF0037089231042244
:101170008831210037089E318926883121003D08B9
:101180002507B7003E08263DB80008007E1CCA2887
:101190009731A72F9B31D4238831003A0319D128E6
:1011A000D2280529DF289C317C24883129299C31CB
:1011B0008524883129299C319724883129292200C6
:1011C0002F082100A6002608A5000630203E860034
:1011D00001308700413F8A00403F0A0088312100EA
:1011E000A700A8012808003A0319F728DB282708D8
:1011F000013A0319DB28033A0319D328013A0319EA
:10120000D728073A0319DB28DB2822003D103808CD
:101210002100A700220037082100A6002200B70AFB
:101220000319B80A2100260886002708870001084C
:101230009B31CE23883101302200B9020030BA3B05
:1012400039083A04031D2529262928290630292989
:1012500003300800210042084602D2004308473B01
:10126000D3004408483BD4004508493BD500550805
:10127000B4005408B3005308B2005208B10040084B
:10128000D6004108D7000030D71BFF30D800D90066
:101290004208D6024308D73B4408D83B4508D93B0F
:1012A0005908A8005808A7005708A6005608A50026
:1012B0004A084E02DA004B084F3BDB004C08503B1B
:1012C000DC004D08513BDD005D08AC005C08AB0064
:1012D0005B08AA005A08A90094311D248931210015
:1012E0002808B8002708B7002608B6002508B5006A
:1012F0008A318E228931210031084A07DE00320806
:101300004B3DDF0033084C3DE00034084D3DE1002B
:101310006108C3006008C2005F08C1005E08C00029
:101320000800220090018F018C018D018E010F3089
:1013300021009000FF308C00F8308D00BF308E000F
:101340008F0123008F0124308E0020308D00073064
:1013500090001F308C0024008F0190018D01E0303F
:101360008C008E0121009513250090018C018D01C8
:101370008E018F01FF3026008C00FF308D00FF3082
:101380008E00FF308F0007309000FF3027008C0068
:10139000FF308D00FF308E00FF308F000F30900047
:1013A000931213139313921612179217911211138B
:1013B000911308302100A5001B30A6009C314F245A
:1013C000893109302100A5001B30A6009C3158242A
:1013D00089310A302100A5001B30A6009C31612410
:1013E00089318B1517303C00A4001430A100103057
:1013F0003D00A3000E3098001130A4001430A60068
:1014000013303C00A0000800210062086304031DA3
:101410000A2A0B2A0F2A9C3102248A318D2A63085A
:10142000C1006208C0000030C5000030C4000030B8
:10143000C3001330C2000030C9000030C8000130C2
:10144000C7006630C6000030CD000030CC00003050
:10145000CB000030CA000030D1000030D000003096
:10146000CF003C30CE0089312A218A312100410849
:10147000E6004008E500E61B3E2A3F2A502A66089F
:10148000803AE40080306402031D482A143065026B
:1014900003184B2A4C2A502A9B31FB238A318D2A70
:1014A00021006608803AE40080306402031D5A2A55
:1014B00014306502031C5D2A5E2A702A210066082A
:1014C000803AE40080306402031D682A28306502F7
:1014D00003186B2A6C2A702A9C3111248A318D2AB8
:1014E00021006608803AE40080306402031D7A2AF5
:1014F00028306502031C7D2A7E2A8D2A2100660879
:10150000803AE40080306402031D882A3D30650281
:1015100003188B2A8C2A8D2A0B2A08002100BB0174
:10152000B41F932A942AA12AB109B209B309B409B4
:10153000B10A0319B20A0319B30A0319B40ABB01A9
:10154000BB0AB81FA42AA52AB42AB509B609B70947
:10155000B809B50A0319B60A0319B70A0319B80A74
:101560000130B9003908BB060030BF000030BE00B2
:101570000030BD000030BC003408330432043104B4
:101580000319C32AC42A052BBA01BA0AD22A013088
:10159000B135B20DB30DB40D890BC82A0130B900B5
:1015A0003908BA07B41FD52AD62AC72A0130BC3554
:1015B000BD0DBE0DBF0D890BD72A34083802031D9F
:1015C000EB2A33083702031DEB2A32083602031DCB
:1015D000EB2A31083502031CEE2AEF2AF82A3108DB
:1015E000B5023208B63B3308B73B3408B83B3C146D
:1015F0000130B436B30CB20CB10C890BF92A0130AE
:10160000BA02031D042B052BD62A3B080319092B0C
:101610000A2B152BBC09BD09BE09BF09BC0A031959
:10162000BD0A0319BE0A0319BF0A3F08B4003E08E9
:10163000B3003D08B2003C08B1000800992B9F316F
:10164000A6278B312100AC01003091318B218B31E9
:10165000B2302100AC009830AD009131B3218B3114
:10166000AD2B9F31A6278B312100AC010030913189
:101670008B218B31E5302100AC009830AD009131E9
:10168000B3218B312100AC01AC0A003091318B21A8
:101690008B314C302100AC009830AD009131B3213A
:1016A0008B31AD2B9F31A6278B312100AC0100304F
:1016B00091318B218B31A1302100AC009830AD00ED
:1016C0009131B3218B312100AC01AC0A0030913152
:1016D0008B218B316E302100AC009830AD00913100
:1016E000B3218B31AD2B9F31A6278B312100AC016B
:1016F000003091318B218B3184302100AC00993046
:10170000AD009131B3218B312100AC01AC0A003026
:1017100091318B218B3166302100AC009930AD00C6
:101720009131B3218B31AD2B0130E8000030E9005D
:10173000AD2B21006908003A03199F2B942B6808F0
:10174000003A03191F2B013A0319312B033A0319ED
:10175000522B013A0319732B942B08003C2C2200C6
:101760004D080319B42BB52BE52B9F31A6278B31E0
:101770002100AC01003091318B218B31C33021002D
:10178000AC009830AD009131B3218B312100AC0118
:10179000AC0A003091318B218B312200680803198B
:1017A000D22BD32BDC2B5D302100AC009830AD0068
:1017B0009131B3218B314D2C38302100AC00983061
:1017C000AD009131B3218B314D2C01302100E80760
:1017D0000030E93D22004C080319EF2BF02B202CA0
:1017E0009F31A6278B312100AC01003091318B2134
:1017F0008B31D4302100AC009830AD009131B32151
:101800008B312100AC01AC0A003091318B218B313E
:101810002200670803190D2C0E2C172C5D302100B7
:10182000AC009830AD009131B3218B314D2C383064
:101830002100AC009830AD009131B3218B314D2C9B
:1018400001302100E8070030E93D9F31A6278B31A8
:101850002100AC01003091318B218B3128302100E7
:10186000AC009930AD009131B3218B314D2C01305A
:10187000E8000030E9004D2C21006908003A031906
:10188000422C372C6808003A0319AF2B013A031990
:10189000EA2B033A0319252C372C0800F2012830D3
:1018A000860000308700473FF000F01F582C592C6D
:1018B0007A2C2000A809A909AA09AB09AC09AD092D
:1018C000AE09AF09A80A031D782CA90A031D782CBC
:1018D000AA0A031D782CAB0A031D782CAC0A031D41
:1018E000782CAD0A031D782CAE0A031D782CAF0AA4
:1018F000F201F20A2030860000308700473FF000F6
:10190000F01F832C842CA32C2000A009A109A2097C
:10191000A309A409A509A609A709A00A031DA32CC8
:10192000A10A031DA32CA20A031DA32CA30A031DB5
:10193000A32CA40A031DA32CA50A031DA32CA60AED
:10194000031DA32CA70A200020082104220423043D
:1019500024042504260427040319AF2CB02C032DDE
:10196000F101F10ABF2CA035A10DA20DA30DA40D0C
:10197000A50DA60DA70D0130F0007008F107A71FF7
:10198000C22CC32CB32C27082F02031DE12C2608E0
:101990002E02031DE12C25082D02031DE12C240835
:1019A0002C02031DE12C23082B02031DE12C22082D
:1019B0002A02031DE12C21082902031DE12C200825
:1019C0002802031CE42CE52CF52C2008A802210891
:1019D000A93B2208AA3B2308AB3B2408AC3B2508C3
:1019E000AD3B2608AE3B2708AF3BA736A60CA50C9F
:1019F000A40CA30CA20CA10CA00C0130F102031D3D
:101A0000022D032DC32C72080319072D082D262D36
:101A1000A809A909AA09AB09AC09AD09AE09AF0922
:101A2000A80A031D262DA90A031D262DAA0A031D97
:101A3000262DAB0A031D262DAC0A031D262DAD0A4B
:101A4000031D262DAE0A031D262DAF0A20002808EF
:101A5000A0002908A1002A08A2002B08A3002C0836
:101A6000A4002D08A5002E08A6002F08A700080036
:101A700022006508031D3D2D3E2D442DE501E50A9C
:101A80009C31C4248D31222E48034904031D492D65
:101A90004A2D532D0230210068066904031D512D83
:101AA000522D532D402D0230220048064904031DBB
:101AB0005A2D5B2D642D0430210068066904031D36
:101AC000622D632D642D402D02302200480649040A
:101AD000031D6B2D6C2DA42D0430210068066904B4
:101AE0000319732D742DA42D892D0530A30000300A
:101AF000A4009C2D0A30A3000030A4009C2D0F30C0
:101B0000A3000030A4009C2D1430A3000030A400DA
:101B10009C2D6908003A03198E2D752D6808003A2E
:101B20000319752D013A03197A2D033A03197F2DF4
:101B3000013A0319842D752D2408A1002308A00063
:101B40009E31C0268D31402D220048034904031DDB
:101B5000AA2DAB2DCD2D210068086904031DB12DE0
:101B6000B22DCD2D220068080319B72DB92D0130F3
:101B7000BA2D00302100A20022082200E800E60170
:101B8000E60A67082100A20022082000A000220027
:101B90006808943151248D31222E220048034904D3
:101BA000031DD32DD42DF62D210068036904031DD8
:101BB000DA2DDB2DF62D220067080319E02DE22D2A
:101BC0000130E32D00302100A20022082200E700AE
:101BD000E601E60A67082100A20022082000A00012
:101BE00022006808943151248D31222E22004808A9
:101BF0004904031DFC2DFD2D222E48084904031D18
:101C0000022E032E122E21006908803AA200803095
:101C10002202031D0D2E03306802031C102E112E0C
:101C2000122E222E21006808013E2200C80000303A
:101C30002100693D2200C9002100E801E9012200DC
:101C4000E601E60A08002100B701AD308600003049
:101C50008700473FB500B51F2E2E2F2E512E210095
:101C6000AD09AE09AF09B009B109B209B309B409A8
:101C7000AD0A031D4E2EAE0A031D4E2EAF0A031DE4
:101C80004E2EB00A031D4E2EB10A031D4E2EB20A6F
:101C9000031D4E2EB30A031D4E2EB40A2100B701B8
:101CA000B70AA530860000308700473F2100B50005
:101CB000B51F5B2E5C2E7B2E2100A509A609A70966
:101CC000A809A909AA09AB09AC09A50A031D7B2E1D
:101CD000A60A031D7B2EA70A031D7B2EA80A031D3F
:101CE0007B2EA90A031D7B2EAA0A031D7B2EAB0A9D
:101CF000031D7B2EAC0A2100250826042704280496
:101D000029042A042B042C040319872E882EDB2E89
:101D1000B601B60A972EA535A60DA70DA80DA90DDB
:101D2000AA0DAB0DAC0D0130B5003508B607AC1FE0
:101D30009A2E9B2E8B2E2C083402031DB92E2B08B5
:101D40003302031DB92E2A083202031DB92E2908B9
:101D50003102031DB92E28083002031DB92E2708B1
:101D60002F02031DB92E26082E02031DB92E2508A9
:101D70002D02031CBC2EBD2ECD2E2508AD0226083B
:101D8000AE3B2708AF3B2808B03B2908B13B2A08E7
:101D9000B23B2B08B33B2C08B43BAC36AB0CAA0CC3
:101DA000A90CA80CA70CA60CA50C0130B602031DAB
:101DB000DA2EDB2E9B2E37080319DF2EE02EFE2EA7
:101DC000AD09AE09AF09B009B109B209B309B40947
:101DD000AD0A031DFE2EAE0A031DFE2EAF0A031D23
:101DE000FE2EB00A031DFE2EB10A031DFE2EB20AFE
:101DF000031DFE2EB30A031DFE2EB40A21002D087A
:101E0000A5002E08A6002F08A7003008A80031085A
:101E1000A9003208AA003308AB003408AC0008005F
:101E20002000DF004E0886004F088700403FD200A8
:101E3000413FD30052088400530885001200253A20
:101E4000031D232F242FDA2F4E0886004F0887000A
:101E50000130810741310318810A2200C001C1010C
:101E6000C401C501FF30C200FF30C30020004E088E
:101E700086004F088700403FD200413FD300520800
:101E80008400530885001200643A0319482F492F33
:101E90005B2F4E0886004F088700403FD200413F2D
:101EA000D30052088400530885001200693A031DCC
:101EB0005A2F5B2FA22F4E0886004F088700013053
:101EC000810741310318810A5008860051088700B4
:101ED0000108D2000230810741310108D3000030EF
:101EE0000318810A81075208860053088700403F83
:101EF000D400413FD5005408D7005508D800890DBB
:101F0000893B8909D900DA00DB00DC00DD00DE0056
:101F10005708B0005808B1005908B2005A08B30079
:101F20005B08B4005C08B5005D08B6005E08B70049
:101F30005F088131C9218F3120003108CF0030087E
:101F4000CE00FF2F4E0886004F088700403FD2008A
:101F5000413FD30052088400530885001200253AFF
:101F6000031DB32FB42FCE2F4E0886004F088700D5
:101F70000130810741310318810A2530F200003019
:101F8000F3005F08D2005208F400953168258F31C4
:101F900001302000CE000030CF00FF2F4E08860019
:101FA0004F0887000130810741310318810ACE01B3
:101FB000CF01FF2F4E0886004F088700403FD20018
:101FC000413FD30052088400530885000008D40024
:101FD000D5015408F2005508F3005F08D6005608F2
:101FE000F400953168258F3120004E0886004F0897
:101FF00087000130810741310318810AC82F08008A
:10200000FF302100A5000030A6009E313C26903113
:10201000080000309D31F325903121002608AC00E6
:102020002508AB002C08803AA90080302902031D46
:102030001B2801302B0203181E28202801302128DC
:1020400000302100AA002A082200CE004E08080015
:102050002100AB00FA300032890B2B282100A501AA
:10206000A50A2B0891311921903121002B08A900D4
:102070000330A935FF3E031D39282935AA002A0857
:10208000AB00A501A50A2B08913119219031080058
:102090002100A601A60A2200BD184F285028662854
:1020A0003D11FF302100A50025082200B6009B311C
:1020B000272390319B312D2390319B312A2390315E
:1020C00022003C082100A5002508A60021002608C2
:1020D000080001302100A00020082200CB0747089B
:1020E000803A803C031D762846084B02031C792861
:1020F0007A288A2848302000E8009930E9009D318C
:10210000B52590319B31962390312200CB01C60139
:10211000C701E50108002100AB00FA300032890B4D
:102120008E282100A5012B08913119219031210021
:102130002B08A9000330A935FF3E031D9B28293534
:10214000AA002A08AB005330890BA4280000210004
:10215000A5012B0891311921903108002100AD0013
:10216000AE01AE0A2200BD18B628B728CE28BD148D
:102170002100AE012D080319BE28BF28C328220064
:10218000BB01BB0AC8280230AC002C082200BB00EF
:102190009B31302390319D315125903121002E0803
:1021A000080020008F0121008F0120008F170530CB
:1021B0002100AC00DD30890BDB28AC0BDB280032C2
:1021C000323090318B209031283090318B209031FB
:1021D0000C3090318B209031013090318B20903138
:1021E000063090318B20903108002100B30021008F
:1021F00033089531A7259031003A031900290129A8
:10220000F72821003008A6002F08A5003208A800F2
:102210003108A7009D31DC2590319B31A0239031FE
:10222000903148209031013A0319172918291029B3
:1022300008002100A8002808A6000430A636890B53
:102240001E292608A7002708A80028080F39A6007D
:102250002608A80020000F08F0398F000F08210081
:10226000280420008F002100250C2000031C8F1261
:1022700003188F160F130F160F12080008302300D3
:102280009F0090309D0024309E0019309B009C01DF
:1022900000302100A5000030A6009C31342491318B
:1022A00000302100A5000030A6009C313D24913172
:1022B00000302100A5000030A6009C312B24913174
:1022C0002200CF010800FD007D089431F1249131F6
:1022D000003A03196C296D2964297A08F1007908FC
:1022E000F0007C08F3007B08F2009D3197259131C6
:1022F0000030F500F600F7019D312A2591319B3120
:102300008C2391319E31A4269131013A03198929F8
:102310008A29822908002100AF0002302C0203180C
:1023200092299329B22910302F02031C9829992948
:102330009A29B2292C0303199E299F29A5298030A7
:102340002F04AD000030AE00AA29C0302F04AD002C
:102350000030AE002D0890318B209131FA300032E0
:10236000890BAF2908002100B101CA292D08AF004F
:102370002C08AE0031082E0784002F0803182F0AFE
:102380008500000890312820913101302100AE00F5
:102390002E08B1072D08AF002C08AE0031082E071B
:1023A00084002F0803182F0A85001200031DD92965
:1023B000DA29B62908002000A000A201A301F32910
:1023C0002108FB00FC017B08F2007C08F3007A087E
:1023D000FD007D08F4009531682591310130200021
:1023E000A2070030A33D22082007FB007B088600DF
:1023F000023087000108FC007C08A1002108031DB1
:10240000022A032AE02908002100B600B401B50120
:102410001C2A3308B000B1013008A7003108A80019
:102420002F08B2003208A9009631292692310130D6
:102430002100B4070030B53D34083607B00030083D
:102440008600023087000108B1003108B30033086C
:10245000031D2B2A2C2A092A080022006608031DC6
:10246000322A332A432A552A8B311E239231532A8A
:102470008B31AE239231532A873148279231532A28
:10248000C801C901532A4908003A0319482A402AB9
:102490004808003A0319342A013A0319382A033A42
:1024A00003193C2A402A2200E6010800F4007008C3
:1024B000710403195C2A5D2A702A7435203E860057
:1024C000013087007008C03F7108C13F7208F300F7
:1024D00074082C3E860001308700730881007F2A33
:1024E0007435203E860001308700C230C03F1B306B
:1024F000C13F74082C3E860001308700810108002E
:102500009B310C23923122003D1C872A882A952A70
:102510009B31AA239231003A03198F2A902A952AD7
:102520000F30F30073082200BB0022003B08F300C9
:10253000F401F335F40D0030730784009830743DD6
:102540008500013F8A00003F0A009231F5007508BE
:102550002200BB0008002100A90025082604031959
:10256000B22AB32AC62A2935203E860001308700C8
:102570002508C03F2608C13F2708A80029082C3E8F
:1025800086000130870028088100D52A2935203EA1
:10259000860001308700C230C03F1B30C13F290890
:1025A0002C3E860001308700810108002100B30025
:1025B000210033089531A7259231003A0319E12A09
:1025C000E22AD82A21003008A6002F08A5003208E8
:1025D000A8003108A7009D31DC2592310030210090
:1025E000AA00AB00AC019D316B2592319B31A52334
:1025F0009231903148209231013A0319002B012B7E
:10260000F92A080022003D100230F0007008BC00DA
:10261000112B9B316E2393312E2B9B3173239331DE
:102620002E2B2E08F0007008F0000430203E8600AB
:1026300001308700413F8A00403F0A009331F1009A
:10264000F2017208003A0319262B0D2B7108023A89
:102650000319092B013A0319092B0D2B08009B3193
:102660002723933122003D1C362B372B452B9B31E2
:10267000D4239331003A03193E2B3F2B452B0F30C7
:102680002100A90029082200BB0022003B082100EC
:10269000A900AA01A935AA0D0030290784009830A5
:1026A0002A3D8500013F8A00003F0A009331210046
:1026B000AB002B082200BB0008002200BD156D2BCB
:1026C0009B316E2393318B2B9B3124239331033029
:1026D0008B2B9B31732393318B2B2C08F0007008CC
:1026E000F00021088A0020080A009331F100F2016D
:1026F0007208003A03197D2B692B7108013A0319FE
:10270000692B033A0319602B013A0319602B073A2E
:102710000319642B692B08002200DC005A08DE0034
:102720005908DD00BE01BF01AD2B5D302100E50081
:102730006508DE0022005B082100E6006608DF0075
:1027400022005C0886314926933121005E08220070
:10275000BE0721005F082200BF3D5D0884005E08BF
:1027600085001200031DB52BB62B952B3F08DA0010
:102770003E08D9000800220048034904031DC12B6C
:10278000C22BD02B0230210068066904031DC92B1F
:10279000CA2BD02B22004C080319CF2BD02BD62BC1
:1027A000FF302100E807FF30E93DE12B4D08031918
:1027B000DA2BDB2BE12BFE302100E807FF30E93D6F
:1027C000E12B2100E91FE52BE62BE82BE801E901CD
:1027D0002200E601E60A08002000E5006108E700A3
:1027E0006008E6002200BE01BF010A2C6630CE0060
:1027F0000030CF006308D1006208D00065088F3137
:102800001027933120004E082200BE0720004F08F9
:102810002200BF3D20006608840067088500120082
:10282000031D132C142CF62B22003F082000E1007E
:1028300022003E082000E000080000302100B00027
:102840000030AF000030AE000030AD00251C292C58
:102850002A2C322C2908AD072A08AE3D2B08AF3DA3
:102860002C08B03D0130A935AA0DAB0DAC0D890B7C
:10287000332C0130A836A70CA60CA50C890B3A2CDA
:102880002808270426042504031D472C482C262C41
:102890003008A8002F08A7002E08A6002D08A500C4
:1028A00008002000A200230023082000A600230027
:1028B00022082000A500230021082000A4002300F6
:1028C00020082000A30022080319672C682C6A2C1A
:1028D000A501A50A200803196E2C6F2C712CA601E6
:1028E000A60A2330F9000030FA000430FB00003063
:1028F000FC00503091316321943107302000A10059
:102900007D30890B812CA10B812C08007E1C8A2C28
:102910009331022B22003D1002302100A500250832
:102920002200BC009B2C9C318E249431BA2C9C310B
:1029300097249431BA2C2E082100A5002508A50063
:102940000430203E860001308700413F8A00403F2E
:102950000A0094312100A600A7012708003A0319B4
:10296000B22C972C2608023A0319932C013A03192A
:10297000932C972C08007E1CBF2C93315D2B2200DA
:10298000BD15CF2C9C318E249431F02C9B313F23EC
:1029900094310330F02C9C3197249431F02C2C0886
:1029A0002100A5002508A500220021088A00200892
:1029B0000A0094312100A600A7012708003A031954
:1029C000E22CCB2C2608013A0319CB2C033A03192D
:1029D000C22C013A0319C22C073A0319C62CCB2C7E
:1029E0000800F100F201F20A22003D19F82CF92C3E
:1029F000292D7108F0007008B600BD103D153D107E
:102A00000E30F0007008BB00F430B4000130B500A7
:102A1000BD15C230A0001B30A100AC01C230A20025
:102A20001B30A300AD01C230A4001B30A500AE01D5
:102A3000C230A6001B30A700AF01C830A8001B3071
:102A4000A900B0019B310C2394319D311D25943197
:102A5000F2017208080001302100E8070030E93D6A
:102A6000220048084904031D362D372D4A2D210028
:102A70006908803AF00080307002031D412D053056
:102A80006802031C442D452D4A2D04302100E80026
:102A90000030E900220048034904031D502D512D48
:102AA000642D21006908803AF00080307002031D17
:102AB0005B2D03306802031C5E2D5F2D642D0230F8
:102AC0002100E8000030E9002200E601E60A0800E3
:102AD000740803196C2D6D2D722D7408031D712D52
:102AE000722D772D72089B31B6239531A62D74086F
:102AF000033E86008701160001040319802D812DF5
:102B00009E2D7408033E86008701403FF500413F3B
:102B1000F600740A86008701403FF700413FF80045
:102B20007808803AF9007608803A7902031D9A2DD8
:102B30007508770203189D2D9E2DA62D740A860018
:102B400087010130810741310318810A0800210003
:102B5000A600A701A70A22003D19AF2DB02DE52D33
:102B600021002608A50025082200B600BD103D154D
:102B70003D100E302100A50025082200BB00F430D6
:102B8000B4000130B500BD15C230A0001B30A1005B
:102B9000AC01C230A2001B30A300AD01C230A400C2
:102BA0001B30A500AE01C230A6001B30A700AF014C
:102BB000C830A8001B30A900B0019B3127239531F4
:102BC0009D315E2595312100A701210027080800CD
:102BD0002100B900B501B601B530AF000030B0003A
:102BE0000230B1000030B20050309231D62295311F
:102BF000B7302100AF000030B0000230B10000302B
:102C0000B20050309031F520953121003708031D76
:102C10000A2E0B2E112E3908860001308700810103
:102C2000172E39088600013087008101810A380893
:102C3000031D1B2E1C2E222E340886000130870017
:102C40008101282E34088600013087008101810A25
:102C500008002100290803192E2E2F2E342E2908B2
:102C6000031D332E342E392E27089B31F423963141
:102C7000692E2908033E8600870116000104031906
:102C8000422E432E602E2908033E86008701403FD6
:102C9000AA00413FAB00290A86008701403FAC00F3
:102CA000413FAD002D08803AAE002B08803A2E023D
:102CB000031D5C2E2A082C0203185F2E602E692E3D
:102CC0002100290A8600870101308107413103185C
:102CD000810A08009B3121239631F0002200370839
:102CE000860038088700700881000130B70700307F
:102CF000B83D0130B9020030BA3B39083A04031933
:102D0000822E832E882E9B31462396310530B02E9D
:102D1000BD15922E9B3182239631B02E9B317D239F
:102D20009631B02E2C08F0007008F00021088A00BF
:102D300020080A009631F100F2017208003A0319E6
:102D4000A22E8E2E7108013A03198E2E033A031912
:102D50008A2E013A03198A2E073A03198E2E8E2ED7
:102D600008007E1CB52E96316A2E9B313C2396318D
:102D70002100A500220037088600380887002100BE
:102D80002508810001302200B7070030B83D01302E
:102D9000B9020030BA3B39083A040319D02ED12EBB
:102DA000D62E9B31522396310530012FBD15E02ED2
:102DB0009C31B2249631012F9C31A9249631012FE8
:102DC0002C082100A5002508A500220021088A0062
:102DD00020080A0096312100A600A7012708003A22
:102DE0000319F32EDC2E2608013A0319DC2E033AD0
:102DF0000319D82E013A0319D82E073A0319DC2EED
:102E0000DC2E0800210062086304031D082F092F2F
:102E1000102F0030A500A6009E313C269731522F7E
:102E20006308C1006208C0000030C5000030C40063
:102E30000030C3000A30C2000030C9000030C800B2
:102E40000330C700E830C6000030CD000030CC00B1
:102E50000030CB000030CA000030D1000030D0007C
:102E60000030CF00FF30CE0089312A219731210078
:102E70004108E6004008E500FF30E4006508640210
:102E80002300A900210066090318890A2300AA006B
:102E90002A082100A600230029082100A5009E3150
:102EA0003C26973108002100A7002708023E860033
:102EB000013087002B30C03F1530C13F2708043E4A
:102EC000860001308700BB30C03F1330C13F270868
:102ED000063E8600013087003830C03F0D30C13FCC
:102EE0002708083E8600013087002D30C03F123091
:102EF000C13F27080A3E8600013087001E30C03FD0
:102F00000B30C13F27080E3E860001308700AE30EF
:102F1000C03F0B30C13F2708103E860001308700BC
:102F20005630C03F1B30C13F250886000230870065
:102F30000108A60026082200CD00210025088600F1
:102F4000023087000230413F2200CC0008009B3154
:102F5000AA239731003A0319AE2FAF2FE02FBC2FD1
:102F60009B3164239731FF2F9B3169239731FF2FCA
:102F70009B3173239731FF2F22002F08F000700838
:102F8000F0000630203E860001308700413F8A0075
:102F9000403F0A009731F100F2017208003A03192C
:102FA000D22FB82F7108013A0319B82F033A031929
:102FB000B02F013A0319B42F073A0319B82FB82FCD
:102FC00022003D103808F1003708F000B70A031955
:102FD000B80A700886007108870001089B315A23DF
:102FE000973101302200B9020030BA3B39083A0467
:102FF000031DFB2FFC2FFE2F0630FF2F0330080090
:1030000073341C3444341D34F8341C34C63408344E
:10301000B1341634ED341C34BB3414347C341C34D9
:1030200085341C348E341C3497341C34A0341C3446
:10303000A9341C34B2341C34BB341C3486341434EC
:10304000413470346134673461346E3464346F34C5
:10305000203465346E3420342534643420347334A1
:103060006534673475346E3464346F3473340034CB
:103070002034203444346534733468346134623429
:1030800069346C3469347434613464346F3420349A
:10309000203420342034003420342034203464346C
:1030A00065342034413470346134673461346434BD
:1030B0006F34203420342034003420342034203441
:1030C00048346134623469346C3469347434613442
:1030D00064346F34203420342034003420342034DD
:1030E0002034203445346E34633465346E346434B3
:1030F000693464346F3420342034203400343C3458
:1031000020342034203420342034203431343034FE
:103110002034203420342034203420343E34003411
:103120003C342034203420342034203420343134D2
:1031300035342034203420342034203420343E34BC
:1031400000343C3420342034203448346F3472341A
:103150006134203464346534203420342034203405
:103160003E34003420342034203420345334653449
:103170006E3473346F3472346534733420342034D5
:1031800020343E3400343C3420342034543465340C
:103190006D3470346534723461347434753472341F
:1031A000613420343E3400343C34203420344C34F8
:1031B00075346D3469346E346F3473346934643407
:1031C0006134643420343E3400343C34203454348C
:1031D00065346D3470346F34723469347A346134E8
:1031E00064346F34723420343E340034203420345C
:1031F000203420342034203420342034203420342F
:10320000203420342034203420342034003450340E
:103210004934433420346134703461346734613468
:1032200064346F342E342E342E340D340A3400348A
:103230003C342034203420342034203420343234C0
:1032400030342034203420342034203420340034EE
:103250003C342034203420345234653467347234A2
:1032600065347334613472342034203420340034B3
:10327000203420342034203420346D3469346E34CA
:10328000753474346F347334203420342034003473
:10329000413470346134673461346E3464346F3473
:1032A0002E342E342E3420340D340A340034443479
:1032B00065347334703465347234743461346E340C
:1032C00064346F342E342E342E34003420342034C1
:1032D00020342034413470346134673461346434D0
:1032E0006F3420342034203400342034203420340F
:1032F0002034203420343534203420342034203419
:10330000203420343E3400343C3420342034203403
:1033100048346F347234613420346434653420347A
:103320000034413470346134673461346E34643451
:103330006F342E342E342E340034543465346D34CE
:103340007034653472346134743475347234653475
:1033500000344234693465346E34763465346E3406
:10336000693464346F34213400344C346934673444
:06337000683474340034DF
:10361000080008000800080020009111080024009C
:1036200095120800210091110800240016140800CA
:10363000240096140800240016150800240096158E
:10364000080024001108080020009115080020003F
:103650009111080024009512080021009111080022
:1036600024001614080024009614080024001615DF
:103670000800240096150800240011080800200006
:1036800091150800240096161616080024009612BC
:103690001616080016302100970008002400961620
:1036A0001616080024009612161608009F31A62749
:1036B0009B310800F00070082400910008002200EF
:1036C000BD10BC010E3008009B3118239B31013026
:1036D00008009B3118239B31023008009B311823CE
:1036E0009B31013008009B311B239B3100300800C7
:1036F0009B3146239B31053008009B3142239B318F
:103700000A3008009B3142239B3109300800220017
:10371000BD10BC010E30080000309F3188279B315E
:103720000800200091102100911408002000911041
:103730002100911008002000911021009110080034
:1037400001309031AE209B31080000309031AE2026
:103750009B3108002400160E890C890C01390800E1
:103760002000911DB42BB52BB02B0800F10071087F
:103770009C31CE249B310800200091109D313725CB
:103780009B3108007E1CC62B8831002801300800C0
:103790007E1CCC2B80310228053008002100A500BA
:1037A00025082400910008002400160E890C890CBD
:1037B000013908002000911DDE2BDF2BDA2B0800D9
:1037C000640080010131890BE12B003422003D109F
:1037D0009B311E239B310430080058302100990092
:1037E00098012200960108002100A60026089D31BC
:1037F00004259B3108002100A50101309E310B26D4
:103800009B3108002100A50100309E310B269C3120
:10381000080022003D1436359B315A239C31033079
:1038200008002100A501A50A00309E310B269C311D
:10383000080022003D140314360D9B315A239C319D
:1038400005300800863021009E009F019B019C01ED
:1038500001309D000800210026082300DE00210021
:1038600025082300DD000800210026082300E200CF
:10387000210025082300E10008002100260823007C
:10388000E000210025082300DF0008002400940147
:10389000083095009601F930920095120800210039
:1038A00026082300E800210025082300E70008007F
:1038B000210026082300E600210025082300E5005A
:1038C0000800210026082300E40021002508230029
:1038D000E3000800210026082300DC002100250861
:1038E0002300DB0008007E1C772C9B315F2B22001D
:1038F000BD10BC010E3008007E1C802C9B31642B57
:103900009B3133239C31013008007E1C892C9B3174
:10391000692B9B3133239C31023008007E1C922C92
:103920009B316E2B9B3133239C31013008007E1C70
:103930009B2C9B31732B9B3136239C31003008002C
:103940007E1CA42C9B31782B9B3152239C3105305B
:1039500008007E1CAD2C9B317D2B9B314E239C316E
:103960000A3008007E1CB62C9B31822B9B314E23E3
:103970009C31093008007E1CBF2C9B31872B220014
:10398000BD10BC010E3008002200C801C901210091
:10399000E801E9012200E601E60A0800F000200043
:1039A000111ED32CD42CCF2C700823009A000800B1
:1039B0004030280096009501200092100730280022
:1039C0009700080080302C0099009801970125008D
:1039D0001E08CF3910389E0008007E1CF12C9B3148
:1039E000E62B22003D109B3139239C310430080026
:1039F0007E1CFC2C9C31092C22003D1436359B3159
:103A0000CE239C31033008002100A5002000111EA8
:103A10000A2D0B2D062D2100250823009A000800F1
:103A2000172D9B31B0239D31923180229D31220090
:103A3000BD181B2D1C2D112D08002400951A212DB9
:103A4000222D292D9401083095009601F93092001D
:103A5000951608007608F1007508F0007708F80060
:103A60007808F2000230923156229D31080023007E
:103A70005B085C0403193D2D3E2D432D5C088A0034
:103A80005B080A009D3108007E1C482D9C31192CD2
:103A900022003D140314360D9B31CE239D31053099
:103AA0000800582D9B31DA239D3193312F239D310E
:103AB0002200BD185C2D5D2D522D08002400951AA2
:103AC000622D632D6A2D9401083095009601F9301E
:103AD00092009516080021002B08A6002A08A500D0
:103AE0002C08AD002D08A70002309231AB229D3189
:103AF000080023006708680403197F2D802D852D99
:103B000068088A0067080A009D31270093120800A0
:103B100023006508660403198E2D8F2D942D6608E9
:103B20008A0065080A009D3127001313080022004F
:103B3000BD1D9B2D9C2DA52D7108B8007008B700E8
:103B40007308BA007208B900BD11080023006308A9
:103B500064040319AC2DAD2DB22D64088A006308EE
:103B60000A009D312700931308006A302000EE0000
:103B70000030EF006908E1006808E0006E30E20004
:103B80000030E30000309331EC239D3108006130B8
:103B90002100E70067082200E3006008DA005F0800
:103BA000D90063302100E70067082200DB00003005
:103BB00093318C239D3108002200BD1DE02DE12DA5
:103BC000F22D210026082200B8002100250822003D
:103BD000B700210028082200BA002100270822008F
:103BE000B900BD1108002100A8002808A700A70DF2
:103BF000A70D1D082706833927069D001D14000008
:103C000021009D149D18052E062E022E1C08A600CC
:103C10001B08A50008002100A60026080319112E84
:103C2000122E152E22008D14172E22008D10210029
:103C3000250803191C2E1D2E202E22000D15222EC4
:103C400022000D1108002700931E272E282E2B2E50
:103C50009D3179259E312700131F2F2E302E332EB4
:103C60009D3188259E312700931F372E382E3B2EFD
:103C70009D31A6259E31080021002608A8002508B0
:103C8000A700A836A70CA836A70C27082C00980078
:103C9000210025080339A7000530A735FF3E031D85
:103CA0004D2E27352C00970008007408803AF50047
:103CB00080307502031D5E2E013073020318612EE1
:103CC000622E6E2E7309F5007409F600F50A0319C9
:103CD000F60A7508F3007608F4006E2E0800F4006A
:103CE0007408F2007208F300792E0130F2007208B5
:103CF000F40774088600023087000108031D812E36
:103D0000822E752E73087402F000F101F01BF1038E
:103D100008002100A9002908A7002708A800942E60
:103D20000130A7002708A90729088600023087006C
:103D30000108031D9C2E9D2E902E28082902A50007
:103D4000A601A51BA6030800F101F10A2200BD1877
:103D5000AA2EAB2EBE2E3D11FF30F0007008B6002B
:103D60009B310C239E319B3112239E319B310F23BB
:103D70009E3122003C08F0007008F1007108080034
:103D8000210021082200C700210020082200C600CF
:103D90009B3191239E3120302000E8009830E900CB
:103DA000220047082000EB00220046082000EA001D
:103DB0009D31B5259E3108009C3146249E318931C4
:103DC00091219E319B31ED239E319B314A239E31BF
:103DD0009C3122249E319C31D8249E319C31E22496
:103DE0009E31883102209E3191313E219E31080062
:103DF00021003908803ABA0080303A02031D022FB0
:103E0000013038020318052F062F132F210038091F
:103E1000BA003909BB00BA0A0319BB0A3A08B8004C
:103E20003B08B900132F08002100A50025088600D3
:103E3000013087000230C03F1730C13F2508023EE5
:103E40008600013087000430C03F0A30C13F25089A
:103E5000043E8600013087000030C03F1030C13F73
:103E600008002100A5002508860001308700B53034
:103E7000C03F9930C13F2508023E860001308700CF
:103E8000C430C03F1F30C13F2508043E86000130CA
:103E90008700E230C03F1F30C13F08002100A5006D
:103EA00025088600013087009D30C03F9930C13F12
:103EB0002508023E8600013087000930C03F1030DF
:103EC000C13F2508043E8600013087006B30C03FAB
:103ED0001F30C13F080022004E080319702F712FB8
:103EE000842F68080319752F762F842F00309D3199
:103EF000F3259F3121002608AC002508AB002C08D3
:103F0000AA002B08A900872F2100A901AA010800F7
:103F1000F700F801F80A2200BD188F2F902FA42F68
:103F2000BD14F80177080319962F972F9A2FBB011C
:103F3000BB0A9E2F0230F6007608BB009B3115238A
:103F40009F319D3110259F31780808002100AC0178
:103F5000003091318B219F31F6302100AC00983038
:103F6000AD009131B3219F312100AC01AC0A00308A
:103F700091318B219F31F6302100AC009830AD009B
:103F80009131B3219F31080001309D31F3259F31DC
:103F900021002608AC002508AB002C08803AA900B7
:103FA00080302902031DD62F01302B020318D92F90
:103FB000DB2F0130DC2F00302100AA002A08EA00A4
:103FC0006A08080021006A080319E72FE82FFC2F70
:103FD000220067080319ED2FEE2FFC2F01309D31D1
:103FE000F3259F3121002608AC002508AB002C08E2
:103FF000AA002B08A900FF2F2100A901AA0108008F
:020000040001F9
:04000E00E43FFF3E8E
:00000001FF
